:020000041008E2
:4000000000780408EB0208100D0000005103081051030810510308105103081000000000000000000000000000000000C15C08104D03081000000000B15E0810195F081026
:400040004D0308104D0308104D0308104D0308104D0308104D0308104D0308104D0308104D0308104D0308104D0308104D0308104D0308104D0308104D0308104D03081000
:400080004D0308104D0308104D0308104D0308104D0308104D0308104D0308104D0308104D0308104D0308104D0308104D0308104D0308104D0308104D0308104D030810C0
:4000C0004D0308104D0308104D0308104D0308104D0308104D0308104D0308104D0308104D0308104D0308104D0308104D0308104D0308104D0308104D0308104D03081080
:400100004D0308104D0308104D0308104D0308104D0308104D0308104D0308104D0308104D0308104D0308104D0308104D0308104D0308104D0308104D0308104D0308103F
:400140004D0308104D0308104D0308104D0308104D0308104D0308104D0308104D0308104D0308104D0308104D0308104D0308104D0308104D0308104D0308104D030810FF
:400180004D0308104D0308104D0308104D0308104D0308104D0308104D0308104D0308104D0308104D0308104D0308104D0308104D0308104D0308104D0308104D030810BF
:4001C0004D0308104D0308104D0308104D0308104D0308104D0308104D0308104D0308104D0308104D0308104D0308104D0308104D0308104D0308104D0308104D0308107F
:400200004D0308104D0308104D0308104D0308104D0308104D0308104D0308104D0308104D0308104D0308104D0308104D0308104D0308104D0308104D0308104D0308103E
:400240004D0308104D0308104D0308104D0308104D0308104D0308104D0308104D0308104D0308104D0308104D0308104D0308104D0308104D0308104D0308104D030810FE
:400280004D0308104D0308104D03081010B5054C237833B9044B13B10448AFF300800123237010BDAC4C020800000000307B0810084B10B51BB108490848AFF300800848A8
:4002C000036803B910BD074B002BFBD0BDE81040184700BF00000000B04C0208307B08108C430208000000007047FFF7FDFF72B6104C114DAC4209DA21686268A368043B14
:40030000A2BFC858D050FAE70C34F3E70B490C4A00209142BCBF41F8040BFAE709480A490860BFF34F8F00F03BFA00F091F800F02BF8FEE7347B08104C7B0810AC4C020806
:40034000307A02080040020808ED00E0FEE7FEE700B504207146084202D0EFF3098001E0EFF30880043002F003F8FEE780B483B000AF786039607B683A689A6000BF0C3770
:40038000BD465DF8047B704780B582B002AF62B606F064F9214806F009FA00F0C5FB204A0021204803F000FD01211E48FFF7DEFF00F0F6FB00F050FC00F0AAFC00F004FD38
:4003C00000F074FE0023019300230093164B64221649174804F0FAFA0023019300230093144B64221449124804F0F0FA0023019300230093114B642211490D4804F0E6FAE8
:4004000000230193052300930E4B64220E490F4804F0DCFA04F092FCFEE700BF6870081060780810000038408C420208747008103D0808109842020880700810A442020868
:400440008C700810B042020898700810390B081080B500AF0D4802F043F800F01FF800F025F800220021042001F0D2F9084801F063FC084B1B6893F85130002B02D0064886
:4004800001F06EFC00F0CCFF00BF80BD04740810C84C020840790208A870081080B400AF00BFBD465DF8047B704700BF80B491B000AFAE4BD3F8803303F00F037B63AB4A27
:4004C0007B6BD03352F8233003F007033B633B6B042B36D801A252F823F000BFF1040810F7040810FD04081043050810030508109F4BFB6328E09F4BFB6325E09D4BFB639D
:4005000022E09A4A7B6BC03352F8233003F01F03FB62FB6A112B07D0132B09D0102B0BD14FF4FA43FB630BE04FF40043FB6307E04FF40043FB6303E04FF4FA43FB6300BF4F
:4005400002E08C4BFB6300BF7B6B002B60D1874BD3F8903503F00103002B14BF0123002387F82B30814BD3F8883503F040531B0F032B0CBF0123002387F82A307B4BD3F83D
:40058000883503F040531B0F002B07D0774BD3F8883503F040531B0F012B01D1012300E0002387F8293097F8293003F0010387F8293097F82930002B03D097F82B30002B23
:4005C00003D197F82A30002B1FD0684BD3F88035C3F311037B62654BD3F88435C3F30C033B62624BD3F8803503F080731B0E0133FB61FA6B3B6AB2FBF3F37A6A02FB03F275
:40060000FB69B2FBF3F3BB6360E0FB6BBB635DE07B6B012B58D1554BD3F8403603F00103002B14BF01230023FB76504BD3F8003603F040531B0F032B0CBF01230023BB761E
:400640004A4BD3F8003603F040531B0F002B07D0464BD3F8003603F040531B0F012B01D1012300E000237B767B7E03F001037B767B7E002B02D0FB7E002B02D1BB7E002B28
:400680001FD03A4BD3F8003603F07F037B61374BD3F8003603F4F8531B0A3B61334BD3F8003603F4F8131B0CFB60FB6B7A6902FB03F23B69B2FBF3F2FB68B2FBF3F3BB6366
:4006C00004E0FB6BBB6301E0FB6BBB63274BD3F8803303F030031B09BA6B22FA03F3BB63254ABB6B1360254BD3F8903003F47F431B0A0133BB60214B1B6903F07F431B0EA0
:4007000001337B60BA6B7B68B2FBF3F31C4A1360BA6BBB68B2FBF3F3BB631A4ABB6B1360184B1B68184A1360174B1B6803F5742303F23F23154AA2FB03239B0CDAB2144B06
:400740001A70114B1B6803F2E733124AA2FB03239B09114A1360104B1B68DB030F4A136000BF4437BD465DF8047B70470000264000127A0000366E010443020800002140D7
:4007800008430208004302080C43020883DE1B4314430208D34D6210104302081843020880B582B000AF01F080FE7860094A094BD3F8883043F47003C2F88830BFF34F8F97
:4007C000BFF36F8F786801F074FE00BF0837BD4680BD00BF00ED00E080B500AF012001F039FC00BF80BD00BF80B584B000AFF860B9607A60BB68072B04D940F227310E48E1
:4008000001F0A2FD7B68012B04D94FF44A710A4801F09AFD7B68002B05D10122BB689A40FB685A6004E00122BB689A40FB689A6000BF1037BD4680BDDC70081080B586B0CD
:4008400000AF78607B683B613B699B68FB600023FB8204F069FB0346BB6007F10803F968184604F0F1F9FB8A83F00103FB823B6918683B695B68B7F916201946FFF7B4FF82
:40088000EBE700BF80B483B000AF0346FB80B7F90630002B0BDB0949B7F906305B09FA8802F01F02012000FA02F241F8232000BF0C37BD465DF8047B704700BF00E100E00A
:4008C00080B483B000AF78607B681B6843F000427B681A6000BF0C37BD465DF8047B704780B483B000AF786039603A687B685A6000BF0C37BD465DF8047B704780B483B085
:4009000000AF786039603A687B689A6000BF0C37BD465DF8047B704780B582B000AF786039601B4B1B6893F833301A463B689A4204D840F2FA51174801F006FD144B1B68BD
:40094000B3F85A301A467B681A44114B1B68B3F85C3019463B6803FB01F3134419460C4B1B68B3F85A301A467B681A44084B1B68B3F85C3018463B6803FB00F313441B6858
:4009800043F000430B6000BF0837BD4680BD00BF407902081C71081080B582B000AF786039601A4B1B6893F833301A463B689A4204D840F2B361164801F0C6FC134B1B68A1
:4009C000B3F85A301A467B681A44104B1B68B3F85C3019463B6803FB01F313441A46012313610A4B1B68B3F85A301A467B681A44064B1B68B3F85C3019463B6803FB01F31C
:400A000013441B6900BF0837BD4680BD407902081C71081080B584B000AFF860B9607A60164B1B6893F833301A46BB689A4204D840F20371124801F087FC7B6823F0010357
:400A4000002B04D040F204710D4801F07DFC0B4B1B68B3F85A301A46FB681A44074B1B68B3F85C301946BB6803FB01F313441A467B68936100BF1037BD4680BD40790208CB
:400A80001C71081080B584B000AFF860B9607A60BB68072B04D940F227310E4801F054FC7B68012B04D94FF44A710A4801F04CFC7B68002B05D10122BB689A40FB685A6045
:400AC00004E00122BB689A40FB689A6000BF1037BD4680BD5871081080B582B000AF78600D4B1A680D4913469B0013449B000B4404331A687B689A4204D84FF4767108484D
:400B000001F022FC7968074801F0E6FE034618460837BD4680BD00BF3C7802080C7808109871081000001D4180B500AF05F0ACFC05F0E2FC00BF80BD80B58AB000AF78609D
:400B40007B687B627B6A9B683B62144BFB610023BB617B6A1B687B617B6A5B683B617B6A1B7BFB7304F0E0F90346BB6007F10803396A184604F068F8012239697869FFF7A0
:400B800081FFFB7B43F00403DBB2184605F090FD002239697869FFF775FFE7E700004C4280B586B000AF2049204802F083FE78617B69002B01D000F063F91C4B7B60002365
:400BC0003B720323FB6000233B743B1D1A460121174803F071F878617B69002B01D000F04FF914491148FFF77BFE13490F48FFF785FE1249124801F01FFB114BB3F9003026
:400C00001846FFF73FFE012201210948FFF702FF01210748FFF780FE0548FFF751FE00BF1837BD4680BD00BFE8780810447802080000284080011D41F8780208450C0810AA
:400C40001872081080B500AF01210248FFF7A4FE00BF80BD0000284080B586B000AF2049204802F027FE78617B69002B01D000F007F91C4B7B6000233B720323FB60002325
:400C80003B743B1D1A460421174803F015F878617B69002B01D000F0F3F814491148FFF71FFE13490F48FFF729FE1249124801F0C3FA114BB3F900301846FFF7E3FD01222A
:400CC00004210948FFF7A6FE04210748FFF724FE0548FFF7F5FD00BF1837BD4680BD00BF54790810607802080000284080011D4120790208FD0C08103072081080B500AFA6
:400D000004210248FFF748FE00BF80BD0000284080B586B000AF2049204802F0CBFD78617B69002B01D000F0ABF81C4B7B6000233B720323FB6000233B743B1D1A46032172
:400D4000174802F0B9FF78617B69002B01D000F097F814491148FFF7C3FD13490F48FFF7CDFD1249124801F067FA114BB3F900301846FFF787FD012203210948FFF74AFE66
:400D800003210748FFF7C8FD0548FFF799FD00BF1837BD4680BD00BFC07908107C7802080000284080011D4110790208B50D08102872081080B500AF03210248FFF7ECFD39
:400DC00000BF80BD0000284080B586B000AF2049204802F06FFD78617B69002B01D000F04FF81C4B7B6000233B720323FB6000233B743B1D1A460221174802F05DFF786190
:400E00007B69002B01D000F03BF814491148FFF767FD13490F48FFF771FD1249124801F00BFA114BB3F900301846FFF72BFD012202210948FFF7EEFD02210748FFF76CFDE0
:400E40000548FFF73DFD00BF1837BD4680BD00BF2C7A0810987802080000284080011D41307902086D0E08102072081080B500AF02210248FFF790FD00BF80BD00002840A1
:400E800080B400AF72B6FEE780B500AF054B01221A700020FFF720FE03461A46024B1A8000BF80BD4A4E0208484E020880B483B000AF0346FB80B7F90630002B0BDB09493C
:400EC000B7F906305B09FA8802F01F02012000FA02F241F8232000BF0C37BD465DF8047B704700BF00E100E080B483B000AF78607B681B6843F000427B681A6000BF0C3750
:400F0000BD465DF8047B704780B483B000AF786039603A687B685A6000BF0C37BD465DF8047B704780B483B000AF786039603A687B689A6000BF0C37BD465DF8047B704737
:400F400080B582B000AF786039601B4B1B6893F833301A463B689A4204D840F2FA51174801F0F2F9144B1B68B3F85A301A467B681A44114B1B68B3F85C3019463B6803FBD2
:400F800001F3134419460C4B1B68B3F85A301A467B681A44084B1B68B3F85C3018463B6803FB00F313441B6843F000430B6000BF0837BD4680BD00BF40790208B87108101C
:400FC00080B582B000AF786039601A4B1B6893F833301A463B689A4204D840F2B361164801F0B2F9134B1B68B3F85A301A467B681A44104B1B68B3F85C3019463B6803FBCD
:4010000001F313441A46012313610A4B1B68B3F85A301A467B681A44064B1B68B3F85C3019463B6803FB01F313441B6900BF0837BD4680BD40790208B871081080B584B03A
:4010400000AFF860B9607A60164B1B6893F833301A46BB689A4204D840F20371124801F073F97B6823F00103002B04D040F204710D4801F069F90B4B1B68B3F85A301A4656
:40108000FB681A44074B1B68B3F85C301946BB6803FB01F313441A467B68936100BF1037BD4680BD40790208B871081080B586B000AF2049204802F0FDFB78617B69002B5A
:4010C00001D0FFF7DDFE1C4B7B6000233B720323FB6000233B743B1D1A460021174802F0EBFD78617B69002B01D0FFF7C9FE14491148FFF709FF13490F48FFF713FF124997
:40110000124801F099F8114BB3F900301846FFF7CDFE012200210948FFF790FF00210748FFF70EFF0548FFF7DFFE00BF1837BD4680BD00BF987A0810B478020800002840FA
:40114000F878020840026640511108101072081080B500AF00210248FFF732FF00BF80BD0000284080B483B000AF78607B68D3F8403318460C37BD465DF8047B704700BF22
:4011800080B483B000AF78607B68D3F80833C3F3080318460C37BD465DF8047B704700BF80B582B000AF78607868FFF7DBFF034618460837BD4680BD80B582B000AF7860F7
:4011C0007868FFF7DDFF034618460837BD4680BD80B582B000AF786039603968786801F06DFC034618460837BD4680BD80B582B000AF786000BF79680448FFF7E9FF03468E
:40120000002BF8D000BF0837BD4680BD0000664080B500AF00BF0648FFF7CEFF0346002BF9D00348FFF7BCFF0346184680BD00BF0000664080B483B000AF0346FB80B7F917
:401240000630002B0BDB0949B7F906305B09FA8802F01F02012000FA02F241F8232000BF0C37BD465DF8047B704700BF00E100E080B400AF084B1B681A68074B1B68D3F880
:40128000843013441B6803F07F431B0EDBB21846BD465DF8047B70474079020880B400AF084B1B681A68074B1B68D3F8843013441B6803F47F431B0ADBB21846BD465DF8FC
:4012C000047B70474079020880B582B000AF78600E4B1B6893F831301A467B689A4204D840F2C3110A4801F02FF8084B1B681A6A064B1B68B3F8B03019467B6803FB01F3E7
:40130000134418460837BD4680BD00BF407902084072081080B483B000AF78607B68DB6818460C37BD465DF8047B704780B483B000AF7860084B1B68D3F8B4207B6813444D
:401340001B6803F00043DB0FDBB218460C37BD465DF8047B704700BF4079020880B584B000AFF860B9607A607B68002B04D140F29331074800F0E8FF7B681A46B968F86866
:4013800000F09CF9034618461037BD4680BD00BF4072081080B584B000AF78601C4A7B6813601B4B1B68002B0BD0194B1B6802221A70174B1B68FF225A70154B1B680022EC
:4013C0005A80144B1B6893F85030002B1CD0114B1B68B3F938303B810023FB6007F108030D49184600F028FFB7F908301846FFF721FF084B1B6893F85130002B04D00222B3
:401400000649012000F0EAFD00BF1037BD4680BD4C4E0208407902088D4602089143020880B500AF0248FFF7B5FF00BF80BD00BF704E020880B485B000AF78607B682E4A57
:4014400093423FD02C4A93420ED8402B40D0402B04D8002B1FD0102B37D042E0802B3AD0B3F5807F3AD03CE0244A934219D0234A934206D8B3F1204F10D0214A93421DD029
:401480002FE0204A934213D01F4A934213D01F4A93420AD025E00023FB6025E00023FB6022E04FF4A403FB601EE0194BFB601BE0184BFB6018E0184BFB6015E04FF4A0036E
:4014C000FB6011E00C4BFB600EE0144BFB600BE0134BFB6008E0134BFB6005E0064BFB6002E0114BFB6000BFFB6818461437BD465DF8047B704700BF06005200010000F076
:40150000090000A0040000F0050000F0030000F0010052000200520003005200010050000200500005005200FF00520080B582B000AF134B7B600120FFF7C6FE034618460E
:40154000FFF7F4FE034683F00103DBB2002B12D00C4B1B681846FFF76DFF78600A4B1B685B681A460123936000BF074B1B685B689B68002BF9D17B6818460837BD4680BD96
:4015800002005000504E02084079020880B582B000AF786039603B681B0C1B04002B04D040F2BB21054800F0CFFE3B689AB27B689A6000BF0837BD4680BD00BF8072081014
:4015C00080B582B000AF786039603B681B0C1B04002B04D040F2D521054800F0B5FE3B689AB27B685A6000BF0837BD4680BD00BF8072081080B483B000AF786039607B6867
:401600003A68DA6000BF0C37BD465DF8047B704780B483B000AF78607B68DB6818460C37BD465DF8047B704780B483B000AF7860084B1B68D3F8B4207B6813441B6803F0E8
:401640000043DB0FDBB218460C37BD465DF8047B704700BF4079020880B483B000AF78607B681B6803F00043002B01DA002300E0034B18460C37BD465DF8047B704700BF30
:4016800001008A0080B584B000AF786039607868FFF7CAFF0346002B06D039687868FFF78FFF0023FB6001E0034BFB60FB6818461037BD4680BD00BF01008A0080B586B023
:4016C00000AFF860B9607A60F868FFF7C5FF0346002B0AD17968F868FFF78CFFB968F868FFF754FF00237B6101E0034B7B617B6918461837BD4680BD01008A0080B584B02C
:4017000000AF786039603B68002B03D199210C4800F01AFE7868FFF787FF0346002B08D07868FFF775FF02463B681A600023FB6001E0044BFB60FB6818461037BD4680BD29
:40174000C072081001008A0080B582B000AF78600E4B1B6893F831301A467B689A4204D840F2C3110A4800F0EFFD084B1B681A6A064B1B68B3F8B03019467B6803FB01F3C2
:40178000134418460837BD4680BD00BF407902080073081080B483B000AF78607B68DB6818460C37BD465DF8047B704780B584B000AFF860B9607A607B68002B04D140F22D
:4017C0009331074800F0C0FD7B681A46B968F868FFF774FF034618461037BD4680BD00BF0073081080B483B000AF78607B681B6803F00043002B01DA002300E0034B184645
:401800000C37BD465DF8047B704700BF01008A0080B586B000AFF860B9607A60144B7B617B68002B0BD1BB68002B08D1F868FFF78BFF02460F4B1A6000237B6113E07B680B
:40184000002B0ED0BB68002B0BD00B4ABB681360094A7B6853600849F86800F00FF8786101E0034B7B617B6918461837BD4680BD03018A00744E0208784E020880B584B072
:4018800000AF78603960284BFB60284B1B6893F831301A467B689A4202D8234BFB603EE03B68002B39D03B681B6803F01F03002B30D17868FFF748FF02461D4B1A603B6850
:4018C00058683B681B68DB081A46002104F00BFF174B1B6800211846FFF7D4FE144B1B683A6800211846FFF761FF0346002B0ED10F4B1B6800211846FFF7C4FE0346002B40
:4019000002D10023FB600AE00A4BFB6007E0094BFB6004E0044BFB6001E0034BFB60FB6818461037BD4680BD03018A0040790208744E020801018A0080B588B000AF786029
:401940000B46FB700023FB612F4BBB612F4B1B681846FFF71FFF03467B617B691A687B689A4249D97B685B093B613B695B017A68D31A012202FA03F3FB60FB7883F00103AF
:40198000DBB2002B02D000F090FDF8611F4B1B681846FFF727FF0346002B23D17B695A683B699B0013441A68FB681340002B11D07B695A683B699B0013447A6951683A69FD
:4019C00092000A441168FA68D2430A401A600023BB6101E00E4BBB610C4B1B6800211846FFF750FEFB7883F00103DBB2002B05D0F86900F05EFD01E0064BBB61BB6918462E
:401A00002037BD4680BD00BF03018800744E02080201880004018A0080B586B000AF7860164B1B681846FFF7B5FE03463B613B691A687B689A421AD97B685B09FB60FB683F
:401A40005B017A68D31A012202FA03F3BB603B695A68FB689B0013441A68BB681340002B02D0074B7B6104E0064B7B6101E0064B7B617B6918461837BD4680BD744E020871
:401A8000010188000001880004018A0080B483B000AF0346FB80B7F90630002B0BDB0949B7F906305B09FA8802F01F02012000FA02F241F8232000BF0C37BD465DF8047B1E
:401AC000704700BF00E100E080B582B000AF78600E4B1B6893F831301A467B689A4204D840F2C3110A4800F02FFC084B1B681A6A064B1B68B3F8B03019467B6803FB01F39E
:401B0000134418460837BD4680BD00BF407902084073081080B582B000AF78600C4B1B6893F832301A467B689A4204D840F2DF11084800F009FC064B1B681B6A1A467B6871
:401B400080335B01134418460837BD4680BD00BF407902084073081080B584B000AFF860B9607A607B681B0C1B04002B04D04FF4FF710C4800F0E8FBBB681B0C1B04002BDC
:401B800004D040F2FF11074800F0DEFB7B681A04BB689BB21A43FB689A6000BF1037BD4680BD00BF4073081080B483B000AF78607B68DB6818460C37BD465DF8047B7047B9
:401BC00080B483B000AF78607B681B6818460C37BD465DF8047B704780B584B000AFF860B9607A607B681B0C1B04002B04D04FF426710D4800F0A8FBBB681B0C1B04002B81
:401C000004D040F29921084800F09EFB7B681A04BB689BB21A43FB681A60FB681B6800BF1037BD4680BD00BF4073081080B582B000AF786039603B681B0C1B04002B04D03B
:401C400040F2BB21054800F07FFB3B689AB27B689A6000BF0837BD4680BD00BF4073081080B483B000AF786039607B683A68DA6000BF0C37BD465DF8047B704780B483B0CE
:401C800000AF7860084B1B68D3F8B4207B6813441B6803F00043DB0FDBB218460C37BD465DF8047B704700BF4079020880B483B000AF78607B681B0C18460C37BD465DF81C
:401CC000047B704780B483B000AF78607B689BB218460C37BD465DF8047B704780B582B000AF786039603B68002B04D140F2B631054800F029FB39687868FFF7FFFC034602
:401D000018460837BD4680BD4073081080B483B000AF78607B681B6803F00043002B01DA002300E0034B18460C37BD465DF8047B704700BF01008A0080B483B000AF7860B3
:401D4000064B1B68002B02D1044A7B68136000BF0C37BD465DF8047B704700BF804E0208B0B590B002AF78607B68002B03D152212F4800F0E9FA7B689B69072B03D956218D
:401D80002B4800F0E1FA7B68DB6A002B03D15821274800F0D9FA7B681B6B002B03D15921234800F0D1FA7B6807F11C0403F114050FCD0FC42B6823607B6807F108041D46F4
:401DC0000FCD0FC42B6823601A4B1B68B3F936309AB2FB699BB213449BB21BB23B863B6A7B63B86A7B68D96A7B689A6AFC6A07F130030093234600F01FF87869BA69002388
:401E0000009313460022002100F016F87B681A6B07F130031146184600F00EFAB7F930301846FFF733FE00BF3837BD46B0BD00BF807308104079020880B586B000AFF86003
:401E4000B9607A603B60254B1B68002B03D1B521234800F079FA214B1A68FB682C2101FB03F313447B613B68DAB27B691A603B681B0ADAB27B695A603B681A0C7B699A6055
:401E80007B691B681846FFF71FFE02467B691A617B695B681846FFF73DFE02467B695A617B6958697B6999687B699B681A46FFF753FE7B697A68DA617B69BA681A627B6907
:401EC00000229A613B6A002B04D03B6AB3F900207B699A8100BF1837BD4680BD804E02088073081080B58AB000AFF860B9607A603B607B68002B03D1FD21344800F024FAF2
:401F0000334B1B68002B03D1FE21304800F01CFA2F4B1A68FB682C2101FB03F313443B622B4B1A68BB682C2101FB03F31344FB61FB695B68012202FA03F3BB61BB691B04CA
:401F4000BB613B6A5B68012202FA03F37B613B6A1B69002B32D0FB699B69002B2BD13B6A1B691846FFF7D2FE0346002B20D17B681B689AB27B681A607B681A68BB691A4360
:401F80007B681A603B6A1B697A6811461846FFF767FEFB6901229A61FB693A685A623B6A1B6979691846FFF741FE00237B6207E0084B7B6204E0074B7B6201E0064B7B628E
:401FC0007B6A18462837BD4680BD00BF80730810804E020807028A0004028A0080B586B000AFF860B9607A60174B1B68002B04D14FF4AF71154800F0A7F9134B1A68FB685D
:402000002C2101FB03F313443B613B691B6A002B04D14FF4B1710D4800F096F93B69DA697B689A4209D93B691A6A7B689B001344BA681A6000237B6101E0054B7B617B69FB
:4020400018461837BD4680BD804E0208807308100A028A0080B584B000AF78600B4B1B68002B04D140F2B111094800F06DF9074B1A687B682C2101FB03F31344FB60F8688E
:4020800000F008F800BF1037BD4680BD804E02088073081090B589B000AF78600023FB600023FB617B68002B04D140F2D1114C4800F04AF97B681B69002B04D14FF4E97143
:4020C000474800F041F97B685B69002B04D140F2D311434800F038F97B681B6A002B04D14FF4EA713E4800F02FF97B685B691846FFF75AFDB861B869FFF7D8FD0346002B4F
:402100003ED07B685C69B869FFF7D0FD03461A4600212046FFF760FD7B681B691846FFF7ADFD0346002B2BD07B681B6907F10C0211461846FFF7D2FD0346002B1AD1FB6805
:402140001B681B0CFB61FB681B68DBB27B617B68DA697B699A420DD97B681A6A7B699B0013441B683B613B69002B03D0FA683B69104698477B681B69F9691846FFF782FA6C
:40218000B869FFF79FFD0346002B1FD07B685C69B869FFF797FD0346002219462046FFF71BFD7B685B6A002B06D07B685B6A98477B6800225A6206E07B689B6A002B02D0BC
:4021C0007B689B6A98477B6800229A617B685B691846FFF7F5FC00BF2437BD4690BD00BF8073081080B483B000AF03463960FB80B7F90630002B0ADB0D49B7F906303A68B1
:40220000D2B25201D2B20B4483F800230AE00949FB8803F00F03043B3A68D2B25201D2B20B441A7600BF0C37BD465DF8047B704700E100E000ED00E080B584B000AF786069
:4022400039600023FB607B68002B1DD07B685B68072B03D93221104800F076F87B68B3F900207B685B6819461046FFF7BBFF0B4B9B680B4A934209D17B68B3F90030396818
:40228000184600F011F801E0064BFB60FB6818461037BD4680BD00BFC073081000ED00E0004002080100560080B584B000AF03463960FB80134B9B68134A934216D13B68E8
:4022C000002B04D140F23711104800F03DF8B7F9063010330C4A52F82330FB60B7F90630103309493A6841F8232006E0B7F906301033074A52F82330FB60FB681846103777
:40230000BD4680BD00ED00E000400208C07308100000081080B582B000AF0346FB80FB88054A127802FB03F3184600F0B5F800BF0837BD4680BD00BF1443020880B483B0FA
:4023400000AF786001BEFEE780B582B000AF7860396018227968044804F030FA034A3B6813600020FFF7EAFF184C0208304C020880B584B000AF78607B681B68414A13607C
:402380007B685B683F4A53607B689B683D4A93607B68DB683B4AD3607B681B69394A13617B685B69374A53617B689B69354A93617B68DB69334AD361334B9B6A314A13621E
:4023C000314BDB6A2F4A53622F4B5B6A2D4A93622D4B5B6B2B4AD3622B4B9B6B294A1363F1EE103AFB60FB6803F09003002B43D07B681B6A234A53637B685B6A214A9363B7
:402400007B689B6A1F4AD3637B68DB6A1D4A13647B681B6B1B4A53647B685B6B194A93647B689B6B174AD3647B68DB6B154A13657B681B6C134A53657B685B6C114A93658A
:402440007B689B6C0F4AD3657B68DB6C0D4A13667B681B6D0B4A53667B685B6D094A93667B689B6D074AD3667B68DB6D054A13677B681B6E034A536700F008F800BF1037A5
:40248000BD4680BD344C020800ED00E080B400AFFEE700BF000000000230800803D001300238FCD100BF00BF7047EFF3108072B6704780F31088704780B400AF4FF0B053CC
:4024C0005B78DBB2002B04D04FF0B0535B78DBB200E021231846BD465DF8047B704700BF80B483B000AF7860044A7B68136000BF0C37BD465DF8047B704700BF4079020868
:4025000080B586B000AF786039607B68002B03D13A216A48FFF718FF3B68002B03D13B216648FFF711FF7B68002B02D03B68002B02D1634B7B6148E13B681A68614B13400A
:40254000002B03D04A215D48FFF7FEFE3B685A685D4B1340002B03D04B215848FFF7F4FE3B689B6803F0FC23002B03D04C215348FFF7EAFE3B68DB6803F0FC23002B03D077
:402580004D214E48FFF7E0FE3B681B7D032B03D94E214A48FFF7D8FE3B689B69B3F5803F03D34F214548FFF7CFFE3B68DB6D072B03D950214148FFF7C7FE3B681B6EB3F50B
:4025C000803F03D351213D48FFF7BEFE3B685B6EB3F5803F03D352213848FFF7B5FE3B685B6843F000427B685A603B689A687B681A613B68DA687B685A613B681A697B6851
:402600009A613B681B7D9A077B68DA613B689A697B681A623B681B6803F46063B3F5606F0CBF01230023BB743B685B6803F00403002B14BF012300237B740023FB7464E09E
:40264000FB7C3A6806339B0013445A681F4B1340002B03D063211948FFF776FEFA7CFB7C396806339B000B4459687B68203243F822104FF48053FB60FB7C3A6806339B00D8
:4026800013445B6803F00123002B0CBF01230023FB72FB7A002B1DD0BB7C002B1AD07B7C002B17D0FA7CFB68D90F0B445B105B4219B2074B23F8121011E000BF747508103A
:4026C000010006000811DF0001FE302088CA887E44790208FB7C3F4A002122F81310FB7CFA6842F2107101FB02F23968496F11443A68526F520091FBF2F212B21146364A23
:4027000042F82310FB7C0133FB74FB7C0F2B97D93B68DA6D7B68C3F818223B68DA6D7B68C3F810223B681A6E7B68C3F828223B681A6E7B68C3F820223B685A6E7B68C3F84E
:4027400038223B685A6E7B68C3F830223B6893F87030002B23D03B689B6EB3F1804F03D382211E48FFF7F0FD3B68DB6E23F44F0323F0FF03002B03D083211848FFF7E4FD94
:402780007B686FF04042C3F804233B689A6E7B68C3F800233B68DA6E7B68C3F844237B68D3F8003F3F2B04D07B68D3F8003F002B03D17B680B22C3F8002F3B681B6843F4A9
:4027C00000127B681A6000237B617B6918461837BD4680BD44790208647902087475081080B584B000AF78600B46FB707B68002B03D1B5212848FFF7A7FD7B68002B02D19C
:40280000264BFB6043E07B6800221A607B6800225A607B684FF003121A617B684FF003125A617B6800229A617B680022DA617B6800221A620023FB7208E0FA7A7B682032E5
:40284000002143F82210FB7A0133FB72FB7A0F2BF3D97B680022C3F818227B680022C3F828227B680022C3F83822FB78002B0CD07B686FF04042C3F804237B680022C3F83B
:4028800040237B680022C3F844230023FB60FB6818461037BD4680BD747508100100060080B582B000AF78607B681B68002B0EDB00BF7B68D3F8A032002BFADB7B681B68B3
:4028C00043F000427B681A600220FFF723FD00BF0837BD4680BD00BF80B584B000AF786039603B680F2B04D940F27B210A48FFF72BFD0023FB603B680F2B06D87B683A6892
:40290000603253F822309BB2FB60FB681BB218461037BD4680BD00BF7475081080B483B000AF78607B68D3F8403318460C37BD465DF8047B704700BF80B483B000AF786000
:402940007B68D3F80833C3F3080318460C37BD465DF8047B704700BF80B483B000AF786039607B683A68C3F8402200BF0C37BD465DF8047B704700BF80B483B000AF786059
:402980007B68D3F80832C3F3080318460C37BD465DF8047B704700BF80B483B000AF78607B681B6803F40063002B01D0802300E0402318460C37BD465DF8047B704700BF02
:4029C00080B483B000AF78607B68D3F8003303F00F03072B94BF01230023DBB218460C37BD465DF8047B704780B483B000AF78607B68D3F8003203F00F03072B94BF0123FF
:402A00000023DBB218460C37BD465DF8047B704790B589B000AFF860B9607A60F868FFF7CFFF0346002B15D0BB68BB610023FB610BE0BA69FB69D418F868FFF76FFF034699
:402A4000DBB22370FB690133FB61FA697B689A42EFD315E0BB687B610023FB610CE0FB695B007A69D418F868FFF758FF03469BB22380FB690133FB61FA697B689A42EED3B4
:402A800000BF2437BD4690BD80B586B000AFF860B9607A60F868FFF74FFF78617A697B689A4201D97B687B617A69B968F868FFF7AFFF7B6918461837BD4680BD90B585B03C
:402AC00000AF786039600023FB607868FFF764FF04467868FFF750FF03469C4205D039687868FFF739FF0123FB60FB6818461437BD4690BD80B588B000AFF860B9607A60A3
:402B0000F868FFF771FF0346002B14D0BB68BB610023FB610AE0BA69FB6913441B781946F868FFF719FFFB690133FB61FA697B689A42F0D314E0BB687B610023FB610BE05B
:402B4000FB695B007A6913441B881946F868FFF703FFFB690133FB61FA697B689A42EFD300BF2037BD4680BD90B587B000AFF860B9607A60F868FFF70FFF0446F868FFF75A
:402B8000FBFE0346E31A7B617A697B689A4201D97B687B617A69B968F868FFF7ABFF7B6918461C37BD4690BD80B483B000AF78607B68D3F8403318460C37BD465DF8047B4F
:402BC000704700BF80B582B000AF78603960786800F0F6F802463B689A4204D84FF420710848FFF7B1FB7B68D3F8043323F0FF023B68DBB21A437B68C3F8042300BF083768
:402C0000BD4680BDB075081080B483B000AF78607B68D3F80833C3F3080318460C37BD465DF8047B704700BF80B483B000AF786039607B683A68C3F8402200BF0C37BD4663
:402C40005DF8047B704700BF80B483B000AF78607B68D3F80832C3F3080318460C37BD465DF8047B704700BF80B483B000AF78607B68D3F8003E18460C37BD465DF8047B33
:402C8000704700BF80B582B000AF786039603B6823F4366323F00D03002B04D040F29A310548FFF751FB7B683A68C3F8C82F00BF0837BD4680BD00BFB075081080B483B03E
:402CC00000AF78607B68D3F8CC3F18460C37BD465DF8047B704700BF80B582B000AF786039603B6823F4366323F00D03002B04D040F2E5310648FFF727FB7B683A68C3F8BC
:402D0000C02F7B68D3F8C03F00BF0837BD4680BDB075081080B582B000AF786039603B6823F4EE6323F00303002B04D040F22A410548FFF709FB7B683A68C3F8882F00BF38
:402D40000837BD4680BD00BFB075081080B483B000AF78607B68D3F8883F18460C37BD465DF8047B704700BF80B483B000AF78607B68D3F88C3F18460C37BD465DF8047BA8
:402D8000704700BF80B582B000AF786039603B6823F4EE6323F00303002B04D040F277410648FFF7D1FA7B683A68C3F8802F7B68D3F8803F00BF0837BD4680BDB075081023
:402DC00080B483B000AF78607B681B6803F40063002B01D0802300E0402318460C37BD465DF8047B704700BF80B483B000AF78607B68D3F8003303F00F03072B94BF0123D8
:402E00000023DBB218460C37BD465DF8047B704780B483B000AF78607B68D3F8003203F00F03072B94BF01230023DBB218460C37BD465DF8047B704780B584B000AFF860E8
:402E4000B9607A60BB68002B02D07B68002B04D14FF499610648FFF777FA7A68B968F868FFF712FE034618461037BD4680BD00BFF475081080B584B000AFF860B9607A6030
:402E8000BB68002B02D07B68002B04D140F273510648FFF759FA7A68B968F868FFF764FE034618461037BD4680BD00BFF475081090B587B000AFF860B9607A60FB68002B55
:402EC00002D0BB68002B01D18A4B58E2BB681B78002B0BD0BB681B78012B07D0BB681B78022B03D03F218448FFF72EFABB685B7B022B1BD0BB685B7B032B17D0BB685B7B44
:402F0000042B13D0BB685B7B052B0FD0BB685B7B062B0BD0BB685B7B072B07D0BB685B7B082B03D040217448FFF70EFABB689B7B002B0BD0BB689B7B022B07D0BB689B7BA1
:402F4000032B03D041216C48FFF7FEF9BB6893F82130002B08D0BB6893F82130012B03D042216548FFF7F0F9BB6893F82830002B08D0BB6893F82830012B03D043215E4846
:402F8000FFF7E2F9BB681B78002B03D0BB681B78012B0ED1BB685B68072B03D9BB685B68102B01D9012300E0002303F00103DBB227E0BB689B7F002B22D0BB685B68012BBE
:402FC00019D0BB685B68022B15D0BB685B68032B11D0BB685B68042B0DD0BB685B68052B09D0BB685B68062B05D0BB685B68072B01D0012300E0002303F00103DBB200E0BA
:403000000023002B03D045213B48FFF79DF9BB689B68042B03D9BB689B68092B03D946213548FFF791F9BB685B69FF2B03D947213148FFF789F9BB689B69FF2B03D9482153
:403040002D48FFF781F9BB689B7C002B12D0BB681B78002B07D1BB689B68092B03D1BB689B7B002B01D0012300E0002303F00103DBB200E00023002B03D04A211E48FFF795
:4030800063F9BB685B6B23F4366323F00D03002B03D04C211848FFF757F9BB68DB6B23F4EE6323F00303002B03D04D211248FFF74BF9BB681B78022B09D1BB689B7F83F090
:4030C0000103DBB2002B02D000237B6103E0BB685B68013B7B61BB681B7F002B02D04FF4803200E00022BB689B68082B06D84FF4006304E00160AA003476081000231A43A3
:403100007B6903F00F03134343F00072FB681A60BB681C6BF868FFF753FE03469C4203D362219948FFF710F9BB689C6BF868FFF747FE03469C4203D363219348FFF704F909
:40314000BB685C6AF868FFF73BFE03469C4203D364218D48FFF7F8F8BB681B781B0603F04072FB681A64BB685B7F002B01D0402200E00022BB689B7C002B02D04FF4806383
:4031800000E000231A43BB681B7C002B02D04FF4807300E000231A43BB685B7C002B02D04FF4007300E000231A43BB68DB6A013B1B0403F470231A43BB685B7B013B03F083
:4031C00007031A43BB689B7B1B0103F030031A43FB689A64BB681B7B002B02D04FF4807200E00022BB68DB7B002B03D1BB681B78022B01D1012300E00023002B02D04FF4AE
:40320000007300E000231A43BB689B68013B03F00F031A43FB68C3F80023BB685B69DAB2BB689B691B0403F47F031A43FB68C3F81023BB68DA6AFB68D3F8003303F00F0309
:4032400003339A4203D3BB68DB6A102B03D97A214D48FFF779F8BB68DB7F002B05D0BB681B78012B01D1012300E00023002B02D04FF4807200E00022BB685B7B013B03F09C
:4032800007031A43BB689B7B1B0103F030031A43FB685A64BB681B7B002B02D04FF4807200E00022BB689B68013B03F00F031A43BB681B78012B02D14FF4803300E000234F
:4032C0001A43FB68C3F80022BB681B6BDAB2FB68C3F80423BB6893F82030002B02D04FF0007200E00022BB6893F82130012B02D14FF0807300E000231A43BB6893F8283073
:40330000012B02D14FF4803300E000231A43BB685B6ADBB21A43FB681A65BB689B6BDAB2FB68C3F80422BB685A6B40F66D331340FA68C2F8C83FBB68DA6B40F27373134084
:40334000FA68C2F8883F7B68002B17D07B6800225A607B6800221A607B6800229A607B680022DA607B6800221A627B680022DA627B6800221A637B68044A5A630023184646
:403380001C37BD4690BD00BF34760810EFCDAB0080B485B000AF786039603B681B69BB603B685A69BB689A4205D83B685B69BA68D31AFB6007E03B68DA693B685B69D21A84
:4033C000BB681344FB60FB6818461437BD465DF8047B704780B584B000AF786039607868FFF742FC034603F00803002B4BD07868FFF764FC034603F44873FB60FB68002B1A
:4034000011D03B685A68FB681A433B685A60F9687868FFF761FC3B681B6B002B03D03B681B6B102098477868FFF748FC034603F40063002B0AD03B685B6843F400623B68D2
:403440005A604FF400617868FFF746FC7868FFF735FC034603F00103002B14D03B68DB69002B04D03968786800F062F807E03B689B68002B03D03968786800F0CBF80121EE
:403480007868FFF729FC7868FFF7EEFB034603F00403002B48D07868FFF766FC034603F4A063BB60BB68002B11D03B681A68BB681A433B681A60B9687868FFF763FC3B684C
:4034C0001B6B002B03D03B681B6B202098477868FFF74AFC034603F00103002B07D03968786800F015F901217868FFF74BFC7868FFF73AFC034603F40073002B14D00021F5
:403500007868FFF707FC3B681B6823F001023B681A603B680022DA623B681B6B002B03D03B681B6B0220984700BF1037BD4680BD80B586B000AF786039607868FFF740FC24
:4035400003465B087B613B6899693B68DB691A467868FFF771FC38613B681A6A3B691A443B681A623B68DA693B69D21A3B68DA613B68DB69002B2AD13B689B68002B13D09E
:403580003B68DA687B699A4202D37B69013B02E03B68DB68013B19467868FFF713FB01217868FFF76FFB03E000217868FFF76AFB3B685B6823F001023B685A603B681B6B87
:4035C000002B23D03B681B6B042098471EE03B689B69FB607868FFF707FC0346002B01D03B6901E03B695B00FA681344FB603B68FA689A613B68DA697B699A4206D23B68AA
:40360000DB69013B19467868FFF7DCFA00BF1837BD4680BD90B589B000AF786039607868FFF7CEFB03465B087B617868FFF7ECFAF8613B681B69BB6147E0BB690133BB61F9
:403640003B68DA68BB699A4201D10023BB613B685A69BB699A421BD13B681B6B002B03D03B681B6B082098473B685A69BB699A420ED100217868FFF705FBBB69002B02D04E
:40368000BB69013B02E03B68DB68013BBB611FE07868FFF789FA38617868FFF7A5FB0346002B07D03B689A68BB6913443A69D2B21A7007E03B689A68BB695B0013443A6902
:4036C00092B21A80FB69013BFB61FB69002BB4D13B68BA691A613B68DC6839687868FFF757FE0346E31AFB61FA697B699A420BD2FB69002B02D0FB69013B00E00023FB60E7
:40370000F9687868FFF75EFA00BF2437BD4690BD80B588B000AF786039607868FFF750FBF8617868FFF774FB0346FB763B689B6A012B23D93B685B6A7B613B689A6A3B682C
:40374000DA623B68596A3B689B6A013B1A467868FFF790FB38613B689A6A3B69D21A3B689A62FB7E002B01D03B6901E03B695B007A6913447B613B687A695A627868FFF76C
:4037800063FA0246FB699A423CD03B689B6A012B38D13B6800229A62FB7E002B03D03B685B6A1B7802E03B685B6A1B88FB60FEF77CFEB860F9687868FFF736FA4FF400711E
:4037C0007868FFF7DFFAB868FEF773FE7868FFF7BDFA034623F4007323F0010343F4007319467868FFF796FA3B681B6843F002023B681A603B681B6B002B03D03B681B6BE4
:403800000120984700BF2037BD4680BD80B584B000AFF860B9607A60244B1B6893F833301A46BB689A4204D840F2E1512048FEF78BFD1E4B1B68B3F85A301A46FB681A4429
:403840001A4B1B68B3F85C301946BB6803FB01F313441A467B68D360144B1B68B3F85A301A46FB681A44114B1B68B3F85C301946BB6803FB01F3134419460C4B1B68B3F8EB
:403880005A301A46FB681A44084B1B68B3F85C301846BB6803FB00F313449B681B0C1B048B6000BF1037BD4680BD00BF407902087476081080B584B000AF786039609C4B19
:4038C000FB607B68002B00F0EC813B68002B00F0E8813B681B78002B0FD03B681B78012B0BD03B681B78022B07D03B681B78032B03D057218F48FEF727FD3B685B78002BE4
:403900000FD03B685B78012B0BD03B685B78022B07D03B685B78032B03D058218548FEF713FD3B689B78002B0FD03B689B78012B0BD03B689B78022B07D03B689B78032BD4
:4039400003D059217B48FEF7FFFC3B681B79002B0FD03B681B79012B0BD03B681B79022B07D03B681B79032B03D05A217148FEF7EBFC3B689B79002B07D03B689B79012BA9
:4039800003D05B216B48FEF7DFFC3B68DB79002B07D03B68DB79012B03D05C216548FEF7D3FC3B68DB78002B07D03B68DB78012B03D05D215F48FEF7C7FC3B685B79002BEC
:4039C0000BD03B685B79012B07D03B685B79022B03D05E215748FEF7B7FC3B681B7A002B0FD03B681B7A012B0BD03B681B7A022B07D03B681B7A032B03D05F214D48FEF735
:403A0000A3FC3B681B7803F003023B685B789B0003F00C031A433B689B781B0103F030031A433B681B799B01DBB21A433B689B799B0603F080631A433B68DB79DB0603F0E1
:403A400000631A433B68DB781B0603F080731A433B685B791B0703F040531A433B681B7A9B071A437B681A603B68DB681A467B685A603B681B691A467B689A603B681B7A9D
:403A8000032B00F20B8101A252F823F09D3A0810AD3A08103D3B0810353C08103B68DB6A1A467B68DA600023FB60FAE03B685B6913F5006F04DB3B685B69B3F5006F03DB7D
:403AC00078211C48FEF740FC3B689B6913F5006F04DB3B689B69B3F5006F03DB79211548FEF732FC3B68DB69002B04D03B68DB69B3F5807F03D97A210E48FEF725FC3B68EB
:403B00005B69C3F30B023B689B6919030A4B0B401A433B68DB69013B1B061A437B68DA603B68DB6A1A467B681A610023FB60B8E001004E00B076081000F0FF003B685B69E1
:403B400013F5006F04DB3B685B69B3F5006F03DB87215648FEF7F8FB3B689B6913F5006F04DB3B689B69B3F5006F03DB88214F48FEF7EAFB3B68DB69002B04D03B68DB69E5
:403B8000B3F5807F03D989214848FEF7DDFB3B681B6A13F5006F04DB3B681B6AB3F5006F03DB8A214148FEF7CFFB3B685B6A13F5006F04DB3B685B6AB3F5006F03DB8B2126
:403BC0003A48FEF7C1FB3B689B6A002B04D03B689B6AB3F5807F03D98C213448FEF7B4FB3B685B69C3F30B023B689B691903304B0B401A433B68DB69013B1B061A437B685F
:403C0000DA603B681B6AC3F30B023B685B6A1903274B0B401A433B689B6A013B1B061A437B681A613B68DB6A1A467B685A610023FB6036E01F4B1B6893F82A30012B2FD981
:403C40003B685B6913F5006F04DB3B685B69B3F5006F03DBA1211548FEF776FB3B68DB69002B04D03B68DB69B3F5807F03D9A2210E48FEF769FB3B685B69C3F30B023B6817
:403C8000DB69013B1B061A437B68DA603B68DB6A1A467B681A610023FB6001E000BF00E000BFFB6818461037BD4680BDB076081000F0FF004079020890B587B000AFF860CB
:403CC000B9607A60354B7B61FB68002B60D07B68002B5DD07B681B68002B59D0304B1B6893F833301A46BB689A4251D97B689B68032B03D9EF212B48FEF726FB7B681B685E
:403D00001A46B968F868FFF781FD254B1B68B3F85A301A46FB681A44214B1B68B3F85C301946BB6803FB01F3134418467B681B79002B07D01A4B1B6893F85F301A46012397
:403D4000934000E000237A6892681549096891F85E1002FA01F1124A126892F85E2014460322A2400A401A437B681B7B002B02D04FF0004300E000231A437B685B7B002BBB
:403D800001D0042300E000231343036000237B617B6918461C37BD4690BD00BF01004E0040790208B076081080B487B000AFF860B9607A60644B7B61FB68002B00F0BD80B1
:403DC0007B68002B00F0B9807B685B681B029AB27B689B689B0403F480231A437B68DB681B0403F440331A437B681B691B0603F0E0631A437B681B7F002B01D0012300E05D
:403E000000231A43F968BB6804339B010B441A607B68DB68002B08D1FA68BB689B01134403F5847300221A6015E07B68DB68012B09D17B681A68F968BB689B010B4403F5C8
:403E400084731A6007E0FA68BB689B01134403F5847301221A607B681B69002B11D17B685A69F968BB689B010B4403F586731A607B689A69F968BB689B010B4403F58873AA
:403E80001A607B681A68F968BB689B010B4403F58A731A607B689B6CB3F1FF3F20D07B689B6A03F00F027B681B6B1B0203F470631A437B689B6B1B0403F470231A437B681E
:403EC0001B6C1B039BB21A437B689B6C1B01DBB21A43F968BB689B010B4403F590731A607B685B6A03F003027B68DB6A1B0103F030031A437B685B6B1B0203F440731A436B
:403F00007B68DB6B9B01DBB21A437B685B6C9B0003F00C031A43F968BB689B010B4403F592731A607B681A6AF968BB689B010B4403F59C731A6000237B617B6918461C375D
:403F4000BD465DF8047B70470100B60080B483B000AF78607B6803F108027B685A607B684FF0FF329A607B6803F108027B68DA607B6803F108027B681A617B6800221A6087
:403F800000BF0C37BD465DF8047B704780B483B000AF78607B6800221A6100BF0C37BD465DF8047B704700BF80B485B000AF786039607B685B68FB603B68FA685A60FB6808
:403FC0009A683B689A60FB689B683A685A60FB683A689A603B687A681A617B681B685A1C7B681A6000BF1437BD465DF8047B704780B485B000AF786039603B681B68BB60C6
:40400000BB68B3F1FF3F03D17B681B69FB600CE07B680833FB6002E0FB685B68FB60FB685B681A68BB689A42F6D9FB685A683B685A603B685B683A689A603B68FA689A6024
:40404000FB683A685A603B687A681A617B681B685A1C7B681A6000BF1437BD465DF8047B704700BF80B485B000AF78607B681B69FB607B685B687A6892689A607B689B68DD
:404080007A6852685A60FB685A687B689A4203D17B689A68FB685A607B6800221A61FB681B685A1EFB681A60FB681B6818461437BD465DF8047B704780B584B000AF786028
:4040C00039607B68FB60FB68002B09D14FF03F0383F31188BFF36F8FBFF34F8FBB60FEE701F090FEFB681A68FB68DB6BF968096C01FB03F31A44FB685A60FB6800229A63DF
:40410000FB681A68FB689A60FB681A68FB68DB6B013BF968096C01FB03F31A44FB68DA60FB68FF2283F84420FB68FF2283F845203B68002B14D1FB681B69002B1AD0FB68D7
:404140001033184601F07EF80346002B12D00D4B4FF080521A60BFF34F8FBFF36F8F09E0FB6810331846FFF7F1FEFB6824331846FFF7ECFE01F074FE012318461037BD46C5
:4041800080BD00BF04ED00E080B58AB002AFF860B9601346FB71FB68002B09D14FF03F0383F31188BFF36F8FBFF34F8F3B61FEE7BB68002B02D10023FB6104E0FB68BA681A
:4041C00002FB03F3FB61FB694833184601F046FFB861BB69002B0BD0BB6948337B61FA79BB69009313467A69B968F86800F006F8BB6918462037BD4680BD00BF80B584B029
:4042000000AFF860B9607A60FB70BB68002B03D1BB69BA691A6002E0BB697A681A60BB69FA68DA63BB69BA681A640121B869FFF743FF00BF1037BD4680BD00BF80B58EB05A
:4042400000AFF860B9607A603B6000237B63FB683B633B6B002B09D14FF03F0383F31188BFF36F8FBFF34F8FFB61FEE7BB68002B03D13B6B1B6C002B01D1012300E0002378
:40428000002B09D14FF03F0383F31188BFF36F8FBFF34F8F3B62FEE73B68022B03D13B6BDB6B012B01D1012300E00023002B09D14FF03F0383F31188BFF36F8FBFF34F8F1D
:4042C0007B62FEE701F05CF90346002B02D17B68002B01D1012300E00023002B09D14FF03F0383F31188BFF36F8FBFF34F8FBB62FEE701F087FD3B6B9A6B3B6BDB6B9A42A9
:4043000002D33B68022B29D13A68B968386B00F0FFF9F8623B6B5B6A002B10D03B6B2433184600F08FFF0346002B13D03F4B4FF080521A60BFF34F8FBFF36F8F0AE0FB6AEC
:40434000002B07D0394B4FF080521A60BFF34F8FBFF36F8F01F084FD012363E07B68002B03D101F07DFD00235CE07B6B002B06D107F11403184600F0C7FF01237B6301F069
:404380006FFD00F027FD01F03DFD3B6B93F844305BB2B3F1FF3F03D13B6B002283F844203B6B93F845305BB2B3F1FF3F03D13B6B002283F8452001F053FD3A1D07F114038B
:4043C0001146184600F0B6FF0346002B24D1386B00F088FA0346002B18D03B6B10337A681146184600F0E0FE386B00F013FA00F0FFFC0346002B7FF47CAF0C4B4FF0805236
:404400001A60BFF34F8FBFF36F8F72E7386B00F001FA00F0EDFC6CE7386B00F0FBF900F0E7FC002318463837BD4680BD04ED00E080B58EB000AFF860B9607A603B60FB68E9
:404440003B633B6B002B09D14FF03F0383F31188BFF36F8FBFF34F8F7B61FEE7BB68002B03D13B6B1B6C002B01D1012300E00023002B09D14FF03F0383F31188BFF36F8FAA
:40448000BFF34F8FBB61FEE73B68022B03D13B6BDB6B012B01D1012300E00023002B09D14FF03F0383F31188BFF36F8FBFF34F8FFB61FEE701F07EFDEFF311824FF03F033E
:4044C00083F31188BFF36F8FBFF34F8F3A623B613B6ABB623B6B9A6B3B6BDB6B9A4202D33B68022B2CD13B6B93F8453087F827303A68B968386B00F00BF997F92730B3F1FD
:40450000FF3F12D13B6B5B6A002B16D03B6B2433184600F097FE0346002B0ED07B68002B0BD07B6801221A6007E097F827300133DBB25AB23B6B83F8452001237B6301E040
:4045400000237B63BB6AFB62FB6A83F311887B6B18463837BD4680BD80B58CB000AFF860B9607A600023FB62FB68BB62BB6A002B09D14FF03F0383F31188BFF36F8FBFF3CA
:404580004F8FBB61FEE7BB68002B03D1BB6A1B6C002B01D1012300E00023002B09D14FF03F0383F31188BFF36F8FBFF34F8FFB61FEE700F0E5FF0346002B02D17B68002BEB
:4045C00001D1012300E00023002B09D14FF03F0383F31188BFF36F8FBFF34F8F3B62FEE701F010FCBB6A9B6B7B627B6A002B1FD0B968B86A00F0E8F87B6A5A1EBB6A9A63D5
:40460000BB6A1B69002B0FD0BB6A1033184600F019FE0346002B07D03C4B4FF080521A60BFF34F8FBFF36F8F01F01AFC012369E07B68002B03D101F013FC002362E0FB6A3D
:40464000002B06D107F11003184600F05DFE0123FB6201F005FC00F0BDFB01F0D3FBBB6A93F844305BB2B3F1FF3F03D1BB6A002283F84420BB6A93F845305BB2B3F1FF3F89
:4046800003D1BB6A002283F8452001F0E9FB3A1D07F110031146184600F04CFE0346002B23D1B86A00F008F90346002B17D0BB6A24337A681146184600F076FDB86A00F07B
:4046C000A9F800F095FB0346002B89D10F4B4FF080521A60BFF34F8FBFF36F8F80E7B86A00F098F800F084FB7AE7B86A00F092F800F07EFBB86A00F0DFF80346002B3FF438
:404700006FAF002318463037BD4680BD04ED00E080B586B000AFF860B9607A6000233B61FB689B6B7B61FB681B6C002B43D07B68002B19D1FB689868FB681B6C1A46B9680B
:4047400001F0C6FFFB689A68FB681B6C1A44FB689A60FB689A68FB685B689A422BD3FB681A68FB689A6026E0FB68D868FB681B6C1A46B96801F0ACFFFB68DA68FB681B6C93
:404780005B421A44FB68DA60FB68DA68FB681B689A4207D2FB685A68FB681B6C5B421A44FB68DA607B68022B05D17B69002B02D07B69013B7B617B695A1CFB689A633B6959
:4047C00018461837BD4680BD80B582B000AF786039607B681B6C002B18D07B68DA687B681B6C1A447B68DA607B68DA687B685B689A4203D37B681A687B68DA607B68D9689B
:404800007B681B6C1A46386801F062FF00BF0837BD4680BD80B584B000AF786001F0F2FA7B6893F84530FB7311E07B685B6A002B12D07B682433184600F004FD0346002BBD
:4048400001D000F0D7FDFB7B013BDBB2FB7397F90F30002BE9DC00E000BF7B68FF2283F8452001F0FDFA01F0CDFA7B6893F84430BB7311E07B681B69002B12D07B68103379
:40488000184600F0DFFC0346002B01D000F0B2FDBB7B013BDBB2BB7397F90E30002BE9DC00E000BF7B68FF2283F8442001F0D8FA00BF1037BD4680BD80B584B000AF786085
:4048C00001F0A0FA7B689B6B002B02D10123FB6001E00023FB6001F0C3FAFB6818461037BD4680BD80B584B000AF786001F08AFA7B689A6B7B68DB6B9A4202D10123FB60CE
:4049000001E00023FB6001F0ABFAFB6818461037BD4680BD80B485B000AF786039600023FB6014E00E4AFB6852F83330002B0BD10B49FB683A6841F83320094AFB68DB005A
:4049400013447A685A6005E0FB680133FB60FB68092BE7D900BF1437BD465DF8047B7047A479020880B586B000AFF860B9607A60FB687B6101F046FA7B6993F844305BB292
:40498000B3F1FF3F03D17B69002283F844207B6993F845305BB2B3F1FF3F03D17B69002283F8452001F05CFA7B699B6B002B06D17B6924337A68B968184600F019FC78691A
:4049C000FFF728FF00BF1837BD4680BD80B58CB004AFF860B9603B601346FB80FB889B00184601F03BFB78617B69002B0ED0602001F034FBF861FB69002B03D0FB697A693D
:404A00001A6305E0786901F06FFB01E00023FB61FB69002B13D0FA8800230393FB690293FB6A0193BB6A00933B68B968F86800F00FF8F86900F09CF80123BB6102E04FF0C0
:404A4000FF33BB61BB6918462037BD4680BD00BF80B588B000AFF860B9607A603B603B6B186B7B689B001A46A52101F03CFE3B6B1A6B7B6803F18043013B9B001344BB6107
:404A8000BB6923F00703BB61BB6903F00703002B09D04FF03F0383F31188BFF36F8FBFF34F8F7B61FEE70023FB6112E0BA68FB69134419783A6BFB69134434330A461A7063
:404AC000BA68FB6913441B78002B06D0FB690133FB61FB690F2BE9D900E000BF3B6B002283F84320BB6A062B01D90623BB623B6BBA6ADA623B6B04331846FFF747FA3B6B18
:404B000018331846FFF742FA3B6B3A6B1A61BB6AC3F107023B6B9A613B6B3A6B5A620023FB6109E03A6BFB6910339B00134400225A60FB690133FB61FB69042BF2D93B6BD0
:404B400000229A653B6B002283F85C203A68F968B86901F051F802463B6B1A60FB6A002B02D0FB6A3A6B1A6000BF2037BD4680BD80B582B000AF786001F044F92B4B1B683E
:404B800001332A4A13602A4B1B68002B09D1284A7B681360254B1B68012B10D100F04EFC0DE0244B1B68002B09D1214B1B68DA6A7B68DB6A9A4202D81D4A7B6813601E4BC0
:404BC0001B6801331C4A13607B68DA6A1B4B1B689A4203D97B68DB6A184A13607B68DA6A13469B0013449B00154A1A447B68043319461046FFF7D8F901F032F90D4B1B6809
:404C0000002B0ED00A4B1B68DA6A7B68DB6A9A4207D20C4B4FF080521A60BFF34F8FBFF36F8F00BF0837BD4680BD00BFC04F0208C04E0208CC4F0208DC4F0208C84F0208A7
:404C4000C44E020804ED00E080B58AB000AF7860396000237B627B68002B09D14FF03F0383F31188BFF36F8FBFF34F8FFB60FEE73B68002B09D14FF03F0383F31188BFF3D6
:404C80006F8FBFF34F8F3B61FEE7294B1B68002B09D04FF03F0383F31188BFF36F8FBFF34F8F7B61FEE700F095F8224B1B683B627B681A683B681344FB617B681A683B6A8A
:404CC0009A420BD97B681A68FB699A4211D9FA693B6A9A420DD901237B620AE07B681A68FB699A4203D8FA693B6A9A4201D901237B627B68FA691A607B6A002B06D0FA6968
:404D00003B6AD31A0021184600F058FC00F070F8B861BB69002B07D1074B4FF080521A60BFF34F8FBFF36F8F00BF2837BD4680BDE84F0208C44F020804ED00E080B586B071
:404D400002AF1E4B019300230093002380221C491C48FFF73BFEF860FB68012B02D100F081FCF860FB68012B15D14FF03F0383F31188BFF36F8FBFF34F8F7B60124B4FF0D7
:404D8000FF321A60114B01221A60114B00221A6000F0BEFF0DE0FB68B3F1FF3F09D14FF03F0383F31188BFF36F8FBFF34F8FBB60FEE700BF1037BD4680BD00BFE44F02088C
:404DC000EC7608100D540810E04F0208CC4F0208C44F020880B400AF044B1B680133034A136000BFBD465DF8047B7047E84F020880B584B000AF0023FB600023BB60414BAE
:404E00001B68002B09D14FF03F0383F31188BFF36F8FBFF34F8F3B60FEE700F0F3FF394B1B68013B374A1360364B1B68002B62D1354B1B68002B5ED02FE0344BDB68DB68AF
:404E4000FB60FB6818331846FFF70CF9FB6804331846FFF707F9FB68DA6A2D4B1B689A4203D9FB68DB6A2A4A1360FB68DA6A13469B0013449B00274A1A44FB6804331946A4
:404E80001046FFF791F8FB68DA6A234B1B68DB6A9A4202D3214B01221A601C4B1B68002BCBD1FB68002B01D000F044FB1C4B1B687B607B68002B10D000F046F80346002BF2
:404EC00002D0164B01221A607B68013B7B607B68002BF1D1124B00221A60104B1B68002B09D00123BB600F4B4FF080521A60BFF34F8FBFF36F8F00F0B3FFBB68184610376F
:404F0000BD4680BDE84F0208C04F0208804F0208C84F0208C44E0208C04E0208D44F0208D04F020804ED00E080B483B000AF054B1B687B607B6818460C37BD465DF8047B63
:404F4000704700BFC44F020880B586B000AF00237B61494B1B68002B7DD1484B1B6801333B61464A3B6913603B69002B1FD1444B1B681B68002B09D04FF03F0383F3118880
:404F8000BFF36F8FBFF34F8F3B60FEE73C4B1B68FB603C4B1B683A4A13603A4AFB681360394B1B680133384A136000F0C3FA374B1B683A699A4253D3314B1B681B68002B3D
:404FC00001D1012300E00023002B04D02F4B4FF0FF321A6044E02A4B1B68DB68DB68BB60BB685B687B603A697B689A4203D2274A7B68136034E0BB6804331846FFF732F8ED
:40500000BB689B6A002B04D0BB6818331846FFF729F8BB68DA6A1E4B1B689A4203D9BB68DB6A1B4A1360BB68DA6A13469B0013449B00184A1A44BB68043319461046FEF70A
:40504000B3FFBB68DA6A144B1B68DB6A9A42B3D301237B61B0E7114B1B6801330F4A13600F4B1B68002B01D001237B617B6918461837BD4680BD00BFE84F0208C44F020851
:40508000784F02087C4F0208D84F0208E04F0208C84F0208C44E0208C04E0208D04F0208D44F020880B586B000AF3A4B1B68002B03D0394B01221A6067E0374B00221A608F
:4050C000364B1B681B6B3B614FF0A533FB603B691A68FB689A4211D13B6904331A68FB689A420BD13B6908331A68FB689A4205D13B690C331A68FB689A4208D0274B1A6873
:40510000264B1B6834331946104600F091FF244B1B687B610FE07B69002B09D14FF03F0383F31188BFF36F8FBFF34F8F7B60FEE77B69013B7B611B497A6913469B0013441B
:405140009B000B441B68002BE5D07A6913469B0013449B00134A1344BB60BB685B685A68BB685A60BB685A68BB6808339A4204D1BB685B685A68BB685A60BB685B68DB6823
:40518000064A1360064A7B69136000BF1837BD4680BD00BFE84F0208D44F0208C04E0208C84F0208C44E020880B584B000AF786039607B68002B09D14FF03F0383F31188B4
:4051C000BFF36F8FBFF34F8FFB60FEE7074B1B68183319467868FEF70BFF0121386800F0EDF900BF1037BD4680BD00BFC04E020880B586B000AFF860B9607A60FB68002B29
:4052000009D14FF03F0383F31188BFF36F8FBFF34F8F7B61FEE70A4B1B6818331946F868FEF7C2FE7B68002B02D04FF0FF33BB607968B86800F0C2F900BF1837BD4680BD06
:40524000C04E020880B586B000AF78607B68DB68DB683B613B69002B09D14FF03F0383F31188BFF36F8FBFF34F8FFB60FEE73B6918331846FEF7F6FE1D4B1B68002B1DD12C
:405280003B6904331846FEF7EDFE3B69DA6A194B1B689A4203D93B69DB6A164A13603B69DA6A13469B0013449B00134A1A443B69043319461046FEF777FE05E03B6918333B
:4052C00019460E48FEF770FE3B69DA6A0C4B1B68DB6A9A4205D901237B610A4B01221A6001E000237B617B6918461837BD4680BDE84F0208C84F0208C44E0208804F0208DB
:40530000C04E0208D44F020880B483B000AF7860064B1A687B681A60054B1A687B685A6000BF0C37BD465DF8047B7047D84F0208C44F020880B588B000AF786039607B684D
:40534000002B09D14FF03F0383F31188BFF36F8FBFF34F8FFB60FEE73B68002B09D14FF03F0383F31188BFF36F8FBFF34F8F3B61FEE700F047FD1D4B1B68BB617B685B683E
:40538000BA69D31A7B613B681B68B3F1FF3F02D10023FB6123E07B681A68154B1B689A4207D07B685A68BB699A4202D80123FB6115E03B681A687B699A420BD93B681A68C7
:4053C0007B69D21A3B681A607868FFF79DFF0023FB6104E03B6800221A600123FB6100F03FFDFB6918462037BD4680BDC44F0208D84F020880B400AF034B01221A6000BFCC
:40540000BD465DF8047B7047D44F020880B582B000AF786000F052F8064B1B68012BF9D9054B4FF080521A60BFF34F8FBFF36F8FF0E700BFC44E020804ED00E080B582B0B2
:4054400000AF00237B600CE07A6813469B0013449B00124A13441846FEF778FD7B6801337B607B68062BEFD90D48FEF76FFD0D48FEF76CFD0C48FEF769FD0C48FEF766FDBE
:405480000B48FEF763FD0B4B054A1A600A4B054A1A6000BF0837BD4680BD00BFC44E0208504F0208644F0208804F0208944F0208AC4F0208784F02087C4F020880B582B0B0
:4054C00000AF19E000F09EFC0F4BDB68DB687B607B6804331846FEF7C5FD0C4B1B68013B0A4A13600A4B1B68013B094A136000F0B7FC786800F00EF8054B1B68002BE1D1B0
:4055000000BF0837BD4680BD944F0208C04F0208A84F020880B582B000AF78607B681B6B184600F0E1FD786800F0DEFD00BF0837BD4680BD80B483B000AF0F4B1B681B6844
:40554000002B01D1012300E00023002B04D00B4B4FF0FF321A6008E0074B1B68DB68DB687B607B685B68054A136000BF0C37BD465DF8047B704700BF784F0208E04F0208E9
:4055800080B483B000AF0B4B1B68002B02D101237B6008E0084B1B68002B02D102237B6001E000237B607B6818460C37BD465DF8047B7047CC4F0208E84F020880B584B083
:4055C00000AF78603960214B1B68FB60204B1B6804331846FEF746FD7B68B3F1FF3F0AD13B68002B07D01A4B1B68043319461948FEF7DAFC26E0FA687B681344BB60144B7B
:405600001B68BA685A60BA68FB689A4209D2124B1A680F4B1B68043319461046FEF7E8FC10E00E4B1A680A4B1B68043319461046FEF7DEFC0A4B1B68BA689A4202D2084AF4
:40564000BB68136000BF1037BD4680BDC44F0208C04E0208AC4F02087C4F0208784F0208E04F020880B584B002AF00237B6000F08DFA104B1B68002B0AD00F4B01930323AF
:405680000093002380220D490D48FFF79FF978607B68002B09D14FF03F0383F31188BFF36F8FBFF34F8F3B60FEE77B6818460837BD4680BD1C50020820500208F476081017
:4056C000DD57081080B58AB000AFF860B9607A603B6000237B62FB68002B09D14FF03F0383F31188BFF36F8FBFF34F8F3B62FEE7194B1B68002B2AD0BB687B617B68BB6196
:40570000FB68FB61BB68052B18DCFFF739FF0346022B09D1104B186807F1140100233A6BFEF78CFD786212E00B4B186807F1140100230022FEF782FD786208E0064B1868BC
:4057400007F1140100233A68FEF772FE78627B6A18462837BD4680BD1C50020880B588B002AF786039601C4B1B68DB68DB687B617B6904331846FEF775FC7B69DB69012BB2
:4057800021D17B699A697B68D1187B683A68786900F0C8F80346002B15D00023009300237A6800217869FFF78DFF38613B69002B09D14FF03F0383F31188BFF36F8FBFF362
:4057C0004F8FFB60FEE77B695B6A7869984700BF1837BD4680BD00BF1450020880B584B000AF786007F10803184600F057F8F860BB681946F86800F003F800F0D5F8F1E75D
:4058000080B584B000AF78603960FFF7E3FA07F10803184600F066F8F860BB68002B30D13B68002B0AD17A68FB689A4206D8FFF7DFFAF9687868FFF791FF24E03B68002BA6
:4058400008D0134B1B681B68002B0CBF01230023DBB23B600F4B18687A68FB68D31A3A681946FFF77FF8FFF7C3FA0346002B0AD1094B4FF080521A60BFF34F8FBFF36F8FEC
:4058800001E0FFF7B5FA00BF1037BD4680BD00BF185002081C50020804ED00E080B485B000AF78600E4B1B681B68002B0CBF01230023DBB21A467B681A607B681B68002B3D
:4058C00005D1074B1B68DB681B68FB6001E00023FB60FB6818461437BD465DF8047B70471450020880B584B000AF7860FFF71CFBF8600B4B1B68FA689A4205D200F0E6F864
:405900007B6801221A6002E07B6800221A60044AFB681360FB6818461037BD4680BD00BF2450020880B586B000AFF860B9607A603B6000237B61FB68BA685A60FB68FA68DA
:405940001A61BA687B689A4212D87A683B68D21AFB689B699A4202D301237B611BE0104B1A68FB68043319461046FEF741FB12E07A683B689A4206D2BA683B689A4202D35F
:4059800001237B6107E0074B1A68FB68043319461046FEF72DFB7B6918461837BD4680BD185002081450020880B58CB002AF7AE0BB68002B77DB3B697B627B6A5B69002B9E
:4059C00004D07B6A04331846FEF74CFB3B1D1846FFF788FF3862BB68092B63D801A252F823F000BF0D5A08100D5A08100D5A0810A75A0810675A08109D5A08100D5A081002
:405A00000D5A0810A75A0810675A0810FA687B6A9B69D118FB683A6A786AFFF783FF0346002B40D07B6A5B6A786A98477B6ADB69012B38D1FA687B6A9B691A4400230093B4
:405A400000230021786AFFF73DFEF861FB69002B29D14FF03F0383F31188BFF36F8FBFF34F8F7B61FEE7FA687B6A9A617B6A9B69002B09D14FF03F0383F31188BFF36F8FEC
:405A8000BFF34F8FBB61FEE77B6A9A693B6AD1183B6A3A6A786AFFF745FF04E0786A00F023FB00E000BF084B1B6807F1080100221846FEF751FD0346002B7FF479AF00BF9F
:405AC0002837BD4680BD00BF1C50020880B588B002AF44E02B4B1B68DB681B687B61294B1B68DB68DB683B613B6904331846FEF7B9FA3B695B6A386998473B69DB69012BFE
:405B00002DD13B699A697B691344FB60FA687B699A420ED93B69FA685A603B693A691A61184B1A683B69043319461046FEF760FA15E00023009300237A6900213869FFF772
:405B4000C1FDB860BB68002B09D14FF03F0383F31188BFF36F8FBFF34F8F3B60FEE7094B1B681B68002BB5D1064B1B687B60064B1B68044A1360044A7B68136000BF1837D6
:405B8000BD4680BD145002081850020880B500AF00F038F9124B1B68002B1DD11148FEF7D5F91148FEF7D2F9104B0E4A1A60104B0D4A1A6000220C210A20FEF7E5FA0246A4
:405BC000074B1A60064B1B68002B05D0044B1B6808491846FEF79EFE00F042F900BF80BD1C500208EC4F0208005002081450020818500208FC76081080B485B000AFF860DD
:405C0000B9607A60FB68043BFB60FB684FF080721A60FB68043BFB60BB6823F00102FB681A60FB68043BFB600C4AFB681A60FB68143BFB607A68FB681A60FB68043BFB605A
:405C4000FB686FF002021A60FB68203BFB60FB6818461437BD465DF8047B7047615C081080B485B000AF00237B60114B1B68B3F1FF3F09D04FF03F0383F31188BFF36F8F6C
:405C8000BFF34F8FBB60FEE74FF03F0383F31188BFF36F8FBFF34F8FFB6000BF7B68002BFCD000BF1437BD465DF8047B704700BF1C430208000000000000000000000000D0
:405CC000074B19680868B0E8F04F80F30988BFF36F8F4FF0000080F311887047AFF30080C04E020800BF00BF08480068006880F308884FF0000080F3148862B661B6BFF3CA
:405D00004F8FBFF36F8F00DF00BF00BF08ED00E080B584B000AF354BFB60FB681B78DBB27B60FB68FF221A70FB681B78DBB2FB70FB78DBB203F03F03DAB22D4B1A702D4B1B
:405D400007221A6009E02B4B1B68013B294A1360FB78DBB25B00DBB2FB70FB78DBB25BB2002BF0DB234B1B68C3F10703032B09D04FF03F0383F31188BFF36F8FBFF34F8FA0
:405D8000BB60FEE71B4B1B681B021A4A1360194B1B6803F4E063174A13607B68DAB2FB681A70154A144B1B6843F47F031360124A114B1B6843F07F43136000F0CDF80F4B96
:405DC00000221A6000F0ECF80D4A0D4B1B6843F040431360FFF788FFFFF764F9FFF740FF002318461037BD4680BD00BF00E400E0285002082C50020820ED00E01C430208EA
:405E000034EF00E080B483B000AF4FF03F0383F31188BFF36F8FBFF34F8F3B600E4B1B6801330D4A13600C4B1B68012B0ED10B4B1B68DBB2002B09D04FF03F0383F3118825
:405E4000BFF36F8FBFF34F8F7B60FEE700BF0C37BD465DF8047B70471C43020804ED00E080B483B000AF114B1B68002B09D14FF03F0383F31188BFF36F8FBFF34F8F3B60F3
:405E8000FEE70A4B1B68013B084A1360074B1B68002B04D100237B607B6883F3118800BF0C37BD465DF8047B704700BF1C430208EFF30980BFF36F8F154B1A681EF0100F7D
:405EC00008BF20ED108A20E9F04F10602DE909004FF03F0080F31188BFF34F8FBFF36F8FFFF7E0F84FF0000080F3118809BC19680868B0E8F04F1EF0100F08BFB0EC108AC3
:405F000080F30988BFF36F8F704700BFAFF30080C04E020800BF00BF80B582B000AF4FF03F0383F31188BFF36F8FBFF34F8F3B60FFF70AF80346002B03D0064B4FF080525D
:405F40001A6000237B607B6883F3118800BF0837BD4680BD04ED00E080B400AF0B4B00221A600B4B00221A600A4A0B4B1B680B49A1FB03131B0C013B1360044B07221A60E6
:405F800000BFBD465DF8047B704700BF10E000E018E000E014E000E0004302083BC637BEDFF80C00016841F470010160704700BF88ED00E080B485B000AFEFF30583FB601B
:405FC000FB680F2B13D9164AFB6813441B78FB72144B1B78FA7A9A4209D24FF03F0383F31188BFF36F8FBFF34F8F3B60FEE70E4B1B6803F4E0620D4B1B689A4209D94FF0A4
:406000003F0383F31188BFF36F8FBFF34F8F7B60FEE700BF1437BD465DF8047B704700BFF0E300E0285002080CED00E02C50020880B584B000AF786039604FF03F0383F3A4
:406040001188BFF36F8FBFF34F8FFB604FF441710148FCF779F9FEE70877081080B584B000AF78600023FB607B6803F00703002B04D07B6823F0070308337B60FEF7AAFECD
:40608000164B1B68002B05D1154B23F007031A46124B1A60134B1A687B68134442F2F772934213D80F4B1A687B681A440D4B1B689A420BD9094B1A680A4B1B681344FB60B8
:4060C000084B1A687B681344064A1360FEF790FEFB6818461037BD4680BD00BF34780208385002083078020880B485B000AF78607B68002B09D04FF03F0383F31188BFF331
:406100006F8FBFF34F8FFB60FEE700BF1437BD465DF8047B704700BF80B586B000AFF860B9607A6000237B61BB68002B0FD00AE0BB681B781846FBF759F8BB680133BB60F6
:406140007B6901337B617A697B689A42F0DB7B6918461837BD4680BD80B586B000AFF860B9607A6000237B61BB68002B18D013E0FBF74EF80346DAB2BB681A707B6901338E
:406180007B61BB681B780A2B0AD0BB681B780D2B06D0BB680133BB607A697B689A42E7DB7B6918461837BD4680BD00BF80B483B000AF0346FB80B7F90630002B0BDB0949F1
:4061C000B7F906305B09FA8802F01F02012000FA02F241F8232000BF0C37BD465DF8047B704700BF00E100E080B487B000AF0346B9607A60FB73324B7B61FB7B002B27D16F
:40620000BB68072B54D87B68FF2B51D8BB689A002C4B1B689B682B490968B1F874100B4413441846BB689A00264B1B689B6825490968B1F874100B4413441B6823F47F4216
:406240007B681B029BB21343036000237B612FE0FB7B012B2CD1BB680F2B29D87B68B3F5803F25D2BB689A00164B1B689B6815490968B1F876100B4413441846BB689A0069
:40628000104B1B689B680F490968B1F876100B4413441B6823F47F0222F47F427B681B0223F07F4323F0FF031343036000237B617B6918461C37BD465DF8047B704700BFE9
:4062C00001004A004079020890B484B000AF03463960FB712E4BFB60FB79032B52D8FB79002B02D13B68072B11D9FB79012B02D13B680F2B0BD9FB79022B02D13B68032BD1
:4063000005D9FB79032B3DD13B68002B3AD1214B1B689B6818461F4B1B6893F873301A46032303FA02F21B4B1B6893F870301946184B1B6893F8723001FA03F31A43FB79CC
:406340001449096891F8711003FA01F1114B1B6893F871301C460323A3400B401A430D4B1B6893F8703019463B680B40134343F00043C0F80034074B1B689B68D3F8003456
:406380000023FB60FB6818461037BD4690BC704701004A004079020880B485B000AF03463960FB71224BFB60FB79032B38D8FB79002B02D13B68072B11D9FB79012B02D1BF
:4063C0003B680F2B0BD9FB79022B02D13B68032B05D9FB79032B23D13B68002B20D1154B1B689B681946FB79124A126892F8712003FA02F20F4B1B6893F87130184603233C
:4064000083401A400B4B1B6893F8703018463B680340134343F08043C1F800340023FB60FB6818461437BD465DF8047B704700BF01004A004079020880B500AF03210020B1
:40644000FFF742FF00BF80BD80B500AF03210020FFF7A2FF00BF80BD80B582B000AF78607A6803210020FFF7BFFE00BF0837BD4680BD00BF80B500AF0248FCF711FA00BF7F
:4064800080BD00BF00001D4180B500AF094B1B7803F00103DBB2002B08D100F039F8054B1B7843F00103DAB2024B1A70FFF7E2FF00BF80BD3878020880B584B000AF786014
:4064C0000023FB73FFF7C0FF7B681B691846FFF7C3FFFFF7B1FFFB7B19460648FCF780F97B689B6819460348FCF70AF800BF1037BD4680BD00001D4180B500AF034BB3F99D
:4065000000301846FFF752FE00BF80BD3872081080B582B000AF00237B600F4B1B78002B16D10E490E48FBF787FE0E4B1B78002B0ED10C4B01221A7000237B607A6813465F
:406540009B0013449B00084A13441846FFF7B4FF00BF0837BD4680BD38780208BD65081038720810397802080C78081080B483B000AF78607B68D3F8103218460C37BD4611
:406580005DF8047B704700BF80B582B000AF786039603B68072B04D940F231610648FBF7D3FE7B683A68C3F810227B68D3F8103200BF0837BD4680BD5877081080B582B095
:4065C00000AF0848FFF7D2FF7860FAF75DFC79680448FFF7D9FF0348FFF7C8FF00BF0837BD4680BD00001D4180B483B000AF0346FB80B7F90630002B0BDB0949B7F906300B
:406600005B09FA8802F01F02012000FA02F241F8232000BF0C37BD465DF8047B704700BF00E100E080B483B000AF78607B681B6843F000427B681A6000BF0C37BD465DF846
:40664000047B704780B500AF02490348FCF7C2FE00BF80BDF47902080000664080B500AF0D4B1B78002B0BD10C4A0D490D48FCF71FFC0D490D48FBF7DFFD074B01221A7041
:406680000A4BB3F900301846FFF7AEFF0548FFF7C9FF00BF80BD00BF40780208F47902082078081000006640456608100872081080B483B000AF0346FB71044AFB791370EE
:4066C00000BF0C37BD465DF8047B70471C17344010B5431E0A44914204D011F8014B03F8014FF8E710BD02440346934202D003F8011BFAE77047000070B50E46054618B18A
:4067000083690BB900F022FAAB69AC6813B9284600F01CFA224B9C4201D16C6808E0214B9C4201D1AC6803E01F4B9C4208BFEC68A3891B0701D523693BB92146284600F07D
:40674000A5F810B14FF0FF3070BD013EA36816F8011F013BA36091B1002B04DAA269934206DB0A2904D023685A1C22601970EDE72246284600F036F80130E7D1E2E7002BA5
:4067800008DA22460A21284600F02CF80130D9D00A2070BD23680A205A1C2260187070BDD07A0810F07A0810107B0810024B01461868FFF7A1BF00BF8043020810B50346C4
:4067C00042B111F8014B03F8014B013A002CF7D11A4400E010BD934202D003F8014BFAE710BD0000F8B50F461446064618B183690BB900F0ABF9224B9C4201D1746808E09E
:40680000204B9C4201D1B46803E01F4B9C4208BFF468A369A360A3891A0709D523693BB123682069181A63699842FDB20FDB08E02146304600F02AF80028F1D04FF0FF306E
:40684000F8BD2146304600F017F90028F6D1A368013BA36023685A1C22601F706269431C934204D0A389DB0707D50A2D05D12146304600F001F90028E0D12846F8BD00BFEF
:40688000D07A0810F07A0810107B0810324B70B51D6806460C4625B1AB6913B9284600F055F92E4B9C4201D16C6808E02C4B9C4201D1AC6803E02B4B9C4208BFEC68B4F90B
:4068C0000C309AB215071DD4D00602D4092232603AE0510712D5616B41B104F14403994202D0304600F01CFA00236363A38923F02403A3810023636023692360A38943F057
:406900000803A38123694BB9A38903F42073B3F5007F03D02146304600F0C6F9A28912F0010305D00023A36063695B42A36103E0920758BF6369A36023695BB9B4F90C30D8
:4069400003F0800080B230B143F04003A3814FF0FF3070BD002070BD80430208D07A0810F07A0810107B08108A892DE9F041054610070C4659D44B68002B02DC0B6C002B22
:4069800017DDE66AAEB102F48052002392B22F682B600AB1606D15E0216A01232846B047411C0FD12B686BB11D2B01D0162B03D12F600020BDE8F081A38943F04003A381AD
:4069C000BDE8F081A3895A0705D56368C01A636B0BB1236CC01A00230246E66A216A2846B047431CA38906D129681D293AD8214ACA40D60736D500226260D9042269226061
:406A000004D5421C01D12B6803B96065616B2F600029CED004F14403994202D0284600F07FF900206063BDE8F0810F69002FC0D093070E6808BF4B690F6018BF0023C7EB82
:406A400006088B6002E00744C0EB0808B8F1000FAFDD43463A46216AA66A2846B0470028F1DCA38943F04003A3814FF0FF30BDE8F08100BF0100402038B50B6905460C468B
:406A8000DBB118B183690BB900F060F80C4B9C4201D16C6808E00B4B9C4201D1AC6803E0094B9C4208BFEC68B4F90C302BB121462846BDE83840FFF757BF002038BD00BFE5
:406AC000D07A0810F07A0810107B0810014900F0A9B800BF796A0810002310B5044603604360836081814366C281036143618361194608225C30FFF7F6FD054B6362054B62
:406B0000A362054BE362054B2462236310BD00BF996E0810BB6E0810F36E0810176F081070B568234D1E5D430E4605F1740100F045F9044640B1002180E842000C30A06072
:406B400005F16802FFF7CFFD204670BD836910B5044633BB8364C3640365124B124A1B688262984204BF0123836100F01FF86060204600F01BF8A060204600F017F8002285
:406B8000E06004216068FFF7A7FF01220921A068FFF7A2FF02221221E068FFF79DFF0123A36110BDCC7A0810CD6A0810F8B51C4B1E68B369074613B93046FFF7C7FF4836CE
:406BC000B4687368013B04D4B4F90C507DB16834F8E733680BB13668F2E704213846FFF79FFF30600028F6D10C233B60F8BD4FF6FF73E3810123A38165662560A560656058
:406C000025616561A5610822294604F15C00FFF76AFD6563A563A564E5642046F8BD00BFCC7A08102DE9F8438046894600F14804002694B1A5686768013F0CD4AB89012B77
:406C400007D9B5F90E30013303D029464046C84706436835F0E72468EBE73046BDE8F88370B50E46B1F90E10002990B014461D4606DA00232B60B3891A060ED540230EE007
:406C800001AA00F06FF90028F3DB029A02F47042A2F500535A425A412A604FF480630020236010B070BD00008B8973B59E0705460C4610D401AB6A46FFF7D2FF00990646CC
:406CC000284600F07BF868B9B4F90C309A0522D443F00203A38104F14703236023610123636118E00D4BAB62A389206043F08003A381009B6361019B20614BB1B4F90E1074
:406D0000284600F041F918B1A38943F00103A381A0893043A08102B070BD00BFCD6A081038B50546002946D051F8043C0C1F002BB8BFE41800F04AF91F4A1368114613B9BE
:406D40006360146032E0A3420ED92268A018834204BF18685B68636004BF121822600C6024E0A24203D813465A68002AF9D118681918A1420BD12168014458188242196096
:406D800014D1106852685A60014419600EE002D90C232B600AE021686018824204BF10685268626004BF091821605C602846BDE8384000F00CB938BDD478020870B5CD1CA1
:406DC00025F0030508350C2D38BF0C25002D064601DBA94202D90C23336046E000F0F6F8234B1C681A462146A1B10B685B1B0ED40B2B03D90B60CC18CD501EE08C420DBF0B
:406E000063684B686360136018BF0C4615E00C464968E9E7174C23681BB9304600F02CF820602946304600F027F8431C18D0C41C24F00304A0420DD12560304600F0C7F841
:406E400004F10B00231D20F00700C31A0ED05A42E25070BD211A304600F00EF80130EBD10C233360304600F0B2F8002070BD00BFD4780208D078020838B5064C002305463E
:406E80000846236000F0D6F8431C02D1236803B12B6038BD2C7A020810B50C46B1F90E1000F096F80028ABBF636DA3891B1823F48053ACBF6365A38110BD2DE9F0411F46CA
:406EC0008B89DB0505460C46164605D502230022B1F90E1000F068F8A389B4F90E1023F48053A38132463B462846BDE8F04100F017B810B50C46B1F90E1000F055F8431CF0
:406F0000A38915BF606523F4805343F48053A38118BFA38110BDB1F90E1000F013B8000038B5074C054608461146002222601A46FFF7F2F8431C02D1236803B12B6038BD24
:406F40002C7A020838B5064C002305460846236000F050F8431C02D1236803B12B6038BD2C7A020838B5074C0023054608461146236000F047F8431C02D1236803B12B6009
:406F800038BD00BF2C7A020838B5064C002305460846236000F03EF8431C02D1236803B12B6038BD2C7A020838B5074C054608461146002222601A4600F034F8431C02D1A6
:406FC000236803B12B6038BD2C7A02087047704738B5074C054608461146002222601A46FFF7BAF8431C02D1236803B12B6038BD2C7A0208024B58221A604FF0FF307047D1
:407000002C7A0208024B58221A604FF0FF3070472C7A0208024B58221A600020704700BF2C7A0208024B58221A604FF0FF3070472C7A0208044A05491368002B08BF0B4693
:407040001844106018467047D8780208307A0208F8B500BFF8BC08BC9E467047F8B500BFF8BC08BC9E4670474920616D20616C6976650D00426C696E6B5461736B310000FA
:40708000426C696E6B5461736B320000426C696E6B5461736B33000041444353616D706C655461736B30000003000000010000000100000000000000050360000400000007
:4070C0000100000000000000010000000604600008000000284E0208D907081047656E6572617465645F536F757263655C50536F43365C70646C5C647269766572732F70C8
:4071000065726970686572616C2F6770696F2F63795F6770696F2E680000000047656E6572617465645F536F757263655C50536F43365C70646C5C647269766572732F702A
:4071400065726970686572616C2F646D612F63795F646D612E68000047656E6572617465645F536F757263655C50536F43365C70646C5C647269766572732F706572697034
:40718000686572616C2F6770696F2F63795F6770696F2E680000000047656E6572617465645F536F757263655C50536F43362F4144432E680000000047656E657261746538
:4071C000645F536F757263655C50536F43365C70646C5C647269766572732F7065726970686572616C2F646D612F63795F646D612E6800004920616D20616C6976650D001A
:407200002C000000070000002E00000007000000320000000700000033000000070000003400000007000000350000000700000036000000070000008A000000070000002E
