:020000041000EA
:4000000000400208230100100D00000085010010000000000000000000000000000000000000000000000000000000008101001000000000000000008101001081010010E9
:400040008101001081010010810100108101001081010010810100108101001081010010810100108101001081010010810100108101001081010010810100108101001060
:400080008101001081010010810100108101001081010010810100108101001081010010810100108101001081010010810100108101001081010010810100108101001020
:4000C00010B5064C2378002B07D1054B002B02D0044800E000BF0123237010BD3406000800000000FC250010084B10B5002B03D00749084800E000BF07480368002B00D111
:4001000010BD064B002BFBD09847F9E70000000038060008FC250010E4000008000000007047FFF7FDFF72B60F4C104DAC4209DA21686268A368043B02DBC858D050FAE794
:400140000C34F3E70A490B4A0020521A02DD043A8850FCDC084809490860BFF34F8F00F001F900F01DF8FEE7002600101826001034060008440800080000000808ED00E0FF
:40018000FEE7FEE700B504207146084202D0EFF3098001E0EFF30880043001F06FFAFEE710B5034800F064F9002001F023FEFBE70000081010B5002000F0DEFF10BDC04692
:4001C00070B55F49E0239B00CB580F2213401A00D0329200525807210A4002D0042A02D00FE0584811E01A00C0329200544952581F210A40112A06D0132A04D0FA20C00165
:4002000003E0514801E080200002002B36D14C4BB222D2009A5801211140B125ED005A59120F032422405B591B0F1C4207D0444C63591B0F03242340012B02D102E00123B3
:4002400000E00023002B01D0002901D1032A4BD13B4BB022D2009D58AD03AD0B3B495958C904C90C9C58240E01231C40013401F073FE6843210001F06FFE35E0012B33D131
:400280002F4BC822D2009A5801251540C024E4001A59120F03210A401B591B0F194207D027490B591B0F03210B40012B02D102E0012300E00023002B01D0002D01D1032A64
:4002C00012D11F4DC022D200AB587F210B40A958090A1F263140AC58240C3440584301F03BFE210001F038FEE0239B00144AD3581B0903221340D840154C2060154B1D69EC
:400300002D0AFC32154001351969090E013101F023FE6060290001F01FFE0500A060E0600D4BC0180D4901F017FE20740C4BE818FA21890001F010FE6061C003A06170BDE8
:400340000000264000127A0000366E0184050000C0000008000021403F420F0040420F00E703000010B5284801F0F0FD274CB022D200A3585B005B08A350E021890063580E
:4003800030208343635080235B04A350204A214BE250A02292010433E250FF221E4BE25001F0C2FDC0225200A35801218B43A35000F0FCF9FFF704FFB0235B055B78002B2C
:4003C00004D0B0235B055B78DBB200E02123212B03D1124B0022DA605A60114C22008021042000F06FFC2000103000F003FD0D4B1A685123D35C002B02D00B4800F070FDC6
:4004000000F038FB10BDC046442500100000264001000200840500008C050000E00023405006000840080008D02000108023024AD3580320184070470000214010B501F076
:40044000B0F9084980228C58074B2340074C23438B508823034AD358DB06FAD501F0A5F910BDC04600002140FCFF00000100FA0570B50500830504D0E821FF310F4801F01B
:40048000CFF801F08EF90400FFF7D0FF032801D1FFF7D4FF0A4AB0239B00D55080215058084B03400848034353508823044AD358DB06FAD5200001F078F970BD04210010B7
:4004C00000002140FCFF00000300FA05FEE7C04680221206024B1A60024A034B1A60704700001D4101001180000E1F4130B587B09D49A022D2008B58032083438B509B4AE7
:40050000116808688823CB58C31818689849084018601368186884241B59C01803681B021B0A80256D042B430360106805680359EB1818680140196013683E229A5C002A0C
:4005400006D08948E02189004258753CA24342503E229A5C002A06D08348E021890042583024A24342503E229B5C002B07D07E49E02292008B588020000603438B500021F9
:40058000012000F02BFE0021022000F027FE0021032000F023FE0021042000F01FFE0021002000F01BFE01A8724903000A0032CA32C312CA12C300F03FFE002802D004205A
:4005C000FFF784FF68496C4A8B588020000603438B506A4800F0EAFE002802D00420FFF775FF614C664BE158664A0A40E250E158654A0A40E250E25880252D062A43E25087
:40060000043BE158614A0A40E250E158604A0A40802189010A43E250E258802109020A43E2505C4A11685C4B0B40802149000B431360002001F05AFC584BE2581543E55052
:40064000E158012291430A43E2506421002001F02DF8464B1B683F229A5C032A03D900214F4A986881509A6874215B5AD21811683F4B0B40A021C9000B4313603B4B1B6839
:400680007322995C703A8A40110070229A5C7220185C82400A43802109060A438021C900986842509A6852583F229A5C052A06D970229A5C01210A403A49986842509A6879
:4006C00074215B5AD2185168294B0B408C2189010B435360254B1B6873229A5C0321914070229A5C7220185C140084402143012002400A43802109060A438021C9009868C2
:4007000042509A6852583F229A5C392A06D970229A5C02210A402449986842509A6874215B5AD2189168124B0B40C42189010B4393600E4B1A687323D35C03219940702337
:40074000D35C7220105C1C0084402143022003400B43802109060B438021C9009068435093685B5807B030BD0000264040080008FF00FFFF1C210010087F0000400D030039
:4007800004050000FEFCFFFFFFFF00FFFFF0FFFFFF8FFFFF00002740FFFCFFFF0C0500000C0C0000140C0000E40C0000F0B58BB09621002000F07AFF00F050FF002801D1D0
:4007C00000F03CFF012001F02FFA434A516C434B0B40E82189010B435364536C1B0AFF2213403A2B07D13C4A516C3D4B0B40E82189010B435364FFF779FE0F26394B1E60F1
:40080000394A3A4B1A6001AC394D22002B00143383CB83C283CB83C283CB83C22100354800F030F922002B00383383CB83C283CB83C283CB83C221002F4800F023F92200C8
:400840002B005C3383CB83C283CB83C283CB83C221002A4800F016F9294923000A0083CA83C383CA83C383CA83C32100254800F009F924220021200001F0FAFBC023DB056B
:40088000E3602100204800F0FDF824220021200001F0EEFB019621001C4800F0F3F822002B00383323CB23C223CB23C223CB23C22100174800F0E6F824220021200001F038
:4008C000D7FBCC23DB05E3602100124800F0DAF8FFF7FEFD0BB0F0BD00002740FF00FFFFFFC5FFDF0000644007010100000264401C21001000003240800032408002324080
:400900009C2100100003324080043240000532408005324080063240214B984230D00ED8402831D004D800281FD010282AD031E080282BD080235B00984229D02AE0194B6C
:40094000984229D007D8A0231B0698420DD0164B984212D01EE0154B98420AD0144B984209D0144B984215D101E0002016E0124814E0124812E0124810E0A020C0030DE07F
:4009800007480BE00F4809E00F4807E00F4805E0034803E00E4801E0A420C0037047C04606005200010000F0090000A0040000F0050000F0030000F0010052000200520025
:4009C00003005200010050000200500005005200FF00520070B5124B1A683123D35C002B04D1C421FF310F4800F01AFE0C4B1D682C00B423EB582A6A944663441B68002B77
:400A00000BDB094B1868FFF787FF6B6801229A6063689B68002BFBD100E0044870BDC04640080008C0210010E00700080200500010B50D4B1861002805D002230370FD338F
:400A4000437000234380094B1B6850229A5C002A08D051229B5C002B04D04F3A0449002000F0F8FA10BDC046E0070008400800085D01000810B502481430FFF7D9FF10BDF5
:400A8000E007000870B505000C0000285DD000295DD0FF230A689A4303D099212D4800F0BFFDFF2322699A4303D09A21294800F0B7FDA3685B0D03D09B21264800F0B0FD0D
:400AC00063685B0A03D09C21224800F0A9FDE3695B0F03D09D211F4800F0A2FD236A5B0F03D09E211B4800F09BFD1B4A11688B69EB1ADB0949691B01CB18216829607D2169
:400B00001068415C6918E06808607E211068415C6918206908607F211068415C6918606908607C211068415C6918A06808606168A961116880228A5CAD18A2692A60E269C6
:400B40001A60226A5A60002002E0044800E0034870BDC046002200104008000801005A0070B504000D000A4B1A68B423D3581B181B68002B0ADA0B0C03D00649064800F0E1
:400B80004FFD2D042D0C6560002000E0034870BD40080008D50200008022001001008A0070B505000C000368002B01DA002300E0084B002B0BD1EA60230C03D006490748F0
:400BC00000F02EFD2404240CAC60002000E0014870BDC04601008A00BB0200008022001070B505000C1E03D19921084800F018FD074B1A68B423D3585B191B68002B03DAF4
:400C0000EB682360002000E0024870BDC02200104008000801008A0070B504000D00234B1A683123D35C834236D9002936D00B68DB0635D13123D35C984204D3C421FF314B
:400C40001B4800F0EDFC194B1B681A6AB0215B5A5C431419174E34602B68DA080021686801F006FA00212000FFF77AFF3468002D03D111490E4800F0D3FC2A000021200004
:400C8000FFF78EFF00280DD10A4B18680021FFF767FF002808D108E0084806E0074804E0064802E0064800E0054870BD4008000880220010F80700089303000003018A0002
:400CC00001018A0010B50400002A17D1002915D1124B1A683123D35C984204D3C421FF310F4800F09DFC0D4B1B681A6AB0215B5A5C4314190B4B1C6000200EE0002A09D0E2
:400D0000002909D0074B59609A60191D2000FFF783FF02E0044800E0034810BD4008000880220010F807000803018A00F0B583B00D001C4B1B68DC68236883422DD9470968
:400D40007B01C01A012383401E00002903D100F028FD019001E000230193124B18680368002B01DA002300E00F4B002B0ED16368BF00DF193B68334203D0B3433B60002406
:400D800000E00A4C0021FFF7EBFE00E0084C002D04D1019800F009FD00E0064C200003B0F0BDC046F807000801008A00020188000301880004018A000A4B1B68DA681368B3
:400DC00083420BD943095901401A0121814052689B009B580B4203D0034802E0034800E003487047F80700080101880004018A0000018800034B1B68002B01D1014B18606A
:400E00007047C04604080008F0B5474680B404000F0090461E002D4B1B68002B03D1B5212B4800F0FDFB294B1B682C2060431C18FF22150035402560330A13406360360C6A
:400E4000A660244B1A683123D35C9D4204D3C421FF31214800F0E4FB1E4B1A68B023D35A6B43116A8C466344236166683223D35C9E4204D3E021FF31174800F0D1FB154B2F
:400E80001B681D6A80367601AD196561A668330C04D0FF214900104800F0C2FB330C03D00E490D4800F0BCFB3604330C1E43AE604346E36127620023A361069B002B02D078
:400EC00000229B5EA38104BC9046F0BD04080008002300104008000880220010FF010000F0B58FB0041E03D15221294800F098FB6368032B03D95421254800F091FBE36A66
:400F0000002B03D15821224800F08AFB236B002B03D159211E4800F083FB07AA1300210061C961C321C921C302AD290023001433C1CBC1C141CB41C10821535E0CAE3380D9
:400F4000144B1B6836215B5E07998C466344B370089B0D930B9B0A980096A26AE16AFFF753FF2B69E868002200920021FFF74CFF216B300000F0E6FA0023F25E002A05DB80
:400F80001F231A401E3B9340034A13600FB0F0BD002300104008000800E100E0F8B505000F0016001C00002A03D1FD21224800F037FB224B1B68002B03D1FE211E4800F0FA
:400FC0002FFB1E4B1B682C2128004843181879435918012213004D68AB401B044568AA4015000269002A20D08F69002F1FD11268002A01DA002200E0114A002A19D13268B7
:401000001204120C134333600369DE6001238B614C6204692B0C03D00A490B4800F000FB2A04120CA260002004E0084802E0084800E00748F8BDC04600230010040800081E
:4010400001008A00BB0200008022001004028A0007028A0070B504000D0016000F4B1B68002B04D1AF2149000D4800F0D9FA0B4B1B682C2060431C18236A002B04D1B1219E
:401080004900074800F0CCFAE369B34204D9236AB6009D51002000E0024870BD04080008002300100A028A0070B582B0040000230193002804D1D221FF312D4800F0B0FAFE
:4010C0002369002B04D1E9214900294800F0A8FA6369002B04D1D421FF31254800F0A0FA236A002B04D1EA214900214800F098FA6269D5682B0C24D01B0413601368206991
:401100001C4B1A68B423D358C3181B68002B18DA01A9FFF765FD00280ED1019803681E0CFF221340E269934207D29B00226AD358002B02D0984700E0002631002069FFF7C1
:401140000FFD2D042D0C0FD063691D601B68636A002B03D098470023636203E0A36A002B00D098470023A36163691B6802B070BD002300104008000810B50400084B1B687B
:40118000002B04D1B221FF31064800F049FA044B1B682C2060431818FFF786FF10BDC046040800080023001010B50400094B1B689B6CC340DB0703D4BE21074800F030FA7A
:4011C000044B1B681B691034A402E3580F20184010BDC0464008000840230010134B1A683C23D35C83421DD9042904D94B1EFF3B9BB2132B18D8FF290CD91F2319400C4A08
:401200000300C0339B009950D03080000423835000200AE007231940D0308000044BC150002002E0034800E002487047400800080000264001004A0070B5041E03D14A4970
:401240004A4800F0EDF9B023DB00494AD358002B00DA87E0474B22689A4203D94649434800F0DEF923689B039B0BE279002A02D08022520400E000221343B022D2003C49DA
:401280008B50A2883D4B9A4204D984218900374800F0C6F92289344B9A4203D93849334800F0BEF9A388DB04D90C23891B04354A13400B43344A2E498B50A37A0F2B04D929
:4012C00086218900294800F0ABF9E37A0F2B03D92E49264800F0A4F9A289284B9A4203D92B49224800F09CF9A37A0F211940E27A1201FF2313400B43A289120225490A404C
:401300001343A27B1207C02189050A401343B122D20017498B50A379042B03D91E49134800F07EF9228A104B9A4204D9892189000E4800F075F90E4818494558184B1D4027
:40134000A3791B02E022D20013402B4343504558144B1D40238A1B040A4A13402B434350002000E0104870BDFF0100008023001000002640FFFF030009020000FF1F000077
:40138000110200000000FF0184050000190200001A02000000FF1F00230200008C050000FFF8FFFFFFFF00FE03004A0070B505003149324A8B588020000603438B502C0052
:4013C00003E0012000F020F9013CB223DB002A4AD3585B0701D4002CF3D12749B122D2008858274B03408020800503438B50002D01D0002C0CD02049B022D2008B588020A7
:40140000000603438B5003E0012000F0FDF8013CB223DB00184AD358DB0701D4002CF3D1002D01D0002C08D01349B122D2008B58C020800503438B5013E00F4BB121C90027
:4014400058580F4A02408020800502435A5008395A58520052085A5008495A58520052085A50002D03D0002C03D0002002E0002000E0044870BDC046000026408C050000F4
:40148000FFFFFFCF02004A0070B505000C001A4B1B6828229A5C012A15D1820807211000884327D19200AD1AED00FF20A8401B6820339A181168AC4023004B4018400400DC
:4014C0004C40146016E03A229B5EDBB2994203D176210A4800F0A4F8074B1B681B68072215408022120615438022920194466444A400E55070BDC0464008000808240010B9
:4015000070B504000D000B4B9A680B4B9A420CD1002904D13821FF31084800F081F81034054BA400E058E55003E01034A400044BE05870BD00ED00E0000000080824001099
:4015400000000010F0B5474680B482B0061E01914AD04368032B03D93221264800F060F80023F05E002804DBB178FFF78DFF002400E0214C0023F15E7368002912DB8808AE
:401580001E4FC0308000C55903221140C900FC3290468A4095439A01434613408B402B43C35116E089B20F220A40083A92080632920013481018476803221140C900FF25A0
:4015C0002A008A4097439A012B0013408B403B4343600B4B9A680B4B9A4206D10023F05E0199FFF78DFF00E0034C200002B004BC9046F0BD082400100100560000E100E092
:4016000000ED00E00000000810B5034B1B78584300F0BEF810BDC046D000000801BEFEE770B50D00044C18220100200000F028FDA5610020FFF7F2FFF8050008054B8022A9
:4016400012069A649B6C002B01DB002000E002487047C0460000274003004600054B8022120198585B68FF221A4202D08023DB021843704700002640FEE7C04610B50A4B8B
:401680000268DA6142681A6282685A62C2689A620269DA6242691A6382695A63C2699A63FFF7EAFF10BDC046F8050008F0B5474680B4002801D0192300E064238B429B4192
:4016C0005B42304D2C682268A826A45BA41822680327BA433B401A4322602C682268A45BA2181668284CA046264016602C682668AA229446A25A96193268BA4313433360A0
:401700002A6813686546525BD3181A68444614401C60002805D010291BD921291BD8012024E0184B1B6855229A5C914215D956229A5C914213D957229A5C914211D958220A
:401740009A5C91420FD959229B5C99420DD804200CE000200AE0022008E0002006E0012004E0022002E0032000E00520054A1268526813680F218B430343136004BC9046E0
:40178000F0BDC04640080008FFFCFFFF000000000230800803D001300238FCD1C046C0467047EFF3108072B6704780F31088704710B5B0235B059B899BB2002B04D0B02357
:4017C0005B059B899BB201E080235B0080225200934215D1184C23681968683A9B58C9180B680F208343963A13430B6021680C689C23CB58E318196881430A431A6019E0CC
:401800000D4C2368196898229B58C918B02040050A4BC2580A4B13400A681343C022920013430B60226811689C23D358CB18054A82581A6010BDC046400800084818000096
:40184000FFFCFFFF4418000030B5B0235B059B899BB2002B04D0B0235B059B899BB201E080235B0080225200934215D1184C23681968683A9B58C9180B680F208343953A3C
:4018800013430B6021680C689C23CB58E318196881430A431A6019E00D4D2B68196898229B58C918B0246405C12040012258094B13400A681343C022920013430B602A687D
:4018C00011689C23D358CB1822581A6030BDC04640080008FFFCFFFFB0235B059B899BB2002B04D0B0235B059B899BB201E080235B008022520093420DD1104B1B681A6845
:4019000098215B58D21811680D4B0B40C021C9010B43136011E0094B1B68196898229B58C918084BB0225205D258074B13400A681343C022920013430B60704740080008A3
:40194000FF8FFFFF18180000FFFCFFFF30B5B0235B059B899BB2002B04D0B0235B059B899BB201E080235B008022520093420DD1134B1B681A6898215B58D2181168114B72
:401980000B408021C9010B43136018E00C4D2B68196898229B58C918B02464050A4822580A4B13400A681343C022920013430B602A6811689C23D358CB1822581A6030BD56
:4019C00040080008FF8FFFFF4C180000FFFCFFFF10B5B0235B059B899BB2002B04D0B0235B059B899BB201E080235B0080225200934217D10020FFF7D7FBB0235B055B7824
:401A0000002B04D0B0235B055B78DBB200E02123222B03D8002803D1013004E0012002E0002000E0012010BD30B585B004000D00022807D9042805D0032803D02A492B48AC
:401A4000FFF7EEFD6B1EDBB2012B07D9042D05D0082D03D026492548FFF7E2FDA400254BE458042D13D0012D1CD112E0A3682B420BD1E3681A6802925B6801930393290068
:401A800002A8236898471B4B5C61646902E0002000E00020002C24D0174B9842E6D1012DE4D11EE0022D01D104E01C006369002BFBD104E00F4B5C69002C00D024690020BC
:401AC0000DE0A3682B4209D1E3681A6802925B6801930393290002A8236898472469002CEFD105B030BDC046B20900004C240010B309000008080008FF004200F8B50700F7
:401B0000012803D93D493E48FFF78AFDB0235B055B78002B04D0B0235B055B78DBB200E021239DB2B0235B059B899BB2002B04D0B0235B059E89B6B201E08026760000208A
:401B4000FFF732FB002814D180235B009E4212D1222D12D82B4B1B685C682B4821582B4B19403B068022520413400B432350002404E0274C02E0264C00E0254C80235B0058
:401B80009E4201D1222D03D880235B009E4232D01C4B1A683123D35C002B04D1C421FF311C48FFF73DFD174B1B681D6A80235B009E4203D1002F05D0174A06E0002F03D0E9
:401BC000164A02E0164A00E0164A01212800FEF7E7FF00280FD10B4B1A68B423D3585B191B68002BF7DBEB681B0E1B06A0221206934200D100242000F8BDC0464C0A000096
:401C00004C2400104008000818F00000FFFFFFFE04004200C0210010010100300300000C010000300100000CF8B50500012804D9822109012948FFF7F3FCFFF7C9FE00287B
:401C400049D0FFF7AEFD0700002D11D10021244B244AD150E823DB00B0225205D65CF6B20120FFF74BFF041E19D1FFF7A1FD16E0B02252051C4BD0581A4B194958501B490A
:401C8000565CF6B21A481A581F218A4314390A431A500320FFF7B8FCFFF758FE0024002C15D11049124A8B581F20834306401E438E50002D02D1FFF70FFE08E00720FFF76C
:401CC000A3FCFFF7C1FD0020FFF718FF04003800FFF76BFD00E0074C2000F8BD4C240010307F00000000264010180000410700001CFF00000300420010B5041E03D1154944
:401D00001548FFF78DFC154B1A68D168F222D2018A5822601B68F022D201D9688A5862600F4AD9688A58A2600E4AD9688A58E2600D4AD9688A5822610C4AD9688A586261A0
:401D40000B4AD9688A58A261DA680A4BD358E36110BDC046A10A00004C2400104008000804780000087800000C78000010780000147800001878000010B5041E03D1144958
:401D80001448FFF74DFC144B1B68F022D201D96860688850114AD968A0688850104AD968E06888500F4AD968206988500E4AD968606988500D4AD968A06988500C4AD96864
:401DC000E0698850DA682168F223DB01D15010BDC90A00004C2400104008000804780000087800000C78000010780000147800001878000070B50500012804D9A6218900D1
:401E00003548FFF70DFC354B5B68002B05D001210120FFF709FE040000E00024002C53D1FFF7BFFC06002D4B5B68002B03D004210120FFF7F9FD2A4B1B6843229A5C002AAC
:401E400008D09A68E023D358DB0603D523481830FFF752FFB0235B059B899BB2002B04D0B0235B059B899BB201E080235B0080225200934203D1280000F022F909E0194A65
:401E8000116904230B431361012D01D030BF00E020BF134B1B6843229A5C002A08D09A68E023D358DB0603D50C481830FFF764FF3000FFF77AFC094B5B68002B09D0082116
:401EC0000120FFF7B1FD04E002210120FFF7ACFD054C200070BDC0464C240010080800084008000800ED00E0FF004200042805D10B4A116804230B4313600FE0094B1A683F
:401F00001168A023D358CB180006C022920410401860034A136804218B4313607047C04610E000E0400800080749C02252008B589B009B088020C00503438B508B58802058
:401F4000000603438B50704700002640014B18607047C04640080008002243088B4274D303098B425FD3030A8B4244D3030B8B4228D3030C8B420DD3FF22090212BA030C36
:401F80008B4202D31212090265D0030B8B4219D300E0090AC30B8B4201D3CB03C01A5241830B8B4201D38B03C01A5241430B8B4201D34B03C01A5241030B8B4201D30B0326
:401FC000C01A5241C30A8B4201D3CB02C01A5241830A8B4201D38B02C01A5241430A8B4201D34B02C01A5241030A8B4201D30B02C01A5241CDD2C3098B4201D3CB01C01A22
:40200000524183098B4201D38B01C01A524143098B4201D34B01C01A524103098B4201D30B01C01A5241C3088B4201D3CB00C01A524183088B4201D38B00C01A5241430808
:402040008B4201D34B00C01A5241411A00D20146524110467047FFE701B5002000F006F802BDC0460029F7D076E770477047C04603008218934202D019700133FAE770472A
:40208000030030B5002A0DD00C7801335D1E013A2C700131002CF5D19A189A4202D01C700133FAE730BD0000F8B5C046F8BC08BC9E467047F8B5C046F8BC08BC9E46704789
:4020C00001B40248844601BC604700BF310300080300000001000000010000000000000005036000040000000100000000000000010000000604600008000000C007000804
:40210000B501001073797374656D5F70736F63365F636D30706C75732E630000F4010000140004010A0009050800000063010000080000000000000000000000006000003C
:4021400000000000000000000000000000000000000000000200000000000000000000006000000000000000000000000000000000000000000000000300000000000000FA
:4021800000000000680000000000000000000000000000001212000000000000030000000000000000000000CC6000BA0000000000000000000000001313000000001D1D4A
:4021C00047656E6572617465645F536F757263655C50536F43365C70646C5C647269766572732F7065726970686572616C2F6970632F63795F6970635F6472762E680000F5
:4022000047656E6572617465645F536F757263655C50536F43365C70646C5C647269766572735C7065726970686572616C5C6770696F5C63795F6770696F2E6300000000F7
:4022400047656E6572617465645F536F757263655C50536F43365C70646C5C647269766572735C7065726970686572616C5C6770696F5C63795F6770696F2E6800000000B2
:4022800047656E6572617465645F536F757263655C50536F43365C70646C5C647269766572735C7065726970686572616C5C6970635C63795F6970635F6472762E680000AD
:4022C00047656E6572617465645F536F757263655C50536F43365C70646C5C647269766572735C7065726970686572616C5C6970635C63795F6970635F6472762E63000072
:4023000047656E6572617465645F536F757263655C50536F43365C70646C5C647269766572735C7065726970686572616C5C6970635C63795F6970635F706970652E6300CF
:4023400047656E6572617465645F536F757263655C50536F43365C70646C5C647269766572735C7065726970686572616C5C70726F745C63795F70726F742E63000000008A
:4023800047656E6572617465645F536F757263655C50536F43365C70646C5C647269766572735C7065726970686572616C5C737973636C6B5C63795F737973636C6B2E63A2
:4023C0000000000047656E6572617465645F536F757263655C50536F43365C70646C5C647269766572735C7065726970686572616C5C737973636C6B5C63795F73797363CA
:402400006C6B2E680000000047656E6572617465645F536F757263655C50536F43365C70646C5C647269766572735C7065726970686572616C5C737973696E745C63795FCD
:40244000737973696E742E630000000047656E6572617465645F536F757263655C50536F43365C70646C5C647269766572735C7065726970686572616C5C737973706D5C68
:4024800063795F737973706D2E6300000000204000002440000000400000000000002340000030400000314000009F40000022400000104002020202020202020210101DEC
:4024C000800017007500FF030602063604102000000000007FC0000000040000000000000019324B647D00804000080B100000000000FF012002001F00800004FF081018C5
:40250000001000140018001C4044484C50000000081000000800000004000000041000000012000004210000002100000016000040114002C41300138013A0132000000052
:402540001C0000000000214000002540000001400000344000002440000031400000324000001F410000234000001140010101010101010101101010800019005500F00052
:402580000501053B04101C01010000000FC000000004000001010101011D3A57789600082000101208000000001F00000010000F002000023F06080E00080009000A000BDC
:4025C00024282C3034000000100000009000000088000000080000008000000004F0000000F00000400200002005A000D00100018001A00120000000100000000000000040
:402600000000001000000008C000000020260010C000000838050000340600081002000000127A0000093D0000093D0000093D0004000000A00F00000000D007E900001032
:40264000C10000100000000010B50004400B27D0144B1A68146AB023D15ACA00531AE3181B68002BF4DA3E220F4B1A600F4A104B1A60104B0621A322D20099500E4A9850CF
:402680009B58084B1A68106AB023D15ACA00531AC31800225A60084B064AD358002BFADA10BDC04640080008040126401E1F000008012640000026401C05000010B54378DE
:4026C000FF2B20D100F018FA04000F4B1A683123D35C042B04D8C421FF310C4800F004FA094B1A68116AB023D35A9B00CB18DB685A68116801230B4313601368DB07FCD499
:40270000200000F011FA10BD40080008C0210010F0B585B001900291544B1A683123D35C002B04D1C421FF31514800F0DDF94F4B1B681E6AB4229A58971950229B5C002BA9
:4027400077D000F0C1F9050003283CD1474B1A683123D35C062B04D8C421FF31444800F0C3F9424B1968B023CB5A5A00D21853000A6A94466344B4228A58D3181B68002B57
:4027800023DB002000F0D8F93A4B98421FD03A4B1A6900230021012000F0B6F9002803D0364C17E0013400E00024002000F0C4F9304B984202D0324B9C42F3D9304B9C42BF
:4027C00007D92E4C06E0002404E02C4C02E02B4C00E00024002C46D100F08EF90390294B294AD358002B13DA234A0121300000F0ABF900280ED10298FFF726FF019B002B6F
:402800000AD03B68002BFCDB00F086F9040004E01A4C02E0194C00E01C4C032D05D10121002000F059F90028F9D1039800F07CF919E000F061F905000F4A0121300000F06E
:4028400083F9002809D1019B002B08D03B68002BFCDB00F061F9040002E0084C00E00B4C280000F061F9200005B0F0BD40080008C021001001018800E007000805005200D6
:40288000EF4902001C0500000000264001005000F0B54F464646C0B4824B1A685468B0235B055B78002B04D0B0235B055B78DBB200E02123212B67D1B023D15ACB005B1A43
:4028C000116A8C46634419680029F5DADD6802212943D960B023D15ACB005B1A116A8C466344D968C9073ED5D9680904090C8C4684271168D559A84641440968090A09047D
:40290000FF26360431400D0088261168894691598846C14449460968090A0906294365462943D9601168D359C9180A685E4B98461A4090252D012A430A605A4B99461A6890
:4029400013689C46925962441368414619400B002B4313604B461A681568D15969180B689359EB181B684F4B1A68B021555AEB005B1B156AAC46634400255D60156A515AE1
:40298000CA00531AEB185B68484A116904230B431361012801D030BF00E020BF414B1A68B023D15ACB005B1A116A8C46634419680029F3DAB02149054978002904D0B02118
:4029C00049054978C9B200E02121212932D1D968C90722D510688421525880180468324A1440DB681B0C1B02FF2109020B40234303602C4B19688823C8580B689C466044B9
:402A000003681A400D6AB023CC5AE1000B1BEB18DB681B0E1B021A430260224B1A68106AB023D15ACA00531AC318DA6802218A43DA6028E086235B00E358002B23D11C4860
:402A400007681C4BA321C9005E581B4A904615681A4A0260062058503E21424611600631174A9950164B134AD358002BFADA154A86235B00E2500E4B1F60A323DB000D4ACB
:402A8000D6500D4B1D60074B1A68106AB023D15ACA00531AC31800225A600CBC90469946F0BDC04640080008FF00FFFF00ED00E00801264000002640040126401E1F00001A
:402AC0001C050000AAAAAAAA01B40248844601BC604700BF2D04001001B40248844601BC604700BF2D0D001001B40248844601BC604700BF2116001001B40248844601BCF1
:402B0000604700BFA317001001B40248844601BC604700BF9D0F001001B40248844601BC604700BFD509001001B40248844601BC604700BFAB17001001B40248844601BC9F
:402B4000604700BFB90D001001B40248844601BC604700BFA10B00100000000000000000000000000000000000000000000000000000000000000000000000000000000071
:402B80000000000000000000000000000000000000000000000000000000000000000000000000000000000000000000000000000000000000000000000000000000000015
:402BC00000000000000000000000000000000000000000000000000000000000000000000000000000000000000000000000000000000000000000000000000000000000D5
:020000041008E2
:4000000000780408EB0208100D0000005103081051030810510308105103081000000000000000000000000000000000B14208104D0308100000000051430810B54308104B
:400040004D0308104D0308104D0308104D0308104D0308104D0308104D0308104D0308104D0308104D0308104D0308104D0308104D0308104D0308104D0308104D03081000
:400080004D0308104D0308104D0308104D0308104D0308104D0308104D0308104D0308104D0308104D0308104D0308104D0308104D0308104D0308104D0308104D030810C0
:4000C0004D0308104D0308104D0308104D0308104D0308104D0308104D0308104D0308104D0308104D0308104D0308104D0308104D0308104D0308104D0308104D03081080
:400100004D0308104D0308104D0308104D0308104D0308104D0308104D0308104D0308104D0308104D0308104D0308104D0308104D0308104D0308104D0308104D0308103F
:400140004D0308104D0308104D0308104D0308104D0308104D0308104D0308104D0308104D0308104D0308104D0308104D0308104D0308104D0308104D0308104D030810FF
:400180004D0308104D0308104D0308104D0308104D0308104D0308104D0308104D0308104D0308104D0308104D0308104D0308104D0308104D0308104D0308104D030810BF
:4001C0004D0308104D0308104D0308104D0308104D0308104D0308104D0308104D0308104D0308104D0308104D0308104D0308104D0308104D0308104D0308104D0308107F
:400200004D0308104D0308104D0308104D0308104D0308104D0308104D0308104D0308104D0308104D0308104D0308104D0308104D0308104D0308104D0308104D0308103E
:400240004D0308104D0308104D0308104D0308104D0308104D0308104D0308104D0308104D0308104D0308104D0308104D0308104D0308104D0308104D0308104D030810FE
:400280004D0308104D0308104D03081010B5054C237833B9044B13B10448AFF300800123237010BDFC49020800000000A4810810084B10B51BB108490848AFF300800848E1
:4002C000036803B910BD074B002BFBD0BDE81040184700BF00000000004A0208A4810810C8430208000000007047FFF7FDFF72B6104C114DAC4209DA21686268A368043B10
:40030000A2BFC858D050FAE70C34F3E70B490C4A00209142BCBF41F8040BFAE709480A490860BFF34F8F00F09FF900F079F900F01DF8FEE7A8810810C0810810FC49020887
:40034000EC7602080040020808ED00E0FEE7FEE700B504207146084202D0EFF3098001E0EFF30880043000F0FBFFFEE780B582B062B604F013FA00F0FFF900F0FBFA354DF4
:40038000354E0024019400942B4664223349304603F054FA0194009405F10C0364223049304603F04BFA0194009405F1180364222C49304603F042FA01944FF00208CDF8EB
:4003C0000080234664222849284803F037FA01944FF00509CDF80090234664222449254803F02CFA244F254E0194CDF8009005F1240364223946304603F020FA019404233F
:40040000009305F1340364223946304603F016FA01940323009305F1440364223946304603F00CFA0194CDF8008005F1540364223946304603F002FA01940623009305F1A7
:40044000640364220E490F4803F0F8F903F028FAFEE700BF8C4202080909081014790810207908102C790810387908108509081040790810890A08104C790810B109081095
:400480005C7908100107081008B5012000F0D8FE08BD00BF704700BF5A4AD2F8803303F00F0303F1D00152F8212012F0070202D0042A02D00FE0544911E003F1C002514971
:4004C00051F8222002F01F02112A06D0132A04D04FF4FA4103E04D4901E04FF400418BBB484BD3F8902502F00100D3F88825C2F30172D3F8883513F0405F07D0414BD3F89C
:400500008835C3F30173012B02D102E0012300E0002303B108B9032A46D13A48D0F88025C2F31103D0F88425C2F30C02D0F88005C0F300600130B1FBF2F202FB03F2B2FB67
:40054000F0F131E0012B2FD12E4BD3F8402602F00100D3F80026C2F30172D3F8003613F0405F07D0274BD3F80036C3F30173012B02D102E0012300E0002303B108B9032AE6
:4005800012D12048D0F8002602F07F02D0F80036C3F30423D0F80006C0F3044002FB01F2B2FBF3F2B2FBF0F1164BD3F88033C3F3011321FA03F216490A601648D0F8903077
:4005C000C3F3072301330069000E0130B2FBF0F04860B2FBF3F38B60CB6003F5742202F23F220D48A0FB0202C2F387420A7403F2E7330A4AA2FB03239B094B61DB038B614E
:40060000704700BF0000264000127A0000366E01004302080000214083DE1B43D34D621008B50D4800F000FFFFF734FFFFF734FF00221146042000F0CBFB084800F05EFC6E
:40064000074B1B6893F8513013B1064800F0C6FC00F008FB08BD00BF247C0810184A0208B07502086C79081008B500F0D6FE074AD2F8883043F47003C2F88830BFF34F8F0E
:40068000BFF36F8F00F0CDFE08BD00BF00ED00E010B58AB004AC84E80F0020238DF824309DF830308DF825300223029309AB01931923009394E80F0000F09CF80AB010BD02
:4006C00010B58AB004AC84E80F000AABA82203F8042D0122029201931923009394E80F0000F088F840B9062301931923009304AB0FCB00F0C9F800E0FF200AB010BD00BF0C
:4007000010B588B004AC0FC884E80F0003F010F903909723009394E80F00FFF7B9FF50B94FF47A7103A803F0FFF908AB13E90F00FFF7C6FFF4E708B010BD00BF036853B1D1
:4007400010B50446012000F0EFFD2368013B23601BB1002010BD00207047012010BD00BF72B6FEE708B50249024802F011F808BD9C7602080000644010B5164A1649174824
:4007800001F0ECFB08B1FFF7EBFF154C154A2146124801F0FDFCA04201D9FFF7E1FF1249124800F087FD08B1FFF7DAFF0F4BB3F90030002B08DB590903F01F03012202FA40
:4007C00003F30B4A42F82130044A136843F00043136010BD9C760208CC7F081000006440801A060015287F0065070810207A081000E100E030B587B08DE80F000C9D022DB6
:4008000001D9FFF7ADFF9DF828308DF800300B9B01930295194A6946194801F05BFE48BB184B05931549164801F09AFD044605A8FFF784FF14F4803F01D00028F2D050B1D7
:400840000F4C0E49204601F04FFC236843F000432360FF200FE014F0F87F07D10749084801F0DCFE854203D0FF2004E0FF2002E0002000E0FF2007B030BD00BF9C76020898
:400880000000644040420F0010B586B08DE80F009DF820308DF80030174B0193099B0293164A6946164801F05DFD08BB154B05931249134801F054FD044605A8FFF73EFF26
:4008C00014F4803F01D00028F2D050B10C4C0B49204601F009FC236843F000432360FF2007E014F0F87F01D0FF2002E0002000E0FF2006B010BD00BF907502089C7602080A
:400900000000644040420F002DE9F04383B00746D0F8089003F00CF801900024494601A803F002F903F004F884F00104D7F800807D682646072D04D940F227310C4800F0A0
:40094000FFFC012E04D94FF44A71094800F0F8FC2EB9012303FA05F5C8F8045004E0012303FA05F5C8F8085002F0E2FFD6E700BFA079081008B503F0D7FE03F0A7FE03F080
:4009800081FF08BD00B583B003F08EFE02F0D0FF019042F2107101A803F0C6F8034B1B78002BF6D00022014B1A70F2E7984B0208F0B583B00446856802F0BAFF01902946E0
:4009C00001A803F0B1F827686668072E04D940F22731174800F0B4FC0123B340BB6001E003F020FF03F052FF237B9842F8D103F05BFE27686668072E04D940F227310C4877
:400A000000F09EFC0123B3407B600A4B1B6803EB83039A00084B1A44536823B94FF47671064800F08DFC0021054800F061FEC6E7A079081078750208007F0810E079081081
:400A400000001D4108B501220A4B1A700A4B1B6803EB83039A00094B1A44536823B94FF47671074800F06CFC0021064800F040FE08BD00BF984B020878750208007F0810BD
:400A8000E079081000001D4100B583B002F050FF019042F2107101A803F046F8014804F0E7FFF6E7007A081010B504462146034800F05EFE0028F9D010BD00BF000066405C
:400AC000054BD3F80833C3F30803002BF8D0024BD3F84003704700BF000066401F4B98422DD00CD840282ED003D8E8B1102828D02FE0802829D0B0F5807F28D029E0184B8E
:400B0000984228D006D8B0F1204F0DD0154B984212D01EE0144B98420AD00133984209D0023B984215D101E0002070470F4870470F4870470F4870474FF4A000704707483C
:400B400070470D4870470D4870470D487047034870470C4870474FF4A400704706005200010000F0090000A0040000F001005200020052000300520001005000020050006A
:400B800005005200FF00520038B5124B1B6893F83130012B04D840F2C3110F4800F0D0FB0C4B1D682A6AB5F8B03013442C46D5F8B420D358002B0BDB084B1868FFF78EFFBB
:400BC0006B6801229A6063689B68002BFBD138BD034838BDB0750208287A08109C4B0208020050001A4B186128B102230370FF23437000234380174B1B6893F850202AB318
:400C000000B583B0B3F93830ADF80030002301931149684600F04EFBBDF90030002B08DB590903F01F03012202FA03F30B4A42F82130084B1B6893F8513023B10222084960
:400C4000012000F077FA03B05DF804FB704700BF9C4B0208B07502083944020800E100E0F144020808B50248FFF7BCFF08BD00BFB04B020838B50B4B1B68D3F8B4301B58A5
:400C8000002B0DDA0D4604460B0C1B0423B140F2D521054800F054FBA9B26160002038BD024838BDB0750208687A081001008A0038B50368002B01DA002300E0094B73B9C2
:400CC0000D460446C2600B0C1B0423B140F2BB21054800F035FBA9B2A160002038BD014838BD00BF01008A00687A081038B504460D4619B99921084800F022FB074B1B6875
:400D0000D3F8B4301B59002B03DAE3682B60002038BD034838BD00BFA87A0810B075020801008A00254B1B6893F8313083423AD900293AD00B6813F01F0F38D170B50D469B
:400D400004461E4B1B6893F83130984204D340F2C3111B4800F0F4FA184B1B68186AB3F8B03004FB0304174E34602A68D2080021686804F004FA00212046FFF77BFF346885
:400D800025B940F293310E4800F0DAFA2A4600212046FFF78DFF60B900210A4B1868FFF769FF40B970BD084870470748704706487047064870BD054870BD00BFB075020844
:400DC000687A0810B44B020803018A0001018A0010B504461346B2B9A9B9124B1B6893F83130984204D340F2C3110F4800F0A8FA0C4B1B681A6AB3F8B03004FB03240B4BD0
:400E00001C60002010BD43B149B1084A51609360111D2046FFF786FF10BD054810BD044810BD00BFB0750208687A0810B44B020803018A002DE9F0411B4B1B68DC682368D8
:400E400083422CD90D464609A0EB4610012303FA00F819B900F0E1FA074600E00027124B18680368002B01DA002300E00F4B83B9626852F8263018EA030F05D023EA0803C9
:400E800042F82630002400E0094C0021FFF7F2FE00E0084C25B9384600F0C3FA00E0064C2046BDE8F08100BFB44B020801008A00020188000301880004018A000B4B1B6885
:400EC000DB681A6882420CD94109A0EB4110012202FA00F05B6853F82130184203D004487047044870470448704700BFB44B02080101880004018A0000018800024B1B6880
:400F00000BB9014B18607047C04B02082DE9F8430446884691461D46089F2C4B1B681BB9B5212B4800F00CFA284B1B682C2000FB04F01C18EEB21E50C5F3072363602D0CB5
:400F4000A560244B1B6893F831309E4204D340F2C311214800F0F4F91E4B1B68196AB3F8B02006FB02162661666893F832309E4204D340F2DF11184800F0E2F9154B1B685F
:400F80001D6A803605EB46156561A668330C1B0423B14FF4FF71104800F0D2F9330C1B0423B140F2FF110C4800F0CAF9B3B243EA0646AE60C4F81C90C4F820800023A3618B
:400FC00017B1B7F90030A381BDE8F883C04B0208E87A0810B0750208687A0810F0B58FB0044618B95221274800F0AAF9A369072B03D95621234800F0A3F9E36A1BB95821B7
:40100000204800F09DF9236B1BB959211D4800F097F907AD04F114060FCE0FC537682F6002AD26460FCE0FC533682B60164B1B68B3F93620079B1344ADF83030089B0D9346
:40104000A26AE16A0CAD00953B460A98FFF75EFF00210091069B0A460598FFF757FF216B284600F027F9BDF93030002B08DB590903F01F03012202FA03F3044A42F8213036
:401080000FB0F0BDE87A0810B075020800E100E0F8B506460F461D4614461AB9FD211F4800F04EF91E4B1B681BB9FE211B4800F047F91B4B1B682C2101FB063001FB0731B2
:4010C0004B68012202FA03F31B04466802FA06F60269EAB18F69EFB91268002A01DA002200E0104AC2B92288134323600369DC6001238B614D620469330C1B0423B140F2AC
:40110000BB21094800F01CF9B2B2A2600020F8BD0648F8BD0648F8BD0548F8BDE87A0810C04B020801008A00687A081004028A0007028A00F8B505460F4616460E4B1B687E
:4011400023B94FF4AF710D4800F0FAF80A4B1B682C2404FB0534236A23B94FF4B171074800F0EEF8E369B34204D9236A43F826700020F8BD0248F8BDC04B0208E87A0810C7
:401180000A028A0070B582B000230193044620B940F2D111284800F0D3F8236923B94FF4E971254800F0CCF8636923B940F2D311214800F0C5F8236A23B94FF4EA711E48C2
:4011C00000F0BEF86369DD682A0C20D012041A601B682069194B1B68D3F8B430C358002B15DA01A9FFF782FD60B9019803681E0CDBB2E269934206D2226A52F8233013B1D3
:40120000984700E0002631462069FFF733FDADB275B16369ADB21D601B68636A1BB198470023636202E0A36A03B198470023A36163691B6802B070BDE87A0810B075020813
:4012400010B50446074B1B6823B940F2B111064800F076F8034B1B682C2000FB0430FFF791FF10BDC04B0208E87A081038B50D4B9A680D4B9A420FD10D46044621B940F2DC
:4012800037110A4800F05CF804F11003064A52F8230042F8235038BD1030054B53F8200038BD00BF00ED00E000400208287B08100000081048B338B504460D464368072BEE
:4012C00003D93221134800F03BF8B4F900306268002B08DB5201D2B203F1604303F5614383F8002305E003F00F035201D2B20A49CA540A4B9A680A4B9A4208D12946B4F935
:401300000000FFF7B3FF002038BD06487047002038BD00BF287B081014ED00E000ED00E0004002080100560008B5034B1B7800FB03F000F069F808BD1043020801BEFEE76A
:4013400038B50D46044C18220146204604F0B0FBA5610020FFF7F2FF68490208FEE700BF08B50268254BDA6142681A6282685A62C2689A620269DA6242691A6382695A63B0
:40138000C2699A631E4A916AD963D16A1964516A5964516B9964926BDA64F1EE103A13F0900F27D0026A154B1A65426A5A65826A9A65C26ADA65026B1A66426B5A66826B2D
:4013C0009A66C26BDA66026C1A67426C5A67826C9A67C26CDA67026DC3F88020426DC3F88420826DC3F88820C26DC3F88C20026EC3F89020FFF7B2FF08BD00BF6849020843
:4014000000ED00E0000000000230800803D001300238FCD100BF00BF7047EFF3108072B6704780F310887047014B1860704700BFB07502082DE9F8430E46074618B93A214B
:401440007548FFF77DFF1EB93B217348FFF778FF002F00F0DA80002E00F0DA8032686F4B13401BB14A216C48FFF76AFF72686C4B13401BB14B216848FFF762FFB36813F0BF
:40148000FC2F03D04C216448FFF75AFFF36813F0FC2F03D04D216048FFF752FF337D032B03D94E215C48FFF74BFFB369B3F5803F03D34F215848FFF743FFF36D072B03D9F1
:4014C00050215548FFF73CFF336EB3F5803F03D351215148FFF734FF736EB3F5803F03D352214D48FFF72CFF736843F000437B60B3683B61F3687B613369BB61337D9B0730
:40150000FB61B3693B62336803F46068736803F00409002435E02546A31D06EB83035A68404B13401BB163213B48FFF709FFAB1D06EB8303596805F1200247F822105B68C9
:4015400013F0012F0BD1B8F5606F08D1B9F1000F05D04FF47842344B23F8152003E00022314B23F81520726F02F11C7303F58033520093FBF2F31BB22C4A42F82530013402
:40158000E4B20F2CC7D9F36DC7F81832F36DC7F81032336EC7F82832336EC7F82032736EC7F83832736EC7F8303296F87030DBB1B36EB3F1804F03D382211748FFF7C0FE9E
:4015C000F36E23F44F0323F0FF031BB183211248FFF7B6FE6FF04043C7F80433B36EC7F80033F36EC7F84433D7F8003F3F2B02D0D7F8003F13B90B23C7F8003F336843F4F4
:4016000000133B600020BDE8F8830948BDE8F8830748BDE8F88300BFDC7C08100811DF0001FE302088CA887EB4750208D47502080100060038B50D46044618B9B5211748F1
:40164000FFF77EFE2CB30023236063604FF0031222616261A361E361236206E003F12002002144F822100133DBB20F2BF6D90023C4F81832C4F82832C4F838325DB16FF022
:401680004043C4F804330020C4F84003C4F8440338BD034838BD002038BD00BFDC7C08100100060008B50368002B0ADBD0F8A032002BFBDB036843F0004303600220FFF7E3
:4016C00033FE08BD38B505460C46012904D940F271110648FFF734FE012C04D16B6843F480336B6038BD01236B6238BDDC7C081038B505460C460F2904D940F27B210648A9
:40170000FFF71EFE0F2C04D8603455F8240080B200E0002000B238BDDC7C081010B4D0F8003303F00F03072B06D900230DE0D0F84043CC54013300E000239342F7D306E026
:40174000D0F8404321F8134001339342F8D35DF8044B704710B51446D0F80833C3F308039A4200D31C462246FFF7D8FF204610BD036813F4006F01D0802200E04022D0F8C9
:401780000832C3F30803934203D0C0F84012012070470020704700BF10B4D0F8003203F00F03072B06D900230DE0CC5CC0F84042013300E000239342F7D306E031F8134090
:4017C000C0F8404201339342F8D35DF8044B704710B51446036813F4006F01D0802200E04022D0F80832C3F30803D31AA34200D81C462246FFF7D0FF204610BD02E0C0F802
:401800004012013A002AFAD1704700BF10B51446036813F4006F01D0802200E04022D0F80832C3F30803D31AA34200D81C462246FFF7E4FF204610BD10B54A6841F201030A
:401840009A4231D1D0F80833C3F30803B3B10B6A43F040030B620B7873B1D0F8043343F48033C0F80433D0F8043323F48033C0F80433D0F8043301E0D0F840330B6A43F010
:4018800020030B620B6A23F010030B62036E23F4204303660023C0F8C83F0123C0F8C03FD0F8C03F202221E0D0F80832C3F30802D0F80832C3F3C03313440A6BD21A4A63A3
:4018C0000A6A12F0080F05D1CA6A1A44CA628A6AD31A8B620B6A43F004030B620B6A23F001030B620023C0F8883F1022D0F84C4F40F201131C420DD0036823F00043036008
:4019000000238366C366036843F000430360036842F040024FF080534B604B6C0BB11046984710BDD0F80C3F13F0020F1DD00222C0F8002FD0F8002FD0F8002F12F0040FFB
:4019400002D04FF4001001E04FF480108A6802438A604A68B2F5B81F07D00A7B12B14FF4C01201E04FF4B0124A6013F4807F03D08A6842F400028A6013F0010F03D08A68B4
:4019800042F480028A6040F21112134202D04FF4C0134B60704700BF0023C0F8C83FC0F8883F836E23B140F21713C0F8083F704740F21313C0F8083F182383664FF4B81311
:4019C0004B60704738B5D0F80C4F036E23F4807303660023C0F8C83FC0F8883FC0F8083F40F21713C0F8003FD0F8003F8B6823F480338B604B7B13B18B69CB610BE08D69A4
:401A0000D0F80822C2F30802D0F80832C3F3C0331344EB1ACB6140F201131C421BD0036E9B0F032B05D114F4827F14BF0123002300E001235BB1036823F00043036000239A
:401A40008366C366036843F00043036003684FF080534B601BE00B7893B1D0F8043343F48033C0F80433D0F8043323F48033C0F80433D0F804330123C0F8C03FD0F8C03FF5
:401A80000B7B0BB10B4B01E04FF080534B604A6C72B14B7B13B14FF4802001E04FF400308B6813F0F87301D04FF400231843904738BD00BF0000101070B505460C4691F86D
:401AC000243013F0FF0F0ED1CB6A63B94B6C0BB108209847E36AB3FA83F35B0984F824300123C5F8883F94F8243013F0FF0F16D063783BB12B6813F4006F01D0802202E08F
:401B0000402200E00122FF212846FFF77FFE236B18442063236A43F00803236270BDE26A012A11D963780BB1013A00E00122A16A2846FFF74DFE236B03442363E36A1B1A88
:401B4000E362A36A1844A062D5F80832C3F30803802B23D0E36A012B20D1FFF75EFCA36A1B78C5F840324026C5F8806FD5F8803FFFF757FC236B013323630023E362A36A22
:401B80000133A362C5F8886F63783BB1236A43F002032362636C0BB10420984770BD00BF38B54B68B3F5A81F03D14FF4C0134B6038BD4B68B3F5A01F4DD10C4605464A698C
:401BC000012A11D94B780BB1013A00E0012221692846FFF7FDFDA3690344A36163691B1A6361236903442361D5F80832C3F30803802B14D06369012B11D1FFF70EFC2369FB
:401C00001B78C5F840324023C5F8803FD5F8803FFFF707FCA3690133A361002363616369CBB9237B33B14023C5F8883F4FF4A813636005E00023C5F8883F4FF4B013636084
:401C4000637843B1A36843F40033A360636C13B14FF48030984738BD70B504460D468A6C82B3036813F4803F06D0D0F84C3F13F0400F03D0022002E0002000E00020236EA2
:401C800013F4006F06D1D4F84C3F13F0800300D001231843C0B190470123C4F8C03FD4F8C03F024648B91023C4F8403FD4F8403F40F2D113C4F8483F07E040F2C113C4F8B5
:401CC000483F02E0002200E00022D4F8043243F48033C4F80432D4F8043223F48033C4F80432D4F804320AB9012300E00223E366002A59D1666E06F010066B6C23B10EB1E6
:401D0000012000E0022098477EB141F202036B602B6A43F001032B626B6B2B63002385F824300123C4F8883F70BD41F201036B602B6A43F010032B620123C4F8C83F2B78F6
:401D4000BBB1EB6BBBB1236E43F400532366ED6B802D05D9A5F18003802B0ED8813D0DE0013D236E43F4004323660023C4F8C83F04E0002502E0002500E03F25236813F4BB
:401D8000006F01D0802300E040239D4204D34FF420710648FFF7D4FAD4F8043323F0FF03EDB21D43C4F8045370BD00BF187D081038B54B68B3F5881F03D0B3F5901F1AD09B
:401DC00038BD0B69D0F840231A708B6901338B614B69013B4B612BB10B6901330B610423836638BD0B7B13B14FF4C01301E04FF4B0134B6038BD0C4605464A690969FFF781
:401E0000A9FCA3690344A36163691B1A6361226910442061012B24D82B6E23F480732B666369012B16D12B6813F4006F01D0802300E0402323B94FF420711848FFF780FA06
:401E4000D5F8043323F0FF03C5F804334FF48813636038BD0023C5F8C83F4FF4B013636038BD402B01D89C1E00E03F242B6813F4006F01D0802300E040239C4204D34FF421
:401E800020710648FFF75CFAD5F8043323F0FF02E3B21343C5F8043338BD00BF187D081038B5CB6B002B50D00B78002B3FD00C460546D0F80423D2B20132896BFFF74AFC01
:401EC000236C03442364E36B1B1AE363A26B1044A063802B06D9A3F18002802A0FD8A3F181040DE02B6E43F400432B66E36B0BB15C1E00E000240023C5F8C83F00E03F24CB
:401F00002B6813F4006F01D0802300E040239C4204D34FF420711048FFF712FAD5F8043323F0FF02E3B21343C5F8043338BD0123C3668A6B0B6CD0F84003D0540B6C01337F
:401F40000B64CB6B013BCB6338BD0223C3660023C0F8C83F38BD00BF187D0810F8B50B78012B03D00C7A1CB9002702E0002700E00127002800F0A780002900F0A680002A62
:401F800000F0A58016460C460546013BDBB2022B03D94F214F48FFF7D3F9637803B163791BB150214B48FFF7CBF994F90330002B03DA51214748FFF7C3F9237913F0010F59
:401FC00003D052214348FFF7BBF92369102B03D953214048FFF7B4F9E368102B03D954213C48FFF7ADF9637913B14FF4803100E00021E27912B14FF4807300E000230B43F3
:4020000043F400632B60A37913B94FF4006300E000232269013A02F00F021A43E368013B1B01DBB21343227843EA82732B6617B140F2073301E040F20713C5F800330FB1E0
:40204000254B00E0254B2B6763780BB17F2300E00023C5F80433E3785B00DBB2227943EA0243C5F810331E4BC5F80032A3780BB1402300E00123C5F804320023C5F8C83E1F
:40208000C5F8883EC5F8C83FC5F8883FC5F8083F2378022B02D040F2D11300E00023C5F8483F63783370A37873704FF0805373600020B060B06130623064F0633063F0625A
:4020C0007064B064F8BD0748F8BD0648F8BD0548F8BD00BF5C7D081003002A0013102A00070101000120AA00036823F0004303604FF080534B6000238B600B62704700BF6A
:4021000038B505460C4621B940F2C3211948FFF717F92B6E9B0F012B17D1174B2344174A93421ED9A4F5BD13A3F5D66302F5611202F56162934216D9A4F57104A4F5334431
:402140000F4B9C4211D80F4838BD84B1286EC0F303102B6E03F00F0318440230B4FBF0F038BD094838BD094838BD002038BD002038BD00BF5C7D081020AD88FF405B7300E9
:4021800040555C0440420F00801A0600A08601002DE9F84307468846914622B940F212216248FFF7CDF808F1FF34614B9C4204D940F213215D48FFF7C3F83B6E9B0F012B1C
:4021C0000DD149463846FFF79BFF0546D7F8003323F40073C7F80033564B3B67A2E0544B9C421FD8544B984509D8A9F5BD13A3F5D663524A934218D90021012328E0504B7C
:40220000984507D84F4B4B444F4A934213D9002101231DE04D4B4B444D4A934212D90021012315E00021012312E0002141F288352E460B460CE000214FF461754FF4C866C1
:402240000B4605E001214FF4BE754FF41B760023002B66D13F4BB3FBF9F3B6FBF3F404FB03F2964200D90134102C00D910240F2C8CBF00220122B5FBF3F606FB03F39D421E
:4022800000D90136102E00D91026A519B9FBF5F50FE022B10F2C09D80134002206E00F2E04D801360F2C8CBF00220122A519B9FBF5F5454502D9A3191F2BEAD941B1D7F8E4
:4022C000003343F40073C7F80033234B3B6707E0D7F8003323F40073C7F80033154B3B67E31F092B04D940F283511C48FFF728F83B6E23F0F003013C2401E4B223433B6657
:40230000731F0B2B04D94FF4B4611448FFF718F83B6E23F00F03013E06F00F061E433E6600E000252846BDE8F88300BF5C7D08103F420F0013102A00A0860100502D190044
:40234000801A060020AD88FFA0432100807E25FFC02BAF0000CA9A3B03002A009C7D08108868704770B5044615460E4621B940F2D3415548FEF7E4FF73680BB1B36823B9C4
:4023800040F2D4415048FEF7DBFF96F90030002B04DA40F2D5414C48FEF7D2FF0023C4F8483F6B6813F0805F00F0888033785B00DBB243F001034FF48032AA6072682A61C4
:4023C000B2686A610022AA61EA61327B2A7301226A7340F21712C4F8002FD4F8002FD4F8042242F48032C4F80422D4F8042222F48032C4F80422D4F804226A68B2F1805F57
:4024000004D1C4F840320223A36609E0626E12F0200F01D0092200E00122A266C4F840322B7843B32B7B33BB6B69012B23D9236E43F4807323666E69802E01D8023E00E061
:402440003F26236813F4006F01D0802300E040239E4204D34FF420711C48FEF771FFD4F8043323F0FF03F6B21E43C4F804634FF490136B6015E0236813F4006F01D080238C
:4024800000E0402323B94FF420711048FEF758FFD4F8043323F0FF03C4F804334FF488136B60FEF7BAFF0123C4F8C83F40F21313C4F8083FFEF7B5FF002000E0044840F2BA
:4024C000D113C4F8483F70BD5C7D0810187D08100220AA00F8B5044615460E4621B940F2B7514B48FEF72CFFB36833B1736823B94FF4B7614648FEF723FF96F90030002B11
:4025000004DA40F2B9514248FEF71AFF0023C4F8483F6B6813F0805F73D037787F00FFB24FF48033AB6073682B61B3686B610023AB61EB61327B2A736B7340F21713C4F8A2
:40254000003FD4F8003FD4F8043243F48033C4F80432D4F8043223F48033C4F80432D4F804326B68B3F1805F09D1C4F840724023C4F8803FD4F8803F0223A36617E0636E76
:4025800013F0200F01D0092300E00123A3666B695BB9FEF742FFC4F840724023C4F8803FD4F8803FFEF73DFF01E0C4F840724FF4A0136B606B780BB1402500E00125236814
:4025C00013F4006F01D0802300E040239D4204D34FF43A710F48FEF7B3FED4F8043223F0FF032B43C4F80432FEF717FF0123C4F8883F40F21313C4F8083FFEF712FF002063
:4026000000E0054840F2D113C4F8483FF8BD00BF5C7D0810187D08100220AA00C869704770B504460E46D0F88C3E13F0010F07D04FF480534B600123C0F8803ED0F8803E2E
:40264000D4F84C5F40F201131D420FD0336A15F4807F02D04FF4807200E08022134333620023C4F8C83F45F010050EE015F0100F0BD0D4F80833C3F3080333B1F36B23B14B
:402680000123C4F8C43FC4F8C83FD4F8CC3F13F0010F08D031462046FFF702FC0123C4F8C03FD4F8C03F15F0100F0AD031462046FFF7C2F81023C4F8403FD4F8403FD4F827
:4026C0004C5F15F0C00F0DD031462046FFF7C4FA0123C4F8803ED4F8803EC023C4F8403FD4F8403FD4F88C3F13F0410F08D031462046FFF7E1F90123C4F8803FD4F8803FC3
:4027000070BD00BF70B506460D46D0F8004E14F0020F0AD0836E2BB1002383668B6843F080738B604FF4C0136B6014F0010F05D029463046FFF7F6F824F0040414F0080F3D
:4027400008D029463046FFF733FB0123C6F8C03FD6F8C03F14F0040F08D029463046FFF71FFA0123C6F8803FD6F8803F6B68B3F5C01F03D129463046FFF724F96B68B3F518
:40278000B01F03D129463046FFF706F970BD00BF08B54B6813F4801F02D0FFF7B3FF08BDFFF73EFF08BD00BF2DE9F84305460C46036813F4006F02D04FF0800801E04FF01C
:4027C0004008D5F8007207F00F07A26A012A19D9D4F82490E262561EB9F1000F00D026B940F273512548FEF7ABFD324649462846FEF7EEFFA36A1B1AA362072F00D940008F
:4028000048446062D5F80832C3F30803984533D0A36A012B30D10023A362072F02D8636A1E7801E0636A1E88FEF7F7FDC5F840624FF40073C5F8803FD5F8803FFEF7F1FD90
:40284000D5F8883F23F4007222F0010242F4007623F4EE6323F0030323B140F22A410848FEF76EFDC5F8886F236843F002032360236B0BB101209847BDE8F883DC7D081003
:40288000187D08102DE9F04105460C46036813F4006F01D0802600E040267608A769D4F81C8017B1B8F1000F04D14FF499613148FEF746FD424639462846FEF74BFF236A6F
:4028C00003442362E3691B1AE36173BBA368FBB1E3689E4201D8013E00E05E1E2B6813F4006F01D0802300E040239E4204D34FF420712148FEF724FDD5F8043323F0FF03E0
:40290000F6B21E43C5F804630123C5F8C83F02E00023C5F8C83F636823F001036360236B33B304209847BDE8F081A169D5F8002302F00F02072A00D940000844A0619E4213
:4029400016D95C1E2B6813F4006F01D0802300E040239C4204D34FF420710748FEF7F0FCD5F8043323F0FF02E3B21343C5F80433BDE8F081DC7D0810187D0810002800F032
:40298000A48170B50546002900F0A18116460C460B78022B03D93F21A248FEF7D1FC637B023BDBB2062B03D940219E48FEF7C8FCA37B3BB1022B05D0032B03D041219948FC
:4029C000FEF7BEFC94F82130012B03D942219548FEF7B6FC94F82830012B03D943219148FEF7AEFC2378012B06D86368083B082B94BF0023012307E0A37F2BB16368013B28
:402A0000062B94BF002301231BB145218548FEF797FCA368053B042B03D946218148FEF78FFC6369FF2B03D947217E48FEF788FCA369FF2B03D948217A48FEF781FCA37CF7
:402A40006BB1237833B9A368092B05D1A37B2BB1012304E0012302E0012300E000231BB14A217048FEF76CFC636B23F4366323F00D031BB14C216B48FEF762FCE36B23F4DE
:402A8000EE6323F003031BB14D216648FEF758FC2378022B01D1A37F13B16268013A00E00022237F13B14FF4803100E00021A368082B02D84FF4006300E000230B4302F098
:402AC0000F02134343F000732B60226B2B6813F4006F01D0802300E040239A4203D362215048FEF72DFCA26B2B6813F4006F01D0802300E040239A4203D363214948FEF77D
:402B00001FFC626A2B6813F4006F01D0802300E040239A4203D364214248FEF711FC23781B0603F040732B64637F0BB1402200E00022A37C13B14FF4806300E000231343D6
:402B4000227C12B14FF4807200E000221343627C12B14FF4007200E000221A43E36A013B1B0403F470231343627B013A02F007021343A27B120102F030021343AB64237B6A
:402B800013B14FF4807200E00022E37B23B92378022B03D1012302E0012300E0002313B14FF4007300E000231A43A368013B03F00F031343C5F80033227DA3691B0403F4EA
:402BC0007F031343C5F81033E26AD5F8003303F00F0303339A4201D3102A03D97A211148FEF7AEFBE37F23B12378012B03D0002302E0002300E0012313B14FF4807200E049
:402C00000022637B013B03F007031A43A37B1B0103F0300313436B64237B2BB14FF4807203E000BF1C7E08100022A368013B03F00F0313432278012A02D14FF4803200E045
:402C400000221343C5F8003294F83030C5F8043394F8203013B14FF0007200E0002294F82130012B02D14FF0807300E00023134394F82820012A02D14FF4803200E000228A
:402C8000134394F8242013432B6594F83830C5F80432636B23F4926323F002031B051B0DC5F8C83FE36B23F08C035B055B0DC5F8883F76B1002070603060B060F06030624E
:402CC000F0623063044B736370BD04487047034870BD002070BD00BFEFCDAB000160AA000B694A69934202D34869181A7047CA694869101A184470472DE9F04107460D4631
:402D0000036813F4006F02D04FF0800801E04FF040084FEA5808D7F80863C6F308062C6926E00134EB689C4200D100246B699C420FD12B6B0BB1082098476B699C4208D1AB
:402D40000023C7F8C83F0CB1013C13E0EC68013C10E0D7F84023D7F8003303F00F03072B02D8AB681A5502E0AB6823F81420013E002ED6D12C61EC6829463846FFF7B0FF6A
:402D8000201A804519D908B1441E00E000243B6813F4006F01D0802300E040239C4204D34FF420710648FEF7CBFAD7F8040320F0FF03E0B21843C7F80403BDE8F08100BF32
:402DC000187D081038B504460D46D0F8003E13F0080F35D0D0F8CC3F13F448730AD04A681A434A60C0F8C03FD0F8C03F0B6B0BB110209847D4F8CC3F13F4006F09D06B6897
:402E000043F400636B604FF40063C4F8C03FD4F8C03FD4F8CC3F13F0010F11D0EB6923B129462046FFF72EFD05E0AB681BB129462046FFF761FF0123C4F8C03FD4F8C03F7F
:402E4000D4F8003E13F0040F2ED0D4F88C3F13F4A0630AD02A681A432A60C4F8803FD4F8803F2B6B0BB120209847D4F88C3F13F0010F08D029462046FFF796FC0123C4F80A
:402E8000803FD4F8803FD4F88C3F13F4007F0BD00022C4F8882F2B6823F001032B60EA622B6B0BB10220984738BD00BF00F1080343604FF0FF328260C360036100230360B5
:402EC000704700BF00230361704700BF43684B609A688A609A68516099600861036801330360704730B40D68B5F1FF3F01D1026907E000F1080200E01A4653681C68A5428D
:402F0000FAD253684B6099608A605160086103680133036030BC704703694268816891608268416851605A68904201D182685A60002202611A68013A1A601868704700BFCD
:402F400010B5044601F0C6F9A26BE36B9A4201D1012400E0002401F0DFF9204610BD00BF10B5044601F0B6F9A36B0BB9012400E0002401F0D1F9204610BD00BF70B50446DF
:402F80001646856B026CFAB166B9806802F0ECF8A268236C1344A3606268934214D32368A36011E0C06802F0DFF8236C5B42E2681A44E26021688A4202D262681344E36043
:402FC000022E01D105B1013D0135A563002070BD026C72B110B50346C4681444C4604068844201D31868D8600846D96802F0BCF810BD704738B5054601F06CF995F84540B6
:4030000064B20AE06B6A53B105F1240000F07EFE08B100F009FF013C64B2002CF2DCFF2385F8453001F078F901F054F995F8444064B20AE02B6953B105F1100000F066FE7C
:4030400008B100F0F1FE013C64B2002CF2DCFF2385F8443001F060F938BD00BF38B540B94FF03F0383F31188BFF36F8FBFF34F8FFEE704460D4601F02DF92168E26B236CA6
:4030800003FB021060600020A063A160013A02FB0313E360FF2384F8443084F845307DB92369ABB104F1100000F030FE80B14FF08052094B1A60BFF34F8FBFF36F8F07E010
:4030C00004F11000FFF7F2FE04F12400FFF7EEFE01F022F9012038BD04ED00E010B5029B0C4609B91B6000E01A60D8631C6401211846FFF7B3FF10BD40B94FF03F0383F30C
:403100001188BFF36F8FBFF34F8FFEE7F0B583B0034611B101FB00F000E000201D4617460C46483001F018FA064638B100903B4600F1480221462846FFF7D0FF304603B031
:40314000F0BD00BFF0B585B0019240B94FF03F0383F31188BFF36F8FBFF34F8FFEE7044619B9026C1AB9012202E0012200E0002242B94FF03F0383F31188BFF36F8FBFF354
:403180004F8FFEE7022B03D1E26B012A02D102E0012200E0002242B94FF03F0383F31188BFF36F8FBFF34F8FFEE71D460E4600F043FE18B9019B1BB9012302E0012300E016
:4031C000002343B94FF03F0383F31188BFF36F8FBFF34F8FFEE7002701F07CF8A26BE36B9A4201D3022D21D12A4631462046FFF7C5FE636A6BB104F1240000F087FD88B18E
:403200004FF08052324B1A60BFF34F8FBFF36F8F08E038B14FF080522D4B1A60BFF34F8FBFF36F8F01F078F801204EE0019B1BB901F072F8002048E01FB902A800F0AAFD56
:40324000012701F069F800F069FB01F043F894F844305BB2B3F1FF3F02D1002384F8443094F845305BB2B3F1FF3F02D1002384F8453001F051F801A902A800F095FDF0B9EF
:403280002046FFF75DFEA0B1019904F1100000F005FD2046FFF7AEFE00F0CEFB00289BD14FF080520A4B1A60BFF34F8FBFF36F8F92E72046FFF79EFE00F0BEFB8CE720460D
:4032C000FFF798FE00F0B8FB002005B0F0BD00BF04ED00E02DE9F84340B94FF03F0383F31188BFF36F8FBFF34F8FFEE7044619B9006C18B9012002E0012000E0002040B918
:403300004FF03F0383F31188BFF36F8FBFF34F8FFEE7022B03D1E06B012802D102E0012000E0002040B94FF03F0383F31188BFF36F8FBFF34F8FFEE71F469046894601F0E4
:40334000CDF8EFF311864FF03F0383F31188BFF36F8FBFF34F8FA26BE36B9A4201D3022F1ED194F845506DB23A4649462046FFF705FEB5F1FF3F0DD1636A9BB104F1240072
:4033800000F0C4FC80B1B8F1000F0FD00120C8F800000CE06B1C5BB284F84530012006E0002004E0012002E0012000E0012086F31188BDE8F88300BFF0B585B0019240B9BC
:4033C0004FF03F0383F31188BFF36F8FBFF34F8FFEE7044619B9036C1BB9012302E0012300E0002343B94FF03F0383F31188BFF36F8FBFF34F8FFEE70E4600F01DFD18B9AC
:40340000019B1BB9012302E0012300E0002343B94FF03F0383F31188BFF36F8FBFF34F8FFEE7002700F056FFA56BC5B131462046FFF7CEFD013DA563236963B104F11000C3
:4034400000F064FC38B14FF08052304B1A60BFF34F8FBFF36F8F00F05FFF012053E0019B1BB900F059FF00204DE01FB902A800F091FC012700F050FF00F050FA00F02AFF6D
:4034800094F844305BB2B3F1FF3F02D1002384F8443094F845305BB2B3F1FF3F02D1002384F8453000F038FF01A902A800F07CFCF0B92046FFF754FDA0B1019904F1240023
:4034C00000F0ECFB2046FFF795FD00F0B5FA0028A8D14FF080520D4B1A60BFF34F8FBFF36F8F9FE72046FFF785FD00F0A5FA99E72046FFF77FFD00F09FFA2046FFF730FD47
:4035000000288FD0002005B0F0BD00BF04ED00E000230BE0074A52F8332032B9054A42F8331002EBC303586070470133092BF1D9704700BF1476020870B504460D461646C3
:4035400000F0C8FE94F844305BB2B3F1FF3F02D1002384F8443094F845305BB2B3F1FF3F02D1002384F8453000F0D6FEA36B2BB93246294604F1240000F0AAFB2046FFF742
:4035800039FD70BD094B9B6A1B680BB9012300E0002323B14FF0FF32044BDA627047034B9A6AD268D2685268DA627047004C020810B50446006B00F0FFFF204600F0FCFFD9
:4035C00010BD00BF2DE9F0478246894615469846089F099E0A9C9200A521206B01F0CFFD236B05F18042013A03EB820525F00705002308E019F80310E21882F8341019F87F
:40360000032012B101330F2BF4D9002384F84330062F00D90627E762201DFFF753FC04F11800FFF74FFC2461C7F10703A3616462002306E003F1100204EB8202002151609E
:403640000133042BF6D90023A36584F85C3042465146284600F012FE206006B13460BDE8F08700BF70B5002407E004EB8402930010481844FFF71AFC0134062CF5D90E4C2B
:4036800004F1BC063046FFF711FC04F1D0052846FFF70CFC04F11400FFF708FC04F1E400FFF704FC2046FFF701FCA662C4F8F85070BD00BF304C0208004C020838B504466E
:4036C00000F008FE264BD3F8FC200132C3F8FC20D3F800314BB9224BC3F80041D3F8FC30012B10D1FFF7BEFF0DE01D4BD3F804314BB91B4BD3F80031DA6AE36A9A4202D850
:40370000174BC3F80041164AD2F808310133C2F80831E36AD2F80C21934202D9104AC2F80C310F4D05F1300003EB83039A00211D1044FFF7CBFB00F0EFFDD5F804316BB184
:40374000D5F80031DA6AE36A9A4207D24FF08052044B1A60BFF34F8FBFF36F8F38BD00BF004C020804ED00E038B517E000F0B2FD0D4CD4F8F030DD68281DFFF7CDFBD4F834
:40378000FC30013BC4F8FC30D4F81031013BC4F8103100F0C1FD2846FFF70AFF024BD3F81031002BE2D138BD004C020808B5FFF7DBFF064B1B6B012BF9D94FF08052044B14
:4037C0001A60BFF34F8FBFF36F8FF0E7004C020804ED00E070B504460E46174BD3F81451D3F800010430FFF797FBB4F1FF3F07D136B11148D0F800110431FFF767FB70BDA6
:403800002C440D4BD3F800315C60A54208D90A4BD3F8F800D3F800110431FFF763FB70BD054DA86AD5F800110431FFF75BFBEB6A9C4200D2EC6270BD004C02082DE9F043B4
:4038400085B006460F4615469846900000F084FE60B18146602000F07FFE044610B1C0F8309004E0484600F0A7FE00E000248CB10023039302940D9B01930C9B0093434659
:403880002A4639463046FFF79DFE2046FFF716FF012001E04FF0FF3005B0BDE8F08300BF00B583B0194B019300230093802218491848FFF7C3FF012801D100F023FB0128C2
:4038C00014D14FF03F0383F31188BFF36F8FBFF34F8F114B4FF0FF32DA620122C3F804210022C3F8142100F097FD0BE0B0F1FF3F08D14FF03F0383F31188BFF36F8FBFF3DD
:403900004F8FFEE703B05DF804FB00BF1C4D02085C7E0810AD370810004C0208034AD2F818310133C2F81831704700BF004C0208014BD3F814017047004C02082DE9F04164
:403940003C4BD3F81831002B65D13A4BD3F814410134C3F81441CCB99B6A1B6843B14FF03F0383F31188BFF36F8FBFF34F8FFEE7304B9A6AD3F8F8109962C3F8F820D3F8C0
:4039800020210132C3F82021FFF7FCFD294BDB6A9C4203D2002645E0012600E00026254B9B6A1B680BB9012300E0002323B14FF0FF32204BDA6235E01E4B9B6ADB68DD68EB
:4039C0006B689C4202D21B4AD3622BE005F104084046FFF7A1FAAB6A1BB105F11800FFF79BFAEB6A134AD2F80C21934202D9114AC2F80C310F4F07F1300003EB83039A00CB
:403A000041461044FFF762FAEA6AD7F80031DB6A9A42C1D2C3E7074AD2F824310133C2F824310026034BD3F8283103B101263046BDE8F081004C0208394BD3F8183143B90B
:403A40004FF03F0383F31188BFF36F8FBFF34F8FFEE770B500F03EFC314BD3F81821013AC3F81821D3F81831002B52D12C4BD3F8FC303BBB00244FE0294D2B6ADC6804F136
:403A80001800FFF749FA261D3046FFF745FAE36AD5F80C21934201D9C5F80C31204D05F1300003EB83039A0031461044FFF70EFAE26AD5F80031DB6A9A4204D30122C5F84B
:403AC000282100E00024164B5B69002BD4D10CB1FFF758FD124BD3F8244164B1FFF72EFF18B101220E4BC3F82821013CF6D100220B4BC3F824210A4BD3F828315BB14FF02E
:403B00008052084B1A60BFF34F8FBFF36F8F012402E0002400E0002400F0FEFB204670BD004C020804ED00E038B540B94FF03F0383F31188BFF36F8FBFF34F8FFEE70546EE
:403B400041B94FF03F0383F31188BFF36F8FBFF34F8FFEE71D4BD3F8183143B14FF03F0383F31188BFF36F8FBFF34F8FFEE70C46FFF7D4FE154BD3F814012A68A3189042F8
:403B800005D29A4209D9984209D300220CE09A4207D8984207D3002206E0002204E0012202E0012200E001222B601AB10021181AFFF710FEFFF740FF38B94FF08052044BD1
:403BC0001A60BFF34F8FBFF36F8F38BD004C020804ED00E0304BD3F8183123B101222E4BC3F82821704710B52B4B0022C3F82821D3F800311B6B1A68B2F1A53F0BD15A68AB
:403C0000B2F1A53F07D19A68B2F1A53F03D1DB68B3F1A53F07D0204BD3F80001D3F80011343100F087FC1C4BD3F80C310AE043B94FF03F0383F31188BFF36F8FBFF34F8F16
:403C4000FEE7013B03EB83018A0013490A44126B002AECD008469900CC18A2000244546B64685463303019448A0008320244944206D1606803EB83018A0007490A4450639C
:403C8000054903EB830082000A44526BD268C1F80021C1F80C3110BD004C020840B94FF03F0383F31188BFF36F8FBFF34F8FFEE710B50C46054BD3F800111831FFF712F950
:403CC00001212046FFF786FD10BD00BF004C020838B540B94FF03F0383F31188BFF36F8FBFF34F8FFEE70C461546074AD2F800111831FFF7EBF80DB14FF0FF342946204646
:403D0000FFF768FD38BD00BF004C020838B5C368DC6844B94FF03F0383F31188BFF36F8FBFF34F8FFEE704F118052846FFF7F4F8154BD3F81831ABB9251D2846FFF7ECF84C
:403D4000E36A114AD2F80C21934202D90E4AC2F80C3103EB83039A0029460C481044FFF7B5F803E029460A48FFF7B0F8E26A064BD3F80031DB6A9A4204D90120024BC3F8DB
:403D8000280138BD002038BD004C0208304C0208144C0208034BD3F820210260D3F8143143607047004C0208F8B540B94FF03F0383F31188BFF36F8FBFF34F8FFEE7054668
:403DC00041B94FF03F0383F31188BFF36F8FBFF34F8FFEE70C4600F07DFA124BD3F814016968421A2368B3F1FF3F14D02F680D4ED6F82061B74201D088420ED29A4206D237
:403E00009B1A23602846FFF7C5FF002406E000232360012402E0002400E0012400F07CFA2046F8BD004C02080122024BC3F82821704700BF004C0208064BD3F804312BB1FE
:403E4000044BD3F818311BB9022070470120704700207047004C0208064B1A681368B3FA83F35B09036013B9D368186870470020704700BF2C4D020808B54160006191420C
:403E80000AD8D21A83699A4211D2011D0A4B5868FFF728F8002008BD9A4201D2994208D2011D054B1868FFF71DF8002008BD012008BD012008BD00BF2C4D020870B500F0F6
:403EC00009FA0E4B9B68B3B90C4C04F10C063046FEF7ECFF04F120052846FEF7E7FF2660656000220C210A20FFF706F9A06010B10349FFF70DFB00F00FFA70BD2C4D020872
:403F0000647E081000B583B0FFF7D8FF0D4B9B6853B10D4B019303230093002380220B490B48FFF78BFC00E0002040B94FF03F0383F31188BFF36F8FBFF34F8FFEE703B084
:403F40005DF804FB2C4D0208604D02086C7E0810E941081040B94FF03F0383F31188BFF36F8FBFF34F8FFEE730B585B015460446124A9068F0B11A460191029503940529BF
:403F800013DCFFF759FF022807D10023089A01A90A488068FFF7D6F80DE000231A4601A906488068FFF7CEF805E0002301A9FFF791F900E0002005B030BD00BF2C4D020833
:403FC00070B582B029E0DB681E68DC68251D2846FEF7A2FF636A20469847E369012B1CD1A36933449E4207D2636024612946104B1868FEF777FF10E0002100910B463246F3
:404000002046FFF7A7FF40B94FF03F0383F31188BFF36F8FBFF34F8FFEE7054B1B681A68002AD0D1024A51681160536002B070BD2C4D020838B50546FFF77AFC0446074BE5
:404040009B6B984204D2FFF7BBFF01232B6001E000232B60014B9C63204638BD2C4D020870B582B005460E46134B1B68DB68DC68201DFEF751FFE369012B18D1A1692B46B7
:40408000324629442046FFF7F7FE80B1002100910B462A462046FFF75DFF40B94FF03F0383F31188BFF36F8FBFF34F8FFEE7636A2046984702B070BD2C4D020870B582B0F5
:4040C00006460C46FFF72AFC01A8FFF7B3FF019B1BBB054644B9B04206D3FFF7ADFC29463046FFF7BDFF1AE02CB10E4B5B681C68B4FA84F464092246711B0A4B9868FFF7B1
:404100001BFAFFF799FC50B94FF08052064B1A60BFF34F8FBFF36F8F01E0FFF78DFC02B070BD00BF2C4D020804ED00E030B587B04DE0039B002B4ADB059C636913B1201DC3
:40414000FEF7EAFE02A8FFF775FF039B092B3ED8DFE803F00505053D273A05053D270499A5690B46024629442046FFF785FE70B3636A20469847E369012B28D1A26900212F
:4041800000910B46049802442046FFF7E3FEF0B94FF03F0383F31188BFF36F8FBFF34F8FFEE70499A16141B94FF03F0383F31188BFF36F8FBFF34F8FFEE70346024601447C
:4041C0002046FFF759FE02E0204600F0F5F9002203A9044B9868FFF7EFF80028A9D107B030BD00BF2C4D020800B583B001A8FFF733FE0199FFF762FFFFF798FFF6E700BF92
:4042000082B0002301930D4B1B68B3F1FF3F08D04FF03F0383F31188BFF36F8FBFF34F8FFEE74FF03F0383F31188BFF36F8FBFF34F8F019B002BFCD002B070471C43020816
:4042400008480068006880F308884FF0000080F3148862B661B6BFF34F8FBFF36F8F00DF00BF000008ED00E0DFF80C00016841F4700101607047000088ED00E04FF080735A
:4042800040F8043C21F0010140F8081C054B40F80C3C40F8202C6FF0020340F8243C4438704700BF014208100000000000000000074B19680868B0E8F04F80F30988BFF3AA
:4042C0006F8F4FF0000080F311887047AFF30080004D02084FF03F0383F31188BFF36F8FBFF34F8F0A4A136801331360012B0DD1084B1B6813F0FF0F08D04FF03F0383F33F
:404300001188BFF36F8FBFF34F8FFEE7704700BF1C43020804ED00E0094B1B6843B94FF03F0383F31188BFF36F8FBFF34F8FFEE7013B034A13600BB983F31188704700BF42
:404340001C430208000000000000000000000000EFF30980BFF36F8F154B1A681EF0100F08BF20ED108A20E9F04F10602DE909004FF03F0080F31188BFF34F8FBFF36F8F9B
:40438000FFF728FC4FF0000080F3118809BC19680868B0E8F04F1EF0100F08BFB0EC108A80F30988BFF36F8F704700BFAFF30080004D020808B54FF03F0383F31188BFF33F
:4043C0006F8FBFF34F8FFFF7B9FA18B14FF08052024B1A60002383F3118808BD04ED00E0084A0023136008490B60084B1B685B090749A1FB0313DB09013B06490B60072339
:404400001360704710E000E018E000E008430208C55A7C0A14E000E010B582B02A4B1A78D2B20192FF221A701B78DBB28DF803309DF80330254A03F03F0313700723536078
:4044400009E0224A5368013B53609DF803305B00DBB28DF803309DF8033013F0800FF0D11A4B5B68042B08D04FF03F0383F31188BFF36F8FBFF34F8FFEE71B0203F4E0637F
:40448000124A5360019BDBB20F4A1370104B1A6842F47F021A601A6842F07F421A60FFF79FFF00240B4B1C60FFF7DEFE0A4A136843F040431360FFF7C3FEFFF78BFBFFF76E
:4044C0009FFE204602B010BD00E400E0684D020820ED00E01C43020834EF00E0EFF305830F2B0FD9104A9B5CDBB2104A1278934208D24FF03F0383F31188BFF36F8FBFF36F
:404500004F8FFEE70A4B1B6803F4E063074A5268934208D94FF03F0383F31188BFF36F8FBFF34F8FFEE77047F0E300E0684D02080CED00E008B54FF03F0383F31188BFF32F
:404540006F8FBFF34F8F4FF441710248FCF7F8FEFEE700BF747E081038B5044610F0070F02D020F007040834FFF7D8F9104B1B682BB90F4A02F10C0323F0070313600D4B95
:40458000D3F814361C4442F2F772944208D8A34208D2074A15681D44064BC3F8144602E0002500E00025FFF747FA284638BD00BF704D0208606F020840B14FF03F0383F3F2
:4045C0001188BFF36F8FBFF34F8FFEE7704700BF70B539B900240AE015F8010BFCF764FA013402E016460D460024B442F4DB204670BD00BF70B561B900240FE0FCF760FA58
