:020000041008E2
:4000000000780408EB0208100D0000005103081051030810510308105103081000000000000000000000000000000000816A08104D03081000000000716C0810D96C0810BD
:400040004D0308104D0308104D0308104D0308104D0308104D0308104D0308104D0308104D0308104D0308104D0308104D0308104D0308104D0308104D0308104D03081000
:400080004D0308104D0308104D0308104D0308104D0308104D0308104D0308104D0308104D0308104D0308104D0308104D0308104D0308104D0308104D0308104D030810C0
:4000C0004D0308104D0308104D0308104D0308104D0308104D0308104D0308104D0308104D0308104D0308104D0308104D0308104D0308104D0308104D0308104D03081080
:400100004D0308104D0308104D0308104D0308104D0308104D0308104D0308104D0308104D0308104D0308104D0308104D0308104D0308104D0308104D0308104D0308103F
:400140004D0308104D0308104D0308104D0308104D0308104D0308104D0308104D0308104D0308104D0308104D0308104D0308104D0308104D0308104D0308104D030810FF
:400180004D0308104D0308104D0308104D0308104D0308104D0308104D0308104D0308104D0308104D0308104D0308104D0308104D0308104D0308104D0308104D030810BF
:4001C0004D0308104D0308104D0308104D0308104D0308104D0308104D0308104D0308104D0308104D0308104D0308104D0308104D0308104D0308104D0308104D0308107F
:400200004D0308104D0308104D0308104D0308104D0308104D0308104D0308104D0308104D0308104D0308104D0308104D0308104D0308104D0308104D0308104D0308103E
:400240004D0308104D0308104D0308104D0308104D0308104D0308104D0308104D0308104D0308104D0308104D0308104D0308104D0308104D0308104D0308104D030810FE
:400280004D0308104D0308104D03081010B5054C237833B9044B13B10448AFF300800123237010BD444C020800000000E07C0810084B10B51BB108490848AFF3008008485F
:4002C000036803B910BD074B002BFBD0BDE81040184700BF00000000484C0208E07C081028430208000000007047FFF7FDFF72B6104C114DAC4209DA21686268A368043B2F
:40030000A2BFC858D050FAE70C34F3E70B490C4A00209142BCBF41F8040BFAE709480A490860BFF34F8F00F041FA00F097F800F02BF8FEE7E47C0810FC7C0810444C020800
:400340006CB902080040020808ED00E0FEE7FEE700B504207146084202D0EFF3098001E0EFF30880043001F0BFFFFEE780B483B000AF786039607B683A689A6000BF0C3733
:40038000BD465DF8047B704780B582B002AF62B600F004FB00F048FD224A0021224804F0E9FB01212048FFF7E1FF00F079FD00F0D3FD00F02DFE00F087FE00230193052397
:4003C00000931A4B64221A491A4805F0E5F90023019304230093184B64221849154805F0DBF90023019303230093154B64221549104805F0D1F90023019302230093124B6F
:40040000642212490B4805F0C7F900230193062300930F4B64220F490F4805F0BDF905F073FBFEE7E47A081000003840B042020898730810390E0810C0420208A873081033
:40044000D0420208B8730810E0420208C8730810F0420208D87308108508081080B500AF0D4801F0F9FF00F01FF800F025F800220021042001F088F9084801F019FC084BA2
:400480001B6893F85130002B02D0064801F024FC00F082FF00BF80BDB4760810604C02086CB80208E873081080B400AF00BFBD465DF8047B704700BF80B491B000AFAE4B3F
:4004C000D3F8803303F00F037B63AB4A7B6BD03352F8233003F007033B633B6B042B36D801A252F823F000BFFD04081003050810090508104F0508100F0508109F4BFB63A4
:4005000028E09F4BFB6325E09D4BFB6322E09A4A7B6BC03352F8233003F01F03FB62FB6A112B07D0132B09D0102B0BD14FF4FA43FB630BE04FF40043FB6307E04FF4004392
:40054000FB6303E04FF4FA43FB6300BF02E08C4BFB6300BF7B6B002B60D1874BD3F8903503F00103002B14BF0123002387F82B30814BD3F8883503F040531B0F032B0CBF10
:400580000123002387F82A307B4BD3F8883503F040531B0F002B07D0774BD3F8883503F040531B0F012B01D1012300E0002387F8293097F8293003F0010387F8293097F8DE
:4005C0002930002B03D097F82B30002B03D197F82A30002B1FD0684BD3F88035C3F311037B62654BD3F88435C3F30C033B62624BD3F8803503F080731B0E0133FB61FA6B17
:400600003B6AB2FBF3F37A6A02FB03F2FB69B2FBF3F3BB6360E0FB6BBB635DE07B6B012B58D1554BD3F8403603F00103002B14BF01230023FB76504BD3F8003603F04053AB
:400640001B0F032B0CBF01230023BB764A4BD3F8003603F040531B0F002B07D0464BD3F8003603F040531B0F012B01D1012300E000237B767B7E03F001037B767B7E002B3A
:4006800002D0FB7E002B02D1BB7E002B1FD03A4BD3F8003603F07F037B61374BD3F8003603F4F8531B0A3B61334BD3F8003603F4F8131B0CFB60FB6B7A6902FB03F23B695F
:4006C000B2FBF3F2FB68B2FBF3F3BB6304E0FB6BBB6301E0FB6BBB63274BD3F8803303F030031B09BA6B22FA03F3BB63254ABB6B1360254BD3F8903003F47F431B0A0133E3
:40070000BB60214B1B6903F07F431B0E01337B60BA6B7B68B2FBF3F31C4A1360BA6BBB68B2FBF3F3BB631A4ABB6B1360184B1B68184A1360174B1B6803F5742303F23F23D1
:40074000154AA2FB03239B0CDAB2144B1A70114B1B6803F2E733124AA2FB03239B09114A1360104B1B68DB030F4A136000BF4437BD465DF8047B70470000264000127A007A
:4007800000366E01044302080000214008430208004302080C43020883DE1B4314430208D34D6210104302081843020880B582B000AF01F036FE7860094A094BD3F8883036
:4007C00043F47003C2F88830BFF34F8FBFF36F8F786801F02AFE00BF0837BD4680BD00BF00ED00E080B500AF012001F0EFFB00BF80BD00BF90B58BB004AF3C4684E80F000F
:40080000FF23FB7520233B7597F828307B750223029307F114030193192300933B460FCB00F0FCF80346FB75FB7D18461C37BD4690BD00BF90B58BB004AF3C4684E80F00D0
:40084000FF23FB75A8233B750123029307F114030193192300933B460FCB00F0DFF80346002B09D106230193192300933B460FCB00F034F90346FB75FB7D18461C37BD46E7
:4008800090BD00BF90B58BB002AF78607B6807F10C040FCB84E80F004FF47A73FB6105F029FA0346BB609723009307F10C030FCBFFF7A0FF0346002B0BD107F10803F96963
:4008C000184605F0A7F807F10C030FCBFFF7B2FFF3E700BF2437BD4690BD00BF80B584B000AF78600023FB607B681B68002B0DD0012001F0CBFC7B681B685A1E7B681A608B
:400900007B681B68002B01D10123FB60FB68002B14BF01230023DBB218461037BD4680BD80B483B000AF0346FB80B7F90630002B0BDB0949B7F906305B09FA8802F01F02B9
:40094000012000FA02F241F8232000BF0C37BD465DF8047B704700BF00E100E080B483B000AF78607B681B6843F000427B681A6000BF0C37BD465DF8047B704780B500AF42
:400980000249034803F038F800BF80BD20B902080000644080B400AF72B6FEE780B584B000AF174A1749184802F0AAFBF860FB68002B01D0FFF7EEFF144A1549124802F099
:4009C000DDFCB860BB68124A934201D9FFF7E2FF1049114801F0ECFB78607B68002B01D0FFF7D8FF0C4BB3F900301846FFF798FF0548FFF7B3FF00BF1037BD4680BD00BFDB
:400A000020B90208D07A08100000644015287F00801A06007D090810B874081090B58BB000AF3C4684E80F00FF2387F827303B6C022B02D9FFF7AEFF06E097F838303B7091
:400A4000FB6B7B603B6CBB603B46214A1946214802F00CFF38623B6A002B33D11E4B7B611B491C4802F02AFEF86107F114031846FFF734FF0346FB76FB6903F48033002B4B
:400A800005D0FB7E83F00103DBB2002BE8D1FB7E002B07D00E490F4802F054FC0D48FFF75DFF0FE0FB6903F0F873002B0AD10849084802F093FF02463B6C9A4202D1002351
:400AC00087F8273097F8273018462C37BD4690BD20B902080000644040420F0090B58BB000AF3C4684E80F00FF2387F8273097F838303B701F4B7B60FB6BBB603B461E4A9C
:400B000019461E4802F0E8FD38623B6A002B2BD11B4B7B611849194802F0D0FDF86107F114031846FFF7DAFE0346FB76FB6903F48033002B05D0FB7E83F00103DBB2002BEC
:400B4000E8D1FB7E002B07D00B490C4802F0FAFB0A48FFF703FF07E0FB6903F0F873002B02D1002387F8273097F8273018462C37BD4690BD4C78020820B90208000064407C
:400B800040420F0080B483B000AF0346FB80B7F90630002B0BDB0949B7F906305B09FA8802F01F02012000FA02F241F8232000BF0C37BD465DF8047B704700BF00E100E007
:400BC00080B483B000AF78607B681B6843F000427B681A6000BF0C37BD465DF8047B704780B483B000AF786039603A687B685A6000BF0C37BD465DF8047B704780B483B082
:400C000000AF786039603A687B689A6000BF0C37BD465DF8047B704780B582B000AF786039601B4B1B6893F833301A463B689A4204D840F2FA51174801F042FB144B1B6880
:400C4000B3F85A301A467B681A44114B1B68B3F85C3019463B6803FB01F3134419460C4B1B68B3F85A301A467B681A44084B1B68B3F85C3018463B6803FB00F313441B6855
:400C800043F000430B6000BF0837BD4680BD00BF6CB802081C74081080B582B000AF786039601A4B1B6893F833301A463B689A4204D840F2B361164801F002FB134B1B68F5
:400CC000B3F85A301A467B681A44104B1B68B3F85C3019463B6803FB01F313441A46012313610A4B1B68B3F85A301A467B681A44064B1B68B3F85C3019463B6803FB01F319
:400D000013441B6900BF0837BD4680BD6CB802081C74081080B584B000AFF860B9607A60164B1B6893F833301A46BB689A4204D840F20371124801F0C3FA7B6823F00103AC
:400D4000002B04D040F204710D4801F0B9FA0B4B1B68B3F85A301A46FB681A44074B1B68B3F85C301946BB6803FB01F313441A467B68936100BF1037BD4680BD6CB8020823
:400D80001C74081080B584B000AFF860B9607A60BB68072B04D940F227310E4801F090FA7B68012B04D94FF44A710A4801F088FA7B68002B05D10122BB689A40FB685A60CB
:400DC00004E00122BB689A40FB689A6000BF1037BD4680BD5874081080B582B000AF78600D4B1A680D4913469B0013449B000B4404331A687B689A4204D84FF47671084847
:400E000001F05EFA7968074801F022FD034618460837BD4680BD00BFD4770208BC7A08109874081000001D4180B500AF06F0C2F906F0F8F900BF80BD80B58AB000AF7860B1
:400E40007B687B627B6A9B683B62144BFB610023BB617B6A1B687B617B6A5B683B617B6A1B7BFB7304F046FF0346BB6007F10803396A184604F0CEFD012239697869FFF7C6
:400E800081FFFB7B43F00403DBB2184606F042FA002239697869FFF775FFE7E700004C4280B586B000AF2049204803F0E9FB78617B69002B01D000F063F91C4B7B6000234E
:400EC0003B720323FB6000233B743B1D1A460321174803F0D7FD78617B69002B01D000F04FF914491148FFF77BFE13490F48FFF785FE1249124801F05BF9114BB3F900307C
:400F00001846FFF73FFE012203210948FFF702FF03210748FFF780FE0548FFF751FE00BF1837BD4680BD00BF6C7B0810D87702080000284080011D4164780208450F08101A
:400F4000E074081080B500AF03210248FFF7A4FE00BF80BD0000284080B586B000AF2049204803F08DFB78617B69002B01D000F007F91C4B7B6000233B720323FB600023F2
:400F80003B743B1D1A460221174803F07BFD78617B69002B01D000F0F3F814491148FFF71FFE13490F48FFF729FE1249124801F0FFF8114BB3F900301846FFF7E3FD012284
:400FC00002210948FFF7A6FE02210748FFF724FE0548FFF7F5FD00BF1837BD4680BD00BFD87B0810F47702080000284080011D416C980208FD0F0810D874081080B500AF76
:4010000002210248FFF748FE00BF80BD0000284080B586B000AF2049204803F031FB78617B69002B01D000F0ABF81C4B7B6000233B720323FB6000233B743B1D1A4601210E
:40104000174803F01FFD78617B69002B01D000F097F814491148FFF7C3FD13490F48FFF7CDFD1249124801F0A3F8114BB3F900301846FFF787FD012201210948FFF74AFEC6
:4010800001210748FFF7C8FD0548FFF799FD00BF1837BD4680BD00BF447C0810107802080000284080011D416C880208B5100810D074081080B500AF01210248FFF7ECFD07
:4010C00000BF80BD0000284080B586B000AF2049204803F0D5FA78617B69002B01D000F04FF81C4B7B6000233B720323FB6000233B743B1D1A460021174803F0C3FC7861C7
:401100007B69002B01D000F03BF814491148FFF767FD13490F48FFF771FD1249124801F047F8114BB3F900301846FFF72BFD012200210948FFF7EEFD00210748FFF76CFDA7
:401140000548FFF73DFD00BF1837BD4680BD00BFB07C08102C7802080000284080011D416CA802086D110810C874081080B500AF00210248FFF790FD00BF80BD000028406E
:4011800080B400AF72B6FEE780B500AF054B01221A700020FFF720FE03461A46024B1A8000BF80BDE24D0208E04D020880B483B000AF0346FB80B7F90630002B0BDB09490B
:4011C000B7F906305B09FA8802F01F02012000FA02F241F8232000BF0C37BD465DF8047B704700BF00E100E080B400AF084B1B681A68074B1B68D3F8843013441B6803F019
:401200007F431B0EDBB21846BD465DF8047B70476CB8020880B400AF084B1B681A68074B1B68D3F8843013441B6803F47F431B0ADBB21846BD465DF8047B70476CB802082E
:4012400080B582B000AF78600E4B1B6893F831301A467B689A4204D840F2C3110A4801F02FF8084B1B681A6A064B1B68B3F8B03019467B6803FB01F3134418460837BD4669
:4012800080BD00BF6CB80208F074081080B483B000AF78607B68DB6818460C37BD465DF8047B704780B483B000AF7860084B1B68D3F8B4207B6813441B6803F00043DB0F05
:4012C000DBB218460C37BD465DF8047B704700BF6CB8020880B584B000AFF860B9607A607B68002B04D140F29331074800F0E8FF7B681A46B968F86800F09CF903461846F3
:401300001037BD4680BD00BFF074081080B584B000AF78601C4A7B6813601B4B1B68002B0BD0194B1B6802221A70174B1B68FF225A70154B1B6800225A80144B1B6893F89F
:401340005030002B1CD0114B1B68B3F938303B810023FB6007F108030D49184600F028FFB7F908301846FFF721FF084B1B6893F85130002B04D002220649012000F0EAFD33
:4013800000BF1037BD4680BDE44D02086CB80208294602082D43020880B500AF0248FFF7B5FF00BF80BD00BF084E020880B485B000AF78607B682E4A93423FD02C4A93421E
:4013C0000ED8402B40D0402B04D8002B1FD0102B37D042E0802B3AD0B3F5807F3AD03CE0244A934219D0234A934206D8B3F1204F10D0214A93421DD02FE0204A934213D0A8
:401400001F4A934213D01F4A93420AD025E00023FB6025E00023FB6022E04FF4A403FB601EE0194BFB601BE0184BFB6018E0184BFB6015E04FF4A003FB6011E00C4BFB6021
:401440000EE0144BFB600BE0134BFB6008E0134BFB6005E0064BFB6002E0114BFB6000BFFB6818461437BD465DF8047B704700BF06005200010000F0090000A0040000F057
:40148000050000F0030000F0010052000200520003005200010050000200500005005200FF00520080B582B000AF134B7B600120FFF7C6FE03461846FFF7F4FE034683F088
:4014C0000103DBB2002B12D00C4B1B681846FFF76DFF78600A4B1B685B681A460123936000BF074B1B685B689B68002BF9D17B6818460837BD4680BD02005000E84D02082A
:401500006CB8020880B582B000AF786039603B681B0C1B04002B04D040F2BB21054800F0CFFE3B689AB27B689A6000BF0837BD4680BD00BF3075081080B582B000AF786082
:4015400039603B681B0C1B04002B04D040F2D521054800F0B5FE3B689AB27B685A6000BF0837BD4680BD00BF3075081080B483B000AF786039607B683A68DA6000BF0C3744
:40158000BD465DF8047B704780B483B000AF78607B68DB6818460C37BD465DF8047B704780B483B000AF7860084B1B68D3F8B4207B6813441B6803F00043DB0FDBB218462F
:4015C0000C37BD465DF8047B704700BF6CB8020880B483B000AF78607B681B6803F00043002B01DA002300E0034B18460C37BD465DF8047B704700BF01008A0080B584B06A
:4016000000AF786039607868FFF7CAFF0346002B06D039687868FFF78FFF0023FB6001E0034BFB60FB6818461037BD4680BD00BF01008A0080B586B000AFF860B9607A609D
:40164000F868FFF7C5FF0346002B0AD17968F868FFF78CFFB968F868FFF754FF00237B6101E0034B7B617B6918461837BD4680BD01008A0080B584B000AF786039603B68E3
:40168000002B03D199210C4800F01AFE7868FFF787FF0346002B08D07868FFF775FF02463B681A600023FB6001E0044BFB60FB6818461037BD4680BD7075081001008A00E5
:4016C00080B582B000AF78600E4B1B6893F831301A467B689A4204D840F2C3110A4800F0EFFD084B1B681A6A064B1B68B3F8B03019467B6803FB01F3134418460837BD4621
:4017000080BD00BF6CB80208B075081080B483B000AF78607B68DB6818460C37BD465DF8047B704780B584B000AFF860B9607A607B68002B04D140F29331074800F0C0FDC7
:401740007B681A46B968F868FFF774FF034618461037BD4680BD00BFB075081080B483B000AF78607B681B6803F00043002B01DA002300E0034B18460C37BD465DF8047BB9
:40178000704700BF01008A0080B586B000AFF860B9607A60144B7B617B68002B0BD1BB68002B08D1F868FFF78BFF02460F4B1A6000237B6113E07B68002B0ED0BB68002B4F
:4017C0000BD00B4ABB681360094A7B6853600849F86800F00FF8786101E0034B7B617B6918461837BD4680BD03018A000C4E0208104E020880B584B000AF78603960284B87
:40180000FB60284B1B6893F831301A467B689A4202D8234BFB603EE03B68002B39D03B681B6803F01F03002B30D17868FFF748FF02461D4B1A603B6858683B681B68DB089A
:401840001A46002105F081FD174B1B6800211846FFF7D4FE144B1B683A6800211846FFF761FF0346002B0ED10F4B1B6800211846FFF7C4FE0346002B02D10023FB600AE0D9
:401880000A4BFB6007E0094BFB6004E0044BFB6001E0034BFB60FB6818461037BD4680BD03018A006CB802080C4E020801018A0080B588B000AF78600B46FB700023FB61A7
:4018C0002F4BBB612F4B1B681846FFF71FFF03467B617B691A687B689A4249D97B685B093B613B695B017A68D31A012202FA03F3FB60FB7883F00103DBB2002B02D000F0F1
:4019000090FDF8611F4B1B681846FFF727FF0346002B23D17B695A683B699B0013441A68FB681340002B11D07B695A683B699B0013447A6951683A6992000A441168FA683C
:40194000D2430A401A600023BB6101E00E4BBB610C4B1B6800211846FFF750FEFB7883F00103DBB2002B05D0F86900F05EFD01E0064BBB61BB6918462037BD4680BD00BF13
:40198000030188000C4E02080201880004018A0080B586B000AF7860164B1B681846FFF7B5FE03463B613B691A687B689A421AD97B685B09FB60FB685B017A68D31A012230
:4019C00002FA03F3BB603B695A68FB689B0013441A68BB681340002B02D0074B7B6104E0064B7B6101E0064B7B617B6918461837BD4680BD0C4E0208010188000001880095
:401A000004018A0080B483B000AF0346FB80B7F90630002B0BDB0949B7F906305B09FA8802F01F02012000FA02F241F8232000BF0C37BD465DF8047B704700BF00E100E07A
:401A400080B582B000AF78600E4B1B6893F831301A467B689A4204D840F2C3110A4800F02FFC084B1B681A6A064B1B68B3F8B03019467B6803FB01F3134418460837BD465E
:401A800080BD00BF6CB80208F075081080B582B000AF78600C4B1B6893F832301A467B689A4204D840F2DF11084800F009FC064B1B681B6A1A467B6880335B011344184608
:401AC0000837BD4680BD00BF6CB80208F075081080B584B000AFF860B9607A607B681B0C1B04002B04D04FF4FF710C4800F0E8FBBB681B0C1B04002B04D040F2FF1107489F
:401B000000F0DEFB7B681A04BB689BB21A43FB689A6000BF1037BD4680BD00BFF075081080B483B000AF78607B68DB6818460C37BD465DF8047B704780B483B000AF7860FE
:401B40007B681B6818460C37BD465DF8047B704780B584B000AFF860B9607A607B681B0C1B04002B04D04FF426710D4800F0A8FBBB681B0C1B04002B04D040F299210848DF
:401B800000F09EFB7B681A04BB689BB21A43FB681A60FB681B6800BF1037BD4680BD00BFF075081080B582B000AF786039603B681B0C1B04002B04D040F2BB21054800F0CF
:401BC0007FFB3B689AB27B689A6000BF0837BD4680BD00BFF075081080B483B000AF786039607B683A68DA6000BF0C37BD465DF8047B704780B483B000AF7860084B1B688B
:401C0000D3F8B4207B6813441B6803F00043DB0FDBB218460C37BD465DF8047B704700BF6CB8020880B483B000AF78607B681B0C18460C37BD465DF8047B704780B483B0F1
:401C400000AF78607B689BB218460C37BD465DF8047B704780B582B000AF786039603B68002B04D140F2B631054800F029FB39687868FFF7FFFC034618460837BD4680BD42
:401C8000F075081080B483B000AF78607B681B6803F00043002B01DA002300E0034B18460C37BD465DF8047B704700BF01008A0080B483B000AF7860064B1B68002B02D18D
:401CC000044A7B68136000BF0C37BD465DF8047B704700BF184E0208B0B590B002AF78607B68002B03D152212F4800F0E9FA7B689B69072B03D956212B4800F0E1FA7B6827
:401D0000DB6A002B03D15821274800F0D9FA7B681B6B002B03D15921234800F0D1FA7B6807F11C0403F114050FCD0FC42B6823607B6807F108041D460FCD0FC42B682360D0
:401D40001A4B1B68B3F936309AB2FB699BB213449BB21BB23B863B6A7B63B86A7B68D96A7B689A6AFC6A07F130030093234600F01FF87869BA69002300931346002200219E
:401D800000F016F87B681A6B07F130031146184600F00EFAB7F930301846FFF733FE00BF3837BD46B0BD00BF307608106CB8020880B586B000AFF860B9607A603B60254B97
:401DC0001B68002B03D1B521234800F079FA214B1A68FB682C2101FB03F313447B613B68DAB27B691A603B681B0ADAB27B695A603B681A0C7B699A607B691B681846FFF719
:401E00001FFE02467B691A617B695B681846FFF73DFE02467B695A617B6958697B6999687B699B681A46FFF753FE7B697A68DA617B69BA681A627B6900229A613B6A002B55
:401E400004D03B6AB3F900207B699A8100BF1837BD4680BD184E02083076081080B58AB000AFF860B9607A603B607B68002B03D1FD21344800F024FA334B1B68002B03D114
:401E8000FE21304800F01CFA2F4B1A68FB682C2101FB03F313443B622B4B1A68BB682C2101FB03F31344FB61FB695B68012202FA03F3BB61BB691B04BB613B6A5B680122A4
:401EC00002FA03F37B613B6A1B69002B32D0FB699B69002B2BD13B6A1B691846FFF7D2FE0346002B20D17B681B689AB27B681A607B681A68BB691A437B681A603B6A1B6902
:401F00007A6811461846FFF767FEFB6901229A61FB693A685A623B6A1B6979691846FFF741FE00237B6207E0084B7B6204E0074B7B6201E0064B7B627B6A18462837BD46EF
:401F400080BD00BF30760810184E020807028A0004028A0080B586B000AFF860B9607A60174B1B68002B04D14FF4AF71154800F0A7F9134B1A68FB682C2101FB03F31344A1
:401F80003B613B691B6A002B04D14FF4B1710D4800F096F93B69DA697B689A4209D93B691A6A7B689B001344BA681A6000237B6101E0054B7B617B6918461837BD4680BD25
:401FC000184E0208307608100A028A0080B584B000AF78600B4B1B68002B04D140F2B111094800F06DF9074B1A687B682C2101FB03F31344FB60F86800F008F800BF1037BB
:40200000BD4680BD184E02083076081090B589B000AF78600023FB600023FB617B68002B04D140F2D1114C4800F04AF97B681B69002B04D14FF4E971474800F041F97B68D2
:402040005B69002B04D140F2D311434800F038F97B681B6A002B04D14FF4EA713E4800F02FF97B685B691846FFF75AFDB861B869FFF7D8FD0346002B3ED07B685C69B86994
:40208000FFF7D0FD03461A4600212046FFF760FD7B681B691846FFF7ADFD0346002B2BD07B681B6907F10C0211461846FFF7D2FD0346002B1AD1FB681B681B0CFB61FB68F4
:4020C0001B68DBB27B617B68DA697B699A420DD97B681A6A7B699B0013441B683B613B69002B03D0FA683B69104698477B681B69F9691846FFF782FAB869FFF79FFD03465A
:40210000002B1FD07B685C69B869FFF797FD0346002219462046FFF71BFD7B685B6A002B06D07B685B6A98477B6800225A6206E07B689B6A002B02D07B689B6A98477B688E
:4021400000229A617B685B691846FFF7F5FC00BF2437BD4690BD00BF3076081080B483B000AF03463960FB80B7F90630002B0ADB0D49B7F906303A68D2B25201D2B20B447E
:4021800083F800230AE00949FB8803F00F03043B3A68D2B25201D2B20B441A7600BF0C37BD465DF8047B704700E100E000ED00E080B584B000AF786039600023FB607B689A
:4021C000002B1DD07B685B68072B03D93221104800F076F87B68B3F900207B685B6819461046FFF7BBFF0B4B9B680B4A934209D17B68B3F900303968184600F011F801E05B
:40220000064BFB60FB6818461037BD4680BD00BF7076081000ED00E0004002080100560080B584B000AF03463960FB80134B9B68134A934216D13B68002B04D140F2371173
:40224000104800F03DF8B7F9063010330C4A52F82330FB60B7F90630103309493A6841F8232006E0B7F906301033074A52F82330FB60FB6818461037BD4680BD00ED00E064
:4022800000400208707608100000081080B582B000AF0346FB80FB88054A127802FB03F3184600F0B5F800BF0837BD4680BD00BF1443020880B483B000AF786001BEFEE7AA
:4022C00080B582B000AF7860396018227968044805F043F8034A3B6813600020FFF7EAFFB04B0208C84B020880B584B000AF78607B681B68414A13607B685B683F4A536006
:402300007B689B683D4A93607B68DB683B4AD3607B681B69394A13617B685B69374A53617B689B69354A93617B68DB69334AD361334B9B6A314A1362314BDB6A2F4A536291
:402340002F4B5B6A2D4A93622D4B5B6B2B4AD3622B4B9B6B294A1363F1EE103AFB60FB6803F09003002B43D07B681B6A234A53637B685B6A214A93637B689B6A1F4AD3639F
:402380007B68DB6A1D4A13647B681B6B1B4A53647B685B6B194A93647B689B6B174AD3647B68DB6B154A13657B681B6C134A53657B685B6C114A93657B689B6C0F4AD36517
:4023C0007B68DB6C0D4A13667B681B6D0B4A53667B685B6D094A93667B689B6D074AD3667B68DB6D054A13677B681B6E034A536700F008F800BF1037BD4680BDCC4B020840
:4024000000ED00E080B400AFFEE700BF000000000230800803D001300238FCD100BF00BF7047EFF3108072B6704780F31088704780B400AF4FF0B0535B78DBB2002B04D0B7
:402440004FF0B0535B78DBB200E021231846BD465DF8047B704700BF80B483B000AF7860044A7B68136000BF0C37BD465DF8047B704700BF6CB8020880B586B000AF7860EA
:4024800039607B68002B03D13A216A48FFF718FF3B68002B03D13B216648FFF711FF7B68002B02D03B68002B02D1634B7B6148E13B681A68614B1340002B03D04A215D486F
:4024C000FFF7FEFE3B685A685D4B1340002B03D04B215848FFF7F4FE3B689B6803F0FC23002B03D04C215348FFF7EAFE3B68DB6803F0FC23002B03D04D214E48FFF7E0FE2E
:402500003B681B7D032B03D94E214A48FFF7D8FE3B689B69B3F5803F03D34F214548FFF7CFFE3B68DB6D072B03D950214148FFF7C7FE3B681B6EB3F5803F03D351213D48D7
:40254000FFF7BEFE3B685B6EB3F5803F03D352213848FFF7B5FE3B685B6843F000427B685A603B689A687B681A613B68DA687B685A613B681A697B689A613B681B7D9A0786
:402580007B68DA613B689A697B681A623B681B6803F46063B3F5606F0CBF01230023BB743B685B6803F00403002B14BF012300237B740023FB7464E0FB7C3A6806339B0009
:4025C00013445A681F4B1340002B03D063211948FFF776FEFA7CFB7C396806339B000B4459687B68203243F822104FF48053FB60FB7C3A6806339B0013445B6803F0012315
:40260000002B0CBF01230023FB72FB7A002B1DD0BB7C002B1AD07B7C002B17D0FA7CFB68D90F0B445B105B4219B2074B23F8121011E000BF24780810010006000811DF0039
:4026400001FE302088CA887E70B80208FB7C3F4A002122F81310FB7CFA6842F2107101FB02F23968496F11443A68526F520091FBF2F212B21146364A42F82310FB7C01331F
:40268000FB74FB7C0F2B97D93B68DA6D7B68C3F818223B68DA6D7B68C3F810223B681A6E7B68C3F828223B681A6E7B68C3F820223B685A6E7B68C3F838223B685A6E7B683F
:4026C000C3F830223B6893F87030002B23D03B689B6EB3F1804F03D382211E48FFF7F0FD3B68DB6E23F44F0323F0FF03002B03D083211848FFF7E4FD7B686FF04042C3F83E
:4027000004233B689A6E7B68C3F800233B68DA6E7B68C3F844237B68D3F8003F3F2B04D07B68D3F8003F002B03D17B680B22C3F8002F3B681B6843F400127B681A60002316
:402740007B617B6918461837BD4680BD70B8020890B802082478081080B584B000AF78600B46FB707B68002B03D1B5212848FFF7A7FD7B68002B02D1264BFB6043E07B6853
:4027800000221A607B6800225A607B684FF003121A617B684FF003125A617B6800229A617B680022DA617B6800221A620023FB7208E0FA7A7B682032002143F82210FB7A35
:4027C0000133FB72FB7A0F2BF3D97B680022C3F818227B680022C3F828227B680022C3F83822FB78002B0CD07B686FF04042C3F804237B680022C3F840237B680022C3F89C
:4028000044230023FB60FB6818461037BD4680BD247808100100060080B582B000AF78607B681B68002B0EDB00BF7B68D3F8A032002BFADB7B681B6843F000427B681A60D1
:402840000220FFF723FD00BF0837BD4680BD00BF80B584B000AF786039603B680F2B04D940F27B210A48FFF72BFD0023FB603B680F2B06D87B683A68603253F822309BB268
:40288000FB60FB681BB218461037BD4680BD00BF2478081080B483B000AF78607B68D3F8403318460C37BD465DF8047B704700BF80B483B000AF78607B68D3F80833C3F3AB
:4028C000080318460C37BD465DF8047B704700BF80B483B000AF786039607B683A68C3F8402200BF0C37BD465DF8047B704700BF80B483B000AF78607B68D3F80832C3F3DB
:40290000080318460C37BD465DF8047B704700BF80B483B000AF78607B681B6803F40063002B01D0802300E0402318460C37BD465DF8047B704700BF80B483B000AF786032
:402940007B68D3F8003303F00F03072B94BF01230023DBB218460C37BD465DF8047B704780B483B000AF78607B68D3F8003203F00F03072B94BF01230023DBB218460C371C
:40298000BD465DF8047B704790B589B000AFF860B9607A60F868FFF7CFFF0346002B15D0BB68BB610023FB610BE0BA69FB69D418F868FFF76FFF0346DBB22370FB690133B3
:4029C000FB61FA697B689A42EFD315E0BB687B610023FB610CE0FB695B007A69D418F868FFF758FF03469BB22380FB690133FB61FA697B689A42EED300BF2437BD4690BD83
:402A000080B586B000AFF860B9607A60F868FFF74FFF78617A697B689A4201D97B687B617A69B968F868FFF7AFFF7B6918461837BD4680BD80B588B000AFF860B9607A6039
:402A4000F868FFF78DFF0346002B14D0BB68BB610023FB610AE0BA69FB6913441B781946F868FFF735FFFB690133FB61FA697B689A42F0D314E0BB687B610023FB610BE0E4
:402A8000FB695B007A6913441B881946F868FFF71FFFFB690133FB61FA697B689A42EFD300BF2037BD4680BD90B587B000AFF860B9607A60F868FFF72BFF0446F868FFF7E3
:402AC00017FF0346E31A7B617A697B689A4201D97B687B617A69B968F868FFF7ABFF7B6918461C37BD4690BD80B584B000AFF860B9607A6006E0B968F868FFF7E9FE7B68F0
:402B0000013B7B607B68002BF5D100BF1037BD4680BD00BF90B587B000AFF860B9607A60F868FFF7F5FE0446F868FFF7E1FE0346E31A7B617A697B689A4201D97B687B610A
:402B40007A69B968F868FFF7CFFF7B6918461C37BD4690BD80B483B000AF78607B68D3F8403318460C37BD465DF8047B704700BF80B582B000AF78603960786800F03CFABE
:402B800002463B689A4204D84FF420710848FFF797FB7B68D3F8043323F0FF023B68DBB21A437B68C3F8042300BF0837BD4680BD6078081080B483B000AF78607B68D3F8B1
:402BC0000833C3F3080318460C37BD465DF8047B704700BF80B483B000AF78607B68D3F8043343F480327B68C3F804237B68D3F8043323F480327B68C3F804237B68D3F849
:402C0000043300BF0C37BD465DF8047B704700BF80B483B000AF786039607B683A68C3F8402200BF0C37BD465DF8047B704700BF80B582B000AF78603960786800F0DCF96A
:402C400002463B689A4204D84FF43A710848FFF737FB7B68D3F8043223F0FF023B68DBB21A437B68C3F8042200BF0837BD4680BD6078081080B483B000AF78607B68D3F838
:402C80000832C3F3080318460C37BD465DF8047B704700BF80B483B000AF78607B68D3F8083203F40043DB0B18460C37BD465DF8047B704780B483B000AF78607B68D3F86A
:402CC000043243F480327B68C3F804227B68D3F8043223F480327B68C3F804227B68D3F8043200BF0C37BD465DF8047B704700BF80B483B000AF78607B68D3F8003E184615
:402D00000C37BD465DF8047B704700BF80B582B000AF786039603B6823F4366323F00D03002B04D040F29A310548FFF7C9FA7B683A68C3F8C82F00BF0837BD4680BD00BFD0
:402D40006078081080B483B000AF78607B68D3F8CC3F18460C37BD465DF8047B704700BF80B582B000AF786039603B6823F4366323F00D03002B04D040F2E5310648FFF746
:402D80009FFA7B683A68C3F8C02F7B68D3F8C03F00BF0837BD4680BD6078081080B582B000AF786039603B6823F4366323F00D03002B04D04FF47F710548FFF781FA7B68A0
:402DC0003A68C3F8C42F00BF0837BD4680BD00BF6078081080B582B000AF786039603B6823F4EE6323F00303002B04D040F22A410548FFF765FA7B683A68C3F8882F00BFF7
:402E00000837BD4680BD00BF6078081080B483B000AF78607B68D3F88C3F18460C37BD465DF8047B704700BF80B582B000AF786039603B6823F4EE6323F00303002B04D065
:402E400040F277410648FFF73BFA7B683A68C3F8802F7B68D3F8803F00BF0837BD4680BD6078081080B483B000AF78607B68D3F8002F40F21733134018460C37BD465DF8D2
:402E8000047B704780B582B000AF786039603B6823F4457323F00303002B04D040F2BC410548FFF70DFA7B683A68C3F8082F00BF0837BD4680BD00BF6078081080B483B087
:402EC00000AF78607B68D3F80C3F18460C37BD465DF8047B704700BF80B582B000AF786039603B6823F4457323F00303002B04D04FF4A0610648FFF7E3F97B683A68C3F8AF
:402F0000002F7B68D3F8003F00BF0837BD4680BD6078081080B582B000AF786039603B6823F41F6323F00F03002B04D040F246510548FFF7C5F97B683A68C3F8482F00BF20
:402F40000837BD4680BD00BF6078081080B483B000AF78607B68D3F84C3F18460C37BD465DF8047B704700BF80B582B000AF786039603B6823F41F6323F00F03002B04D027
:402F800040F28B510648FFF79BF97B683A68C3F8402F7B68D3F8403F00BF0837BD4680BD6078081080B483B000AF78607B68D3F88C3E18460C37BD465DF8047B704700BFCD
:402FC00080B582B000AF786039603B6823F00103002B04D040F213610648FFF771F97B683A68C3F8802E7B68D3F8803E00BF0837BD4680BD6078081080B483B000AF7860C7
:403000007B681B6803F40063002B01D0802300E0402318460C37BD465DF8047B704700BF80B483B000AF78607B681B6823F000427B681A607B6800229A667B680022DA66B0
:403040007B681B6843F000427B681A607B681B6800BF0C37BD465DF8047B704780B483B000AF78607B68D3F80433DBB218460C37BD465DF8047B704780B582B000AF7860A5
:4030800039603B68062B02D93B68102B04D940F283510948FFF714F97B681B6E23F0F0023B68013B1B01DBB21A437B681A6600BF0837BD4680BD00BFA478081080B582B062
:4030C00000AF786039603B68042B02D93B68102B04D94FF4B4610948FFF7F2F87B681B6E23F00F023B68013B03F00F031A437B681A6600BF0837BD4680BD00BFA47808105A
:4031000080B586B000AFF860B9607A60BB681B78012B05D0BB681B7A002B01D0012300E00023FB75FB7D03F00103FB75FB68002B05D0BB68002B02D07B68002B01D17C4B1F
:40314000F1E0BB681B78012B0BD0BB681B78022B07D0BB681B78032B03D04F217548FFF7AFF8BB685B78002B02D0BB685B7900E00023002B03D050216E48FFF7A1F8BB68C2
:40318000DB785BB2002B03DA51216A48FFF798F8BB681B7903F00103002B03D052216548FFF78EF8BB681B69102B03D953216148FFF786F8BB68DB68102B03D954215D48CF
:4031C000FFF77EF8BB685B79002B02D04FF4803200E00022BB68DB79002B02D04FF4807300E00023134343F40062FB681A60BB689B7983F00103DBB2002B02D04FF4006222
:4032000000E00022BB681B69013B03F00F031A43BB68DB68013B1B01DBB21A43BB681B789B071A43FB681A66FB7D002B02D040F2073201E040F20712FB68C3F80023FB7D42
:40324000002B01D03C4A00E03C4AFB681A67BB685B78002B01D07F2200E00022FB68C3F80423BB68DB785B00DAB2BB681B791B0403F47F031A43FB68C3F81023FB68304A71
:40328000C3F80022BB689B78002B01D0402200E00122FB68C3F80422FB680022C3F8C82EFB680022C3F8882EFB680022C3F8C82FFB680022C3F8882FFB680022C3F8082F85
:4032C000BB681B78022B02D040F2D11200E00022FB68C3F8482FBB685A787B681A70BB689A787B685A707B684FF080525A607B6800229A607B6800229A617B6800221A62FB
:403300007B6800221A647B680022DA637B6800221A637B680022DA627B6800225A647B6800229A64002318461837BD4680BD00BF0120AA00E478081003002A0013102A00B7
:403340000701010080B483B000AF786039607B681B6823F000427B681A603B684FF080525A603B6800229A603B6800221A6200BF0C37BD465DF8047B704700BF80B58CB077
:4033800000AFF860B9607A607B68002B04D140F212218948FEF794FFBB68002B03D0BB68864A934204D940F213218348FEF788FF0023FB62FB681B6E03F040439B0F012B47
:4033C00010D17968F86800F011F9F862FB68D3F8003323F40072FB68C3F80023FB68784A1A67E3E0012387F82B300823FB610823BB610023FB75BB68002B03D0BB686F4A67
:40340000934203D9012387F82B3042E0BB686D4A934213D87B686C4A93423AD97B686B4A934236D841F288337B6241F288333B620023FB75002387F82B302AE0BB68644A64
:40344000934213D87B68634A934222D97B68624A93421ED84FF4C8637B624FF461733B620023FB75002387F82B3012E07B685B4A93420ED97B685A4A93420AD84FF41B73FE
:403480007B624FF4BE733B620123FB75002387F82B3097F82B3083F00103DBB2002B00F08580504A7B68B2FBF3F33B617A6A3B69B2FBF3F3FB613B69FA6902FB03F27B6A7E
:4034C0009A4202D2FB690133FB61FB69102B01D91023FB61FB690F2B94BF01230023BB753A6A3B69B2FBF3F3BB613B69BA6902FB03F23B6A9A4202D2BB690133BB61BB691B
:40350000102B01D91023BB61FA69BB6913447A68B2FBF3F3FB621EE0BB7D002B08D0FB690F2B11D8FB690133FB610023BB750BE0BB690F2B08D8BB690133BB61FB690F2B35
:4035400094BF01230023BB75FA69BB6913447A68B2FBF3F3FB62FA6ABB689A4204D9FA69BB6913441F2BD7D9FB7D002B0BD0FB68D3F8003343F40072FB68C3F80023FB688D
:40358000194A1A670AE0FB68D3F8003323F40072FB68C3F80023FB68094A1A67F969F868FFF76AFDB969F868FFF788FDFB6A18463037BD4680BD00BFE478081040420F0091
:4035C00013102A00A0860100AFA6170000D43000801A0600DF527700809698007F81DA0040AD890100CA9A3B03002A0080B584B000AF786039603B68002B04D140F2C32192
:403600002448FEF75DFE0023FB607B681B6E03F040439B0F012B23D13B681F4A934206D93B681E4A934202D81D4BFB602CE03B681C4A934206D93B681B4A934202D81B4B81
:40364000FB6021E03B681A4A934206D93B68194A934202D8184BFB6016E00023FB6013E03B68002B10D07B681B6E03F0F0031A097B681B6E03F00F0313440233BB603A687C
:40368000BB68B2FBF3F3FB60FB6818461037BD4680BD00BFE4780810DF52770020AEEA00801A0600AFA617000050C300A0860100FFB2F10040084E0540420F0080B483B0A3
:4036C00000AF786039603B689B6818460C37BD465DF8047B704700BF80B588B000AFF860B9607A60BB68002B04D140F2D3415D48FEF7E6FDBB685B68002B03D0BB689B68BF
:40370000002B04D140F2D4415648FEF7D9FDBB681B785BB2002B04DA40F2D5415148FEF7CFFD514BFB610021F868FFF7F3FB7B685B6803F08053002B00F08980BB681B78C8
:403740005B00DBB243F00103BB617B684FF480329A60BB685A687B681A61BB689A687B685A617B6800229A617B680022DA61BB681A7B7B681A737B6801225A7340F21711A1
:40378000F868FFF7A9FBF868FFF794FA7B685B68B3F1805F07D1B969F868FFF739FAFB6802229A660EE0FB685B6E03F02003002B01D0092200E00122FB689A66B969F868B9
:4037C000FFF726FA7B681B78002B27D07B681B7B83F00103DBB2002B20D07B685B69012B1CD980237B61FB681B6E43F48072FB681A667B685A697B699A4203D87B685B695C
:40380000023B02E07B695B08013B1946F868FFF7AFF97B684FF490125A6007E00021F868FFF7A6F97B684FF488125A60FEF7F9FD38610121F868FFF769FA40F21311F8687B
:40384000FFF720FB3869FEF7F0FD0023FB6140F2D111F868FFF75EFBFB6918462037BD4680BD00BFE47808100220AA0080B588B000AFF860B9607A60BB68002B04D140F25E
:40388000B7515448FEF71CFDBB689B68002B08D0BB685B68002B04D14FF4B7614D48FEF70FFDBB681B785BB2002B04DA40F2B9514848FEF705FD484BFB610021F868FFF761
:4038C00029FB7B685B6803F08053002B78D0BB681B785B00DBB2BB617B684FF480329A60BB685A687B681A61BB689A687B685A617B6800229A617B680022DA61BB681A7B3B
:403900007B681A737B6800225A7340F21711F868FFF7E2FAF868FFF7CDF97B685B68B3F1805F0BD1B969F868FFF772F94021F868FFF77AFAFB6802229A6621E0FB685B6ED6
:4039400003F02003002B01D0092200E00122FB689A667B685B69002B0ED1FEF762FD7861B969F868FFF754F94021F868FFF75CFA7869FEF75AFD03E0B969F868FFF748F92B
:403980007B684FF4A0125A607B685B78002B01D0402300E001231946F868FFF749F9FEF740FD78610121F868FFF714FA40F21311F868FFF767FA7869FEF737FD0023FB613E
:4039C00040F2D111F868FFF7A5FAFB6918462037BD4680BDE47808100220AA0080B483B000AF786039603B68DB6918460C37BD465DF8047B704700BF80B582B000AF7860DB
:403A000039603B685B6803F48013002B04D03968786800F047FB03E03968786800F004F800BF0837BD4680BD80B584B000AF786039607868FFF7B6FA034603F00103002B43
:403A400007D03B684FF480525A6001217868FFF7B7FA7868FFF77AFAF860FA6840F201131340002B16D03B681A6AFB6803F48073002B02D04FF4807300E080231A433B687C
:403A80001A6200217868FFF741F9FB6843F01003FB6016E0FB6803F01003002B11D07868FFF788F80346002B0BD03B68DB6B002B07D001217868FFF771F901217868FFF700
:403AC00025F97868FFF73EF9034603F00103002B07D03968786800F019F901217868FFF73FF9FB6803F01003002B0BD03968786800F044FA10217868FFF736FA7868FFF77B
:403B000025FAF860FB6803F0C003002B0BD03968786800F01DF801217868FFF751FAC0217868FFF721FA7868FFF770F9034603F04103002B07D03968786800F069F901219E
:403B40007868FFF771F900BF1037BD4680BD00BF80B588B000AF786039600023FB773B689B6C002B46D00023BB617B681B6803F48033002B0BD07868FFF7E8F9034603F0AB
:403B80004003002B01D0022300E00023BB617B681B6E03F40063002B0DD17868FFF7D6F9034603F08003002B01D0012300E00023BA691343BB61BB69002B1BD03B689B6CB3
:403BC000B86998470346FB7701217868FFF7C8F8FB7F002B09D110217868FFF7C5F940F2D1117868FFF796F904E040F2C1117868FFF790F97868FFF75DF8FB7F002B01D1AC
:403C0000012200E002227B68DA66FB7F002B78D17B685B6E03F01003002B14BF01230023FB743B685B6C002B09D03B685B6CFA7C002A01D0012200E0022210469847FB7CCA
:403C4000002B16D03B6841F202025A603B681B6A43F001023B681A623B685A6B3B681A633B68002283F8242001217868FFF7B2F847E000237B613B6841F201025A603B6818
:403C80001B6A43F010023B681A6201217868FFF73DF83B681B78002B2FD03B68DB6B002B2BD08023FB607B681B6E43F400527B681A663B68DA6BFB689A4210D93B68DA6B31
:403CC000FB68D31A7B617A69FB689A4203D9FB685B08013B01E07B69013B7B610DE03B68DB6B013B7B617B681B6E43F400427B681A6600217868FFF709F879697868FEF7D6
:403D000037FF00BF2037BD4680BD00BF90B587B000AF786039603B68DB6B002B6DD03B681B78002B50D080233B617868FFF796F903460133FB603B689B6BFA681946786804
:403D4000FEF75EFEF8603B681A6CFB681A443B681A643B68DA6BFB68D21A3B68DA633B689A6BFB681A443B689A633B68DA6B3B699A4210D93B68DA6B3B69D31A7B617A69E6
:403D80003B699A4203D93B695B08013B01E07B69013B7B6113E07B681B6E43F400427B681A663B68DB6B002B03D03B68DB6B013B00E000237B6100217868FEF7A7FF7969E3
:403DC0007868FEF7D5FE1FE07B680122DA663B689A6B3B681B6CD4187868FEF7BBFE0346DBB223703B681B6C5A1C3B681A643B68DB6B5A1E3B68DA6306E07B680222DA66F2
:403E000000217868FEF782FF00BF1C37BD4690BD80B584B000AF786039603B6893F82430DBB283F00103DBB2002B19D03B68DB6A002B15D13B685B6C002B03D03B685B6C2E
:403E4000082098473B68DB6A002B0CBF01230023DAB23B6883F8242001217868FEF7BAFF3B6893F82430DBB2002B1DD03B685B78002B04D07868FFF7BFF8034600E0012302
:403E8000FB60FA68FF217868FEF744FEF8603B681A6BFB681A443B681A633B681B6A43F008023B681A6265E03B68DB6A012B23D93B685B78002B03D03B68DB6A013B00E05C
:403EC0000123FB603B689B6AFA6819467868FEF7EBFDF8603B681A6BFB681A443B681A633B68DA6AFB68D21A3B68DA623B689A6AFB681A443B689A627868FEF7BBFE0346C9
:403F0000802B37D03B68DB6A012B33D1FEF789FAB8603B689B6A1B7819467868FEF778FE40217868FEF780FFB868FEF77EFA3B681B6B5A1C3B681A633B680022DA623B689D
:403F40009B6A5A1C3B689A6240217868FEF742FF3B685B78002B0DD03B681B6A43F002023B681A623B685B6C002B03D03B685B6C0420984700BF1037BD4680BD90B585B01F
:403F800000AF786039603B685B6841F20102934233D17868FEF70EFE0346002B10D03B681B6A43F040023B681A623B681B78002B03D07868FEF70EFE02E07868FEF7CAFDE8
:403FC0002023FB603B681B6A43F020023B681A623B681B6A23F010023B681A627B681B6E23F420427B681A6600217868FEF78EFE01217868FEF7B4FE34E07868FEF73AFE87
:4040000004467868FEF746FE03462344BB603B681A6BBB68D21A3B685A633B681B6A03F00803002B0CD13B68DA6ABB681A443B68DA623B689A6ABB685B421A443B689A62E2
:404040001023FB603B681B6A43F004023B681A623B681B6A23F001023B681A6200217868FEF7B8FE7868FEF771FF024640F201131340002B06D07868FEF7D2FFFB6843F0C6
:404080004003FB603B684FF080525A603B685B6C002B03D03B685B6CF868984700BF1437BD4690BD80B584B000AF786039607868FEF71EFEF860FB6803F00203002B10D051
:4040C0007B689B6E002B08D07B6800229A663B689B6843F080723B689A603B684FF4C0125A60FB6803F00103002B07D03968786800F034F8FB6823F00403FB60FB6803F0CB
:404100000803002B07D03968786800F07FF801217868FEF725FEFB6803F00403002B07D03968786800F0FCF801217868FEF77CFE3B685B68B3F5C01F03D13968786800F009
:40414000A7F93B685B68B3F5B01F03D13968786800F076F900BF1037BD4680BD80B584B000AF786039607868FEF7A8FEF860FB6803F00203002B25D002217868FEF7ACFE4F
:404180007868FEF76FFE034603F00403002B02D04FF4001301E04FF480133A6892681A433B689A603B685B68B3F5B81F0AD03B681B7B002B02D04FF4C01201E04FF4B012EA
:4041C0003B685A60FB6803F48073002B05D03B689B6843F400023B689A60FB6803F00103002B05D03B689B6843F480023B689A60FA6840F211131340002B03D03B684FF454
:40420000C0125A6000BF1037BD4680BD90B585B000AF786039603B685B68B3F5881F03D0B3F5901F2BD077E03B681C697868FEF791FC0346DBB223703B689B695A1C3B682E
:404240009A613B685B695A1E3B685A613B685B69002B08D03B681B695A1C3B681A617B6804229A6658E03B681B7B002B02D04FF4C01201E04FF4B0123B685A604CE03B6843
:4042800019693B685B691A467868FEF7B9FBF8603B689A69FB681A443B689A613B685A69FB68D21A3B685A613B681A69FB681A443B681A613B685B69012B1BD87B681B6EC5
:4042C00023F480727B681A663B685B69012B08D100217868FEF74CFC3B684FF488125A6019E000217868FEF711FD3B684FF4B0125A6010E04023BB603B685A69BB689A423C
:4043000003D83B685B69023B01E0BB68013B19467868FEF72DFC00BF00BF1437BD4690BD80B584B000AF786039603B685B68B3F5A81F04D13B684FF4C0125A607BE03B68A5
:404340005B68B3F5A01F76D13B685B69012B23D93B685B78002B03D03B685B69013B00E00123FB603B681B69FA6819467868FEF79BFBF8603B689A69FB681A443B689A6117
:404380003B685A69FB68D21A3B685A613B681A69FB681A443B681A617868FEF76BFC0346802B1CD03B685B69012B18D1FEF739F8B8603B681B691B7819467868FEF728FCFD
:4043C00040217868FEF730FDB868FEF72EF83B689B695A1C3B689A613B6800225A613B685B69002B27D13B681B7B002B08D040217868FEF7EFFC3B684FF4A8125A6007E0BC
:4044000000217868FEF7E6FC3B684FF4B0125A603B685B78002B0ED03B689B6843F400323B689A603B685B6C002B04D03B685B6C4FF48030984700BF1037BD4680BD00BF6D
:4044400080B582B000AF7860396000217868FEF75DFC00217868FEF7BDFC7B689B6E002B05D040F217117868FEF70CFD0BE040F213117868FEF706FD7B6818229A663B68BA
:404480004FF4B8125A6000BF0837BD4680BD00BFB0B586B000AF786039607868FEF70EFD38617B681B6E23F480727B681A6600217868FEF72BFC00217868FEF78BFC002171
:4044C0007868FEF7DFFC40F217117868FEF704FD3B689B6823F480323B689A603B685B7B002B04D03B689A693B68DA610DE03B689C697868FEF7BEFB05467868FEF7CAFBCC
:4045000003462B44E21A3B68DA613A6940F201131340002B25D00123FB757B681B6E03F040439B0F032B11D13B6903F00403002B04D13B6903F48073002B01D0012300E031
:404540000023FB75FB7D03F00103FB75FB7D002B02D07868FEF764FD3B684FF080525A6014E03B681B78002B06D07868FEF732FB01217868FEF7F4FB3B681B7B002B01D068
:40458000144A01E04FF080523B685A603B685B6C002B1AD03B685B7B002B02D04FF4802301E04FF40033FB603B689B6803F0F873002B02D04FF4002300E00023FA6813439F
:4045C000FB603B685B6CF868984700BF1837BD46B0BD00BF0000101080B584B000AFF860B9607A60244B1B6893F833301A46BB689A4204D840F2E1512048FDF761FE1E4B54
:404600001B68B3F85A301A46FB681A441A4B1B68B3F85C301946BB6803FB01F313441A467B68D360144B1B68B3F85A301A46FB681A44114B1B68B3F85C301946BB6803FB73
:4046400001F3134419460C4B1B68B3F85A301A46FB681A44084B1B68B3F85C301846BB6803FB00F313449B681B0C1B048B6000BF1037BD4680BD00BF6CB80208247908106E
:4046800080B584B000AF786039609C4BFB607B68002B00F0EC813B68002B00F0E8813B681B78002B0FD03B681B78012B0BD03B681B78022B07D03B681B78032B03D0572137
:4046C0008F48FDF7FDFD3B685B78002B0FD03B685B78012B0BD03B685B78022B07D03B685B78032B03D058218548FDF7E9FD3B689B78002B0FD03B689B78012B0BD03B68C7
:404700009B78022B07D03B689B78032B03D059217B48FDF7D5FD3B681B79002B0FD03B681B79012B0BD03B681B79022B07D03B681B79032B03D05A217148FDF7C1FD3B682D
:404740009B79002B07D03B689B79012B03D05B216B48FDF7B5FD3B68DB79002B07D03B68DB79012B03D05C216548FDF7A9FD3B68DB78002B07D03B68DB78012B03D05D217A
:404780005F48FDF79DFD3B685B79002B0BD03B685B79012B07D03B685B79022B03D05E215748FDF78DFD3B681B7A002B0FD03B681B7A012B0BD03B681B7A022B07D03B685A
:4047C0001B7A032B03D05F214D48FDF779FD3B681B7803F003023B685B789B0003F00C031A433B689B781B0103F030031A433B681B799B01DBB21A433B689B799B0603F0A9
:4048000080631A433B68DB79DB0603F000631A433B68DB781B0603F080731A433B685B791B0703F040531A433B681B7A9B071A437B681A603B68DB681A467B685A603B68BD
:404840001B691A467B689A603B681B7A032B00F20B8101A252F823F0694808107948081009490810014A08103B68DB6A1A467B68DA600023FB60FAE03B685B6913F5006F89
:4048800004DB3B685B69B3F5006F03DB78211C48FDF716FD3B689B6913F5006F04DB3B689B69B3F5006F03DB79211548FDF708FD3B68DB69002B04D03B68DB69B3F5807FBC
:4048C00003D97A210E48FDF7FBFC3B685B69C3F30B023B689B6919030A4B0B401A433B68DB69013B1B061A437B68DA603B68DB6A1A467B681A610023FB60B8E001004E004D
:404900006079081000F0FF003B685B6913F5006F04DB3B685B69B3F5006F03DB87215648FDF7CEFC3B689B6913F5006F04DB3B689B69B3F5006F03DB88214F48FDF7C0FCF1
:404940003B68DB69002B04D03B68DB69B3F5807F03D989214848FDF7B3FC3B681B6A13F5006F04DB3B681B6AB3F5006F03DB8A214148FDF7A5FC3B685B6A13F5006F04DBE8
:404980003B685B6AB3F5006F03DB8B213A48FDF797FC3B689B6A002B04D03B689B6AB3F5807F03D98C213448FDF78AFC3B685B69C3F30B023B689B691903304B0B401A4360
:4049C0003B68DB69013B1B061A437B68DA603B681B6AC3F30B023B685B6A1903274B0B401A433B689B6A013B1B061A437B681A613B68DB6A1A467B685A610023FB6036E036
:404A00001F4B1B6893F82A30012B2FD93B685B6913F5006F04DB3B685B69B3F5006F03DBA1211548FDF74CFC3B68DB69002B04D03B68DB69B3F5807F03D9A2210E48FDF79F
:404A40003FFC3B685B69C3F30B023B68DB69013B1B061A437B68DA603B68DB6A1A467B681A610023FB6001E000BF00E000BFFB6818461037BD4680BD6079081000F0FF0088
:404A80006CB8020890B587B000AFF860B9607A60354B7B61FB68002B60D07B68002B5DD07B681B68002B59D0304B1B6893F833301A46BB689A4251D97B689B68032B03D9DE
:404AC000EF212B48FDF7FCFB7B681B681A46B968F868FFF781FD254B1B68B3F85A301A46FB681A44214B1B68B3F85C301946BB6803FB01F3134418467B681B79002B07D07C
:404B00001A4B1B6893F85F301A460123934000E000237A6892681549096891F85E1002FA01F1124A126892F85E2014460322A2400A401A437B681B7B002B02D04FF00043AB
:404B400000E000231A437B685B7B002B01D0042300E000231343036000237B617B6918461C37BD4690BD00BF01004E006CB802086079081080B487B000AFF860B9607A60C7
:404B8000644B7B61FB68002B00F0BD807B68002B00F0B9807B685B681B029AB27B689B689B0403F480231A437B68DB681B0403F440331A437B681B691B0603F0E0631A43C6
:404BC0007B681B7F002B01D0012300E000231A43F968BB6804339B010B441A607B68DB68002B08D1FA68BB689B01134403F5847300221A6015E07B68DB68012B09D17B6867
:404C00001A68F968BB689B010B4403F584731A6007E0FA68BB689B01134403F5847301221A607B681B69002B11D17B685A69F968BB689B010B4403F586731A607B689A6955
:404C4000F968BB689B010B4403F588731A607B681A68F968BB689B010B4403F58A731A607B689B6CB3F1FF3F20D07B689B6A03F00F027B681B6B1B0203F470631A437B68DD
:404C80009B6B1B0403F470231A437B681B6C1B039BB21A437B689B6C1B01DBB21A43F968BB689B010B4403F590731A607B685B6A03F003027B68DB6A1B0103F030031A437B
:404CC0007B685B6B1B0203F440731A437B68DB6B9B01DBB21A437B685B6C9B0003F00C031A43F968BB689B010B4403F592731A607B681A6AF968BB689B010B4403F59C73D1
:404D00001A6000237B617B6918461C37BD465DF8047B70470100B60080B483B000AF78607B6803F108027B685A607B684FF0FF329A607B6803F108027B68DA607B6803F192
:404D400008027B681A617B6800221A6000BF0C37BD465DF8047B704780B483B000AF78607B6800221A6100BF0C37BD465DF8047B704700BF80B485B000AF786039607B6893
:404D80005B68FB603B68FA685A60FB689A683B689A60FB689B683A685A60FB683A689A603B687A681A617B681B685A1C7B681A6000BF1437BD465DF8047B704780B485B019
:404DC00000AF786039603B681B68BB60BB68B3F1FF3F03D17B681B69FB600CE07B680833FB6002E0FB685B68FB60FB685B681A68BB689A42F6D9FB685A683B685A603B6854
:404E00005B683A689A603B68FA689A60FB683A685A603B687A681A617B681B685A1C7B681A6000BF1437BD465DF8047B704700BF80B485B000AF78607B681B69FB607B6830
:404E40005B687A6892689A607B689B687A6852685A60FB685A687B689A4203D17B689A68FB685A607B6800221A61FB681B685A1EFB681A60FB681B6818461437BD465DF801
:404E8000047B704780B584B000AF786039607B68FB60FB68002B09D14FF03F0383F31188BFF36F8FBFF34F8FBB60FEE701F08AFEFB681A68FB68DB6BF968096C01FB03F3EE
:404EC0001A44FB685A60FB6800229A63FB681A68FB689A60FB681A68FB68DB6B013BF968096C01FB03F31A44FB68DA60FB68FF2283F84420FB68FF2283F845203B68002B51
:404F000014D1FB681B69002B1AD0FB681033184601F07EF80346002B12D00D4B4FF080521A60BFF34F8FBFF36F8F09E0FB6810331846FFF7F1FEFB6824331846FFF7ECFEE2
:404F400001F06EFE012318461037BD4680BD00BF04ED00E080B58AB002AFF860B9601346FB71FB68002B09D14FF03F0383F31188BFF36F8FBFF34F8F3B61FEE7BB68002BDE
:404F800002D10023FB6104E0FB68BA6802FB03F3FB61FB694833184601F040FFB861BB69002B0BD0BB6948337B61FA79BB69009313467A69B968F86800F006F8BB69184665
:404FC0002037BD4680BD00BF80B584B000AFF860B9607A60FB70BB68002B03D1BB69BA691A6002E0BB697A681A60BB69FA68DA63BB69BA681A640121B869FFF743FF00BF87
:405000001037BD4680BD00BF80B58EB000AFF860B9607A603B6000237B63FB683B633B6B002B09D14FF03F0383F31188BFF36F8FBFF34F8FFB61FEE7BB68002B03D13B6B9C
:405040001B6C002B01D1012300E00023002B09D14FF03F0383F31188BFF36F8FBFF34F8F3B62FEE73B68022B03D13B6BDB6B012B01D1012300E00023002B09D14FF03F03F3
:4050800083F31188BFF36F8FBFF34F8F7B62FEE701F05CF90346002B02D17B68002B01D1012300E00023002B09D14FF03F0383F31188BFF36F8FBFF34F8FBB62FEE701F083
:4050C00081FD3B6B9A6B3B6BDB6B9A4202D33B68022B29D13A68B968386B00F0FFF9F8623B6B5B6A002B10D03B6B2433184600F08FFF0346002B13D03F4B4FF080521A60BD
:40510000BFF34F8FBFF36F8F0AE0FB6A002B07D0394B4FF080521A60BFF34F8FBFF36F8F01F07EFD012363E07B68002B03D101F077FD00235CE07B6B002B06D107F114031F
:40514000184600F0C7FF01237B6301F069FD00F027FD01F037FD3B6B93F844305BB2B3F1FF3F03D13B6B002283F844203B6B93F845305BB2B3F1FF3F03D13B6B002283F8CE
:40518000452001F04DFD3A1D07F114031146184600F0B6FF0346002B24D1386B00F088FA0346002B18D03B6B10337A681146184600F0E0FE386B00F013FA00F0FFFC034693
:4051C000002B7FF47CAF0C4B4FF080521A60BFF34F8FBFF36F8F72E7386B00F001FA00F0EDFC6CE7386B00F0FBF900F0E7FC002318463837BD4680BD04ED00E080B58EB0E3
:4052000000AFF860B9607A603B60FB683B633B6B002B09D14FF03F0383F31188BFF36F8FBFF34F8F7B61FEE7BB68002B03D13B6B1B6C002B01D1012300E00023002B09D124
:405240004FF03F0383F31188BFF36F8FBFF34F8FBB61FEE73B68022B03D13B6BDB6B012B01D1012300E00023002B09D14FF03F0383F31188BFF36F8FBFF34F8FFB61FEE792
:4052800001F078FDEFF311824FF03F0383F31188BFF36F8FBFF34F8F3A623B613B6ABB623B6B9A6B3B6BDB6B9A4202D33B68022B2CD13B6B93F8453087F827303A68B968F5
:4052C000386B00F00BF997F92730B3F1FF3F12D13B6B5B6A002B16D03B6B2433184600F097FE0346002B0ED07B68002B0BD07B6801221A6007E097F827300133DBB25AB2BA
:405300003B6B83F8452001237B6301E000237B63BB6AFB62FB6A83F311887B6B18463837BD4680BD80B58CB000AFF860B9607A600023FB62FB68BB62BB6A002B09D14FF046
:405340003F0383F31188BFF36F8FBFF34F8FBB61FEE7BB68002B03D1BB6A1B6C002B01D1012300E00023002B09D14FF03F0383F31188BFF36F8FBFF34F8FFB61FEE700F0A3
:40538000E5FF0346002B02D17B68002B01D1012300E00023002B09D14FF03F0383F31188BFF36F8FBFF34F8F3B62FEE701F00AFCBB6A9B6B7B627B6A002B1FD0B968B86A23
:4053C00000F0E8F87B6A5A1EBB6A9A63BB6A1B69002B0FD0BB6A1033184600F019FE0346002B07D03C4B4FF080521A60BFF34F8FBFF36F8F01F014FC012369E07B68002BC5
:4054000003D101F00DFC002362E0FB6A002B06D107F11003184600F05DFE0123FB6201F0FFFB00F0BDFB01F0CDFBBB6A93F844305BB2B3F1FF3F03D1BB6A002283F8442044
:40544000BB6A93F845305BB2B3F1FF3F03D1BB6A002283F8452001F0E3FB3A1D07F110031146184600F04CFE0346002B23D1B86A00F008F90346002B17D0BB6A24337A68C9
:405480001146184600F076FDB86A00F0A9F800F095FB0346002B89D10F4B4FF080521A60BFF34F8FBFF36F8F80E7B86A00F098F800F084FB7AE7B86A00F092F800F07EFBD0
:4054C000B86A00F0DFF80346002B3FF46FAF002318463037BD4680BD04ED00E080B586B000AFF860B9607A6000233B61FB689B6B7B61FB681B6C002B43D07B68002B19D17C
:40550000FB689868FB681B6C1A46B96801F012FFFB689A68FB681B6C1A44FB689A60FB689A68FB685B689A422BD3FB681A68FB689A6026E0FB68D868FB681B6C1A46B968D6
:4055400001F0F8FEFB68DA68FB681B6C5B421A44FB68DA60FB68DA68FB681B689A4207D2FB685A68FB681B6C5B421A44FB68DA607B68022B05D17B69002B02D07B69013B4F
:405580007B617B695A1CFB689A633B6918461837BD4680BD80B582B000AF786039607B681B6C002B18D07B68DA687B681B6C1A447B68DA607B68DA687B685B689A4203D339
:4055C0007B681A687B68DA607B68D9687B681B6C1A46386801F0AEFE00BF0837BD4680BD80B584B000AF786001F0ECFA7B6893F84530FB7311E07B685B6A002B12D07B681F
:405600002433184600F004FD0346002B01D000F0D7FDFB7B013BDBB2FB7397F90F30002BE9DC00E000BF7B68FF2283F8452001F0F7FA01F0C7FA7B6893F84430BB7311E037
:405640007B681B69002B12D07B681033184600F0DFFC0346002B01D000F0B2FDBB7B013BDBB2BB7397F90E30002BE9DC00E000BF7B68FF2283F8442001F0D2FA00BF103753
:40568000BD4680BD80B584B000AF786001F09AFA7B689B6B002B02D10123FB6001E00023FB6001F0BDFAFB6818461037BD4680BD80B584B000AF786001F084FA7B689A6B39
:4056C0007B68DB6B9A4202D10123FB6001E00023FB6001F0A5FAFB6818461037BD4680BD80B485B000AF786039600023FB6014E00E4AFB6852F83330002B0BD10B49FB68FB
:405700003A6841F83320094AFB68DB0013447A685A6005E0FB680133FB60FB68092BE7D900BF1437BD465DF8047B7047D0B8020880B586B000AFF860B9607A60FB687B61BB
:4057400001F040FA7B6993F844305BB2B3F1FF3F03D17B69002283F844207B6993F845305BB2B3F1FF3F03D17B69002283F8452001F056FA7B699B6B002B06D17B6924337E
:405780007A68B968184600F019FC7869FFF728FF00BF1837BD4680BD80B58CB004AFF860B9603B601346FB80FB889B00184601F035FB78617B69002B0ED0602001F02EFB36
:4057C000F861FB69002B03D0FB697A691A6305E0786901F069FB01E00023FB61FB69002B13D0FA8800230393FB690293FB6A0193BB6A00933B68B968F86800F00FF8F869DC
:4058000000F09CF80123BB6102E04FF0FF33BB61BB6918462037BD4680BD00BF80B588B000AFF860B9607A603B603B6B186B7B689B001A46A52101F088FD3B6B1A6B7B680A
:4058400003F18043013B9B001344BB61BB6923F00703BB61BB6903F00703002B09D04FF03F0383F31188BFF36F8FBFF34F8F7B61FEE70023FB6112E0BA68FB691344197835
:405880003A6BFB69134434330A461A70BA68FB6913441B78002B06D0FB690133FB61FB690F2BE9D900E000BF3B6B002283F84320BB6A062B01D90623BB623B6BBA6ADA62C1
:4058C0003B6B04331846FFF747FA3B6B18331846FFF742FA3B6B3A6B1A61BB6AC3F107023B6B9A613B6B3A6B5A620023FB6109E03A6BFB6910339B00134400225A60FB697F
:405900000133FB61FB69042BF2D93B6B00229A653B6B002283F85C203A68F968B86901F051F802463B6B1A60FB6A002B02D0FB6A3A6B1A6000BF2037BD4680BD80B582B08A
:4059400000AF786001F03EF92B4B1B6801332A4A13602A4B1B68002B09D1284A7B681360254B1B68012B10D100F04EFC0DE0244B1B68002B09D1214B1B68DA6A7B68DB6A26
:405980009A4202D81D4A7B6813601E4B1B6801331C4A13607B68DA6A1B4B1B689A4203D97B68DB6A184A13607B68DA6A13469B0013449B00154A1A447B680433194610461D
:4059C000FFF7D8F901F02CF90D4B1B68002B0ED00A4B1B68DA6A7B68DB6A9A4207D20C4B4FF080521A60BFF34F8FBFF36F8F00BF0837BD4680BD00BF584F0208584E02086D
:405A0000644F0208744F0208604F02085C4E020804ED00E080B58AB000AF7860396000237B627B68002B09D14FF03F0383F31188BFF36F8FBFF34F8FFB60FEE73B68002B49
:405A400009D14FF03F0383F31188BFF36F8FBFF34F8F3B61FEE7294B1B68002B09D04FF03F0383F31188BFF36F8FBFF34F8F7B61FEE700F095F8224B1B683B627B681A6800
:405A80003B681344FB617B681A683B6A9A420BD97B681A68FB699A4211D9FA693B6A9A420DD901237B620AE07B681A68FB699A4203D8FA693B6A9A4201D901237B627B6860
:405AC000FA691A607B6A002B06D0FA693B6AD31A0021184600F058FC00F070F8B861BB69002B07D1074B4FF080521A60BFF34F8FBFF36F8F00BF2837BD4680BD804F02083F
:405B00005C4F020804ED00E080B586B002AF1E4B019300230093002380221C491C48FFF73BFEF860FB68012B02D100F081FCF860FB68012B15D14FF03F0383F31188BFF31D
:405B40006F8FBFF34F8F7B60124B4FF0FF321A60114B01221A60114B00221A6000F0B8FF0DE0FB68B3F1FF3F09D14FF03F0383F31188BFF36F8FBFF34F8FBB60FEE700BF42
:405B80001037BD4680BD00BF7C4F02089C790810D9610810784F0208644F02085C4F020880B400AF044B1B680133034A136000BFBD465DF8047B7047804F020880B584B0D0
:405BC00000AF0023FB600023BB60414B1B68002B09D14FF03F0383F31188BFF36F8FBFF34F8F3B60FEE700F0EDFF394B1B68013B374A1360364B1B68002B62D1354B1B685E
:405C0000002B5ED02FE0344BDB68DB68FB60FB6818331846FFF70CF9FB6804331846FFF707F9FB68DA6A2D4B1B689A4203D9FB68DB6A2A4A1360FB68DA6A13469B001344CC
:405C40009B00274A1A44FB68043319461046FFF791F8FB68DA6A234B1B68DB6A9A4202D3214B01221A601C4B1B68002BCBD1FB68002B01D000F044FB1C4B1B687B607B686E
:405C8000002B10D000F046F80346002B02D0164B01221A607B68013B7B607B68002BF1D1124B00221A60104B1B68002B09D00123BB600F4B4FF080521A60BFF34F8FBFF35C
:405CC0006F8F00F0ADFFBB6818461037BD4680BD804F0208584F0208184F0208604F02085C4E0208584E02086C4F0208684F020804ED00E080B483B000AF054B1B687B60CF
:405D00007B6818460C37BD465DF8047B704700BF5C4F020880B586B000AF00237B61494B1B68002B7DD1484B1B6801333B61464A3B6913603B69002B1FD1444B1B681B6853
:405D4000002B09D04FF03F0383F31188BFF36F8FBFF34F8F3B60FEE73C4B1B68FB603C4B1B683A4A13603A4AFB681360394B1B680133384A136000F0C3FA374B1B683A698A
:405D80009A4253D3314B1B681B68002B01D1012300E00023002B04D02F4B4FF0FF321A6044E02A4B1B68DB68DB68BB60BB685B687B603A697B689A4203D2274A7B6813605C
:405DC00034E0BB6804331846FFF732F8BB689B6A002B04D0BB6818331846FFF729F8BB68DA6A1E4B1B689A4203D9BB68DB6A1B4A1360BB68DA6A13469B0013449B00184AB3
:405E00001A44BB68043319461046FEF7B3FFBB68DA6A144B1B68DB6A9A42B3D301237B61B0E7114B1B6801330F4A13600F4B1B68002B01D001237B617B6918461837BD467B
:405E400080BD00BF804F02085C4F0208104F0208144F0208704F0208784F0208604F02085C4E0208584E0208684F02086C4F020880B586B000AF3A4B1B68002B03D0394BE1
:405E800001221A6067E0374B00221A60364B1B681B6B3B614FF0A533FB603B691A68FB689A4211D13B6904331A68FB689A420BD13B6908331A68FB689A4205D13B690C3330
:405EC0001A68FB689A4208D0274B1A68264B1B6834331946104600F08BFF244B1B687B610FE07B69002B09D14FF03F0383F31188BFF36F8FBFF34F8F7B60FEE77B69013B35
:405F00007B611B497A6913469B0013449B000B441B68002BE5D07A6913469B0013449B00134A1344BB60BB685B685A68BB685A60BB685A68BB6808339A4204D1BB685B68AF
:405F40005A68BB685A60BB685B68DB68064A1360064A7B69136000BF1837BD4680BD00BF804F02086C4F0208584E0208604F02085C4E020880B584B000AF786039607B68BB
:405F8000002B09D14FF03F0383F31188BFF36F8FBFF34F8FFB60FEE7074B1B68183319467868FEF70BFF0121386800F0EDF900BF1037BD4680BD00BF584E020880B586B0B6
:405FC00000AFF860B9607A60FB68002B09D14FF03F0383F31188BFF36F8FBFF34F8F7B61FEE70A4B1B6818331946F868FEF7C2FE7B68002B02D04FF0FF33BB607968B868AA
:4060000000F0C2F900BF1837BD4680BD584E020880B586B000AF78607B68DB68DB683B613B69002B09D14FF03F0383F31188BFF36F8FBFF34F8FFB60FEE73B6918331846BA
:40604000FEF7F6FE1D4B1B68002B1DD13B6904331846FEF7EDFE3B69DA6A194B1B689A4203D93B69DB6A164A13603B69DA6A13469B0013449B00134A1A443B690433194614
:406080001046FEF777FE05E03B69183319460E48FEF770FE3B69DA6A0C4B1B68DB6A9A4205D901237B610A4B01221A6001E000237B617B6918461837BD4680BD804F0208F7
:4060C000604F02085C4E0208184F0208584E02086C4F020880B483B000AF7860064B1A687B681A60054B1A687B685A6000BF0C37BD465DF8047B7047704F02085C4F0208B2
:4061000080B588B000AF786039607B68002B09D14FF03F0383F31188BFF36F8FBFF34F8FFB60FEE73B68002B09D14FF03F0383F31188BFF36F8FBFF34F8F3B61FEE700F0F1
:4061400041FD1D4B1B68BB617B685B68BA69D31A7B613B681B68B3F1FF3F02D10023FB6123E07B681A68154B1B689A4207D07B685A68BB699A4202D80123FB6115E03B6859
:406180001A687B699A420BD93B681A687B69D21A3B681A607868FFF79DFF0023FB6104E03B6800221A600123FB6100F039FDFB6918462037BD4680BD5C4F0208704F020816
:4061C00080B400AF034B01221A6000BFBD465DF8047B70476C4F020880B582B000AF786000F052F8064B1B68012BF9D9054B4FF080521A60BFF34F8FBFF36F8FF0E700BF14
:406200005C4E020804ED00E080B582B000AF00237B600CE07A6813469B0013449B00124A13441846FEF778FD7B6801337B607B68062BEFD90D48FEF76FFD0D48FEF76CFD5F
:406240000C48FEF769FD0C48FEF766FD0B48FEF763FD0B4B054A1A600A4B054A1A6000BF0837BD4680BD00BF5C4E0208E84E0208FC4E0208184F02082C4F0208444F020806
:40628000104F0208144F020880B582B000AF19E000F098FC0F4BDB68DB687B607B6804331846FEF7C5FD0C4B1B68013B0A4A13600A4B1B68013B094A136000F0B1FC786857
:4062C00000F00EF8054B1B68002BE1D100BF0837BD4680BD2C4F0208584F0208404F020880B582B000AF78607B681B6B184600F0DBFD786800F0D8FD00BF0837BD4680BD8B
:4063000080B483B000AF0F4B1B681B68002B01D1012300E00023002B04D00B4B4FF0FF321A6008E0074B1B68DB68DB687B607B685B68054A136000BF0C37BD465DF8047B25
:40634000704700BF104F0208784F020880B483B000AF0B4B1B68002B02D101237B6008E0084B1B68002B02D102237B6001E000237B607B6818460C37BD465DF8047B7047D4
:40638000644F0208804F020880B584B000AF78603960214B1B68FB60204B1B6804331846FEF746FD7B68B3F1FF3F0AD13B68002B07D01A4B1B68043319461948FEF7DAFCCA
:4063C00026E0FA687B681344BB60144B1B68BA685A60BA68FB689A4209D2124B1A680F4B1B68043319461046FEF7E8FC10E00E4B1A680A4B1B68043319461046FEF7DEFC07
:406400000A4B1B68BA689A4202D2084ABB68136000BF1037BD4680BD5C4F0208584E0208444F0208144F0208104F0208784F020880B584B002AF00237B6000F08DFA104BF1
:406440001B68002B0AD00F4B019303230093002380220D490D48FFF79FF978607B68002B09D14FF03F0383F31188BFF36F8FBFF34F8F3B60FEE77B6818460837BD4680BD1F
:40648000B44F0208B84F0208A4790810A965081080B58AB000AFF860B9607A603B6000237B62FB68002B09D14FF03F0383F31188BFF36F8FBFF34F8F3B62FEE7194B1B68BE
:4064C000002B2AD0BB687B617B68BB61FB68FB61BB68052B18DCFFF739FF0346022B09D1104B186807F1140100233A6BFEF78CFD786212E00B4B186807F1140100230022D3
:40650000FEF782FD786208E0064B186807F1140100233A68FEF772FE78627B6A18462837BD4680BDB44F020880B588B002AF786039601C4B1B68DB68DB687B617B6904335E
:406540001846FEF775FC7B69DB69012B21D17B699A697B68D1187B683A68786900F0C8F80346002B15D00023009300237A6800217869FFF78DFF38613B69002B09D14FF02F
:406580003F0383F31188BFF36F8FBFF34F8FFB60FEE77B695B6A7869984700BF1837BD4680BD00BFAC4F020880B584B000AF786007F10803184600F057F8F860BB68194625
:4065C000F86800F003F800F0D5F8F1E780B584B000AF78603960FFF7E3FA07F10803184600F066F8F860BB68002B30D13B68002B0AD17A68FB689A4206D8FFF7DFFAF96831
:406600007868FFF791FF24E03B68002B08D0134B1B681B68002B0CBF01230023DBB23B600F4B18687A68FB68D31A3A681946FFF77FF8FFF7C3FA0346002B0AD1094B4FF072
:4066400080521A60BFF34F8FBFF36F8F01E0FFF7B5FA00BF1037BD4680BD00BFB04F0208B44F020804ED00E080B485B000AF78600E4B1B681B68002B0CBF01230023DBB203
:406680001A467B681A607B681B68002B05D1074B1B68DB681B68FB6001E00023FB60FB6818461437BD465DF8047B7047AC4F020880B584B000AF7860FFF71CFBF8600B4B17
:4066C0001B68FA689A4205D200F0E6F87B6801221A6002E07B6800221A60044AFB681360FB6818461037BD4680BD00BFBC4F020880B586B000AFF860B9607A603B600023F0
:406700007B61FB68BA685A60FB68FA681A61BA687B689A4212D87A683B68D21AFB689B699A4202D301237B611BE0104B1A68FB68043319461046FEF741FB12E07A683B68DB
:406740009A4206D2BA683B689A4202D301237B6107E0074B1A68FB68043319461046FEF72DFB7B6918461837BD4680BDB04F0208AC4F020880B58CB002AF7AE0BB68002B1F
:4067800077DB3B697B627B6A5B69002B04D07B6A04331846FEF74CFB3B1D1846FFF788FF3862BB68092B63D801A252F823F000BFD9670810D9670810D9670810736808108F
:4067C0003368081069680810D9670810D96708107368081033680810FA687B6A9B69D118FB683A6A786AFFF783FF0346002B40D07B6A5B6A786A98477B6ADB69012B38D1C5
:40680000FA687B6A9B691A440023009300230021786AFFF73DFEF861FB69002B29D14FF03F0383F31188BFF36F8FBFF34F8F7B61FEE7FA687B6A9A617B6A9B69002B09D1FF
:406840004FF03F0383F31188BFF36F8FBFF34F8FBB61FEE77B6A9A693B6AD1183B6A3A6A786AFFF745FF04E0786A00F01DFB00E000BF084B1B6807F1080100221846FEF7B3
:4068800051FD0346002B7FF479AF00BF2837BD4680BD00BFB44F020880B588B002AF44E02B4B1B68DB681B687B61294B1B68DB68DB683B613B6904331846FEF7B9FA3B69D6
:4068C0005B6A386998473B69DB69012B2DD13B699A697B691344FB60FA687B699A420ED93B69FA685A603B693A691A61184B1A683B69043319461046FEF760FA15E000239D
:40690000009300237A6900213869FFF7C1FDB860BB68002B09D14FF03F0383F31188BFF36F8FBFF34F8F3B60FEE7094B1B681B68002BB5D1064B1B687B60064B1B68044ADC
:406940001360044A7B68136000BF1837BD4680BDAC4F0208B04F020880B500AF00F032F9124B1B68002B1DD11148FEF7D5F91148FEF7D2F9104B0E4A1A60104B0D4A1A601E
:4069800000220C210A20FEF7E5FA0246074B1A60064B1B68002B05D0044B1B6808491846FEF79EFE00F03CF900BF80BDB44F0208844F0208984F0208AC4F0208B04F020886
:4069C000AC79081080B485B000AFF860B9607A60FB68043BFB60FB684FF080721A60FB68043BFB60BB6823F00102FB681A60FB68043BFB600C4AFB681A60FB68143BFB609C
:406A00007A68FB681A60FB68043BFB60FB686FF002021A60FB68203BFB60FB6818461437BD465DF8047B70472D6A081080B485B000AF00237B60114B1B68B3F1FF3F09D048
:406A40004FF03F0383F31188BFF36F8FBFF34F8FBB60FEE74FF03F0383F31188BFF36F8FBFF34F8FFB6000BF7B68002BFCD000BF1437BD465DF8047B704700BF1C430208C2
:406A8000074B19680868B0E8F04F80F30988BFF36F8F4FF0000080F311887047AFF30080584E020800BF00BF08480068006880F308884FF0000080F3148862B661B6BFF364
:406AC0004F8FBFF36F8F00DF00BF00BF08ED00E080B584B000AF354BFB60FB681B78DBB27B60FB68FF221A70FB681B78DBB2FB70FB78DBB203F03F03DAB22D4B1A702D4B4E
:406B000007221A6009E02B4B1B68013B294A1360FB78DBB25B00DBB2FB70FB78DBB25BB2002BF0DB234B1B68C3F10703032B09D04FF03F0383F31188BFF36F8FBFF34F8FD2
:406B4000BB60FEE71B4B1B681B021A4A1360194B1B6803F4E063174A13607B68DAB2FB681A70154A144B1B6843F47F031360124A114B1B6843F07F43136000F0CDF80F4BC8
:406B800000221A6000F0ECF80D4A0D4B1B6843F040431360FFF788FFFFF76AF9FFF746FF002318461037BD4680BD00BF00E400E0C04F0208C44F020820ED00E01C430208E2
:406BC00034EF00E080B483B000AF4FF03F0383F31188BFF36F8FBFF34F8F3B600E4B1B6801330D4A13600C4B1B68012B0ED10B4B1B68DBB2002B09D04FF03F0383F3118858
:406C0000BFF36F8FBFF34F8F7B60FEE700BF0C37BD465DF8047B70471C43020804ED00E080B483B000AF114B1B68002B09D14FF03F0383F31188BFF36F8FBFF34F8F3B6025
:406C4000FEE70A4B1B68013B084A1360074B1B68002B04D100237B607B6883F3118800BF0C37BD465DF8047B704700BF1C430208EFF30980BFF36F8F154B1A681EF0100FAF
:406C800008BF20ED108A20E9F04F10602DE909004FF03F0080F31188BFF34F8FBFF36F8FFFF7E6F84FF0000080F3118809BC19680868B0E8F04F1EF0100F08BFB0EC108AEF
:406CC00080F30988BFF36F8F704700BFAFF30080584E020800BF00BF80B582B000AF4FF03F0383F31188BFF36F8FBFF34F8F3B60FFF710F80346002B03D0064B4FF08052F2
:406D00001A6000237B607B6883F3118800BF0837BD4680BD04ED00E080B400AF0B4B00221A600B4B00221A600A4A0B4B1B680B49A1FB03131B0C013B1360044B07221A6018
:406D400000BFBD465DF8047B704700BF10E000E018E000E014E000E0004302083BC637BEDFF80C00016841F470010160704700BF88ED00E080B485B000AFEFF30583FB604D
:406D8000FB680F2B13D9164AFB6813441B78FB72144B1B78FA7A9A4209D24FF03F0383F31188BFF36F8FBFF34F8F3B60FEE70E4B1B6803F4E0620D4B1B689A4209D94FF0D6
:406DC0003F0383F31188BFF36F8FBFF34F8F7B60FEE700BF1437BD465DF8047B704700BFF0E300E0C04F02080CED00E0C44F020880B584B000AF786039604FF03F0383F3A9
:406E00001188BFF36F8FBFF34F8FFB604FF441710148FBF755FAFEE7B879081080B584B000AF78600023FB607B6803F00703002B04D07B6823F0070308337B60FEF7B0FE6B
:406E4000164B1B68002B05D1154B23F007031A46124B1A60134B1A687B68134442F2F772934213D80F4B1A687B681A440D4B1B689A420BD9094B1A680A4B1B681344FB60EA
:406E8000084B1A687B681344064A1360FEF796FEFB6818461037BD4680BD00BFCC770208D04F0208C877020880B485B000AF78607B68002B09D04FF03F0383F31188BFF398
:406EC0006F8FBFF34F8FFB60FEE700BF1437BD465DF8047B704700BF80B483B000AF0346FB80B7F90630002B0BDB0949B7F906305B09FA8802F01F02012000FA02F241F823
:406F0000232000BF0C37BD465DF8047B704700BF00E100E080B487B000AF0346B9607A60FB73324B7B61FB7B002B27D1BB68072B54D87B68FF2B51D8BB689A002C4B1B68DA
:406F40009B682B490968B1F874100B4413441846BB689A00264B1B689B6825490968B1F874100B4413441B6823F47F427B681B029BB21343036000237B612FE0FB7B012B81
:406F80002CD1BB680F2B29D87B68B3F5803F25D2BB689A00164B1B689B6815490968B1F876100B4413441846BB689A00104B1B689B680F490968B1F876100B4413441B68D0
:406FC00023F47F0222F47F427B681B0223F07F4323F0FF031343036000237B617B6918461C37BD465DF8047B704700BF01004A006CB8020890B484B000AF03463960FB71B0
:407000002E4BFB60FB79032B52D8FB79002B02D13B68072B11D9FB79012B02D13B680F2B0BD9FB79022B02D13B68032B05D9FB79032B3DD13B68002B3AD1214B1B689B68AD
:4070400018461F4B1B6893F873301A46032303FA02F21B4B1B6893F870301946184B1B6893F8723001FA03F31A43FB791449096891F8711003FA01F1114B1B6893F8713006
:407080001C460323A3400B401A430D4B1B6893F8703019463B680B40134343F00043C0F80034074B1B689B68D3F800340023FB60FB6818461037BD4690BC704701004A0004
:4070C0006CB8020880B485B000AF03463960FB71224BFB60FB79032B38D8FB79002B02D13B68072B11D9FB79012B02D13B680F2B0BD9FB79022B02D13B68032B05D9FB7986
:40710000032B23D13B68002B20D1154B1B689B681946FB79124A126892F8712003FA02F20F4B1B6893F871301846032383401A400B4B1B6893F8703018463B68034013438B
:4071400043F08043C1F800340023FB60FB6818461437BD465DF8047B704700BF01004A006CB8020880B500AF03210020FFF742FF00BF80BD80B500AF03210020FFF7A2FFC2
:4071800000BF80BD80B582B000AF78607A6803210020FFF7BFFE00BF0837BD4680BD00BF80B500AF0248FBF737FB00BF80BD00BF00001D4180B500AF094B1B7803F00103E2
:4071C000DBB2002B08D100F039F8054B1B7843F00103DAB2024B1A70FFF7E2FF00BF80BDD077020880B584B000AF78600023FB73FFF7C0FF7B681B691846FFF7C3FFFFF793
:40720000B1FFFB7B19460648FBF7A6FA7B689B6819460348FBF730F900BF1037BD4680BD00001D4180B500AF034BB3F900301846FFF752FE00BF80BDE874081080B582B011
