:020000041000EA
:4000000000400208230100100D00000085010010000000000000000000000000000000000000000000000000000000008101001000000000000000008101001081010010E9
:400040008101001081010010810100108101001081010010810100108101001081010010810100108101001081010010810100108101001081010010810100108101001060
:400080008101001081010010810100108101001081010010810100108101001081010010810100108101001081010010810100108101001081010010810100108101001020
:4000C00010B5064C2378002B07D1054B002B02D0044800E000BF0123237010BD340600080000000074340010084B10B5002B03D00749084800E000BF07480368002B00D18A
:4001000010BD064B002BFBD09847F9E7000000003806000874340010E4000008000000007047FFF7FDFF72B60F4C104DAC4209DA21686268A368043B02DBC858D050FAE70D
:400140000C34F3E70A490B4A0020521A02DD043A8850FCDC084809490860BFF34F8F00F001F900F01DF8FEE7783400109034001034060008440800080000000808ED00E0F3
:40018000FEE7FEE700B504207146084202D0EFF3098001E0EFF30880043001F091FBFEE710B5034800F064F9002001F043FFFBE70000081010B5002001F000F910BDC04631
:4001C00070B55F49E0239B00CB580F2213401A00D0329200525807210A4002D0042A02D00FE0584811E01A00C0329200544952581F210A40112A06D0132A04D0FA20C00165
:4002000003E0514801E080200002002B36D14C4BB222D2009A5801211140B125ED005A59120F032422405B591B0F1C4207D0444C63591B0F03242340012B02D102E00123B3
:4002400000E00023002B01D0002901D1032A4BD13B4BB022D2009D58AD03AD0B3B495958C904C90C9C58240E01231C40013401F0FFFF6843210001F0FBFF35E0012B33D117
:400280002F4BC822D2009A5801251540C024E4001A59120F03210A401B591B0F194207D027490B591B0F03210B40012B02D102E0012300E00023002B01D0002D01D1032A64
:4002C00012D11F4DC022D200AB587F210B40A958090A1F263140AC58240C3440584301F0C7FF210001F0C4FFE0239B00144AD3581B0903221340D840154C2060154B1D69D2
:400300002D0AFC32154001351969090E013101F0AFFF6060290001F0ABFF0500A060E0600D4BC0180D4901F0A3FF20740C4BE818FA21890001F09CFF6061C003A06170BDB4
:400340000000264000127A0000366E0184050000C0000008000021403F420F0040420F00E703000010B5284801F07CFF274CB022D200A3585B005B08A350E0218900635880
:4003800030208343635080235B04A350204A214BE250A02292010433E250FF221E4BE25001F04EFFC0225200A35801218B43A35000F05AFAFFF704FFB0235B055B78002B3F
:4003C00004D0B0235B055B78DBB200E02123212B03D1124B0022DA605A60114C22008021042000F091FD2000103000F025FE0D4B1A685123D35C002B02D00B4800F092FE5D
:4004000000F05AFC10BDC046BC3300100000264001000200840500008C050000E00023405006000840080008F82300108023024AD3580320184070470000214010B501F0A2
:40044000D0FA084980228C58074B2340074C23438B508823034AD358DB06FAD501F0C5FA10BDC04600002140FCFF00000100FA0570B50500830504D0E821FF310F4801F0D9
:40048000F1F901F0AEFA0400FFF7D0FF032801D1FFF7D4FF0A4AB0239B00D55080215058084B03400848034353508823044AD358DB06FAD5200001F098FA70BD2C24001027
:4004C00000002140FCFF00000300FA05FEE7C046F0B50025002711E0BB00C658F3B2FF22964308E06A008A181478A419527822700135013BDBB2002BF4D10137042FEBD9A2
:40050000F0BDC04680221206054B1A600F23054A1360054A1360054A054B1A607047C04600001D4100031D4140031D4101001180000E1F4110B50A00002101F02EFF10BDBD
:4005400010B501F021FF10BD30B587B0B449A022D2008B58032083438B50B24A116808688823CB58C3181868AF49084018601368186884241B59C01803681B021B0A80257D
:400580006D042B430360106805680359EB1818680140196013683E229A5C002A06D0A048E02189004258753CA24342503E229A5C002A06D09A48E021890042583024A243E1
:4005C00042503E229B5C002B07D09549E02292008B588020000603438B500021012000F01FFF0021022000F01BFF0021032000F017FF0021042000F013FF0021002000F095
:400600000FFF01A8894903000A0032CA32C312CA12C300F033FF002802D00420FFF756FF7F49834A8B588020000603438B50814800F0DEFF002802D00420FFF747FF784C04
:400640007D4BE1587D4A0A40E250E1587C4A0A40E250E25880252D062A43E250043BE158784A0A40E250E158774A0A40802189010A43E250E258802109020A43E250734A44
:400680001168734B0B40802149000B431360002001F04CFD6F4BE2581543E550E158012291430A43E2506421002001F021F95D4B1B683F229A5C032A06D970229A5C01219B
:4006C0000A406549986842509A6874215B5AD2185168554B0B40A021C9000B435360514B1B6873229A5C0321914070229A5C7220185C140084402143012002400A43802151
:4007000009060A438021C900986842509A6852583F229A5C052A06D970229A5C02210A404E49986842509A6874215B5AD21891683D4B0B40802109010B439360394B1B683D
:4007400073229A5C0321914070229A5C7220185C140084402143022002400A43802109060A438021C900986842509A6852583F229A5C132A03D90021394A986881509A68F2
:4007800074215B5AD3181968274A0A401A60254B1B687322995C703A8A40110070229A5C7220185C82400A43802109060A438021C900986842509A6852583F229A5C392A50
:4007C00006D970229A5C03210A402649986842509A6874215B5AD218D168134B0B40C42189010B43D3600F4B1A687323D35C032004009C407023D35C7221515C1D008D408B
:400800002900214303400B43802109060B438021C9009068435093685B5807B030BDC0460000264040080008FF00FFFF44240010087F0000400D030004050000FEFCFFFF4C
:40084000FFFF00FFFFF0FFFFFF8FFFFF00002740FFFCFFFF0C0500000C0C0000140C00004C0C0000E40C0000F0B58BB09621002001F03EF801F014F8002801D101F000F853
:40088000012001F0F1FA8A4A516C8A4B0B40E82189010B435364536C1B0AFF2213403A2B07D1834A516C844B0B40E82189010B435364002300228149814801F055FC0123E3
:4008C00000228049C220C00001F04EFC002300227D497E4801F048FC002300227C497D4801F042FC002300227B497C4801F03CFC012300228021C905022001F035FC00231A
:4009000000227749774801F02FFC002300227649312001F029FC002300227449744801F023FC002300227349302001F01DFC002300227149714801F017FC002300227049AC
:400940002F2001F011FC002300226E496E4801F00BFC002300226D492E2001F005FCFFF7F3FD6B4A6B4B1A6000240CE0620012195300694AD318198B9A8AD88A000410436B
:40098000FFF7D8FD01340B2CF0D900240AE0620012199300604AD3185A6E196ED86DFFF7CFFD0134112CF2D95C4D280014305C493431FFF78DFD0F225A4B1A605A4A5B4BA8
:4009C0001A60842292005A4B1A605A4A1368832149000B43136001AC22002B00283343CB43C243CB43C243CB43C22100524800F06BF922002B004C3343CB43C243CB43C2CA
:400A000043CB43C221004D4800F05EF922002B00703343CB43C243CB43C243CB43C22100474800F051F9474E22003300143383CB83C283CB83C283CB83C22100424800F00E
:400A400043F922003300383383CB83C283CB83C283CB83C221003D4800F036F9220033005C3343CB43C243CB43C243CB43C22100374800F029F922002B004C3323CB23C28E
:400A800023CB23C223CB23C22100324800F01CF924220021200001F080FCCC23DB05E36021002D4800F010F9FFF72CFD0BB0F0BD00002740FF00FFFFFFC5FFDF070B00407C
:400AC000090B0000000600400E0E0040060E00000002004029020000010A0040020A0000060E0040020E000001000040050E0040030E000004000040040E0040070E0000B4
:400B000003000040030E0040010E0000020000400300FA05F001214044240010C4250010442500100000644007010100000264402001384000793440000032408000324055
:400B400080023240442600100003324080043240000532408005324080063240214B984230D00ED8402831D004D800281FD010282AD031E080282BD080235B00984229D0F7
:400B80002AE0194B984229D007D8A0231B0698420DD0164B984212D01EE0154B98420AD0144B984209D0144B984215D101E0002016E0124814E0124812E0124810E0A0207F
:400BC000C0030DE007480BE00F4809E00F4807E00F4805E0034803E00E4801E0A420C0037047C04606005200010000F0090000A0040000F0050000F0030000F00100520087
:400C00000200520003005200010050000200500005005200FF00520070B5124B1A683123D35C002B04D1C421FF310F4800F01AFE0C4B1D682C00B423EB582A6A944663448E
:400C40001B68002B0BDB094B1868FFF787FF6B6801229A6063689B68002BFBD100E0044870BDC04640080008F42F0010E00700080200500010B50D4B1861002805D0022300
:400C80000370FD33437000234380094B1B6850229A5C002A08D051229B5C002B04D04F3A0449002000F0F8FA10BDC046E0070008400800085D01000810B502481430FFF7B5
:400CC000D9FF10BDE007000870B505000C0000285DD000295DD0FF230A689A4303D099212D4800F0BFFDFF2322699A4303D09A21294800F0B7FDA3685B0D03D09B212648C3
:400D000000F0B0FD63685B0A03D09C21224800F0A9FDE3695B0F03D09D211F4800F0A2FD236A5B0F03D09E211B4800F09BFD1B4A11688B69EB1ADB0949691B01CB182168B0
:400D400029607D211068415C6918E06808607E211068415C6918206908607F211068415C6918606908607C211068415C6918A06808606168A961116880228A5CAD18A26932
:400D80002A60E2691A60226A5A60002002E0044800E0034870BDC046343000104008000801005A0070B504000D000A4B1A68B423D3581B181B68002B0ADA0B0C03D00649C6
:400DC000064800F04FFD2D042D0C6560002000E0034870BD40080008D5020000B430001001008A0070B505000C000368002B01DA002300E0084B002B0BD1EA60230C03D0CC
:400E00000649074800F02EFD2404240CAC60002000E0014870BDC04601008A00BB020000B430001070B505000C1E03D19921084800F018FD074B1A68B423D3585B191B68D9
:400E4000002B03DAEB682360002000E0024870BDF43000104008000801008A0070B504000D00234B1A683123D35C834236D9002936D00B68DB0635D13123D35C984204D3D4
:400E8000C421FF311B4800F0EDFC194B1B681A6AB0215B5A5C431419174E34602B68DA080021686801F079FA00212000FFF77AFF3468002D03D111490E4800F0D3FC2A007B
:400EC00000212000FFF78EFF00280DD10A4B18680021FFF767FF002808D108E0084806E0074804E0064802E0064800E0054870BD40080008B4300010F807000893030000CB
:400F000003018A0001018A0010B50400002A17D1002915D1124B1A683123D35C984204D3C421FF310F4800F09DFC0D4B1B681A6AB0215B5A5C4314190B4B1C6000200EE014
:400F4000002A09D0002909D0074B59609A60191D2000FFF783FF02E0044800E0034810BD40080008B4300010F807000803018A00F0B583B00D001C4B1B68DC682368834237
:400F80002DD947097B01C01A012383401E00002903D100F026FD019001E000230193124B18680368002B01DA002300E00F4B002B0ED16368BF00DF193B68334203D0B3432F
:400FC0003B60002400E00A4C0021FFF7EBFE00E0084C002D04D1019800F007FD00E0064C200003B0F0BDC046F807000801008A00020188000301880004018A000A4B1B6871
:40100000DA68136883420BD943095901401A0121814052689B009B580B4203D0034802E0034800E003487047F80700080101880004018A0000018800034B1B68002B01D12E
:40104000014B18607047C04604080008F0B5474680B404000F0090461E002D4B1B68002B03D1B5212B4800F0FDFB294B1B682C2060431C18FF22150035402560330A134069
:401080006360360CA660244B1A683123D35C9D4204D3C421FF31214800F0E4FB1E4B1A68B023D35A6B43116A8C466344236166683223D35C9E4204D3E021FF31174800F014
:4010C000D1FB154B1B681D6A80367601AD196561A668330C04D0FF214900104800F0C2FB330C03D00E490D4800F0BCFB3604330C1E43AE604346E36127620023A361069B07
:40110000002B02D000229B5EA38104BC9046F0BD040800083431001040080008B4300010FF010000F0B58FB0041E03D15221294800F098FB6368032B03D95421254800F07B
:4011400091FBE36A002B03D15821224800F08AFB236B002B03D159211E4800F083FB07AA1300210061C961C321C921C302AD290023001433C1CBC1C141CB41C10821535E2B
:401180000CAE3380144B1B6836215B5E07998C466344B370089B0D930B9B0A980096A26AE16AFFF753FF2B69E868002200920021FFF74CFF216B300000F0E6FA0023F25EDB
:4011C000002A05DB1F231A401E3B9340034A13600FB0F0BD343100104008000800E100E0F8B505000F0016001C00002A03D1FD21224800F037FB224B1B68002B03D1FE21C2
:401200001E4800F02FFB1E4B1B682C2128004843181879435918012213004D68AB401B044568AA4015000269002A20D08F69002F1FD11268002A01DA002200E0114A002AA2
:4012400019D132681204120C134333600369DE6001238B614C6204692B0C03D00A490B4800F000FB2A04120CA260002004E0084802E0084800E00748F8BDC046343100102A
:401280000408000801008A00BB020000B430001004028A0007028A0070B504000D0016000F4B1B68002B04D1AF2149000D4800F0D9FA0B4B1B682C2060431C18236A002BAD
:4012C00004D1B1214900074800F0CCFAE369B34204D9236AB6009D51002000E0024870BD04080008343100100A028A0070B582B0040000230193002804D1D221FF312D486D
:4013000000F0B0FA2369002B04D1E9214900294800F0A8FA6369002B04D1D421FF31254800F0A0FA236A002B04D1EA214900214800F098FA6269D5682B0C24D01B041360B8
:40134000136820691C4B1A68B423D358C3181B68002B18DA01A9FFF765FD00280ED1019803681E0CFF221340E269934207D29B00226AD358002B02D0984700E000263100FA
:401380002069FFF70FFD2D042D0C0FD063691D601B68636A002B03D098470023636203E0A36A002B00D098470023A36163691B6802B070BD343100104008000810B504004E
:4013C000084B1B68002B04D1B221FF31064800F049FA044B1B682C2060431818FFF786FF10BDC046040800083431001010B50400094B1B689B6CC340DB0703D4BE2107483A
:4014000000F030FA044B1B681B691034A402E3580F20184010BDC0464008000874310010134B1A683C23D35C83421DD9042904D94B1EFF3B9BB2132B18D8FF290CD91F2318
:4014400019400C4A0300C0339B009950D03080000423835000200AE007231940D0308000044BC150002002E0034800E002487047400800080000264001004A0070B5041EE6
:4014800003D14A494A4800F0EDF9B023DB00494AD358002B00DA87E0474B22689A4203D94649434800F0DEF923689B039B0BE279002A02D08022520400E000221343B02288
:4014C000D2003C498B50A2883D4B9A4204D984218900374800F0C6F92289344B9A4203D93849334800F0BEF9A388DB04D90C23891B04354A13400B43344A2E498B50A37AA7
:401500000F2B04D986218900294800F0ABF9E37A0F2B03D92E49264800F0A4F9A289284B9A4203D92B49224800F09CF9A37A0F211940E27A1201FF2313400B43A2891202AA
:4015400025490A401343A27B1207C02189050A401343B122D20017498B50A379042B03D91E49134800F07EF9228A104B9A4204D9892189000E4800F075F90E4818494558ED
:40158000184B1D40A3791B02E022D20013402B4343504558144B1D40238A1B040A4A13402B434350002000E0104870BDFF010000B431001000002640FFFF03000902000051
:4015C000FF1F0000110200000000FF0184050000190200001A02000000FF1F00230200008C050000FFF8FFFFFFFF00FE03004A0070B505003149324A8B58802000060343F9
:401600008B502C0003E0012000F020F9013CB223DB002A4AD3585B0701D4002CF3D12749B122D2008858274B03408020800503438B50002D01D0002C0CD02049B022D200E0
:401640008B588020000603438B5003E0012000F0FDF8013CB223DB00184AD358DB0701D4002CF3D1002D01D0002C08D01349B122D2008B58C020800503438B5013E00F4BFD
:40168000B121C90058580F4A02408020800502435A5008395A58520052085A5008495A58520052085A50002D03D0002C03D0002002E0002000E0044870BDC04600002640A8
:4016C0008C050000FFFFFFCF02004A0070B505000C001A4B1B6828229A5C012A15D1820807211000884327D19200AD1AED00FF20A8401B6820339A181168AC4023004B4065
:40170000184004004C40146016E03A229B5EDBB2994203D176210A4800F0A4F8074B1B681B68072215408022120615438022920194466444A400E55070BDC0464008000856
:401740003C32001070B504000D000B4B9A680B4B9A420CD1002904D13821FF31084800F081F81034054BA400E058E55003E01034A400044BE05870BD00ED00E00000000815
:401780003C32001000000010F0B5474680B482B0061E01914AD04368032B03D93221264800F060F80023F05E002804DBB178FFF78DFF002400E0214C0023F15E736800296B
:4017C00012DB88081E4FC0308000C55903221140C900FC3290468A4095439A01434613408B402B43C35116E089B20F220A40083A92080632920013481018476803221140CE
:40180000C900FF252A008A4097439A012B0013408B403B4343600B4B9A680B4B9A4206D10023F05E0199FFF78DFF00E0034C200002B004BC9046F0BD3C32001001005600E1
:4018400000E100E000ED00E00000000810B5034B1B78584300F0BCF810BDC046D000000801BEFEE770B50D00044C18220100200000F09BFDA5610020FFF7F2FFF805000827
:40188000054B802212069A649B6C002B01DB002000E002487047C0460000274003004600054B8022120198585B68FF221A4202D08023DB021843704700002640FEE7C04671
:4018C00010B50A4B0268DA6142681A6282685A62C2689A620269DA6242691A6382695A63C2699A63FFF7EAFF10BDC046F8050008F0B5474680B4002801D0192300E06423DF
:401900008B429B415B42304D2C682268A826A45BA41822680327BA433B401A4322602C682268A45BA2181668284CA046264016602C682668AA229446A25A96193268BA439D
:40194000134333602A6813686546525BD3181A68444614401C60002805D010291BD921291BD8012024E0184B1B6855229A5C914215D956229A5C914213D957229A5C914243
:4019800011D958229A5C91420FD959229B5C99420DD804200CE000200AE0022008E0002006E0012004E0022002E0032000E00520054A1268526813680F218B4303431360D0
:4019C00004BC9046F0BDC04640080008FFFCFFFF0230800803D001300238FCD1C046C0467047EFF3108072B6704780F31088704710B5B0235B059B899BB2002B04D0B0237F
:401A00005B059B899BB201E080235B0080225200934215D1184C23681968683A9B58C9180B680F208343963A13430B6021680C689C23CB58E318196881430A431A6019E089
:401A40000D4C2368196898229B58C918B02040050A4BC2580A4B13400A681343C022920013430B60226811689C23D358CB18054A82581A6010BDC046400800084818000054
:401A8000FFFCFFFF4418000030B5B0235B059B899BB2002B04D0B0235B059B899BB201E080235B0080225200934215D1184C23681968683A9B58C9180B680F208343953AFA
:401AC00013430B6021680C689C23CB58E318196881430A431A6019E00D4D2B68196898229B58C918B0246405C12040012258094B13400A681343C022920013430B602A683B
:401B000011689C23D358CB1822581A6030BDC04640080008FFFCFFFFB0235B059B899BB2002B04D0B0235B059B899BB201E080235B008022520093420DD1104B1B681A6802
:401B400098215B58D21811680D4B0B40C021C9010B43136011E0094B1B68196898229B58C918084BB0225205D258074B13400A681343C022920013430B6070474008000861
:401B8000FF8FFFFF18180000FFFCFFFF30B5B0235B059B899BB2002B04D0B0235B059B899BB201E080235B008022520093420DD1134B1B681A6898215B58D2181168114B30
:401BC0000B408021C9010B43136018E00C4D2B68196898229B58C918B02464050A4822580A4B13400A681343C022920013430B602A6811689C23D358CB1822581A6030BD14
:401C000040080008FF8FFFFF4C180000FFFCFFFF10B5B0235B059B899BB2002B04D0B0235B059B899BB201E080235B0080225200934217D10020FFF7D9FBB0235B055B78DF
:401C4000002B04D0B0235B055B78DBB200E02123222B03D8002803D1013004E0012002E0002000E0012010BD30B585B004000D00022807D9042805D0032803D02A492B486A
:401C8000FFF7F0FD6B1EDBB2012B07D9042D05D0082D03D026492548FFF7E4FDA400254BE458042D13D0012D1CD112E0A3682B420BD1E3681A6802925B6801930393290022
:401CC00002A8236898471B4B5C61646902E0002000E00020002C24D0174B9842E6D1012DE4D11EE0022D01D104E01C006369002BFBD104E00F4B5C69002C00D0246900207A
:401D00000DE0A3682B4209D1E3681A6802925B6801930393290002A8236898472469002CEFD105B030BDC046B209000080320010B309000008080008FF004200F8B5070072
:401D4000012803D93D493E48FFF78CFDB0235B055B78002B04D0B0235B055B78DBB200E021239DB2B0235B059B899BB2002B04D0B0235B059E89B6B201E080267600002046
:401D8000FFF734FB002814D180235B009E4212D1222D12D82B4B1B685C682B4821582B4B19403B068022520413400B432350002404E0274C02E0264C00E0254C80235B0014
:401DC0009E4201D1222D03D880235B009E4232D01C4B1A683123D35C002B04D1C421FF311C48FFF73FFD174B1B681D6A80235B009E4203D1002F05D0174A06E0002F03D0A5
:401E0000164A02E0164A00E0164A01212800FEF7E9FF00280FD10B4B1A68B423D3585B191B68002BF7DBEB681B0E1B06A0221206934200D100242000F8BDC0464C0A000051
:401E4000803200104008000818F00000FFFFFFFE04004200F42F0010010100300300000C010000300100000CF8B50500012804D9822109012948FFF7F5FCFFF7C9FE0028B3
:401E800049D0FFF7AEFD0700002D11D10021244B244AD150E823DB00B0225205D65CF6B20120FFF74BFF041E19D1FFF7A1FD16E0B02252051C4BD0581A4B194958501B49C8
:401EC000565CF6B21A481A581F218A4314390A431A500320FFF7BAFCFFF758FE0024002C15D11049124A8B581F20834306401E438E50002D02D1FFF70FFE08E00720FFF728
:401F0000A5FCFFF7C1FD0020FFF718FF04003800FFF76BFD00E0074C2000F8BD80320010307F00000000264010180000410700001CFF00000300420010B5041E03D11549BD
:401F40001548FFF78FFC154B1A68D168F222D2018A5822601B68F022D201D9688A5862600F4AD9688A58A2600E4AD9688A58E2600D4AD9688A5822610C4AD9688A5862615C
:401F80000B4AD9688A58A261DA680A4BD358E36110BDC046A10A0000803200104008000804780000087800000C78000010780000147800001878000010B5041E03D11449D4
:401FC0001448FFF74FFC144B1B68F022D201D96860688850114AD968A0688850104AD968E06888500F4AD968206988500E4AD968606988500D4AD968A06988500C4AD96820
:40200000E0698850DA682168F223DB01D15010BDC90A0000803200104008000804780000087800000C78000010780000147800001878000070B50500012804D9A62189004C
:402040003548FFF70FFC354B5B68002B05D001210120FFF709FE040000E00024002C53D1FFF7BFFC06002D4B5B68002B03D004210120FFF7F9FD2A4B1B6843229A5C002A68
:4020800008D09A68E023D358DB0603D523481830FFF752FFB0235B059B899BB2002B04D0B0235B059B899BB201E080235B0080225200934203D1280000F096F909E0194AAF
:4020C000116904230B431361012D01D030BF00E020BF134B1B6843229A5C002A08D09A68E023D358DB0603D50C481830FFF764FF3000FFF77AFC094B5B68002B09D00821D4
:402100000120FFF7B1FD04E002210120FFF7ACFD054C200070BDC04680320010080800084008000800ED00E0FF004200042805D10B4A116804230B4313600FE0094B1A68BA
:402140001168A023D358CB180006C022920410401860034A136804218B4313607047C04610E000E040080008F0B54F464646C0B483B006000D0000921F00012B03D95B210F
:402180002B48FFF76FFB330B03D05C212848FFF769FB284B1A686E23D35A9B08013B264A13432A009A4301D16B0003D45D212048FFF758FB32006A40F0231B011A40141EBB
:4021C0002FD1FFF70EFC01901A4B18686C23C15A83689C4661446E23C35A9A08013A2A40920090466A22825A15402D0A5D432A00424455182A68920A9202FF231E40009B62
:40220000002B01D00134FF3426437F0280239B001F403E4316432E600198FFF7E6FB002000E0064803B00CBC90469946F0BDC046C032001040080008000F00400100CE003A
:402240000749C02252008B589B009B088020C00503438B508B588020000603438B50704700002640014B18607047C04640080008002243088B4274D303098B425FD3030A02
:402280008B4244D3030B8B4228D3030C8B420DD3FF22090212BA030C8B4202D31212090265D0030B8B4219D300E0090AC30B8B4201D3CB03C01A5241830B8B4201D38B037A
:4022C000C01A5241430B8B4201D34B03C01A5241030B8B4201D30B03C01A5241C30A8B4201D3CB02C01A5241830A8B4201D38B02C01A5241430A8B4201D34B02C01A524125
:40230000030A8B4201D30B02C01A5241CDD2C3098B4201D3CB01C01A524183098B4201D38B01C01A524143098B4201D34B01C01A524103098B4201D30B01C01A5241C30873
:402340008B4201D3CB00C01A524183088B4201D38B00C01A524143088B4201D34B00C01A5241411A00D20146524110467047FFE701B5002000F006F802BDC0460029F7D049
:4023800076E770477047C046002310B59A4203D0CC5CC4540133F9E710BD03008218934202D019700133FAE77047030030B5002A0DD00C7801335D1E013A2C700131002CA4
:4023C000F5D19A189A4202D01C700133FAE730BDF8B5C046F8BC08BC9E467047F8B5C046F8BC08BC9E46704701B40248844601BC604700BF31030008030000000100000071
:40240000010000000000000005036000040000000100000000000000010000000604600008000000C0070008B501001073797374656D5F70736F63365F636D30706C757314
:402440002E630000F4010000140004010A000905080000006301000000203440740080203440740000223440740080223440740000243440740080243440740000263440E3
:402480007400802634407400002834407400802834407400002A34407400802A3440740000213440C42600109000000000233440542700109000000000253440E427001051
:4024C00090000000002734407428001090000000002934400429001090000000002B3440942900109000000000603440242A00107C00000080603440A02A00107C000000B7
:40250000006134401C2B00107C00000080613440982B00107C00000000623440142C00107C00000080623440902C00107C000000006334400C2D00107C000000806334401C
:40254000882D00107C00000000643440042E00107C00000080643440802E00107C00000000653440FC2E00107C00000080653440782F00107C00000080018208830C8409B0
:402580008809890C8A048B039105930AA101A302A703AC01AE0AB008B108B201B301B404B502B602B704BF41D407D504D710DC04DD04DF04E099E190E30102030A032C0249
:4025C0002E01300236013E415C046301281068D26CC6AC7204011501212634400928344001713440037234400278344008000000000000000000000000600000000000009E
:402600000000000000000000000000000000000002000000000000000000000060000000000000000000000000000000000000000000000003000000000000000000000035
:40264000680000000000000000000000000000001212000000000000070000000000000000000000CC6600BA0000000000000000000000001313030000001D1D7000000008
:4026800000000000000000000000666600000000000000000000000000000000030303007F000000000000000000000000006606000000000000000000000000000000005A
:4026C00003030300000000000000000000000000FFFFFFFFFFFFFFFFFFFFFFFFFFFFFFFFFFFFFFFFFF000000FFFFFFFFFFFFFFFFFFFFFFFFFFFFFFFFFFFFFFFFFF000000FB
:4027000000000000000000000000000000000000000000000000F000FFFFFFFFFFFFFFFFFFFFFFFF11111111111111111111111111111111111111111111111111111111D9
:402740001111111111111111111111111111111111111111000000000000000000000000FFFFFFFFFFFFFFFFFFFFFFFFFFFFFFFFFFFFFFFFFF000000FFFFFFFFFFFFFFFF22
:40278000FFFFFFFFFFFFFFFFFFFFFFFFFF000000000000000000000000000000000000000100200000300000FFFFFFFFFFFFFFFFFFFFFFFF11011111111111111111011135
:4027C000110111111111111111111101111111111111111111111111111111111111111111111111000000000000000000000000FFFFFFFFFFFFFFFFFFFFFFFFFFFFFFFFA5
:40280000FFFFFFFFFF000000FFFFFFFFFFFFFFFFFFFFFFFFFFFFFFFFFFFFFFFFFF000000000000000000000000000000000000000000000000000000FFFFFFFFFFFFFFFFBA
:40284000FFFFFFFF1101111111111111111101111101111111111111111111011111111111111111111111111111111111111111111111110000000000000000000000006C
:4028800077F2FFFFFF1FFF77FF1F2F0FFFFFFFFFFFFFFFFFFF000000FFFFFFFFFFFFFFFFFFFFFFFFFFFFFFFFFFFFFFFFFF00000000000000000000000000000000000000DF
:4028C00000000005F3100602FFFFFFFFFFFFFFFFFFFFFFFF1001911111111311111101111131111111411911111111411111111111111131111111111111211111111111CF
:402900002A111121010000000000000000000000F0F2FFFFFF1FFFFFFFFFFFFFFFFFFFFFFFFFFFFFFF000000FFFFFFFFFFFFFFFFFFFFFFFFFFFFFFFFFFFFFFFFFF0000004F
:40294000000000000000000000000000000000000F00000000000007FFFFFFFFFFFFFFFFFFFFFFFF1D21F11111111111111121111111111111111F11111111111111111157
:40298000111111111111111111111111111111111F111111000000000000000000000000FFFFFFFFFFFFFFFFFFFFFFFFFFFFFFFFFFFFFFFFFF000000FFFFFFFFFFFFFFFFD2
:4029C000FFFFFFFFFFFFFFFFFFFFFFFFFF000000000000000000000000000000000000000000000000000000FFFFFFFFFFFFFFFFFFFFFFFF11111111111111111111111124
:402A000011111111111111111111111111111111111111111111111111111111111111111111111100000000000000001F1F1F1F1F1F1F1F1F1F1F1F1F1F1F1F1F1F1F1FC6
:402A40001F1F1F1F1F1F1F1F1F1F1F1F000000000000000000000000000000000000000000000000FFFFFFFFFFFFFFFFFFFFFFFF11111115111111111111111111111111DA
:402A8000111111111111111111111111111111111111111111111111111111111111111100000000000000001F1F1F1F1F1F1F1F1F1F1F1F1F1F1F1F1F1F1F1F1F1F1F1F0E
:402AC0001F1F1F1F1F1F1F1F000000000000000000000000000000000000000000000000FFFFFFFFFFFFFFFFFFFFFFFF111111111111111111111111111111111111111196
:402B00001111111111111111111111111111111111111111111111111111111100000000000000001F1F1F1F1F1F1F1F1F1F1F1F1F1F1F1F1F1F1F1F1F1F1F1F1F1F1F1F55
:402B40001F1F1F1F000000000000000000000000000000000000000000000000FFFFFFFFFFFFFFFFFFFFFFFF1111111111111111111111111111111111111111111111114D
:402B800011111111111111111111111111111111111111111111111100000000000000001F1F1F1F1F1F1F1F1F1F1F1F1F1F1F1F1F1F1F1F1F1F1F1F1F1F1F1F1F1F1F1F9D
:402BC000000000000000000000000000000000000000000000000000FFFFFFFFFFFFFFFFFFFFFFFF11311111111111111111111111111111111111111111111111111111E5
:402C0000111111111111111111111111111111111111111100000000000000001F1F1F1F1F1F1F1F1F1F1F1F1F1F1F1F1F0A1F1F1F1F1F1F1F1F1F1F1F1F1F1F0000000075
:402C40000000000000000000000000000F00000000000000FFFFFFFFFFFFFFFFFFFFFFFF111111111111111111111111111111111111111D11111111111111111111111125
:402C80001111111111111111111111111111111100000000000000001F1F1F1F1F1F1F1F1F1F1F1F1F1F1F1F1F1F1F1F1F1F1F1F1F1F1F1F1F1F1F1F000000000000000024
:402CC00000000000000000000000000000000000FFFFFFFFFFFFFFFFFFFFFFFF1111111111111111111111111111111111111111111111111111111111111111111111117C
:402D000011111111111111111111111100000000000000001F1F1F1F1F1F1F1F1F1F1F1F1F1F1F1F1F1F1F1F1F1F1F1F1F1F1F1F1F1F1F1F000000000000000000000000E7
:402D400000000000000000000000F000FFFFFFFFFFFFFFFFFFFFFFFF111111111111111111111111D111111111111111111111111111111111111111111111111111111107
:402D8000111111111111111100000000000000001F1F1F1F000F021F1F00061F1F1F1F1F1F1F1F1F1F1F1F1F1F1F1F1F1F1F1F1F000000000000000000000000000000002F
:402DC0000F00F00F00F00000FFFFFFFFFFFFFFFFFFFFFFFF0111111111111111111D1111F111111D1111111111111111111111111111111111111111111111D11111111D41
:402E00001111111100000000000000001F1F1F1F1F1F1F1F1F1F1F1F1F1F1F1F1F1F1F1F1F1F1F1F1F1F1F1F1F1F1F1F00000000000000000000000000000000000000006E
:402E400000000000FFFFFFFFFFFFFFFFFFFFFFFF011111111111111111311111F111111111111111111111111111114111111111111111111111111111111111111111110E
:402E800000000000000000001F1F1F1F1F1F1F1F1F1F1F1F1F1F1F1F12000D081214121F1F1F1F1F1F1F1F1F0000000000000000000000000000000000F0000FFFF00F0FA0
:402EC000FFFFFFFFFFFFFFFFFFFFFFFF011111111111111111FD1D11F1111111D111111111D11111111111F11111111111D1D111111111111D1111111111111100000000FA
:402F0000000000001F1F1F1F1F1F1F1F1F1F1F1F1F1F1F1F1F1F1F1F081F07101F1F1F1F1F1F1F1F00000000000000000000000000000000040000000000000FFFFFFFFFE0
:402F4000FFFFFFFFFFFFFFFFD11111111111111111F11111111111111111111111111111111111F11111111111111111111111111F1111111111111100000000000000009B
:402F80001F1F1F1F1F1F1F1F1F1F1F1F1F1F1F1F1F1F1F1F1F1F1F1F1F1F1F1F1F1F1F1F000000000000000000000000000000000000000000000000FFFFFFFFFFFFFFFF39
:402FC000FFFFFFFF11111111111111111111111111111111111111111111111111111111111111111111111111111111111111111111111147656E6572617465645F536FF5
:40300000757263655C50536F43365C70646C5C647269766572732F7065726970686572616C2F6970632F63795F6970635F6472762E68000047656E6572617465645F536FA6
:40304000757263655C50536F43365C70646C5C647269766572735C7065726970686572616C5C6770696F5C63795F6770696F2E630000000047656E6572617465645F536FA9
:40308000757263655C50536F43365C70646C5C647269766572735C7065726970686572616C5C6770696F5C63795F6770696F2E680000000047656E6572617465645F536F64
:4030C000757263655C50536F43365C70646C5C647269766572735C7065726970686572616C5C6970635C63795F6970635F6472762E68000047656E6572617465645F536F5F
:40310000757263655C50536F43365C70646C5C647269766572735C7065726970686572616C5C6970635C63795F6970635F6472762E63000047656E6572617465645F536F23
:40314000757263655C50536F43365C70646C5C647269766572735C7065726970686572616C5C6970635C63795F6970635F706970652E630047656E6572617465645F536F81
:40318000757263655C50536F43365C70646C5C647269766572735C7065726970686572616C5C70726F745C63795F70726F742E630000000047656E6572617465645F536F3C
:4031C000757263655C50536F43365C70646C5C647269766572735C7065726970686572616C5C737973636C6B5C63795F737973636C6B2E630000000047656E6572617465D9
:40320000645F536F757263655C50536F43365C70646C5C647269766572735C7065726970686572616C5C737973636C6B5C63795F737973636C6B2E680000000047656E65BA
:4032400072617465645F536F757263655C50536F43365C70646C5C647269766572735C7065726970686572616C5C737973696E745C63795F737973696E742E630000000030
:4032800047656E6572617465645F536F757263655C50536F43365C70646C5C647269766572735C7065726970686572616C5C737973706D5C63795F737973706D2E6300004D
:4032C00047656E6572617465645F536F757263655C50536F43365C70646C5C647269766572735C7065726970686572616C5C747269676D75785C63795F747269676D7578F6
:403300002E6300000000204000002440000000400000000000002340000030400000314000009F40000022400000104002020202020202020210101D800017007500FF03C6
:403340000602063604102000000000007FC0000000040000000000000019324B647D00804000080B100000000000FF012002001F00800004FF081018001000140018001CEC
:403380004044484C50000000081000000800000004000000041000000012000004210000002100000016000040114002C41300138013A013200000001C000000000021409F
:4033C00000002540000001400000344000002440000031400000324000001F410000234000001140010101010101010101101010800019005500F0000501053B04101C01CA
:40340000010000000FC000000004000001010101011D3A57789600082000101208000000001F00000010000F002000023F06080E00080009000A000B24282C3034000000E8
:40344000100000009000000088000000080000008000000004F0000000F00000400200002005A000D00100018001A001200000001000000000000000000000100000000875
:40348000C000000098340010C000000838050000340600081002000000127A0000093D0000093D0000093D0004000000A00F00000000D007E9000010C10000100000000065
:4034C00010B50004400B27D0144B1A68146AB023D15ACA00531AE3181B68002BF4DA3E220F4B1A600F4A104B1A60104B0621A322D20099500E4A98509B58084B1A68106AD0
:40350000B023D15ACA00531AC31800225A60084B064AD358002BFADA10BDC04640080008040126401E1F000008012640000026401C05000010B54378FF2B20D100F028FA64
:4035400004000F4B1A683123D35C042B04D8C421FF310C4800F004FA094B1A68116AB023D35A9B00CB18DB685A68116801230B4313601368DB07FCD4200000F0F9F910BD58
:4035800040080008F42F0010F0B585B001900291544B1A683123D35C002B04D1C421FF31514800F0DDF94F4B1B681E6AB4229A58971950229B5C002B77D000F0E1F90500AB
:4035C00003283CD1474B1A683123D35C062B04D8C421FF31444800F0C3F9424B1968B023CB5A5A00D21853000A6A94466344B4228A58D3181B68002B23DB002000F0E0F9D8
:403600003A4B98421FD03A4B1A6900230021012000F09EF9002803D0364C17E0013400E00024002000F0CCF9304B984202D0324B9C42F3D9304B9C4207D92E4C06E00024BB
:4036400004E02C4C02E02B4C00E00024002C46D100F09EF90390294B294AD358002B13DA234A0121300000F0A3F900280ED10298FFF726FF019B002B0AD03B68002BFCDBBD
:4036800000F08EF9040004E01A4C02E0194C00E01C4C032D05D10121002000F051F90028F9D1039800F064F919E000F071F905000F4A0121300000F07BF9002809D1019B55
:4036C000002B08D03B68002BFCDB00F069F9040002E0084C00E00B4C280000F049F9200005B0F0BD40080008F42F001001018800E007000805005200EF4902001C050000D5
:403700000000264001005000F0B54F464646C0B4824B1A685468B0235B055B78002B04D0B0235B055B78DBB200E02123212B67D1B023D15ACB005B1A116A8C46634419689A
:403740000029F5DADD6802212943D960B023D15ACB005B1A116A8C466344D968C9073ED5D9680904090C8C4684271168D559A84641440968090A0904FF26360431400D0086
:4037800088261168894691598846C14449460968090A0906294365462943D9601168D359C9180A685E4B98461A4090252D012A430A605A4B99461A6813689C4692596244F1
:4037C0001368414619400B002B4313604B461A681568D15969180B689359EB181B684F4B1A68B021555AEB005B1B156AAC46634400255D60156A515ACA00531AEB185B6844
:40380000484A116904230B431361012801D030BF00E020BF414B1A68B023D15ACB005B1A116A8C46634419680029F3DAB02149054978002904D0B02149054978C9B200E01C
:403840002121212932D1D968C90722D510688421525880180468324A1440DB681B0C1B02FF2109020B40234303602C4B19688823C8580B689C46604403681A400D6AB02385
:40388000CC5AE1000B1BEB18DB681B0E1B021A430260224B1A68106AB023D15ACA00531AC318DA6802218A43DA6028E086235B00E358002B23D11C4807681C4BA321C9007E
:4038C0005E581B4A904615681A4A0260062058503E21424611600631174A9950164B134AD358002BFADA154A86235B00E2500E4B1F60A323DB000D4AD6500D4B1D60074B53
:403900001A68106AB023D15ACA00531AC31800225A600CBC90469946F0BDC04640080008FF00FFFF00ED00E00801264000002640040126401E1F00001C050000AAAAAAAA0F
:4039400001B40248844601BC604700BF710F001001B40248844601BC604700BFE111001001B40248844601BC604700BF6518001001B40248844601BC604700BFEB19001064
:4039800001B40248844601BC604700BF2D04001001B40248844601BC604700BFE319001001B40248844601BC604700BF190C001001B40248844601BC604700BFE50D0010D3
:4039C00001B40248844601BC604700BFFD0F0010000000000000000000000000000000000000000000000000000000000000000000000000000000000000000000000000BF
:020000041008E2
:4000000000780408EB0208100D0000005103081051030810510308105103081000000000000000000000000000000000C15B08104D03081000000000B15D0810195E081029
:400040004D0308104D0308104D0308104D0308104D0308104D0308104D0308104D0308104D0308104D0308104D0308104D0308104D0308104D0308104D0308104D03081000
:400080004D0308104D0308104D0308104D0308104D0308104D0308104D0308104D0308104D0308104D0308104D0308104D0308104D0308104D0308104D0308104D030810C0
:4000C0004D0308104D0308104D0308104D0308104D0308104D0308104D0308104D0308104D0308104D0308104D0308104D0308104D0308104D0308104D0308104D03081080
:400100004D0308104D0308104D0308104D0308104D0308104D0308104D0308104D0308104D0308104D0308104D0308104D0308104D0308104D0308104D0308104D0308103F
:400140004D0308104D0308104D0308104D0308104D0308104D0308104D0308104D0308104D0308104D0308104D0308104D0308104D0308104D0308104D0308104D030810FF
:400180004D0308104D0308104D0308104D0308104D0308104D0308104D0308104D0308104D0308104D0308104D0308104D0308104D0308104D0308104D0308104D030810BF
:4001C0004D0308104D0308104D0308104D0308104D0308104D0308104D0308104D0308104D0308104D0308104D0308104D0308104D0308104D0308104D0308104D0308107F
:400200004D0308104D0308104D0308104D0308104D0308104D0308104D0308104D0308104D0308104D0308104D0308104D0308104D0308104D0308104D0308104D0308103E
:400240004D0308104D0308104D0308104D0308104D0308104D0308104D0308104D0308104D0308104D0308104D0308104D0308104D0308104D0308104D0308104D030810FE
:400280004D0308104D0308104D03081010B5054C237833B9044B13B10448AFF300800123237010BDAC4C020800000000CC790810084B10B51BB108490848AFF3008008480E
:4002C000036803B910BD074B002BFBD0BDE81040184700BF00000000B04C0208CC7908108C430208000000007047FFF7FDFF72B6104C114DAC4209DA21686268A368043B7A
:40030000A2BFC858D050FAE70C34F3E70B490C4A00209142BCBF41F8040BFAE709480A490860BFF34F8F00F00FFA00F065F800F02BF8FEE7D0790810E8790810AC4C02082A
:40034000307A02080040020808ED00E0FEE7FEE700B504207146084202D0EFF3098001E0EFF30880043001F089FFFEE780B483B000AF786039607B683A689A6000BF0C37E4
:40038000BD465DF8047B704780B582B002AF62B606F0E4F8124806F089F900F04BFB114A0021114803F084FC01210F48FFF7DEFF00F07CFB00F0D6FB00F030FC00F08AFC57
:4003C00000F0FAFD0023019305230093074B64220749084804F07EFA04F034FCFEE700BF686F0810FC76081000003840B0420208746F0810450A081080B500AF0D4801F07F
:40040000F3FF00F01FF800F025F800220021042001F084F9084801F015FC084B1B6893F85130002B02D0064801F020FC00F07EFF00BF80BDA0720810C84C020840790208E1
:40044000846F081080B400AF00BFBD465DF8047B704700BF80B491B000AFAE4BD3F8803303F00F037B63AB4A7B6BD03352F8233003F007033B633B6B042B36D801A252F81E
:4004800023F000BF990408109F040810A5040810EB040810AB0408109F4BFB6328E09F4BFB6325E09D4BFB6322E09A4A7B6BC03352F8233003F01F03FB62FB6A112B07D042
:4004C000132B09D0102B0BD14FF4FA43FB630BE04FF40043FB6307E04FF40043FB6303E04FF4FA43FB6300BF02E08C4BFB6300BF7B6B002B60D1874BD3F8903503F0010365
:40050000002B14BF0123002387F82B30814BD3F8883503F040531B0F032B0CBF0123002387F82A307B4BD3F8883503F040531B0F002B07D0774BD3F8883503F040531B0F85
:40054000012B01D1012300E0002387F8293097F8293003F0010387F8293097F82930002B03D097F82B30002B03D197F82A30002B1FD0684BD3F88035C3F311037B62654B6B
:40058000D3F88435C3F30C033B62624BD3F8803503F080731B0E0133FB61FA6B3B6AB2FBF3F37A6A02FB03F2FB69B2FBF3F3BB6360E0FB6BBB635DE07B6B012B58D1554B25
:4005C000D3F8403603F00103002B14BF01230023FB76504BD3F8003603F040531B0F032B0CBF01230023BB764A4BD3F8003603F040531B0F002B07D0464BD3F8003603F083
:4006000040531B0F012B01D1012300E000237B767B7E03F001037B767B7E002B02D0FB7E002B02D1BB7E002B1FD03A4BD3F8003603F07F037B61374BD3F8003603F4F853AA
:400640001B0A3B61334BD3F8003603F4F8131B0CFB60FB6B7A6902FB03F23B69B2FBF3F2FB68B2FBF3F3BB6304E0FB6BBB6301E0FB6BBB63274BD3F8803303F030031B092A
:40068000BA6B22FA03F3BB63254ABB6B1360254BD3F8903003F47F431B0A0133BB60214B1B6903F07F431B0E01337B60BA6B7B68B2FBF3F31C4A1360BA6BBB68B2FBF3F389
:4006C000BB631A4ABB6B1360184B1B68184A1360174B1B6803F5742303F23F23154AA2FB03239B0CDAB2144B1A70114B1B6803F2E733124AA2FB03239B09114A1360104B41
:400700001B68DB030F4A136000BF4437BD465DF8047B70470000264000127A0000366E01044302080000214008430208004302080C43020883DE1B4314430208D34D6210CE
:40074000104302081843020880B582B000AF01F030FE7860094A094BD3F8883043F47003C2F88830BFF34F8FBFF36F8F786801F024FE00BF0837BD4680BD00BF00ED00E067
:4007800080B500AF012001F0EBFB00BF80BD00BF80B483B000AF0346FB80B7F90630002B0BDB0949B7F906305B09FA8802F01F02012000FA02F241F8232000BF0C37BD4610
:4007C0005DF8047B704700BF00E100E080B483B000AF78607B681B6843F000427B681A6000BF0C37BD465DF8047B704780B483B000AF786039603A687B685A6000BF0C3770
:40080000BD465DF8047B704780B483B000AF786039603A687B689A6000BF0C37BD465DF8047B704780B582B000AF786039601B4B1B6893F833301A463B689A4204D840F249
:40084000FA51174801F006FD144B1B68B3F85A301A467B681A44114B1B68B3F85C3019463B6803FB01F3134419460C4B1B68B3F85A301A467B681A44084B1B68B3F85C30A5
:4008800018463B6803FB00F313441B6843F000430B6000BF0837BD4680BD00BF40790208B86F081080B582B000AF786039601A4B1B6893F833301A463B689A4204D840F242
:4008C000B361164801F0C6FC134B1B68B3F85A301A467B681A44104B1B68B3F85C3019463B6803FB01F313441A46012313610A4B1B68B3F85A301A467B681A44064B1B6842
:40090000B3F85C3019463B6803FB01F313441B6900BF0837BD4680BD40790208B86F081080B584B000AFF860B9607A60164B1B6893F833301A46BB689A4204D840F203715B
:40094000124801F087FC7B6823F00103002B04D040F204710D4801F07DFC0B4B1B68B3F85A301A46FB681A44074B1B68B3F85C301946BB6803FB01F313441A467B6893610D
:4009800000BF1037BD4680BD40790208B86F081080B584B000AFF860B9607A60BB68072B04D940F227310E4801F054FC7B68012B04D94FF44A710A4801F04CFC7B68002BB6
:4009C00005D10122BB689A40FB685A6004E00122BB689A40FB689A6000BF1037BD4680BDF46F081080B582B000AF78600D4B1A680D4913469B0013449B000B4404331A68B6
:400A00007B689A4204D84FF47671084801F022FC7968074801F0E4FE034618460837BD4680BD00BF3C780208A87608103470081000001D4180B500AF05F0A6FC05F0DCFC54
:400A400000BF80BD80B58AB000AF78607B687B627B6A9B683B62144BFB610023BB617B6A1B687B617B6A5B683B617B6A1B7BFB7304F0DEF90346BB6007F10803396A1846A1
:400A800004F066F8012239697869FFF781FFFB7B43F00403DBB2184605F08AFD002239697869FFF775FFE7E700004C4280B586B000AF2049204802F081FE78617B69002B02
:400AC00001D000F063F91C4B7B6000233B720323FB6000233B743B1D1A460121174803F06FF878617B69002B01D000F04FF914491148FFF77BFE13490F48FFF785FE124944
:400B0000124801F01FFB114BB3F900301846FFF73FFE012201210948FFF702FF01210748FFF780FE0548FFF751FE00BF1837BD4680BD00BF84770810447802080000284035
:400B400080011D41F8780208510B0810B470081080B500AF01210248FFF7A4FE00BF80BD0000284080B586B000AF2049204802F025FE78617B69002B01D000F007F91C4B10
:400B80007B6000233B720323FB6000233B743B1D1A460421174803F013F878617B69002B01D000F0F3F814491148FFF71FFE13490F48FFF729FE1249124801F0C3FA114B11
:400BC000B3F900301846FFF7E3FD012204210948FFF7A6FE04210748FFF724FE0548FFF7F5FD00BF1837BD4680BD00BFF0770810607802080000284080011D412079020899
:400C0000090C0810CC70081080B500AF04210248FFF748FE00BF80BD0000284080B586B000AF2049204802F0C9FD78617B69002B01D000F0ABF81C4B7B6000233B72032319
:400C4000FB6000233B743B1D1A460321174802F0B7FF78617B69002B01D000F097F814491148FFF7C3FD13490F48FFF7CDFD1249124801F067FA114BB3F900301846FFF7BA
:400C800087FD012203210948FFF74AFE03210748FFF7C8FD0548FFF799FD00BF1837BD4680BD00BF5C7808107C7802080000284080011D4110790208C10C0810C4700810D1
:400CC00080B500AF03210248FFF7ECFD00BF80BD0000284080B586B000AF2049204802F06DFD78617B69002B01D000F04FF81C4B7B6000233B720323FB6000233B743B1D6B
:400D00001A460221174802F05BFF78617B69002B01D000F03BF814491148FFF767FD13490F48FFF771FD1249124801F00BFA114BB3F900301846FFF72BFD0122022109488C
:400D4000FFF7EEFD02210748FFF76CFD0548FFF73DFD00BF1837BD4680BD00BFC8780810987802080000284080011D4130790208790D0810BC70081080B500AF0221024898
:400D8000FFF790FD00BF80BD0000284080B400AF72B6FEE780B500AF054B01221A700020FFF720FE03461A46024B1A8000BF80BD4A4E0208484E020880B483B000AF03461A
:400DC000FB80B7F90630002B0BDB0949B7F906305B09FA8802F01F02012000FA02F241F8232000BF0C37BD465DF8047B704700BF00E100E080B483B000AF78607B681B6861
:400E000043F000427B681A6000BF0C37BD465DF8047B704780B483B000AF786039603A687B685A6000BF0C37BD465DF8047B704780B483B000AF786039603A687B689A60F4
:400E400000BF0C37BD465DF8047B704780B582B000AF786039601B4B1B6893F833301A463B689A4204D840F2FA51174801F0F2F9144B1B68B3F85A301A467B681A44114BFD
:400E80001B68B3F85C3019463B6803FB01F3134419460C4B1B68B3F85A301A467B681A44084B1B68B3F85C3018463B6803FB00F313441B6843F000430B6000BF0837BD4663
:400EC00080BD00BF407902085470081080B582B000AF786039601A4B1B6893F833301A463B689A4204D840F2B361164801F0B2F9134B1B68B3F85A301A467B681A44104BED
:400F00001B68B3F85C3019463B6803FB01F313441A46012313610A4B1B68B3F85A301A467B681A44064B1B68B3F85C3019463B6803FB01F313441B6900BF0837BD4680BDEE
:400F4000407902085470081080B584B000AFF860B9607A60164B1B6893F833301A46BB689A4204D840F20371124801F073F97B6823F00103002B04D040F204710D4801F01F
:400F800069F90B4B1B68B3F85A301A46FB681A44074B1B68B3F85C301946BB6803FB01F313441A467B68936100BF1037BD4680BD407902085470081080B586B000AF20492A
:400FC000204802F0FBFB78617B69002B01D0FFF7DDFE1C4B7B6000233B720323FB6000233B743B1D1A460021174802F0E9FD78617B69002B01D0FFF7C9FE14491148FFF780
:4010000009FF13490F48FFF713FF1249124801F099F8114BB3F900301846FFF7CDFE012200210948FFF790FF00210748FFF70EFF0548FFF7DFFE00BF1837BD4680BD00BFA5
:4010400034790810B478020800002840F8780208400266405D100810AC70081080B500AF00210248FFF732FF00BF80BD0000284080B483B000AF78607B68D3F840331846AB
:401080000C37BD465DF8047B704700BF80B483B000AF78607B68D3F80833C3F3080318460C37BD465DF8047B704700BF80B582B000AF78607868FFF7DBFF03461846083796
:4010C000BD4680BD80B582B000AF78607868FFF7DDFF034618460837BD4680BD80B582B000AF786039603968786801F06BFC034618460837BD4680BD80B582B000AF786076
:4011000000BF79680448FFF7E9FF0346002BF8D000BF0837BD4680BD0000664080B500AF00BF0648FFF7CEFF0346002BF9D00348FFF7BCFF0346184680BD00BF000066408F
:4011400080B483B000AF0346FB80B7F90630002B0BDB0949B7F906305B09FA8802F01F02012000FA02F241F8232000BF0C37BD465DF8047B704700BF00E100E080B400AFEF
:40118000084B1B681A68074B1B68D3F8843013441B6803F07F431B0EDBB21846BD465DF8047B70474079020880B400AF084B1B681A68074B1B68D3F8843013441B6803F42F
:4011C0007F431B0ADBB21846BD465DF8047B70474079020880B582B000AF78600E4B1B6893F831301A467B689A4204D840F2C3110A4801F02FF8084B1B681A6A064B1B687D
:40120000B3F8B03019467B6803FB01F3134418460837BD4680BD00BF40790208DC70081080B483B000AF78607B68DB6818460C37BD465DF8047B704780B483B000AF7860A4
:40124000084B1B68D3F8B4207B6813441B6803F00043DB0FDBB218460C37BD465DF8047B704700BF4079020880B584B000AFF860B9607A607B68002B04D140F29331074853
:4012800000F0E8FF7B681A46B968F86800F09CF9034618461037BD4680BD00BFDC70081080B584B000AF78601C4A7B6813601B4B1B68002B0BD0194B1B6802221A70174B2B
:4012C0001B68FF225A70154B1B6800225A80144B1B6893F85030002B1CD0114B1B68B3F938303B810023FB6007F108030D49184600F028FFB7F908301846FFF721FF084BF3
:401300001B6893F85130002B04D002220649012000F0EAFD00BF1037BD4680BD4C4E0208407902088D4602089143020880B500AF0248FFF7B5FF00BF80BD00BF704E0208F1
:4013400080B485B000AF78607B682E4A93423FD02C4A93420ED8402B40D0402B04D8002B1FD0102B37D042E0802B3AD0B3F5807F3AD03CE0244A934219D0234A934206D8FF
:40138000B3F1204F10D0214A93421DD02FE0204A934213D01F4A934213D01F4A93420AD025E00023FB6025E00023FB6022E04FF4A403FB601EE0194BFB601BE0184BFB60E0
:4013C00018E0184BFB6015E04FF4A003FB6011E00C4BFB600EE0144BFB600BE0134BFB6008E0134BFB6005E0064BFB6002E0114BFB6000BFFB6818461437BD465DF8047BA5
:40140000704700BF06005200010000F0090000A0040000F0050000F0030000F0010052000200520003005200010050000200500005005200FF00520080B582B000AF134BAD
:401440007B600120FFF7C6FE03461846FFF7F4FE034683F00103DBB2002B12D00C4B1B681846FFF76DFF78600A4B1B685B681A460123936000BF074B1B685B689B68002BC4
:40148000F9D17B6818460837BD4680BD02005000504E02084079020880B582B000AF786039603B681B0C1B04002B04D040F2BB21054800F0CFFE3B689AB27B689A6000BFD3
:4014C0000837BD4680BD00BF1C71081080B582B000AF786039603B681B0C1B04002B04D040F2D521054800F0B5FE3B689AB27B685A6000BF0837BD4680BD00BF1C71081054
:4015000080B483B000AF786039607B683A68DA6000BF0C37BD465DF8047B704780B483B000AF78607B68DB6818460C37BD465DF8047B704780B483B000AF7860084B1B68CE
:40154000D3F8B4207B6813441B6803F00043DB0FDBB218460C37BD465DF8047B704700BF4079020880B483B000AF78607B681B6803F00043002B01DA002300E0034B184672
:401580000C37BD465DF8047B704700BF01008A0080B584B000AF786039607868FFF7CAFF0346002B06D039687868FFF78FFF0023FB6001E0034BFB60FB6818461037BD4686
:4015C00080BD00BF01008A0080B586B000AFF860B9607A60F868FFF7C5FF0346002B0AD17968F868FFF78CFFB968F868FFF754FF00237B6101E0034B7B617B69184618376F
:40160000BD4680BD01008A0080B584B000AF786039603B68002B03D199210C4800F01AFE7868FFF787FF0346002B08D07868FFF775FF02463B681A600023FB6001E0044B99
:40164000FB60FB6818461037BD4680BD5C71081001008A0080B582B000AF78600E4B1B6893F831301A467B689A4204D840F2C3110A4800F0EFFD084B1B681A6A064B1B6844
:40168000B3F8B03019467B6803FB01F3134418460837BD4680BD00BF407902089C71081080B483B000AF78607B68DB6818460C37BD465DF8047B704780B584B000AFF860DD
:4016C000B9607A607B68002B04D140F29331074800F0C0FD7B681A46B968F868FFF774FF034618461037BD4680BD00BF9C71081080B483B000AF78607B681B6803F0004359
:40170000002B01DA002300E0034B18460C37BD465DF8047B704700BF01008A0080B586B000AFF860B9607A60144B7B617B68002B0BD1BB68002B08D1F868FFF78BFF024600
:401740000F4B1A6000237B6113E07B68002B0ED0BB68002B0BD00B4ABB681360094A7B6853600849F86800F00FF8786101E0034B7B617B6918461837BD4680BD03018A00CF
:40178000744E0208784E020880B584B000AF78603960284BFB60284B1B6893F831301A467B689A4202D8234BFB603EE03B68002B39D03B681B6803F01F03002B30D1786856
:4017C000FFF748FF02461D4B1A603B6858683B681B68DB081A46002104F005FF174B1B6800211846FFF7D4FE144B1B683A6800211846FFF761FF0346002B0ED10F4B1B68E8
:4018000000211846FFF7C4FE0346002B02D10023FB600AE00A4BFB6007E0094BFB6004E0044BFB6001E0034BFB60FB6818461037BD4680BD03018A0040790208744E0208FF
:4018400001018A0080B588B000AF78600B46FB700023FB612F4BBB612F4B1B681846FFF71FFF03467B617B691A687B689A4249D97B685B093B613B695B017A68D31A012267
:4018800002FA03F3FB60FB7883F00103DBB2002B02D000F08EFDF8611F4B1B681846FFF727FF0346002B23D17B695A683B699B0013441A68FB681340002B11D07B695A689E
:4018C0003B699B0013447A6951683A6992000A441168FA68D2430A401A600023BB6101E00E4BBB610C4B1B6800211846FFF750FEFB7883F00103DBB2002B05D0F86900F085
:401900005CFD01E0064BBB61BB6918462037BD4680BD00BF03018800744E02080201880004018A0080B586B000AF7860164B1B681846FFF7B5FE03463B613B691A687B68EB
:401940009A421AD97B685B09FB60FB685B017A68D31A012202FA03F3BB603B695A68FB689B0013441A68BB681340002B02D0074B7B6104E0064B7B6101E0064B7B617B6957
:4019800018461837BD4680BD744E0208010188000001880004018A0080B483B000AF0346FB80B7F90630002B0BDB0949B7F906305B09FA8802F01F02012000FA02F241F882
:4019C000232000BF0C37BD465DF8047B704700BF00E100E080B582B000AF78600E4B1B6893F831301A467B689A4204D840F2C3110A4800F02FFC084B1B681A6A064B1B6842
:401A0000B3F8B03019467B6803FB01F3134418460837BD4680BD00BF40790208DC71081080B582B000AF78600C4B1B6893F832301A467B689A4204D840F2DF11084800F0BA
:401A400009FC064B1B681B6A1A467B6880335B01134418460837BD4680BD00BF40790208DC71081080B584B000AFF860B9607A607B681B0C1B04002B04D04FF4FF710C4809
:401A800000F0E8FBBB681B0C1B04002B04D040F2FF11074800F0DEFB7B681A04BB689BB21A43FB689A6000BF1037BD4680BD00BFDC71081080B483B000AF78607B68DB68E8
:401AC00018460C37BD465DF8047B704780B483B000AF78607B681B6818460C37BD465DF8047B704780B584B000AFF860B9607A607B681B0C1B04002B04D04FF426710D487A
:401B000000F0A8FBBB681B0C1B04002B04D040F29921084800F09EFB7B681A04BB689BB21A43FB681A60FB681B6800BF1037BD4680BD00BFDC71081080B582B000AF7860FC
:401B400039603B681B0C1B04002B04D040F2BB21054800F07FFB3B689AB27B689A6000BF0837BD4680BD00BFDC71081080B483B000AF786039607B683A68DA6000BF0C37A9
:401B8000BD465DF8047B704780B483B000AF7860084B1B68D3F8B4207B6813441B6803F00043DB0FDBB218460C37BD465DF8047B704700BF4079020880B483B000AF78602B
:401BC0007B681B0C18460C37BD465DF8047B704780B483B000AF78607B689BB218460C37BD465DF8047B704780B582B000AF786039603B68002B04D140F2B631054800F0DF
:401C000029FB39687868FFF7FFFC034618460837BD4680BDDC71081080B483B000AF78607B681B6803F00043002B01DA002300E0034B18460C37BD465DF8047B704700BFB4
:401C400001008A0080B483B000AF7860064B1B68002B02D1044A7B68136000BF0C37BD465DF8047B704700BF804E0208B0B590B002AF78607B68002B03D152212F4800F064
:401C8000E9FA7B689B69072B03D956212B4800F0E1FA7B68DB6A002B03D15821274800F0D9FA7B681B6B002B03D15921234800F0D1FA7B6807F11C0403F114050FCD0FC406
:401CC0002B6823607B6807F108041D460FCD0FC42B6823601A4B1B68B3F936309AB2FB699BB213449BB21BB23B863B6A7B63B86A7B68D96A7B689A6AFC6A07F130030093C0
:401D0000234600F01FF87869BA690023009313460022002100F016F87B681A6B07F130031146184600F00EFAB7F930301846FFF733FE00BF3837BD46B0BD00BF1C72081007
:401D40004079020880B586B000AFF860B9607A603B60254B1B68002B03D1B521234800F079FA214B1A68FB682C2101FB03F313447B613B68DAB27B691A603B681B0ADAB266
:401D80007B695A603B681A0C7B699A607B691B681846FFF71FFE02467B691A617B695B681846FFF73DFE02467B695A617B6958697B6999687B699B681A46FFF753FE7B6946
:401DC0007A68DA617B69BA681A627B6900229A613B6A002B04D03B6AB3F900207B699A8100BF1837BD4680BD804E02081C72081080B58AB000AFF860B9607A603B607B687C
:401E0000002B03D1FD21344800F024FA334B1B68002B03D1FE21304800F01CFA2F4B1A68FB682C2101FB03F313443B622B4B1A68BB682C2101FB03F31344FB61FB695B6898
:401E4000012202FA03F3BB61BB691B04BB613B6A5B68012202FA03F37B613B6A1B69002B32D0FB699B69002B2BD13B6A1B691846FFF7D2FE0346002B20D17B681B689AB230
:401E80007B681A607B681A68BB691A437B681A603B6A1B697A6811461846FFF767FEFB6901229A61FB693A685A623B6A1B6979691846FFF741FE00237B6207E0084B7B626E
:401EC00004E0074B7B6201E0064B7B627B6A18462837BD4680BD00BF1C720810804E020807028A0004028A0080B586B000AFF860B9607A60174B1B68002B04D14FF4AF71D1
:401F0000154800F0A7F9134B1A68FB682C2101FB03F313443B613B691B6A002B04D14FF4B1710D4800F096F93B69DA697B689A4209D93B691A6A7B689B001344BA681A60BC
:401F400000237B6101E0054B7B617B6918461837BD4680BD804E02081C7208100A028A0080B584B000AF78600B4B1B68002B04D140F2B111094800F06DF9074B1A687B6855
:401F80002C2101FB03F31344FB60F86800F008F800BF1037BD4680BD804E02081C72081090B589B000AF78600023FB600023FB617B68002B04D140F2D1114C4800F04AF95C
:401FC0007B681B69002B04D14FF4E971474800F041F97B685B69002B04D140F2D311434800F038F97B681B6A002B04D14FF4EA713E4800F02FF97B685B691846FFF75AFDC5
:40200000B861B869FFF7D8FD0346002B3ED07B685C69B869FFF7D0FD03461A4600212046FFF760FD7B681B691846FFF7ADFD0346002B2BD07B681B6907F10C021146184614
:40204000FFF7D2FD0346002B1AD1FB681B681B0CFB61FB681B68DBB27B617B68DA697B699A420DD97B681A6A7B699B0013441B683B613B69002B03D0FA683B69104698477F
:402080007B681B69F9691846FFF782FAB869FFF79FFD0346002B1FD07B685C69B869FFF797FD0346002219462046FFF71BFD7B685B6A002B06D07B685B6A98477B680022AB
:4020C0005A6206E07B689B6A002B02D07B689B6A98477B6800229A617B685B691846FFF7F5FC00BF2437BD4690BD00BF1C72081080B483B000AF03463960FB80B7F906307E
:40210000002B0ADB0D49B7F906303A68D2B25201D2B20B4483F800230AE00949FB8803F00F03043B3A68D2B25201D2B20B441A7600BF0C37BD465DF8047B704700E100E039
:4021400000ED00E080B584B000AF786039600023FB607B68002B1DD07B685B68072B03D93221104800F076F87B68B3F900207B685B6819461046FFF7BBFF0B4B9B680B4A6B
:40218000934209D17B68B3F900303968184600F011F801E0064BFB60FB6818461037BD4680BD00BF5C72081000ED00E0004002080100560080B584B000AF03463960FB805C
:4021C000134B9B68134A934216D13B68002B04D140F23711104800F03DF8B7F9063010330C4A52F82330FB60B7F90630103309493A6841F8232006E0B7F906301033074A5B
:4022000052F82330FB60FB6818461037BD4680BD00ED00E0004002085C7208100000081080B582B000AF0346FB80FB88054A127802FB03F3184600F0B3F800BF0837BD4626
:4022400080BD00BF1443020880B483B000AF786001BEFEE780B582B000AF7860396018227968044804F02AFA034A3B6813600020FFF7EAFF184C0208304C020880B584B0AA
:4022800000AF78607B681B68414A13607B685B683F4A53607B689B683D4A93607B68DB683B4AD3607B681B69394A13617B685B69374A53617B689B69354A93617B68DB6958
:4022C000334AD361334B9B6A314A1362314BDB6A2F4A53622F4B5B6A2D4A93622D4B5B6B2B4AD3622B4B9B6B294A1363F1EE103AFB60FB6803F09003002B43D07B681B6AC0
:40230000234A53637B685B6A214A93637B689B6A1F4AD3637B68DB6A1D4A13647B681B6B1B4A53647B685B6B194A93647B689B6B174AD3647B68DB6B154A13657B681B6C71
:40234000134A53657B685B6C114A93657B689B6C0F4AD3657B68DB6C0D4A13667B681B6D0B4A53667B685B6D094A93667B689B6D074AD3667B68DB6D054A13677B681B6E91
:40238000034A536700F008F800BF1037BD4680BD344C020800ED00E080B400AFFEE700BF0230800803D001300238FCD100BF00BF7047EFF3108072B6704780F310887047F5
:4023C00080B400AF4FF0B0535B78DBB2002B04D04FF0B0535B78DBB200E021231846BD465DF8047B704700BF80B483B000AF7860044A7B68136000BF0C37BD465DF8047B7D
:40240000704700BF4079020880B586B000AF786039607B68002B03D13A216A48FFF71AFF3B68002B03D13B216648FFF713FF7B68002B02D03B68002B02D1634B7B6148E1F2
:402440003B681A68614B1340002B03D04A215D48FFF700FF3B685A685D4B1340002B03D04B215848FFF7F6FE3B689B6803F0FC23002B03D04C215348FFF7ECFE3B68DB685D
:4024800003F0FC23002B03D04D214E48FFF7E2FE3B681B7D032B03D94E214A48FFF7DAFE3B689B69B3F5803F03D34F214548FFF7D1FE3B68DB6D072B03D950214148FFF78F
:4024C000C9FE3B681B6EB3F5803F03D351213D48FFF7C0FE3B685B6EB3F5803F03D352213848FFF7B7FE3B685B6843F000427B685A603B689A687B681A613B68DA687B6877
:402500005A613B681A697B689A613B681B7D9A077B68DA613B689A697B681A623B681B6803F46063B3F5606F0CBF01230023BB743B685B6803F00403002B14BF01230023A0
:402540007B740023FB7464E0FB7C3A6806339B0013445A681F4B1340002B03D063211948FFF778FEFA7CFB7C396806339B000B4459687B68203243F822104FF48053FB60FF
:40258000FB7C3A6806339B0013445B6803F00123002B0CBF01230023FB72FB7A002B1DD0BB7C002B1AD07B7C002B17D0FA7CFB68D90F0B445B105B4219B2074B23F81210FF
:4025C00011E000BF10740810010006000811DF0001FE302088CA887E44790208FB7C3F4A002122F81310FB7CFA6842F2107101FB02F23968496F11443A68526F520091FB57
:40260000F2F212B21146364A42F82310FB7C0133FB74FB7C0F2B97D93B68DA6D7B68C3F818223B68DA6D7B68C3F810223B681A6E7B68C3F828223B681A6E7B68C3F82022D9
:402640003B685A6E7B68C3F838223B685A6E7B68C3F830223B6893F87030002B23D03B689B6EB3F1804F03D382211E48FFF7F2FD3B68DB6E23F44F0323F0FF03002B03D065
:4026800083211848FFF7E6FD7B686FF04042C3F804233B689A6E7B68C3F800233B68DA6E7B68C3F844237B68D3F8003F3F2B04D07B68D3F8003F002B03D17B680B22C3F859
:4026C000002F3B681B6843F400127B681A6000237B617B6918461837BD4680BD44790208647902081074081080B584B000AF78600B46FB707B68002B03D1B5212848FFF7FB
:40270000A9FD7B68002B02D1264BFB6043E07B6800221A607B6800225A607B684FF003121A617B684FF003125A617B6800229A617B680022DA617B6800221A620023FB72F0
:4027400008E0FA7A7B682032002143F82210FB7A0133FB72FB7A0F2BF3D97B680022C3F818227B680022C3F828227B680022C3F83822FB78002B0CD07B686FF04042C3F892
:4027800004237B680022C3F840237B680022C3F844230023FB60FB6818461037BD4680BD107408100100060080B582B000AF78607B681B68002B0EDB00BF7B68D3F8A03298
:4027C000002BFADB7B681B6843F000427B681A600220FFF725FD00BF0837BD4680BD00BF80B584B000AF786039603B680F2B04D940F27B210A48FFF72DFD0023FB603B68C6
:402800000F2B06D87B683A68603253F822309BB2FB60FB681BB218461037BD4680BD00BF1074081080B483B000AF78607B68D3F8403318460C37BD465DF8047B704700BFB7
:4028400080B483B000AF78607B68D3F80833C3F3080318460C37BD465DF8047B704700BF80B483B000AF786039607B683A68C3F8402200BF0C37BD465DF8047B704700BF5A
:4028800080B483B000AF78607B68D3F80832C3F3080318460C37BD465DF8047B704700BF80B483B000AF78607B681B6803F40063002B01D0802300E0402318460C37BD465F
:4028C0005DF8047B704700BF80B483B000AF78607B68D3F8003303F00F03072B94BF01230023DBB218460C37BD465DF8047B704780B483B000AF78607B68D3F8003203F071
:402900000F03072B94BF01230023DBB218460C37BD465DF8047B704790B589B000AFF860B9607A60F868FFF7CFFF0346002B15D0BB68BB610023FB610BE0BA69FB69D418EC
:40294000F868FFF76FFF0346DBB22370FB690133FB61FA697B689A42EFD315E0BB687B610023FB610CE0FB695B007A69D418F868FFF758FF03469BB22380FB690133FB618B
:40298000FA697B689A42EED300BF2437BD4690BD80B586B000AFF860B9607A60F868FFF74FFF78617A697B689A4201D97B687B617A69B968F868FFF7AFFF7B691846183714
:4029C000BD4680BD90B585B000AF786039600023FB607868FFF764FF04467868FFF750FF03469C4205D039687868FFF739FF0123FB60FB6818461437BD4690BD80B588B0E4
:402A000000AFF860B9607A60F868FFF771FF0346002B14D0BB68BB610023FB610AE0BA69FB6913441B781946F868FFF719FFFB690133FB61FA697B689A42F0D314E0BB68A8
:402A40007B610023FB610BE0FB695B007A6913441B881946F868FFF703FFFB690133FB61FA697B689A42EFD300BF2037BD4680BD90B587B000AFF860B9607A60F868FFF7C3
:402A80000FFF0446F868FFF7FBFE0346E31A7B617A697B689A4201D97B687B617A69B968F868FFF7ABFF7B6918461C37BD4690BD80B483B000AF78607B68D3F840331846BC
:402AC0000C37BD465DF8047B704700BF80B582B000AF78603960786800F0F6F802463B689A4204D84FF420710848FFF7B3FB7B68D3F8043323F0FF023B68DBB21A437B682D
:402B0000C3F8042300BF0837BD4680BD4C74081080B483B000AF78607B68D3F80833C3F3080318460C37BD465DF8047B704700BF80B483B000AF786039607B683A68C3F850
:402B4000402200BF0C37BD465DF8047B704700BF80B483B000AF78607B68D3F80832C3F3080318460C37BD465DF8047B704700BF80B483B000AF78607B68D3F8003E1846E7
:402B80000C37BD465DF8047B704700BF80B582B000AF786039603B6823F4366323F00D03002B04D040F29A310548FFF753FB7B683A68C3F8C82F00BF0837BD4680BD00BFC7
:402BC0004C74081080B483B000AF78607B68D3F8CC3F18460C37BD465DF8047B704700BF80B582B000AF786039603B6823F4366323F00D03002B04D040F2E5310648FFF7E0
:402C000029FB7B683A68C3F8C02F7B68D3F8C03F00BF0837BD4680BD4C74081080B582B000AF786039603B6823F4EE6323F00303002B04D040F22A410548FFF70BFB7B680B
:402C40003A68C3F8882F00BF0837BD4680BD00BF4C74081080B483B000AF78607B68D3F8883F18460C37BD465DF8047B704700BF80B483B000AF78607B68D3F88C3F184655
:402C80000C37BD465DF8047B704700BF80B582B000AF786039603B6823F4EE6323F00303002B04D040F277410648FFF7D3FA7B683A68C3F8802F7B68D3F8803F00BF083785
:402CC000BD4680BD4C74081080B483B000AF78607B681B6803F40063002B01D0802300E0402318460C37BD465DF8047B704700BF80B483B000AF78607B68D3F8003303F07C
:402D00000F03072B94BF01230023DBB218460C37BD465DF8047B704780B483B000AF78607B68D3F8003203F00F03072B94BF01230023DBB218460C37BD465DF8047B70479E
:402D400080B584B000AFF860B9607A60BB68002B02D07B68002B04D14FF499610648FFF779FA7A68B968F868FFF712FE034618461037BD4680BD00BF9074081080B584B01E
:402D800000AFF860B9607A60BB68002B02D07B68002B04D140F273510648FFF75BFA7A68B968F868FFF764FE034618461037BD4680BD00BF9074081090B587B000AFF86040
:402DC000B9607A60FB68002B02D0BB68002B01D18A4B58E2BB681B78002B0BD0BB681B78012B07D0BB681B78022B03D03F218448FFF730FABB685B7B022B1BD0BB685B7BD0
:402E0000032B17D0BB685B7B042B13D0BB685B7B052B0FD0BB685B7B062B0BD0BB685B7B072B07D0BB685B7B082B03D040217448FFF710FABB689B7B002B0BD0BB689B7BCF
:402E4000022B07D0BB689B7B032B03D041216C48FFF700FABB6893F82130002B08D0BB6893F82130012B03D042216548FFF7F2F9BB6893F82830002B08D0BB6893F828300E
:402E8000012B03D043215E48FFF7E4F9BB681B78002B03D0BB681B78012B0ED1BB685B68072B03D9BB685B68102B01D9012300E0002303F00103DBB227E0BB689B7F002BB8
:402EC00022D0BB685B68012B19D0BB685B68022B15D0BB685B68032B11D0BB685B68042B0DD0BB685B68052B09D0BB685B68062B05D0BB685B68072B01D0012300E000231B
:402F000003F00103DBB200E00023002B03D045213B48FFF79FF9BB689B68042B03D9BB689B68092B03D946213548FFF793F9BB685B69FF2B03D947213148FFF78BF9BB685D
:402F40009B69FF2B03D948212D48FFF783F9BB689B7C002B12D0BB681B78002B07D1BB689B68092B03D1BB689B7B002B01D0012300E0002303F00103DBB200E00023002BBB
:402F800003D04A211E48FFF765F9BB685B6B23F4366323F00D03002B03D04C211848FFF759F9BB68DB6B23F4EE6323F00303002B03D04D211248FFF74DF9BB681B78022B7B
:402FC00009D1BB689B7F83F00103DBB2002B02D000237B6103E0BB685B68013B7B61BB681B7F002B02D04FF4803200E00022BB689B68082B06D84FF4006304E00160AA005C
:40300000D074081000231A437B6903F00F03134343F00072FB681A60BB681C6BF868FFF753FE03469C4203D362219948FFF712F9BB689C6BF868FFF747FE03469C4203D37E
:4030400063219348FFF706F9BB685C6AF868FFF73BFE03469C4203D364218D48FFF7FAF8BB681B781B0603F04072FB681A64BB685B7F002B01D0402200E00022BB689B7C51
:40308000002B02D04FF4806300E000231A43BB681B7C002B02D04FF4807300E000231A43BB685B7C002B02D04FF4007300E000231A43BB68DB6A013B1B0403F470231A4389
:4030C000BB685B7B013B03F007031A43BB689B7B1B0103F030031A43FB689A64BB681B7B002B02D04FF4807200E00022BB68DB7B002B03D1BB681B78022B01D1012300E0EA
:403100000023002B02D04FF4007300E000231A43BB689B68013B03F00F031A43FB68C3F80023BB685B69DAB2BB689B691B0403F47F031A43FB68C3F81023BB68DA6AFB68AA
:40314000D3F8003303F00F0303339A4203D3BB68DB6A102B03D97A214D48FFF77BF8BB68DB7F002B05D0BB681B78012B01D1012300E00023002B02D04FF4807200E00022C0
:40318000BB685B7B013B03F007031A43BB689B7B1B0103F030031A43FB685A64BB681B7B002B02D04FF4807200E00022BB689B68013B03F00F031A43BB681B78012B02D121
:4031C0004FF4803300E000231A43FB68C3F80022BB681B6BDAB2FB68C3F80423BB6893F82030002B02D04FF0007200E00022BB6893F82130012B02D14FF0807300E00023DE
:403200001A43BB6893F82830012B02D14FF4803300E000231A43BB685B6ADBB21A43FB681A65BB689B6BDAB2FB68C3F80422BB685A6B40F66D331340FA68C2F8C83FBB68D2
:40324000DA6B40F273731340FA68C2F8883F7B68002B17D07B6800225A607B6800221A607B6800229A607B680022DA607B6800221A627B680022DA627B6800221A637B6823
:40328000044A5A63002318461C37BD4690BD00BFD0740810EFCDAB0080B485B000AF786039603B681B69BB603B685A69BB689A4205D83B685B69BA68D31AFB6007E03B68F5
:4032C000DA693B685B69D21ABB681344FB60FB6818461437BD465DF8047B704780B584B000AF786039607868FFF742FC034603F00803002B4BD07868FFF764FC034603F429
:403300004873FB60FB68002B11D03B685A68FB681A433B685A60F9687868FFF761FC3B681B6B002B03D03B681B6B102098477868FFF748FC034603F40063002B0AD03B682E
:403340005B6843F400623B685A604FF400617868FFF746FC7868FFF735FC034603F00103002B14D03B68DB69002B04D03968786800F062F807E03B689B68002B03D03968A5
:40338000786800F0CBF801217868FFF729FC7868FFF7EEFB034603F00403002B48D07868FFF766FC034603F4A063BB60BB68002B11D03B681A68BB681A433B681A60B96870
:4033C0007868FFF763FC3B681B6B002B03D03B681B6B202098477868FFF74AFC034603F00103002B07D03968786800F015F901217868FFF74BFC7868FFF73AFC034603F4C1
:403400000073002B14D000217868FFF707FC3B681B6823F001023B681A603B680022DA623B681B6B002B03D03B681B6B0220984700BF1037BD4680BD80B586B000AF78602D
:4034400039607868FFF740FC03465B087B613B6899693B68DB691A467868FFF771FC38613B681A6A3B691A443B681A623B68DA693B69D21A3B68DA613B68DB69002B2AD1A8
:403480003B689B68002B13D03B68DA687B699A4202D37B69013B02E03B68DB68013B19467868FFF713FB01217868FFF76FFB03E000217868FFF76AFB3B685B6823F001025A
:4034C0003B685A603B681B6B002B23D03B681B6B042098471EE03B689B69FB607868FFF707FC0346002B01D03B6901E03B695B00FA681344FB603B68FA689A613B68DA6960
:403500007B699A4206D23B68DB69013B19467868FFF7DCFA00BF1837BD4680BD90B589B000AF786039607868FFF7CEFB03465B087B617868FFF7ECFAF8613B681B69BB615A
:4035400047E0BB690133BB613B68DA68BB699A4201D10023BB613B685A69BB699A421BD13B681B6B002B03D03B681B6B082098473B685A69BB699A420ED100217868FFF7D5
:4035800005FBBB69002B02D0BB69013B02E03B68DB68013BBB611FE07868FFF789FA38617868FFF7A5FB0346002B07D03B689A68BB6913443A69D2B21A7007E03B689A685B
:4035C000BB695B0013443A6992B21A80FB69013BFB61FB69002BB4D13B68BA691A613B68DC6839687868FFF757FE0346E31AFB61FA697B699A420BD2FB69002B02D0FB6909
:40360000013B00E00023FB60F9687868FFF75EFA00BF2437BD4690BD80B588B000AF786039607868FFF750FBF8617868FFF774FB0346FB763B689B6A012B23D93B685B6AB9
:403640007B613B689A6A3B68DA623B68596A3B689B6A013B1A467868FFF790FB38613B689A6A3B69D21A3B689A62FB7E002B01D03B6901E03B695B007A6913447B613B68BC
:403680007A695A627868FFF763FA0246FB699A423CD03B689B6A012B38D13B6800229A62FB7E002B03D03B685B6A1B7802E03B685B6A1B88FB60FEF77CFEB860F968786884
:4036C000FFF736FA4FF400717868FFF7DFFAB868FEF773FE7868FFF7BDFA034623F4007323F0010343F4007319467868FFF796FA3B681B6843F002023B681A603B681B6B32
:40370000002B03D03B681B6B0120984700BF2037BD4680BD80B584B000AFF860B9607A60244B1B6893F833301A46BB689A4204D840F2E1512048FEF78DFD1E4B1B68B3F8AC
:403740005A301A46FB681A441A4B1B68B3F85C301946BB6803FB01F313441A467B68D360144B1B68B3F85A301A46FB681A44114B1B68B3F85C301946BB6803FB01F3134425
:4037800019460C4B1B68B3F85A301A46FB681A44084B1B68B3F85C301846BB6803FB00F313449B681B0C1B048B6000BF1037BD4680BD00BF407902081075081080B584B0A2
:4037C00000AF786039609C4BFB607B68002B00F0EC813B68002B00F0E8813B681B78002B0FD03B681B78012B0BD03B681B78022B07D03B681B78032B03D057218F48FEF7A3
