:020000041008E2
:4000000000780408EB0208100D0000005103081051030810510308105103081000000000000000000000000000000000616508104D0308100000000051670810B96708102C
:400040004D0308104D0308104D0308104D0308104D0308104D0308104D0308104D0308104D0308104D0308104D0308104D0308104D0308104D0308104D0308104D03081000
:400080004D0308104D0308104D0308104D0308104D0308104D0308104D0308104D0308104D0308104D0308104D0308104D0308104D0308104D0308104D0308104D030810C0
:4000C0004D0308104D0308104D0308104D0308104D0308104D0308104D0308104D0308104D0308104D0308104D0308104D0308104D0308104D0308104D0308104D03081080
:400100004D0308104D0308104D0308104D0308104D0308104D0308104D0308104D0308104D0308104D0308104D0308104D0308104D0308104D0308104D0308104D0308103F
:400140004D0308104D0308104D0308104D0308104D0308104D0308104D0308104D0308104D0308104D0308104D0308104D0308104D0308104D0308104D0308104D030810FF
:400180004D0308104D0308104D0308104D0308104D0308104D0308104D0308104D0308104D0308104D0308104D0308104D0308104D0308104D0308104D0308104D030810BF
:4001C0004D0308104D0308104D0308104D0308104D0308104D0308104D0308104D0308104D0308104D0308104D0308104D0308104D0308104D0308104D0308104D0308107F
:400200004D0308104D0308104D0308104D0308104D0308104D0308104D0308104D0308104D0308104D0308104D0308104D0308104D0308104D0308104D0308104D0308103E
:400240004D0308104D0308104D0308104D0308104D0308104D0308104D0308104D0308104D0308104D0308104D0308104D0308104D0308104D0308104D0308104D030810FE
:400280004D0308104D0308104D03081010B5054C237833B9044B13B10448AFF300800123237010BD444C0208000000003C770810084B10B51BB108490848AFF30080084808
:4002C000036803B910BD074B002BFBD0BDE81040184700BF00000000484C02083C77081028430208000000007047FFF7FDFF72B6104C114DAC4209DA21686268A368043BD8
:40030000A2BFC858D050FAE70C34F3E70B490C4A00209142BCBF41F8040BFAE709480A490860BFF34F8F00F03DFA00F093F800F01DF8FEE74077081058770810444C020868
:40034000147902080040020808ED00E0FEE7FEE700B504207146084202D0EFF3098001E0EFF30880043001F053FCFEE780B582B002AF62B606F08EFD00F076FA00F05EFBE8
:400380000023019300230093224B64222249234804F072FF0023019300230093204B642220491E4804F068FF00230193002300931D4B64221D49194804F05EFF00230193F0
:4003C000052300931A4B64221A491B4804F054FF0023019305230093184B64221849164804F04AFF0023019305230093154B64221549114804F040FF00230193052300933F
:40040000124B642212490C4804F036FF05F0ECF8FEE700BF8C4202086C6F08103D09081098420208786F0810A4420208846F0810B0420208906F08104D0A0810C0420208EF
:40044000A06F0810D0420208B06F0810E0420208C06F081080B500AF0D4801F091FC00F01FF800F025F800220021042000F020FE084801F0B1F8084B1B6893F85130002B58
:4004800002D0064801F0BCF800F01AFC00BF80BD80720810604C0208DC770208D06F081080B400AF00BFBD465DF8047B704700BF80B491B000AFAE4BD3F8803303F00F0372
:4004C0007B63AB4A7B6BD03352F8233003F007033B633B6B042B36D801A252F823F000BFF5040810FB0408100105081047050810070508109F4BFB6328E09F4BFB6325E0FB
:400500009D4BFB6322E09A4A7B6BC03352F8233003F01F03FB62FB6A112B07D0132B09D0102B0BD14FF4FA43FB630BE04FF40043FB6307E04FF40043FB6303E04FF4FA4326
:40054000FB6300BF02E08C4BFB6300BF7B6B002B60D1874BD3F8903503F00103002B14BF0123002387F82B30814BD3F8883503F040531B0F032B0CBF0123002387F82A30B1
:400580007B4BD3F8883503F040531B0F002B07D0774BD3F8883503F040531B0F012B01D1012300E0002387F8293097F8293003F0010387F8293097F82930002B03D097F818
:4005C0002B30002B03D197F82A30002B1FD0684BD3F88035C3F311037B62654BD3F88435C3F30C033B62624BD3F8803503F080731B0E0133FB61FA6B3B6AB2FBF3F37A6AE1
:4006000002FB03F2FB69B2FBF3F3BB6360E0FB6BBB635DE07B6B012B58D1554BD3F8403603F00103002B14BF01230023FB76504BD3F8003603F040531B0F032B0CBF012380
:400640000023BB764A4BD3F8003603F040531B0F002B07D0464BD3F8003603F040531B0F012B01D1012300E000237B767B7E03F001037B767B7E002B02D0FB7E002B02D138
:40068000BB7E002B1FD03A4BD3F8003603F07F037B61374BD3F8003603F4F8531B0A3B61334BD3F8003603F4F8131B0CFB60FB6B7A6902FB03F23B69B2FBF3F2FB68B2FB06
:4006C000F3F3BB6304E0FB6BBB6301E0FB6BBB63274BD3F8803303F030031B09BA6B22FA03F3BB63254ABB6B1360254BD3F8903003F47F431B0A0133BB60214B1B6903F087
:400700007F431B0E01337B60BA6B7B68B2FBF3F31C4A1360BA6BBB68B2FBF3F3BB631A4ABB6B1360184B1B68184A1360174B1B6803F5742303F23F23154AA2FB03239B0C06
:40074000DAB2144B1A70114B1B6803F2E733124AA2FB03239B09114A1360104B1B68DB030F4A136000BF4437BD465DF8047B70470000264000127A0000366E01044302084D
:400780000000214008430208004302080C43020883DE1B4314430208D34D6210104302081843020880B582B000AF01F0CEFA7860094A094BD3F8883043F47003C2F888307C
:4007C000BFF34F8FBFF36F8F786801F0C2FA00BF0837BD4680BD00BF00ED00E080B500AF012001F087F800BF80BD00BF80B483B000AF0346FB80B7F90630002B0BDB09490F
:40080000B7F906305B09FA8802F01F02012000FA02F241F8232000BF0C37BD465DF8047B704700BF00E100E080B483B000AF78607B681B6843F000427B681A6000BF0C3716
:40084000BD465DF8047B704780B500AF0249034802F0B0FB00BF80BDC87802080000644080B400AF72B6FEE780B584B000AF174A1749184802F0DCF8F860FB68002B01D043
:40088000FFF7EEFF144A1549124802F0F3F9B860BB68124A934201D9FFF7E2FF1049114801F01AF978607B68002B01D0FFF7D8FF0C4BB3F900301846FFF798FF0548FFF7A9
:4008C000B3FF00BF1037BD4680BD00BFC8780208287708100000644015287F00801A060049080810A470081080B584B000AFF860B9607A60BB68072B04D940F227310E4836
:4009000001F072F97B68012B04D94FF44A710A4801F06AF97B68002B05D10122BB689A40FB685A6004E00122BB689A40FB689A6000BF1037BD4680BD0470081080B58AB008
:4009400000AF78607B683B623B6A9B68FB610023FB8404F03FFF0346FB6007F10C03F969184604F0C7FD04F035FFB861FB8C83F00103FB843B6A18683B6A5B68B7F9262034
:400980001946FFF7B1FF04F025FF78617A69BB69D31A3B61E1E700BF80B584B000AFF860B9607A60BB68072B04D940F227310E4801F01AF97B68012B04D94FF44A710A4875
:4009C00001F012F97B68002B05D10122BB689A40FB685A6004E00122BB689A40FB689A6000BF1037BD4680BD4470081080B582B000AF78600D4B1A680D4913469B001344FE
:400A00009B000B4404331A687B689A4204D84FF47671084801F0E8F87968074801F0D2FB034618460837BD4680BD00BFD4770208D47608108470081000001D4180B500AF55
:400A400006F028F906F074F900BF80BD80B586B000AF78607B687B617B699B683B610023FB8104F0B7FE0346BB6007F108033969184604F03FFD7B6918687B695B680122BF
:400A80001946FFF789FF7B691B7B184606F02CFA06F038F97B6918687B695B6800221946FFF77AFF0020FFF7A1FF0346FB81DCE780B500AF054B01221A700020FFF796FF79
:400AC00003461A46024B1A8000BF80BDE24D0208E04D020880B483B000AF0346FB80B7F90630002B0BDB0949B7F906305B09FA8802F01F02012000FA02F241F8232000BFAE
:400B00000C37BD465DF8047B704700BF00E100E080B400AF084B1B681A68074B1B68D3F8843013441B6803F07F431B0EDBB21846BD465DF8047B7047DC77020880B400AF64
:400B4000084B1B681A68074B1B68D3F8843013441B6803F47F431B0ADBB21846BD465DF8047B7047DC77020880B582B000AF78600E4B1B6893F831301A467B689A4204D88A
:400B800040F2C3110A4801F02FF8084B1B681A6A064B1B68B3F8B03019467B6803FB01F3134418460837BD4680BD00BFDC770208BC70081080B483B000AF78607B68DB6830
:400BC00018460C37BD465DF8047B704780B483B000AF7860084B1B68D3F8B4207B6813441B6803F00043DB0FDBB218460C37BD465DF8047B704700BFDC77020880B584B045
:400C000000AFF860B9607A607B68002B04D140F29331074800F0E8FF7B681A46B968F86800F09CF9034618461037BD4680BD00BFBC70081080B584B000AF78601C4A7B6808
:400C400013601B4B1B68002B0BD0194B1B6802221A70174B1B68FF225A70154B1B6800225A80144B1B6893F85030002B1CD0114B1B68B3F938303B810023FB6007F108039A
:400C80000D49184600F028FFB7F908301846FFF721FF084B1B6893F85130002B04D002220649012000F0EAFD00BF1037BD4680BDE44D0208DC770208294602082D430208F0
:400CC00080B500AF0248FFF7B5FF00BF80BD00BF084E020880B485B000AF78607B682E4A93423FD02C4A93420ED8402B40D0402B04D8002B1FD0102B37D042E0802B3AD0AC
:400D0000B3F5807F3AD03CE0244A934219D0234A934206D8B3F1204F10D0214A93421DD02FE0204A934213D01F4A934213D01F4A93420AD025E00023FB6025E00023FB600A
:400D400022E04FF4A403FB601EE0194BFB601BE0184BFB6018E0184BFB6015E04FF4A003FB6011E00C4BFB600EE0144BFB600BE0134BFB6008E0134BFB6005E0064BFB60A9
:400D800002E0114BFB6000BFFB6818461437BD465DF8047B704700BF06005200010000F0090000A0040000F0050000F0030000F00100520002005200030052000100500067
:400DC0000200500005005200FF00520080B582B000AF134B7B600120FFF7C6FE03461846FFF7F4FE034683F00103DBB2002B12D00C4B1B681846FFF76DFF78600A4B1B689C
:400E00005B681A460123936000BF074B1B685B689B68002BF9D17B6818460837BD4680BD02005000E84D0208DC77020880B582B000AF786039603B681B0C1B04002B04D00C
:400E400040F2BB21054800F0CFFE3B689AB27B689A6000BF0837BD4680BD00BFFC70081080B582B000AF786039603B681B0C1B04002B04D040F2D521054800F0B5FE3B68E3
:400E80009AB27B685A6000BF0837BD4680BD00BFFC70081080B483B000AF786039607B683A68DA6000BF0C37BD465DF8047B704780B483B000AF78607B68DB6818460C373D
:400EC000BD465DF8047B704780B483B000AF7860084B1B68D3F8B4207B6813441B6803F00043DB0FDBB218460C37BD465DF8047B704700BFDC77020880B483B000AF78605E
:400F00007B681B6803F00043002B01DA002300E0034B18460C37BD465DF8047B704700BF01008A0080B584B000AF786039607868FFF7CAFF0346002B06D039687868FFF75C
:400F40008FFF0023FB6001E0034BFB60FB6818461037BD4680BD00BF01008A0080B586B000AFF860B9607A60F868FFF7C5FF0346002B0AD17968F868FFF78CFFB968F86838
:400F8000FFF754FF00237B6101E0034B7B617B6918461837BD4680BD01008A0080B584B000AF786039603B68002B03D199210C4800F01AFE7868FFF787FF0346002B08D099
:400FC0007868FFF775FF02463B681A600023FB6001E0044BFB60FB6818461037BD4680BD3C71081001008A0080B582B000AF78600E4B1B6893F831301A467B689A4204D8F0
:4010000040F2C3110A4800F0EFFD084B1B681A6A064B1B68B3F8B03019467B6803FB01F3134418460837BD4680BD00BFDC7702087C71081080B483B000AF78607B68DB6826
:4010400018460C37BD465DF8047B704780B584B000AFF860B9607A607B68002B04D140F29331074800F0C0FD7B681A46B968F868FFF774FF034618461037BD4680BD00BFEF
:401080007C71081080B483B000AF78607B681B6803F00043002B01DA002300E0034B18460C37BD465DF8047B704700BF01008A0080B586B000AFF860B9607A60144B7B6131
:4010C0007B68002B0BD1BB68002B08D1F868FFF78BFF02460F4B1A6000237B6113E07B68002B0ED0BB68002B0BD00B4ABB681360094A7B6853600849F86800F00FF8786187
:4011000001E0034B7B617B6918461837BD4680BD03018A000C4E0208104E020880B584B000AF78603960284BFB60284B1B6893F831301A467B689A4202D8234BFB603EE060
:401140003B68002B39D03B681B6803F01F03002B30D17868FFF748FF02461D4B1A603B6858683B681B68DB081A46002105F0D7FE174B1B6800211846FFF7D4FE144B1B6825
:401180003A6800211846FFF761FF0346002B0ED10F4B1B6800211846FFF7C4FE0346002B02D10023FB600AE00A4BFB6007E0094BFB6004E0044BFB6001E0034BFB60FB68E1
:4011C00018461037BD4680BD03018A00DC7702080C4E020801018A0080B588B000AF78600B46FB700023FB612F4BBB612F4B1B681846FFF71FFF03467B617B691A687B688D
:401200009A4249D97B685B093B613B695B017A68D31A012202FA03F3FB60FB7883F00103DBB2002B02D000F090FDF8611F4B1B681846FFF727FF0346002B23D17B695A68CF
:401240003B699B0013441A68FB681340002B11D07B695A683B699B0013447A6951683A6992000A441168FA68D2430A401A600023BB6101E00E4BBB610C4B1B680021184697
:40128000FFF750FEFB7883F00103DBB2002B05D0F86900F05EFD01E0064BBB61BB6918462037BD4680BD00BF030188000C4E02080201880004018A0080B586B000AF7860A5
:4012C000164B1B681846FFF7B5FE03463B613B691A687B689A421AD97B685B09FB60FB685B017A68D31A012202FA03F3BB603B695A68FB689B0013441A68BB681340002B08
:4013000002D0074B7B6104E0064B7B6101E0064B7B617B6918461837BD4680BD0C4E0208010188000001880004018A0080B483B000AF0346FB80B7F90630002B0BDB094994
:40134000B7F906305B09FA8802F01F02012000FA02F241F8232000BF0C37BD465DF8047B704700BF00E100E080B582B000AF78600E4B1B6893F831301A467B689A4204D842
:4013800040F2C3110A4800F02FFC084B1B681A6A064B1B68B3F8B03019467B6803FB01F3134418460837BD4680BD00BFDC770208BC71081080B582B000AF78600C4B1B6870
:4013C00093F832301A467B689A4204D840F2DF11084800F009FC064B1B681B6A1A467B6880335B01134418460837BD4680BD00BFDC770208BC71081080B584B000AFF860EE
:40140000B9607A607B681B0C1B04002B04D04FF4FF710C4800F0E8FBBB681B0C1B04002B04D040F2FF11074800F0DEFB7B681A04BB689BB21A43FB689A6000BF1037BD46C1
:4014400080BD00BFBC71081080B483B000AF78607B68DB6818460C37BD465DF8047B704780B483B000AF78607B681B6818460C37BD465DF8047B704780B584B000AFF860F5
:40148000B9607A607B681B0C1B04002B04D04FF426710D4800F0A8FBBB681B0C1B04002B04D040F29921084800F09EFB7B681A04BB689BB21A43FB681A60FB681B6800BFD2
:4014C0001037BD4680BD00BFBC71081080B582B000AF786039603B681B0C1B04002B04D040F2BB21054800F07FFB3B689AB27B689A6000BF0837BD4680BD00BFBC7108101F
:4015000080B483B000AF786039607B683A68DA6000BF0C37BD465DF8047B704780B483B000AF7860084B1B68D3F8B4207B6813441B6803F00043DB0FDBB218460C37BD4664
:401540005DF8047B704700BFDC77020880B483B000AF78607B681B0C18460C37BD465DF8047B704780B483B000AF78607B689BB218460C37BD465DF8047B704780B582B0E9
:4015800000AF786039603B68002B04D140F2B631054800F029FB39687868FFF7FFFC034618460837BD4680BDBC71081080B483B000AF78607B681B6803F00043002B01DA81
:4015C000002300E0034B18460C37BD465DF8047B704700BF01008A0080B483B000AF7860064B1B68002B02D1044A7B68136000BF0C37BD465DF8047B704700BF184E0208FE
:40160000B0B590B002AF78607B68002B03D152212F4800F0E9FA7B689B69072B03D956212B4800F0E1FA7B68DB6A002B03D15821274800F0D9FA7B681B6B002B03D159217F
:40164000234800F0D1FA7B6807F11C0403F114050FCD0FC42B6823607B6807F108041D460FCD0FC42B6823601A4B1B68B3F936309AB2FB699BB213449BB21BB23B863B6A9A
:401680007B63B86A7B68D96A7B689A6AFC6A07F130030093234600F01FF87869BA690023009313460022002100F016F87B681A6B07F130031146184600F00EFAB7F93030E5
:4016C0001846FFF733FE00BF3837BD46B0BD00BFFC710810DC77020880B586B000AFF860B9607A603B60254B1B68002B03D1B521234800F079FA214B1A68FB682C2101FBF6
:4017000003F313447B613B68DAB27B691A603B681B0ADAB27B695A603B681A0C7B699A607B691B681846FFF71FFE02467B691A617B695B681846FFF73DFE02467B695A61BE
:401740007B6958697B6999687B699B681A46FFF753FE7B697A68DA617B69BA681A627B6900229A613B6A002B04D03B6AB3F900207B699A8100BF1837BD4680BD184E0208FB
:40178000FC71081080B58AB000AFF860B9607A603B607B68002B03D1FD21344800F024FA334B1B68002B03D1FE21304800F01CFA2F4B1A68FB682C2101FB03F313443B62E7
:4017C0002B4B1A68BB682C2101FB03F31344FB61FB695B68012202FA03F3BB61BB691B04BB613B6A5B68012202FA03F37B613B6A1B69002B32D0FB699B69002B2BD13B6A42
:401800001B691846FFF7D2FE0346002B20D17B681B689AB27B681A607B681A68BB691A437B681A603B6A1B697A6811461846FFF767FEFB6901229A61FB693A685A623B6A45
:401840001B6979691846FFF741FE00237B6207E0084B7B6204E0074B7B6201E0064B7B627B6A18462837BD4680BD00BFFC710810184E020807028A0004028A0080B586B012
:4018800000AFF860B9607A60174B1B68002B04D14FF4AF71154800F0A7F9134B1A68FB682C2101FB03F313443B613B691B6A002B04D14FF4B1710D4800F096F93B69DA693B
:4018C0007B689A4209D93B691A6A7B689B001344BA681A6000237B6101E0054B7B617B6918461837BD4680BD184E0208FC7108100A028A0080B584B000AF78600B4B1B687D
:40190000002B04D140F2B111094800F06DF9074B1A687B682C2101FB03F31344FB60F86800F008F800BF1037BD4680BD184E0208FC71081090B589B000AF78600023FB6056
:401940000023FB617B68002B04D140F2D1114C4800F04AF97B681B69002B04D14FF4E971474800F041F97B685B69002B04D140F2D311434800F038F97B681B6A002B04D19C
:401980004FF4EA713E4800F02FF97B685B691846FFF75AFDB861B869FFF7D8FD0346002B3ED07B685C69B869FFF7D0FD03461A4600212046FFF760FD7B681B691846FFF748
:4019C000ADFD0346002B2BD07B681B6907F10C0211461846FFF7D2FD0346002B1AD1FB681B681B0CFB61FB681B68DBB27B617B68DA697B699A420DD97B681A6A7B699B001E
:401A000013441B683B613B69002B03D0FA683B69104698477B681B69F9691846FFF782FAB869FFF79FFD0346002B1FD07B685C69B869FFF797FD0346002219462046FFF72B
:401A40001BFD7B685B6A002B06D07B685B6A98477B6800225A6206E07B689B6A002B02D07B689B6A98477B6800229A617B685B691846FFF7F5FC00BF2437BD4690BD00BFB6
:401A8000FC71081080B483B000AF03463960FB80B7F90630002B0ADB0D49B7F906303A68D2B25201D2B20B4483F800230AE00949FB8803F00F03043B3A68D2B25201D2B212
:401AC0000B441A7600BF0C37BD465DF8047B704700E100E000ED00E080B584B000AF786039600023FB607B68002B1DD07B685B68072B03D93221104800F076F87B68B3F99B
:401B000000207B685B6819461046FFF7BBFF0B4B9B680B4A934209D17B68B3F900303968184600F011F801E0064BFB60FB6818461037BD4680BD00BF3C72081000ED00E03F
:401B4000004002080100560080B584B000AF03463960FB80134B9B68134A934216D13B68002B04D140F23711104800F03DF8B7F9063010330C4A52F82330FB60B7F90630DE
:401B8000103309493A6841F8232006E0B7F906301033074A52F82330FB60FB6818461037BD4680BD00ED00E0004002083C7208100000081080B582B000AF0346FB80FB8880
:401BC000054A127802FB03F3184600F0B5F800BF0837BD4680BD00BF1443020880B483B000AF786001BEFEE780B582B000AF7860396018227968044805F099F9034A3B68C9
:401C000013600020FFF7EAFFB04B0208C84B020880B584B000AF78607B681B68414A13607B685B683F4A53607B689B683D4A93607B68DB683B4AD3607B681B69394A13613E
:401C40007B685B69374A53617B689B69354A93617B68DB69334AD361334B9B6A314A1362314BDB6A2F4A53622F4B5B6A2D4A93622D4B5B6B2B4AD3622B4B9B6B294A1363FC
:401C8000F1EE103AFB60FB6803F09003002B43D07B681B6A234A53637B685B6A214A93637B689B6A1F4AD3637B68DB6A1D4A13647B681B6B1B4A53647B685B6B194A9364D0
:401CC0007B689B6B174AD3647B68DB6B154A13657B681B6C134A53657B685B6C114A93657B689B6C0F4AD3657B68DB6C0D4A13667B681B6D0B4A53667B685B6D094A936602
:401D00007B689B6D074AD3667B68DB6D054A13677B681B6E034A536700F008F800BF1037BD4680BDCC4B020800ED00E080B400AFFEE700BF000000000230800803D001305E
:401D40000238FCD100BF00BF7047EFF3108072B6704780F31088704780B400AF4FF0B0535B78DBB2002B04D04FF0B0535B78DBB200E021231846BD465DF8047B704700BF1F
:401D800080B483B000AF7860044A7B68136000BF0C37BD465DF8047B704700BFDC77020880B586B000AF786039607B68002B03D13A216A48FFF718FF3B68002B03D13B2160
:401DC0006648FFF711FF7B68002B02D03B68002B02D1634B7B6148E13B681A68614B1340002B03D04A215D48FFF7FEFE3B685A685D4B1340002B03D04B215848FFF7F4FE85
:401E00003B689B6803F0FC23002B03D04C215348FFF7EAFE3B68DB6803F0FC23002B03D04D214E48FFF7E0FE3B681B7D032B03D94E214A48FFF7D8FE3B689B69B3F5803F18
:401E400003D34F214548FFF7CFFE3B68DB6D072B03D950214148FFF7C7FE3B681B6EB3F5803F03D351213D48FFF7BEFE3B685B6EB3F5803F03D352213848FFF7B5FE3B6824
:401E80005B6843F000427B685A603B689A687B681A613B68DA687B685A613B681A697B689A613B681B7D9A077B68DA613B689A697B681A623B681B6803F46063B3F5606F6D
:401EC0000CBF01230023BB743B685B6803F00403002B14BF012300237B740023FB7464E0FB7C3A6806339B0013445A681F4B1340002B03D063211948FFF776FEFA7CFB7C3A
:401F0000396806339B000B4459687B68203243F822104FF48053FB60FB7C3A6806339B0013445B6803F00123002B0CBF01230023FB72FB7A002B1DD0BB7C002B1AD07B7C71
:401F4000002B17D0FA7CFB68D90F0B445B105B4219B2074B23F8121011E000BFF0730810010006000811DF0001FE302088CA887EE0770208FB7C3F4A002122F81310FB7CD6
:401F8000FA6842F2107101FB02F23968496F11443A68526F520091FBF2F212B21146364A42F82310FB7C0133FB74FB7C0F2B97D93B68DA6D7B68C3F818223B68DA6D7B6875
:401FC000C3F810223B681A6E7B68C3F828223B681A6E7B68C3F820223B685A6E7B68C3F838223B685A6E7B68C3F830223B6893F87030002B23D03B689B6EB3F1804F03D337
:4020000082211E48FFF7F0FD3B68DB6E23F44F0323F0FF03002B03D083211848FFF7E4FD7B686FF04042C3F804233B689A6E7B68C3F800233B68DA6E7B68C3F844237B688C
:40204000D3F8003F3F2B04D07B68D3F8003F002B03D17B680B22C3F8002F3B681B6843F400127B681A6000237B617B6918461837BD4680BDE077020800780208F073081038
:4020800080B584B000AF78600B46FB707B68002B03D1B5212848FFF7A7FD7B68002B02D1264BFB6043E07B6800221A607B6800225A607B684FF003121A617B684FF00312BB
:4020C0005A617B6800229A617B680022DA617B6800221A620023FB7208E0FA7A7B682032002143F82210FB7A0133FB72FB7A0F2BF3D97B680022C3F818227B680022C3F86A
:4021000028227B680022C3F83822FB78002B0CD07B686FF04042C3F804237B680022C3F840237B680022C3F844230023FB60FB6818461037BD4680BDF07308100100060089
:4021400080B582B000AF78607B681B68002B0EDB00BF7B68D3F8A032002BFADB7B681B6843F000427B681A600220FFF723FD00BF0837BD4680BD00BF80B582B000AF78605D
:402180000B46FB70FB78002B07D0FB78012B04D040F271110A48FFF727FDFB78012B06D17B685B6843F480327B685A6003E07B6801225A6200BF00BF0837BD4680BD00BF58
:4021C000F073081080B584B000AF786039603B680F2B04D940F27B210A48FFF705FD0023FB603B680F2B06D87B683A68603253F822309BB2FB60FB681BB218461037BD469C
:4022000080BD00BFF073081080B483B000AF78607B68D3F8403318460C37BD465DF8047B704700BF80B483B000AF78607B68D3F80833C3F3080318460C37BD465DF8047B1A
:40224000704700BF80B483B000AF786039607B683A68C3F8402200BF0C37BD465DF8047B704700BF80B483B000AF78607B68D3F80832C3F3080318460C37BD465DF8047B61
:40228000704700BF80B483B000AF78607B681B6803F40063002B01D0802300E0402318460C37BD465DF8047B704700BF80B483B000AF78607B68D3F8003303F00F03072B24
:4022C00094BF01230023DBB218460C37BD465DF8047B704780B483B000AF78607B68D3F8003203F00F03072B94BF01230023DBB218460C37BD465DF8047B704790B589B0AF
:4023000000AFF860B9607A60F868FFF7CFFF0346002B15D0BB68BB610023FB610BE0BA69FB69D418F868FFF76FFF0346DBB22370FB690133FB61FA697B689A42EFD315E010
:40234000BB687B610023FB610CE0FB695B007A69D418F868FFF758FF03469BB22380FB690133FB61FA697B689A42EED300BF2437BD4690BD80B586B000AFF860B9607A60D9
:40238000F868FFF74FFF78617A697B689A4201D97B687B617A69B968F868FFF7AFFF7B6918461837BD4680BD80B588B000AFF860B9607A60F868FFF78DFF0346002B14D0EB
:4023C000BB68BB610023FB610AE0BA69FB6913441B781946F868FFF735FFFB690133FB61FA697B689A42F0D314E0BB687B610023FB610BE0FB695B007A6913441B881946AA
:40240000F868FFF71FFFFB690133FB61FA697B689A42EFD300BF2037BD4680BD90B587B000AFF860B9607A60F868FFF72BFF0446F868FFF717FF0346E31A7B617A697B6866
:402440009A4201D97B687B617A69B968F868FFF7ABFF7B6918461C37BD4690BD80B584B000AFF860B9607A6006E0B968F868FFF7E9FE7B68013B7B607B68002BF5D100BFCA
:402480001037BD4680BD00BF90B587B000AFF860B9607A60F868FFF7F5FE0446F868FFF7E1FE0346E31A7B617A697B689A4201D97B687B617A69B968F868FFF7CFFF7B692F
:4024C00018461C37BD4690BD80B483B000AF78607B68D3F8403318460C37BD465DF8047B704700BF80B582B000AF78603960786800F01AFA02463B689A4204D84FF42071FC
:402500000848FFF771FB7B68D3F8043323F0FF023B68DBB21A437B68C3F8042300BF0837BD4680BD2C74081080B483B000AF78607B68D3F80833C3F3080318460C37BD466C
:402540005DF8047B704700BF80B483B000AF78607B68D3F8043343F480327B68C3F804237B68D3F8043323F480327B68C3F804237B68D3F8043300BF0C37BD465DF8047B5F
:40258000704700BF80B483B000AF786039607B683A68C3F8402200BF0C37BD465DF8047B704700BF80B483B000AF78607B68D3F80832C3F3080318460C37BD465DF8047B1E
:4025C000704700BF80B483B000AF78607B68D3F8083203F40043DB0B18460C37BD465DF8047B704780B483B000AF78607B68D3F8043243F480327B68C3F804227B68D3F813
:40260000043223F480327B68C3F804227B68D3F8043200BF0C37BD465DF8047B704700BF80B483B000AF78607B68D3F8003E18460C37BD465DF8047B704700BF80B582B075
:4026400000AF786039603B6823F4366323F00D03002B04D040F29A310548FFF7C5FA7B683A68C3F8C82F00BF0837BD4680BD00BF2C74081080B483B000AF78607B68D3F83E
:40268000CC3F18460C37BD465DF8047B704700BF80B582B000AF786039603B6823F4366323F00D03002B04D040F2E5310648FFF79BFA7B683A68C3F8C02F7B68D3F8C03F28
:4026C00000BF0837BD4680BD2C74081080B582B000AF786039603B6823F4366323F00D03002B04D04FF47F710548FFF77DFA7B683A68C3F8C42F00BF0837BD4680BD00BFCB
:402700002C74081080B582B000AF786039603B6823F4EE6323F00303002B04D040F22A410548FFF761FA7B683A68C3F8882F00BF0837BD4680BD00BF2C74081080B483B0E9
:4027400000AF78607B68D3F88C3F18460C37BD465DF8047B704700BF80B582B000AF786039603B6823F4EE6323F00303002B04D040F277410648FFF737FA7B683A68C3F822
:40278000802F7B68D3F8803F00BF0837BD4680BD2C74081080B483B000AF78607B68D3F8002F40F21733134018460C37BD465DF8047B704780B582B000AF786039603B6814
:4027C00023F4457323F00303002B04D040F2BC410548FFF709FA7B683A68C3F8082F00BF0837BD4680BD00BF2C74081080B483B000AF78607B68D3F80C3F18460C37BD46C6
:402800005DF8047B704700BF80B582B000AF786039603B6823F4457323F00303002B04D04FF4A0610648FFF7DFF97B683A68C3F8002F7B68D3F8003F00BF0837BD4680BD43
:402840002C74081080B582B000AF786039603B6823F41F6323F00F03002B04D040F246510548FFF7C1F97B683A68C3F8482F00BF0837BD4680BD00BF2C74081080B483B020
:4028800000AF78607B68D3F84C3F18460C37BD465DF8047B704700BF80B582B000AF786039603B6823F41F6323F00F03002B04D040F28B510648FFF797F97B683A68C3F861
:4028C000402F7B68D3F8403F00BF0837BD4680BD2C74081080B483B000AF78607B68D3F88C3E18460C37BD465DF8047B704700BF80B582B000AF786039603B6823F00103B1
:40290000002B04D040F213610648FFF76DF97B683A68C3F8802E7B68D3F8803E00BF0837BD4680BD2C74081080B483B000AF78607B681B6803F40063002B01D0802300E0CB
:40294000402318460C37BD465DF8047B704700BF80B483B000AF78607B681B6823F000427B681A607B6800229A667B680022DA667B681B6843F000427B681A607B681B6818
:4029800000BF0C37BD465DF8047B704780B483B000AF78607B68D3F80433DBB218460C37BD465DF8047B704780B582B000AF786039603B68062B02D93B68102B04D940F2D5
:4029C00083510948FFF710F97B681B6E23F0F0023B68013B1B01DBB21A437B681A6600BF0837BD4680BD00BF7074081080B582B000AF786039603B68042B02D93B68102BEF
:402A000004D94FF4B4610948FFF7EEF87B681B6E23F00F023B68013B03F00F031A437B681A6600BF0837BD4680BD00BF7074081080B586B000AFF860B9607A60BB681B78EC
:402A4000012B05D0BB681B7A002B01D0012300E00023FB75FB7D03F00103FB75FB68002B05D0BB68002B02D07B68002B01D17C4BF1E0BB681B78012B0BD0BB681B78022B90
:402A800007D0BB681B78032B03D04F217548FFF7ABF8BB685B78002B02D0BB685B7900E00023002B03D050216E48FFF79DF8BB68DB785BB2002B03DA51216A48FFF794F8F4
:402AC000BB681B7903F00103002B03D052216548FFF78AF8BB681B69102B03D953216148FFF782F8BB68DB68102B03D954215D48FFF77AF8BB685B79002B02D04FF480325F
:402B000000E00022BB68DB79002B02D04FF4807300E00023134343F40062FB681A60BB689B7983F00103DBB2002B02D04FF4006200E00022BB681B69013B03F00F031A43F6
:402B4000BB68DB68013B1B01DBB21A43BB681B789B071A43FB681A66FB7D002B02D040F2073201E040F20712FB68C3F80023FB7D002B01D03C4A00E03C4AFB681A67BB6861
:402B80005B78002B01D07F2200E00022FB68C3F80423BB68DB785B00DAB2BB681B791B0403F47F031A43FB68C3F81023FB68304AC3F80022BB689B78002B01D0402200E0D6
:402BC0000122FB68C3F80422FB680022C3F8C82EFB680022C3F8882EFB680022C3F8C82FFB680022C3F8882FFB680022C3F8082FBB681B78022B02D040F2D11200E00022D1
:402C0000FB68C3F8482FBB685A787B681A70BB689A787B685A707B684FF080525A607B6800229A607B6800229A617B6800221A627B6800221A647B680022DA637B680022C3
:402C40001A637B680022DA627B6800225A647B6800229A64002318461837BD4680BD00BF0120AA00B074081003002A0013102A000701010080B58CB000AFF860B9607A600C
:402C80007B68002B04D140F212218948FEF7ACFFBB68002B03D0BB68864A934204D940F213218348FEF7A0FF0023FB62FB681B6E03F040439B0F012B10D17968F86800F006
:402CC00011F9F862FB68D3F8003323F40072FB68C3F80023FB68784A1A67E3E0012387F82B300823FB610823BB610023FB75BB68002B03D0BB686F4A934203D9012387F82C
:402D00002B3042E0BB686D4A934213D87B686C4A93423AD97B686B4A934236D841F288337B6241F288333B620023FB75002387F82B302AE0BB68644A934213D87B68634A6F
:402D4000934222D97B68624A93421ED84FF4C8637B624FF461733B620023FB75002387F82B3012E07B685B4A93420ED97B685A4A93420AD84FF41B737B624FF4BE733B6267
:402D80000123FB75002387F82B3097F82B3083F00103DBB2002B00F08580504A7B68B2FBF3F33B617A6A3B69B2FBF3F3FB613B69FA6902FB03F27B6A9A4202D2FB6901332B
:402DC000FB61FB69102B01D91023FB61FB690F2B94BF01230023BB753A6A3B69B2FBF3F3BB613B69BA6902FB03F23B6A9A4202D2BB690133BB61BB69102B01D91023BB6106
:402E0000FA69BB6913447A68B2FBF3F3FB621EE0BB7D002B08D0FB690F2B11D8FB690133FB610023BB750BE0BB690F2B08D8BB690133BB61FB690F2B94BF01230023BB75D6
:402E4000FA69BB6913447A68B2FBF3F3FB62FA6ABB689A4204D9FA69BB6913441F2BD7D9FB7D002B0BD0FB68D3F8003343F40072FB68C3F80023FB68194A1A670AE0FB682D
:402E8000D3F8003323F40072FB68C3F80023FB68094A1A67F969F868FFF786FDB969F868FFF7A4FDFB6A18463037BD4680BD00BFB074081040420F0013102A00A086010055
:402EC000AFA6170000D43000801A0600DF527700809698007F81DA0040AD890100CA9A3B03002A0080B584B000AF786039603B68002B04D140F2C3212448FEF775FE002316
:402F0000FB607B681B6E03F040439B0F012B23D13B681F4A934206D93B681E4A934202D81D4BFB602CE03B681C4A934206D93B681B4A934202D81B4BFB6021E03B681A4A04
:402F4000934206D93B68194A934202D8184BFB6016E00023FB6013E03B68002B10D07B681B6E03F0F0031A097B681B6E03F00F0313440233BB603A68BB68B2FBF3F3FB60D5
:402F8000FB6818461037BD4680BD00BFB0740810DF52770020AEEA00801A0600AFA617000050C300A0860100FFB2F10040084E0540420F0080B582B000AF786039603B6830
:402FC0005B6803F48013002B04D03968786800F047FB03E03968786800F004F800BF0837BD4680BD80B584B000AF786039607868FFF770FC034603F00103002B07D03B6894
:403000004FF480525A6001217868FFF771FC7868FFF734FCF860FA6840F201131340002B16D03B681A6AFB6803F48073002B02D04FF4807300E080231A433B681A6200212B
:403040007868FFF7FBFAFB6843F01003FB6016E0FB6803F01003002B11D07868FFF764FA0346002B0BD03B68DB6B002B07D001217868FFF72BFB01217868FFF7DFFA7868D9
:40308000FFF7F8FA034603F00103002B07D03968786800F019F901217868FFF7F9FAFB6803F01003002B0BD03968786800F044FA10217868FFF7F0FB7868FFF7DFFBF86060
:4030C000FB6803F0C003002B0BD03968786800F01DF801217868FFF70BFCC0217868FFF7DBFB7868FFF72AFB034603F04103002B07D03968786800F069F901217868FFF757
:403100002BFB00BF1037BD4680BD00BF80B588B000AF786039600023FB773B689B6C002B46D00023BB617B681B6803F48033002B0BD07868FFF7A2FB034603F04003002BE5
:4031400001D0022300E00023BB617B681B6E03F40063002B0DD17868FFF790FB034603F08003002B01D0012300E00023BA691343BB61BB69002B1BD03B689B6CB8699847AF
:403180000346FB7701217868FFF782FAFB7F002B09D110217868FFF77FFB40F2D1117868FFF750FB04E040F2C1117868FFF74AFB7868FFF717FAFB7F002B01D1012200E047
:4031C00002227B68DA66FB7F002B78D17B685B6E03F01003002B14BF01230023FB743B685B6C002B09D03B685B6CFA7C002A01D0012200E0022210469847FB7C002B16D007
:403200003B6841F202025A603B681B6A43F001023B681A623B685A6B3B681A633B68002283F8242001217868FFF76CFA47E000237B613B6841F201025A603B681B6A43F0FF
:4032400010023B681A6201217868FFF7F7F93B681B78002B2FD03B68DB6B002B2BD08023FB607B681B6E43F400527B681A663B68DA6BFB689A4210D93B68DA6BFB68D31A28
:403280007B617A69FB689A4203D9FB685B08013B01E07B69013B7B610DE03B68DB6B013B7B617B681B6E43F400427B681A6600217868FFF7C3F979697868FFF713F900BFE9
:4032C0002037BD4680BD00BF90B587B000AF786039603B68DB6B002B6DD03B681B78002B50D080233B617868FFF750FB03460133FB603B689B6BFA6819467868FFF73AF860
:40330000F8603B681A6CFB681A443B681A643B68DA6BFB68D21A3B68DA633B689A6BFB681A443B689A633B68DA6B3B699A4210D93B68DA6B3B69D31A7B617A693B699A4201
:4033400003D93B695B08013B01E07B69013B7B6113E07B681B6E43F400427B681A663B68DB6B002B03D03B68DB6B013B00E000237B6100217868FFF761F979697868FFF722
:40338000B1F81FE07B680122DA663B689A6B3B681B6CD4187868FFF797F80346DBB223703B681B6C5A1C3B681A643B68DB6B5A1E3B68DA6306E07B680222DA660021786863
:4033C000FFF73CF900BF1C37BD4690BD80B584B000AF786039603B6893F82430DBB283F00103DBB2002B19D03B68DB6A002B15D13B685B6C002B03D03B685B6C08209847BE
:403400003B68DB6A002B0CBF01230023DAB23B6883F8242001217868FFF774F93B6893F82430DBB2002B1DD03B685B78002B04D07868FFF779FA034600E00123FB60FA6825
:40344000FF217868FFF720F8F8603B681A6BFB681A443B681A633B681B6A43F008023B681A6265E03B68DB6A012B23D93B685B78002B03D03B68DB6A013B00E00123FB600D
:403480003B689B6AFA6819467868FEF7C7FFF8603B681A6BFB681A443B681A633B68DA6AFB68D21A3B68DA623B689A6AFB681A443B689A627868FFF775F80346802B37D04D
:4034C0003B68DB6A012B33D1FEF73FFCB8603B689B6A1B7819467868FFF754F840217868FFF73AF9B868FEF734FC3B681B6B5A1C3B681A633B680022DA623B689B6A5A1C23
:403500003B689A6240217868FFF7FCF83B685B78002B0DD03B681B6A43F002023B681A623B685B6C002B03D03B685B6C0420984700BF1037BD4680BD90B585B000AF7860A9
:4035400039603B685B6841F20102934233D17868FEF7EAFF0346002B10D03B681B6A43F040023B681A623B681B78002B03D07868FEF7EAFF02E07868FEF7A6FF2023FB6083
:403580003B681B6A43F020023B681A623B681B6A23F010023B681A627B681B6E23F420427B681A6600217868FFF748F801217868FFF76EF834E07868FEF7F4FF0446786820
:4035C000FFF700F803462344BB603B681A6BBB68D21A3B685A633B681B6A03F00803002B0CD13B68DA6ABB681A443B68DA623B689A6ABB685B421A443B689A621023FB6014
:403600003B681B6A43F004023B681A623B681B6A23F001023B681A6200217868FFF772F87868FFF72BF9024640F201131340002B06D07868FFF78CF9FB6843F04003FB60E1
:403640003B684FF080525A603B685B6C002B03D03B685B6CF868984700BF1437BD4690BD80B584B000AF786039607868FEF7D8FFF860FB6803F00203002B10D07B689B6E92
:40368000002B08D07B6800229A663B689B6843F080723B689A603B684FF4C0125A60FB6803F00103002B07D03968786800F034F8FB6823F00403FB60FB6803F00803002BCB
:4036C00007D03968786800F07FF801217868FEF7DFFFFB6803F00403002B07D03968786800F0FCF801217868FFF736F83B685B68B3F5C01F03D13968786800F0A7F93B68D7
:403700005B68B3F5B01F03D13968786800F076F900BF1037BD4680BD80B584B000AF786039607868FFF762F8F860FB6803F00203002B25D002217868FFF766F87868FFF79C
:4037400029F8034603F00403002B02D04FF4001301E04FF480133A6892681A433B689A603B685B68B3F5B81F0AD03B681B7B002B02D04FF4C01201E04FF4B0123B685A60F8
:40378000FB6803F48073002B05D03B689B6843F400023B689A60FB6803F00103002B05D03B689B6843F480023B689A60FA6840F211131340002B03D03B684FF4C0125A606F
:4037C00000BF1037BD4680BD90B585B000AF786039603B685B68B3F5881F03D0B3F5901F2BD077E03B681C697868FEF76DFE0346DBB223703B689B695A1C3B689A613B6889
:403800005B695A1E3B685A613B685B69002B08D03B681B695A1C3B681A617B6804229A6658E03B681B7B002B02D04FF4C01201E04FF4B0123B685A604CE03B6819693B6806
:403840005B691A467868FEF795FDF8603B689A69FB681A443B689A613B685A69FB68D21A3B685A613B681A69FB681A443B681A613B685B69012B1BD87B681B6E23F480724D
:403880007B681A663B685B69012B08D100217868FEF728FE3B684FF488125A6019E000217868FEF7CBFE3B684FF4B0125A6010E04023BB603B685A69BB689A4203D83B6878
:4038C0005B69023B01E0BB68013B19467868FEF709FE00BF00BF1437BD4690BD80B584B000AF786039603B685B68B3F5A81F04D13B684FF4C0125A607BE03B685B68B3F525
:40390000A01F76D13B685B69012B23D93B685B78002B03D03B685B69013B00E00123FB603B681B69FA6819467868FEF777FDF8603B689A69FB681A443B689A613B685A6988
:40394000FB68D21A3B685A613B681A69FB681A443B681A617868FEF725FE0346802B1CD03B685B69012B18D1FEF7EFF9B8603B681B691B7819467868FEF704FE402178681B
:40398000FEF7EAFEB868FEF7E4F93B689B695A1C3B689A613B6800225A613B685B69002B27D13B681B7B002B08D040217868FEF7A9FE3B684FF4A8125A6007E00021786818
:4039C000FEF7A0FE3B684FF4B0125A603B685B78002B0ED03B689B6843F400323B689A603B685B6C002B04D03B685B6C4FF48030984700BF1037BD4680BD00BF80B582B096
:403A000000AF7860396000217868FEF717FE00217868FEF777FE7B689B6E002B05D040F217117868FEF7C6FE0BE040F213117868FEF7C0FE7B6818229A663B684FF4B81270
:403A40005A6000BF0837BD4680BD00BFB0B586B000AF786039607868FEF7C8FE38617B681B6E23F480727B681A6600217868FEF7E5FD00217868FEF745FE00217868FEF7C1
:403A800099FE40F217117868FEF7BEFE3B689B6823F480323B689A603B685B7B002B04D03B689A693B68DA610DE03B689C697868FEF778FD05467868FEF784FD03462B4444
:403AC000E21A3B68DA613A6940F201131340002B25D00123FB757B681B6E03F040439B0F032B11D13B6903F00403002B04D13B6903F48073002B01D0012300E00023FB75A1
:403B0000FB7D03F00103FB75FB7D002B02D07868FEF71EFF3B684FF080525A6014E03B681B78002B06D07868FEF70EFD01217868FEF7AEFD3B681B7B002B01D0144A01E0B0
:403B40004FF080523B685A603B685B6C002B1AD03B685B7B002B02D04FF4802301E04FF40033FB603B689B6803F0F873002B02D04FF4002300E00023FA681343FB603B682A
:403B80005B6CF868984700BF1837BD46B0BD00BF0000101080B483B000AF78607B68D3F8403318460C37BD465DF8047B704700BF80B582B000AF78603960786800F0F6F860
:403BC00002463B689A4204D84FF420710848FEF70BF87B68D3F8043323F0FF023B68DBB21A437B68C3F8042300BF0837BD4680BDF074081080B483B000AF78607B68D3F865
:403C00000833C3F3080318460C37BD465DF8047B704700BF80B483B000AF786039607B683A68C3F8402200BF0C37BD465DF8047B704700BF80B483B000AF78607B68D3F886
:403C40000832C3F3080318460C37BD465DF8047B704700BF80B483B000AF78607B68D3F8003E18460C37BD465DF8047B704700BF80B582B000AF786039603B6823F43663B9
:403C800023F00D03002B04D040F29A310548FDF7ABFF7B683A68C3F8C82F00BF0837BD4680BD00BFF074081080B483B000AF78607B68D3F8CC3F18460C37BD465DF8047B2B
:403CC000704700BF80B582B000AF786039603B6823F4366323F00D03002B04D040F2E5310648FDF781FF7B683A68C3F8C02F7B68D3F8C03F00BF0837BD4680BDF0740810B2
:403D000080B582B000AF786039603B6823F4EE6323F00303002B04D040F22A410548FDF763FF7B683A68C3F8882F00BF0837BD4680BD00BFF074081080B483B000AF78603B
:403D40007B68D3F8883F18460C37BD465DF8047B704700BF80B483B000AF78607B68D3F88C3F18460C37BD465DF8047B704700BF80B582B000AF786039603B6823F4EE63F9
:403D800023F00303002B04D040F277410648FDF72BFF7B683A68C3F8802F7B68D3F8803F00BF0837BD4680BDF074081080B483B000AF78607B681B6803F40063002B01D0D5
:403DC000802300E0402318460C37BD465DF8047B704700BF80B483B000AF78607B68D3F8003303F00F03072B94BF01230023DBB218460C37BD465DF8047B704780B483B02C
:403E000000AF78607B68D3F8003203F00F03072B94BF01230023DBB218460C37BD465DF8047B704780B584B000AFF860B9607A60BB68002B02D07B68002B04D14FF49961EB
:403E40000648FDF7D1FE7A68B968F868FEF792FA034618461037BD4680BD00BF3475081080B584B000AFF860B9607A60BB68002B02D07B68002B04D140F273510648FDF701
:403E8000B3FE7A68B968F868FEF7C8FA034618461037BD4680BD00BF3475081090B587B000AFF860B9607A60FB68002B02D0BB68002B01D18A4B58E2BB681B78002B0BD0C8
:403EC000BB681B78012B07D0BB681B78022B03D03F218448FDF788FEBB685B7B022B1BD0BB685B7B032B17D0BB685B7B042B13D0BB685B7B052B0FD0BB685B7B062B0BD076
:403F0000BB685B7B072B07D0BB685B7B082B03D040217448FDF768FEBB689B7B002B0BD0BB689B7B022B07D0BB689B7B032B03D041216C48FDF758FEBB6893F82130002BC9
:403F400008D0BB6893F82130012B03D042216548FDF74AFEBB6893F82830002B08D0BB6893F82830012B03D043215E48FDF73CFEBB681B78002B03D0BB681B78012B0ED164
:403F8000BB685B68072B03D9BB685B68102B01D9012300E0002303F00103DBB227E0BB689B7F002B22D0BB685B68012B19D0BB685B68022B15D0BB685B68032B11D0BB68FB
:403FC0005B68042B0DD0BB685B68052B09D0BB685B68062B05D0BB685B68072B01D0012300E0002303F00103DBB200E00023002B03D045213B48FDF7F7FDBB689B68042B5C
:4040000003D9BB689B68092B03D946213548FDF7EBFDBB685B69FF2B03D947213148FDF7E3FDBB689B69FF2B03D948212D48FDF7DBFDBB689B7C002B12D0BB681B78002B0D
:4040400007D1BB689B68092B03D1BB689B7B002B01D0012300E0002303F00103DBB200E00023002B03D04A211E48FDF7BDFDBB685B6B23F4366323F00D03002B03D04C21B3
:404080001848FDF7B1FDBB68DB6B23F4EE6323F00303002B03D04D211248FDF7A5FDBB681B78022B09D1BB689B7F83F00103DBB2002B02D000237B6103E0BB685B68013BB9
:4040C0007B61BB681B7F002B02D04FF4803200E00022BB689B68082B06D84FF4006304E00160AA007475081000231A437B6903F00F03134343F00072FB681A60BB681C6B7B
:40410000F868FFF753FE03469C4203D362219948FDF76AFDBB689C6BF868FFF747FE03469C4203D363219348FDF75EFDBB685C6AF868FFF73BFE03469C4203D364218D48DD
:40414000FDF752FDBB681B781B0603F04072FB681A64BB685B7F002B01D0402200E00022BB689B7C002B02D04FF4806300E000231A43BB681B7C002B02D04FF4807300E0B8
:4041800000231A43BB685B7C002B02D04FF4007300E000231A43BB68DB6A013B1B0403F470231A43BB685B7B013B03F007031A43BB689B7B1B0103F030031A43FB689A6400
:4041C000BB681B7B002B02D04FF4807200E00022BB68DB7B002B03D1BB681B78022B01D1012300E00023002B02D04FF4007300E000231A43BB689B68013B03F00F031A43A7
:40420000FB68C3F80023BB685B69DAB2BB689B691B0403F47F031A43FB68C3F81023BB68DA6AFB68D3F8003303F00F0303339A4203D3BB68DB6A102B03D97A214D48FDF705
:40424000D3FCBB68DB7F002B05D0BB681B78012B01D1012300E00023002B02D04FF4807200E00022BB685B7B013B03F007031A43BB689B7B1B0103F030031A43FB685A645B
:40428000BB681B7B002B02D04FF4807200E00022BB689B68013B03F00F031A43BB681B78012B02D14FF4803300E000231A43FB68C3F80022BB681B6BDAB2FB68C3F8042388
:4042C000BB6893F82030002B02D04FF0007200E00022BB6893F82130012B02D14FF0807300E000231A43BB6893F82830012B02D14FF4803300E000231A43BB685B6ADBB2B0
:404300001A43FB681A65BB689B6BDAB2FB68C3F80422BB685A6B40F66D331340FA68C2F8C83FBB68DA6B40F273731340FA68C2F8883F7B68002B17D07B6800225A607B68C4
:4043400000221A607B6800229A607B680022DA607B6800221A627B680022DA627B6800221A637B68044A5A63002318461C37BD4690BD00BF74750810EFCDAB0080B485B07D
:4043800000AF786039603B681B69BB603B685A69BB689A4205D83B685B69BA68D31AFB6007E03B68DA693B685B69D21ABB681344FB60FB6818461437BD465DF8047B7047F9
:4043C00080B584B000AF786039607868FFF742FC034603F00803002B4BD07868FFF764FC034603F44873FB60FB68002B11D03B685A68FB681A433B685A60F9687868FFF7DF
:4044000061FC3B681B6B002B03D03B681B6B102098477868FFF748FC034603F40063002B0AD03B685B6843F400623B685A604FF400617868FFF746FC7868FFF735FC034696
:4044400003F00103002B14D03B68DB69002B04D03968786800F062F807E03B689B68002B03D03968786800F0CBF801217868FFF729FC7868FFF7EEFB034603F00403002B7C
:4044800048D07868FFF766FC034603F4A063BB60BB68002B11D03B681A68BB681A433B681A60B9687868FFF763FC3B681B6B002B03D03B681B6B202098477868FFF74AFC7C
:4044C000034603F00103002B07D03968786800F015F901217868FFF74BFC7868FFF73AFC034603F40073002B14D000217868FFF707FC3B681B6823F001023B681A603B68F8
:404500000022DA623B681B6B002B03D03B681B6B0220984700BF1037BD4680BD80B586B000AF786039607868FFF740FC03465B087B613B6899693B68DB691A467868FFF79F
:4045400071FC38613B681A6A3B691A443B681A623B68DA693B69D21A3B68DA613B68DB69002B2AD13B689B68002B13D03B68DA687B699A4202D37B69013B02E03B68DB6876
:40458000013B19467868FFF713FB01217868FFF76FFB03E000217868FFF76AFB3B685B6823F001023B685A603B681B6B002B23D03B681B6B042098471EE03B689B69FB608F
:4045C0007868FFF707FC0346002B01D03B6901E03B695B00FA681344FB603B68FA689A613B68DA697B699A4206D23B68DB69013B19467868FFF7DCFA00BF1837BD4680BD0B
:4046000090B589B000AF786039607868FFF7CEFB03465B087B617868FFF7ECFAF8613B681B69BB6147E0BB690133BB613B68DA68BB699A4201D10023BB613B685A69BB6942
:404640009A421BD13B681B6B002B03D03B681B6B082098473B685A69BB699A420ED100217868FFF705FBBB69002B02D0BB69013B02E03B68DB68013BBB611FE07868FFF769
:4046800089FA38617868FFF7A5FB0346002B07D03B689A68BB6913443A69D2B21A7007E03B689A68BB695B0013443A6992B21A80FB69013BFB61FB69002BB4D13B68BA6993
:4046C0001A613B68DC6839687868FFF757FE0346E31AFB61FA697B699A420BD2FB69002B02D0FB69013B00E00023FB60F9687868FFF75EFA00BF2437BD4690BD80B588B025
:4047000000AF786039607868FFF750FBF8617868FFF774FB0346FB763B689B6A012B23D93B685B6A7B613B689A6A3B68DA623B68596A3B689B6A013B1A467868FFF790FB3B
:4047400038613B689A6A3B69D21A3B689A62FB7E002B01D03B6901E03B695B007A6913447B613B687A695A627868FFF763FA0246FB699A423CD03B689B6A012B38D13B6832
:4047800000229A62FB7E002B03D03B685B6A1B7802E03B685B6A1B88FB60FDF7D6FAB860F9687868FFF736FA4FF400717868FFF7DFFAB868FDF7CDFA7868FFF7BDFA0346CA
:4047C00023F4007323F0010343F4007319467868FFF796FA3B681B6843F002023B681A603B681B6B002B03D03B681B6B0120984700BF2037BD4680BD80B483B000AF78609B
:404800007B6803F108027B685A607B684FF0FF329A607B6803F108027B68DA607B6803F108027B681A617B6800221A6000BF0C37BD465DF8047B704780B483B000AF786073
:404840007B6800221A6100BF0C37BD465DF8047B704700BF80B485B000AF786039607B685B68FB603B68FA685A60FB689A683B689A60FB689B683A685A60FB683A689A605D
:404880003B687A681A617B681B685A1C7B681A6000BF1437BD465DF8047B704780B485B000AF786039603B681B68BB60BB68B3F1FF3F03D17B681B69FB600CE07B680833B8
:4048C000FB6002E0FB685B68FB60FB685B681A68BB689A42F6D9FB685A683B685A603B685B683A689A603B68FA689A60FB683A685A603B687A681A617B681B685A1C7B6883
:404900001A6000BF1437BD465DF8047B704700BF80B485B000AF78607B681B69FB607B685B687A6892689A607B689B687A6852685A60FB685A687B689A4203D17B689A689F
:40494000FB685A607B6800221A61FB681B685A1EFB681A60FB681B6818461437BD465DF8047B704780B584B000AF786039607B68FB60FB68002B09D14FF03F0383F3118883
:40498000BFF36F8FBFF34F8FBB60FEE701F08AFEFB681A68FB68DB6BF968096C01FB03F31A44FB685A60FB6800229A63FB681A68FB689A60FB681A68FB68DB6B013BF9687E
:4049C000096C01FB03F31A44FB68DA60FB68FF2283F84420FB68FF2283F845203B68002B14D1FB681B69002B1AD0FB681033184601F07EF80346002B12D00D4B4FF08052B5
:404A00001A60BFF34F8FBFF36F8F09E0FB6810331846FFF7F1FEFB6824331846FFF7ECFE01F06EFE012318461037BD4680BD00BF04ED00E080B58AB002AFF860B960134612
:404A4000FB71FB68002B09D14FF03F0383F31188BFF36F8FBFF34F8F3B61FEE7BB68002B02D10023FB6104E0FB68BA6802FB03F3FB61FB694833184601F040FFB861BB690F
:404A8000002B0BD0BB6948337B61FA79BB69009313467A69B968F86800F006F8BB6918462037BD4680BD00BF80B584B000AFF860B9607A60FB70BB68002B03D1BB69BA6991
:404AC0001A6002E0BB697A681A60BB69FA68DA63BB69BA681A640121B869FFF743FF00BF1037BD4680BD00BF80B58EB000AFF860B9607A603B6000237B63FB683B633B6B23
:404B0000002B09D14FF03F0383F31188BFF36F8FBFF34F8FFB61FEE7BB68002B03D13B6B1B6C002B01D1012300E00023002B09D14FF03F0383F31188BFF36F8FBFF34F8F17
:404B40003B62FEE73B68022B03D13B6BDB6B012B01D1012300E00023002B09D14FF03F0383F31188BFF36F8FBFF34F8F7B62FEE701F05CF90346002B02D17B68002B01D1FA
:404B8000012300E00023002B09D14FF03F0383F31188BFF36F8FBFF34F8FBB62FEE701F081FD3B6B9A6B3B6BDB6B9A4202D33B68022B29D13A68B968386B00F0FFF9F862CE
:404BC0003B6B5B6A002B10D03B6B2433184600F08FFF0346002B13D03F4B4FF080521A60BFF34F8FBFF36F8F0AE0FB6A002B07D0394B4FF080521A60BFF34F8FBFF36F8F1A
:404C000001F07EFD012363E07B68002B03D101F077FD00235CE07B6B002B06D107F11403184600F0C7FF01237B6301F069FD00F027FD01F037FD3B6B93F844305BB2B3F108
:404C4000FF3F03D13B6B002283F844203B6B93F845305BB2B3F1FF3F03D13B6B002283F8452001F04DFD3A1D07F114031146184600F0B6FF0346002B24D1386B00F088FAF1
:404C80000346002B18D03B6B10337A681146184600F0E0FE386B00F013FA00F0FFFC0346002B7FF47CAF0C4B4FF080521A60BFF34F8FBFF36F8F72E7386B00F001FA00F0B4
:404CC000EDFC6CE7386B00F0FBF900F0E7FC002318463837BD4680BD04ED00E080B58EB000AFF860B9607A603B60FB683B633B6B002B09D14FF03F0383F31188BFF36F8F29
:404D0000BFF34F8F7B61FEE7BB68002B03D13B6B1B6C002B01D1012300E00023002B09D14FF03F0383F31188BFF36F8FBFF34F8FBB61FEE73B68022B03D13B6BDB6B012B1D
:404D400001D1012300E00023002B09D14FF03F0383F31188BFF36F8FBFF34F8FFB61FEE701F078FDEFF311824FF03F0383F31188BFF36F8FBFF34F8F3A623B613B6ABB627F
:404D80003B6B9A6B3B6BDB6B9A4202D33B68022B2CD13B6B93F8453087F827303A68B968386B00F00BF997F92730B3F1FF3F12D13B6B5B6A002B16D03B6B2433184600F095
:404DC00097FE0346002B0ED07B68002B0BD07B6801221A6007E097F827300133DBB25AB23B6B83F8452001237B6301E000237B63BB6AFB62FB6A83F311887B6B18463837B6
:404E0000BD4680BD80B58CB000AFF860B9607A600023FB62FB68BB62BB6A002B09D14FF03F0383F31188BFF36F8FBFF34F8FBB61FEE7BB68002B03D1BB6A1B6C002B01D101
:404E4000012300E00023002B09D14FF03F0383F31188BFF36F8FBFF34F8FFB61FEE700F0E5FF0346002B02D17B68002B01D1012300E00023002B09D14FF03F0383F311883E
:404E8000BFF36F8FBFF34F8F3B62FEE701F00AFCBB6A9B6B7B627B6A002B1FD0B968B86A00F0E8F87B6A5A1EBB6A9A63BB6A1B69002B0FD0BB6A1033184600F019FE0346D7
:404EC000002B07D03C4B4FF080521A60BFF34F8FBFF36F8F01F014FC012369E07B68002B03D101F00DFC002362E0FB6A002B06D107F11003184600F05DFE0123FB6201F022
:404F0000FFFB00F0BDFB01F0CDFBBB6A93F844305BB2B3F1FF3F03D1BB6A002283F84420BB6A93F845305BB2B3F1FF3F03D1BB6A002283F8452001F0E3FB3A1D07F11003C9
:404F40001146184600F04CFE0346002B23D1B86A00F008F90346002B17D0BB6A24337A681146184600F076FDB86A00F0A9F800F095FB0346002B89D10F4B4FF080521A6010
:404F8000BFF34F8FBFF36F8F80E7B86A00F098F800F084FB7AE7B86A00F092F800F07EFBB86A00F0DFF80346002B3FF46FAF002318463037BD4680BD04ED00E080B586B0C1
:404FC00000AFF860B9607A6000233B61FB689B6B7B61FB681B6C002B43D07B68002B19D1FB689868FB681B6C1A46B96801F08CFFFB689A68FB681B6C1A44FB689A60FB68DC
:405000009A68FB685B689A422BD3FB681A68FB689A6026E0FB68D868FB681B6C1A46B96801F072FFFB68DA68FB681B6C5B421A44FB68DA60FB68DA68FB681B689A4207D24F
:40504000FB685A68FB681B6C5B421A44FB68DA607B68022B05D17B69002B02D07B69013B7B617B695A1CFB689A633B6918461837BD4680BD80B582B000AF786039607B6811
:405080001B6C002B18D07B68DA687B681B6C1A447B68DA607B68DA687B685B689A4203D37B681A687B68DA607B68D9687B681B6C1A46386801F028FF00BF0837BD4680BD69
:4050C00080B584B000AF786001F0ECFA7B6893F84530FB7311E07B685B6A002B12D07B682433184600F004FD0346002B01D000F0D7FDFB7B013BDBB2FB7397F90F30002BB9
:40510000E9DC00E000BF7B68FF2283F8452001F0F7FA01F0C7FA7B6893F84430BB7311E07B681B69002B12D07B681033184600F0DFFC0346002B01D000F0B2FDBB7B013B79
:40514000DBB2BB7397F90E30002BE9DC00E000BF7B68FF2283F8442001F0D2FA00BF1037BD4680BD80B584B000AF786001F09AFA7B689B6B002B02D10123FB6001E0002352
:40518000FB6001F0BDFAFB6818461037BD4680BD80B584B000AF786001F084FA7B689A6B7B68DB6B9A4202D10123FB6001E00023FB6001F0A5FAFB6818461037BD4680BDCF
:4051C00080B485B000AF786039600023FB6014E00E4AFB6852F83330002B0BD10B49FB683A6841F83320094AFB68DB0013447A685A6005E0FB680133FB60FB68092BE7D9AE
:4052000000BF1437BD465DF8047B70474078020880B586B000AFF860B9607A60FB687B6101F040FA7B6993F844305BB2B3F1FF3F03D17B69002283F844207B6993F84530D6
:405240005BB2B3F1FF3F03D17B69002283F8452001F056FA7B699B6B002B06D17B6924337A68B968184600F019FC7869FFF728FF00BF1837BD4680BD80B58CB004AFF860EF
:40528000B9603B601346FB80FB889B00184601F035FB78617B69002B0ED0602001F02EFBF861FB69002B03D0FB697A691A6305E0786901F069FB01E00023FB61FB69002BE0
:4052C00013D0FA8800230393FB690293FB6A0193BB6A00933B68B968F86800F00FF8F86900F09CF80123BB6102E04FF0FF33BB61BB6918462037BD4680BD00BF80B588B0F2
:4053000000AFF860B9607A603B603B6B186B7B689B001A46A52101F002FE3B6B1A6B7B6803F18043013B9B001344BB61BB6923F00703BB61BB6903F00703002B09D04FF04A
:405340003F0383F31188BFF36F8FBFF34F8F7B61FEE70023FB6112E0BA68FB69134419783A6BFB69134434330A461A70BA68FB6913441B78002B06D0FB690133FB61FB6992
:405380000F2BE9D900E000BF3B6B002283F84320BB6A062B01D90623BB623B6BBA6ADA623B6B04331846FFF747FA3B6B18331846FFF742FA3B6B3A6B1A61BB6AC3F1070295
:4053C0003B6B9A613B6B3A6B5A620023FB6109E03A6BFB6910339B00134400225A60FB690133FB61FB69042BF2D93B6B00229A653B6B002283F85C203A68F968B86901F096
:4054000051F802463B6B1A60FB6A002B02D0FB6A3A6B1A6000BF2037BD4680BD80B582B000AF786001F03EF92B4B1B6801332A4A13602A4B1B68002B09D1284A7B68136090
:40544000254B1B68012B10D100F04EFC0DE0244B1B68002B09D1214B1B68DA6A7B68DB6A9A4202D81D4A7B6813601E4B1B6801331C4A13607B68DA6A1B4B1B689A4203D97F
:405480007B68DB6A184A13607B68DA6A13469B0013449B00154A1A447B68043319461046FFF7D8F901F02CF90D4B1B68002B0ED00A4B1B68DA6A7B68DB6A9A4207D20C4B45
:4054C0004FF080521A60BFF34F8FBFF36F8F00BF0837BD4680BD00BF584F0208584E0208644F0208744F0208604F02085C4E020804ED00E080B58AB000AF78603960002309
:405500007B627B68002B09D14FF03F0383F31188BFF36F8FBFF34F8FFB60FEE73B68002B09D14FF03F0383F31188BFF36F8FBFF34F8F3B61FEE7294B1B68002B09D04FF063
:405540003F0383F31188BFF36F8FBFF34F8F7B61FEE700F095F8224B1B683B627B681A683B681344FB617B681A683B6A9A420BD97B681A68FB699A4211D9FA693B6A9A42D7
:405580000DD901237B620AE07B681A68FB699A4203D8FA693B6A9A4201D901237B627B68FA691A607B6A002B06D0FA693B6AD31A0021184600F058FC00F070F8B861BB69E8
:4055C000002B07D1074B4FF080521A60BFF34F8FBFF36F8F00BF2837BD4680BD804F02085C4F020804ED00E080B586B002AF1E4B019300230093002380221C491C48FFF77B
:405600003BFEF860FB68012B02D100F081FCF860FB68012B15D14FF03F0383F31188BFF36F8FBFF34F8F7B60124B4FF0FF321A60114B01221A60114B00221A6000F0B8FFB3
:405640000DE0FB68B3F1FF3F09D14FF03F0383F31188BFF36F8FBFF34F8FBB60FEE700BF1037BD4680BD00BF7C4F0208B4750810B95C0810784F0208644F02085C4F0208C3
:4056800080B400AF044B1B680133034A136000BFBD465DF8047B7047804F020880B584B000AF0023FB600023BB60414B1B68002B09D14FF03F0383F31188BFF36F8FBFF341
:4056C0004F8F3B60FEE700F0EDFF394B1B68013B374A1360364B1B68002B62D1354B1B68002B5ED02FE0344BDB68DB68FB60FB6818331846FFF70CF9FB6804331846FFF717
:4057000007F9FB68DA6A2D4B1B689A4203D9FB68DB6A2A4A1360FB68DA6A13469B0013449B00274A1A44FB68043319461046FFF791F8FB68DA6A234B1B68DB6A9A4202D3C8
:40574000214B01221A601C4B1B68002BCBD1FB68002B01D000F044FB1C4B1B687B607B68002B10D000F046F80346002B02D0164B01221A607B68013B7B607B68002BF1D1F2
:40578000124B00221A60104B1B68002B09D00123BB600F4B4FF080521A60BFF34F8FBFF36F8F00F0ADFFBB6818461037BD4680BD804F0208584F0208184F0208604F020852
:4057C0005C4E0208584E02086C4F0208684F020804ED00E080B483B000AF054B1B687B607B6818460C37BD465DF8047B704700BF5C4F020880B586B000AF00237B61494BF7
:405800001B68002B7DD1484B1B6801333B61464A3B6913603B69002B1FD1444B1B681B68002B09D04FF03F0383F31188BFF36F8FBFF34F8F3B60FEE73C4B1B68FB603C4B4B
:405840001B683A4A13603A4AFB681360394B1B680133384A136000F0C3FA374B1B683A699A4253D3314B1B681B68002B01D1012300E00023002B04D02F4B4FF0FF321A60C4
:4058800044E02A4B1B68DB68DB68BB60BB685B687B603A697B689A4203D2274A7B68136034E0BB6804331846FFF732F8BB689B6A002B04D0BB6818331846FFF729F8BB6853
:4058C000DA6A1E4B1B689A4203D9BB68DB6A1B4A1360BB68DA6A13469B0013449B00184A1A44BB68043319461046FEF7B3FFBB68DA6A144B1B68DB6A9A42B3D301237B61CD
:40590000B0E7114B1B6801330F4A13600F4B1B68002B01D001237B617B6918461837BD4680BD00BF804F02085C4F0208104F0208144F0208704F0208784F0208604F0208D1
:405940005C4E0208584E0208684F02086C4F020880B586B000AF3A4B1B68002B03D0394B01221A6067E0374B00221A60364B1B681B6B3B614FF0A533FB603B691A68FB6876
:405980009A4211D13B6904331A68FB689A420BD13B6908331A68FB689A4205D13B690C331A68FB689A4208D0274B1A68264B1B6834331946104600F08BFF244B1B687B6173
:4059C0000FE07B69002B09D14FF03F0383F31188BFF36F8FBFF34F8F7B60FEE77B69013B7B611B497A6913469B0013449B000B441B68002BE5D07A6913469B0013449B009B
:405A0000134A1344BB60BB685B685A68BB685A60BB685A68BB6808339A4204D1BB685B685A68BB685A60BB685B68DB68064A1360064A7B69136000BF1837BD4680BD00BFF9
:405A4000804F02086C4F0208584E0208604F02085C4E020880B584B000AF786039607B68002B09D14FF03F0383F31188BFF36F8FBFF34F8FFB60FEE7074B1B68183319466B
:405A80007868FEF70BFF0121386800F0EDF900BF1037BD4680BD00BF584E020880B586B000AFF860B9607A60FB68002B09D14FF03F0383F31188BFF36F8FBFF34F8F7B6141
:405AC000FEE70A4B1B6818331946F868FEF7C2FE7B68002B02D04FF0FF33BB607968B86800F0C2F900BF1837BD4680BD584E020880B586B000AF78607B68DB68DB683B611D
:405B00003B69002B09D14FF03F0383F31188BFF36F8FBFF34F8FFB60FEE73B6918331846FEF7F6FE1D4B1B68002B1DD13B6904331846FEF7EDFE3B69DA6A194B1B689A42AE
:405B400003D93B69DB6A164A13603B69DA6A13469B0013449B00134A1A443B69043319461046FEF777FE05E03B69183319460E48FEF770FE3B69DA6A0C4B1B68DB6A9A423B
:405B800005D901237B610A4B01221A6001E000237B617B6918461837BD4680BD804F0208604F02085C4E0208184F0208584E02086C4F020880B483B000AF7860064B1A6877
:405BC0007B681A60054B1A687B685A6000BF0C37BD465DF8047B7047704F02085C4F020880B588B000AF786039607B68002B09D14FF03F0383F31188BFF36F8FBFF34F8F86
:405C0000FB60FEE73B68002B09D14FF03F0383F31188BFF36F8FBFF34F8F3B61FEE700F041FD1D4B1B68BB617B685B68BA69D31A7B613B681B68B3F1FF3F02D10023FB610A
:405C400023E07B681A68154B1B689A4207D07B685A68BB699A4202D80123FB6115E03B681A687B699A420BD93B681A687B69D21A3B681A607868FFF79DFF0023FB6104E082
:405C80003B6800221A600123FB6100F039FDFB6918462037BD4680BD5C4F0208704F020880B400AF034B01221A6000BFBD465DF8047B70476C4F020880B582B000AF78605A
:405CC00000F052F8064B1B68012BF9D9054B4FF080521A60BFF34F8FBFF36F8FF0E700BF5C4E020804ED00E080B582B000AF00237B600CE07A6813469B0013449B00124A3E
:405D000013441846FEF778FD7B6801337B607B68062BEFD90D48FEF76FFD0D48FEF76CFD0C48FEF769FD0C48FEF766FD0B48FEF763FD0B4B054A1A600A4B054A1A6000BF0E
:405D40000837BD4680BD00BF5C4E0208E84E0208FC4E0208184F02082C4F0208444F0208104F0208144F020880B582B000AF19E000F098FC0F4BDB68DB687B607B680433CC
:405D80001846FEF7C5FD0C4B1B68013B0A4A13600A4B1B68013B094A136000F0B1FC786800F00EF8054B1B68002BE1D100BF0837BD4680BD2C4F0208584F0208404F0208E7
:405DC00080B582B000AF78607B681B6B184600F0DBFD786800F0D8FD00BF0837BD4680BD80B483B000AF0F4B1B681B68002B01D1012300E00023002B04D00B4B4FF0FF32E4
:405E00001A6008E0074B1B68DB68DB687B607B685B68054A136000BF0C37BD465DF8047B704700BF104F0208784F020880B483B000AF0B4B1B68002B02D101237B6008E005
:405E4000084B1B68002B02D102237B6001E000237B607B6818460C37BD465DF8047B7047644F0208804F020880B584B000AF78603960214B1B68FB60204B1B680433184671
:405E8000FEF746FD7B68B3F1FF3F0AD13B68002B07D01A4B1B68043319461948FEF7DAFC26E0FA687B681344BB60144B1B68BA685A60BA68FB689A4209D2124B1A680F4BCB
:405EC0001B68043319461046FEF7E8FC10E00E4B1A680A4B1B68043319461046FEF7DEFC0A4B1B68BA689A4202D2084ABB68136000BF1037BD4680BD5C4F0208584E0208BF
:405F0000444F0208144F0208104F0208784F020880B584B002AF00237B6000F08DFA104B1B68002B0AD00F4B019303230093002380220D490D48FFF79FF978607B68002B20
:405F400009D14FF03F0383F31188BFF36F8FBFF34F8F3B60FEE77B6818460837BD4680BDB44F0208B84F0208BC7508108960081080B58AB000AFF860B9607A603B600023A8
:405F80007B62FB68002B09D14FF03F0383F31188BFF36F8FBFF34F8F3B62FEE7194B1B68002B2AD0BB687B617B68BB61FB68FB61BB68052B18DCFFF739FF0346022B09D1BC
:405FC000104B186807F1140100233A6BFEF78CFD786212E00B4B186807F1140100230022FEF782FD786208E0064B186807F1140100233A68FEF772FE78627B6A18462837C5
:40600000BD4680BDB44F020880B588B002AF786039601C4B1B68DB68DB687B617B6904331846FEF775FC7B69DB69012B21D17B699A697B68D1187B683A68786900F0C8F84A
:406040000346002B15D00023009300237A6800217869FFF78DFF38613B69002B09D14FF03F0383F31188BFF36F8FBFF34F8FFB60FEE77B695B6A7869984700BF1837BD46BC
:4060800080BD00BFAC4F020880B584B000AF786007F10803184600F057F8F860BB681946F86800F003F800F0D5F8F1E780B584B000AF78603960FFF7E3FA07F108031846D8
:4060C00000F066F8F860BB68002B30D13B68002B0AD17A68FB689A4206D8FFF7DFFAF9687868FFF791FF24E03B68002B08D0134B1B681B68002B0CBF01230023DBB23B60FA
:406100000F4B18687A68FB68D31A3A681946FFF77FF8FFF7C3FA0346002B0AD1094B4FF080521A60BFF34F8FBFF36F8F01E0FFF7B5FA00BF1037BD4680BD00BFB04F020830
:40614000B44F020804ED00E080B485B000AF78600E4B1B681B68002B0CBF01230023DBB21A467B681A607B681B68002B05D1074B1B68DB681B68FB6001E00023FB60FB684C
:4061800018461437BD465DF8047B7047AC4F020880B584B000AF7860FFF71CFBF8600B4B1B68FA689A4205D200F0E6F87B6801221A6002E07B6800221A60044AFB6813608D
:4061C000FB6818461037BD4680BD00BFBC4F020880B586B000AFF860B9607A603B6000237B61FB68BA685A60FB68FA681A61BA687B689A4212D87A683B68D21AFB689B6962
:406200009A4202D301237B611BE0104B1A68FB68043319461046FEF741FB12E07A683B689A4206D2BA683B689A4202D301237B6107E0074B1A68FB68043319461046FEF7B5
:406240002DFB7B6918461837BD4680BDB04F0208AC4F020880B58CB002AF7AE0BB68002B77DB3B697B627B6A5B69002B04D07B6A04331846FEF74CFB3B1D1846FFF788FFE9
:406280003862BB68092B63D801A252F823F000BFB9620810B9620810B9620810536308101363081049630810B9620810B96208105363081013630810FA687B6A9B69D11844
:4062C000FB683A6A786AFFF783FF0346002B40D07B6A5B6A786A98477B6ADB69012B38D1FA687B6A9B691A440023009300230021786AFFF73DFEF861FB69002B29D14FF019
:406300003F0383F31188BFF36F8FBFF34F8F7B61FEE7FA687B6A9A617B6A9B69002B09D14FF03F0383F31188BFF36F8FBFF34F8FBB61FEE77B6A9A693B6AD1183B6A3A6A4B
:40634000786AFFF745FF04E0786A00F01DFB00E000BF084B1B6807F1080100221846FEF751FD0346002B7FF479AF00BF2837BD4680BD00BFB44F020880B588B002AF44E07F
:406380002B4B1B68DB681B687B61294B1B68DB68DB683B613B6904331846FEF7B9FA3B695B6A386998473B69DB69012B2DD13B699A697B691344FB60FA687B699A420ED907
:4063C0003B69FA685A603B693A691A61184B1A683B69043319461046FEF760FA15E00023009300237A6900213869FFF7C1FDB860BB68002B09D14FF03F0383F31188BFF3AE
:406400006F8FBFF34F8F3B60FEE7094B1B681B68002BB5D1064B1B687B60064B1B68044A1360044A7B68136000BF1837BD4680BDAC4F0208B04F020880B500AF00F032F900
:40644000124B1B68002B1DD11148FEF7D5F91148FEF7D2F9104B0E4A1A60104B0D4A1A6000220C210A20FEF7E5FA0246074B1A60064B1B68002B05D0044B1B6808491846DF
:40648000FEF79EFE00F03CF900BF80BDB44F0208844F0208984F0208AC4F0208B04F0208C475081080B485B000AFF860B9607A60FB68043BFB60FB684FF080721A60FB681F
:4064C000043BFB60BB6823F00102FB681A60FB68043BFB600C4AFB681A60FB68143BFB607A68FB681A60FB68043BFB60FB686FF002021A60FB68203BFB60FB68184614378E
:40650000BD465DF8047B70470D65081080B485B000AF00237B60114B1B68B3F1FF3F09D04FF03F0383F31188BFF36F8FBFF34F8FBB60FEE74FF03F0383F31188BFF36F8F83
:40654000BFF34F8FFB6000BF7B68002BFCD000BF1437BD465DF8047B704700BF1C430208074B19680868B0E8F04F80F30988BFF36F8F4FF0000080F311887047AFF30080E5
:40658000584E020800BF00BF08480068006880F308884FF0000080F3148862B661B6BFF34F8FBFF36F8F00DF00BF00BF08ED00E080B584B000AF354BFB60FB681B78DBB225
:4065C0007B60FB68FF221A70FB681B78DBB2FB70FB78DBB203F03F03DAB22D4B1A702D4B07221A6009E02B4B1B68013B294A1360FB78DBB25B00DBB2FB70FB78DBB25BB282
:40660000002BF0DB234B1B68C3F10703032B09D04FF03F0383F31188BFF36F8FBFF34F8FBB60FEE71B4B1B681B021A4A1360194B1B6803F4E063174A13607B68DAB2FB683A
:406640001A70154A144B1B6843F47F031360124A114B1B6843F07F43136000F0CDF80F4B00221A6000F0ECF80D4A0D4B1B6843F040431360FFF788FFFFF76AF9FFF746FF95
:40668000002318461037BD4680BD00BF00E400E0C04F0208C44F020820ED00E01C43020834EF00E080B483B000AF4FF03F0383F31188BFF36F8FBFF34F8F3B600E4B1B6863
:4066C00001330D4A13600C4B1B68012B0ED10B4B1B68DBB2002B09D04FF03F0383F31188BFF36F8FBFF34F8F7B60FEE700BF0C37BD465DF8047B70471C43020804ED00E0F3
:4067000080B483B000AF114B1B68002B09D14FF03F0383F31188BFF36F8FBFF34F8F3B60FEE70A4B1B68013B084A1360074B1B68002B04D100237B607B6883F3118800BFB2
:406740000C37BD465DF8047B704700BF1C430208EFF30980BFF36F8F154B1A681EF0100F08BF20ED108A20E9F04F10602DE909004FF03F0080F31188BFF34F8FBFF36F8FE7
:40678000FFF7E6F84FF0000080F3118809BC19680868B0E8F04F1EF0100F08BFB0EC108A80F30988BFF36F8F704700BFAFF30080584E020800BF00BF80B582B000AF4FF034
:4067C0003F0383F31188BFF36F8FBFF34F8F3B60FFF710F80346002B03D0064B4FF080521A6000237B607B6883F3118800BF0837BD4680BD04ED00E080B400AF0B4B0022F2
:406800001A600B4B00221A600A4A0B4B1B680B49A1FB03131B0C013B1360044B07221A6000BFBD465DF8047B704700BF10E000E018E000E014E000E0004302083BC637BE26
:40684000DFF80C00016841F470010160704700BF88ED00E080B485B000AFEFF30583FB60FB680F2B13D9164AFB6813441B78FB72144B1B78FA7A9A4209D24FF03F0383F366
:406880001188BFF36F8FBFF34F8F3B60FEE70E4B1B6803F4E0620D4B1B689A4209D94FF03F0383F31188BFF36F8FBFF34F8F7B60FEE700BF1437BD465DF8047B704700BFEA
:4068C000F0E300E0C04F02080CED00E0C44F020880B584B000AF786039604FF03F0383F31188BFF36F8FBFF34F8FFB604FF441710148FBF779F9FEE7D075081080B584B0D5
:4069000000AF78600023FB607B6803F00703002B04D07B6823F0070308337B60FEF7B0FE164B1B68002B05D1154B23F007031A46124B1A60134B1A687B68134442F2F7726A
:40694000934213D80F4B1A687B681A440D4B1B689A420BD9094B1A680A4B1B681344FB60084B1A687B681344064A1360FEF796FEFB6818461037BD4680BD00BFCC77020890
:40698000D04F0208C877020880B485B000AF78607B68002B09D04FF03F0383F31188BFF36F8FBFF34F8FFB60FEE700BF1437BD465DF8047B704700BF80B483B000AF0346C8
:4069C000FB80B7F90630002B0BDB0949B7F906305B09FA8802F01F02012000FA02F241F8232000BF0C37BD465DF8047B704700BF00E100E080B487B000AF0346B9607A6003
:406A0000FB73324B7B61FB7B002B27D1BB68072B54D87B68FF2B51D8BB689A002C4B1B689B682B490968B1F874100B4413441846BB689A00264B1B689B6825490968B1F833
:406A400074100B4413441B6823F47F427B681B029BB21343036000237B612FE0FB7B012B2CD1BB680F2B29D87B68B3F5803F25D2BB689A00164B1B689B6815490968B1F823
:406A800076100B4413441846BB689A00104B1B689B680F490968B1F876100B4413441B6823F47F0222F47F427B681B0223F07F4323F0FF031343036000237B617B6918463A
:406AC0001C37BD465DF8047B704700BF01004A00DC77020890B484B000AF03463960FB712E4BFB60FB79032B52D8FB79002B02D13B68072B11D9FB79012B02D13B680F2BB8
:406B00000BD9FB79022B02D13B68032B05D9FB79032B3DD13B68002B3AD1214B1B689B6818461F4B1B6893F873301A46032303FA02F21B4B1B6893F870301946184B1B688A
:406B400093F8723001FA03F31A43FB791449096891F8711003FA01F1114B1B6893F871301C460323A3400B401A430D4B1B6893F8703019463B680B40134343F00043C0F86A
:406B80000034074B1B689B68D3F800340023FB60FB6818461037BD4690BC704701004A00DC77020880B485B000AF03463960FB71224BFB60FB79032B38D8FB79002B02D144
:406BC0003B68072B11D9FB79012B02D13B680F2B0BD9FB79022B02D13B68032B05D9FB79032B23D13B68002B20D1154B1B689B681946FB79124A126892F8712003FA02F28F
:406C00000F4B1B6893F871301846032383401A400B4B1B6893F8703018463B680340134343F08043C1F800340023FB60FB6818461437BD465DF8047B704700BF01004A0007
:406C4000DC77020880B500AF03210020FFF742FF00BF80BD80B500AF03210020FFF7A2FF00BF80BD80B582B000AF78607A6803210020FFF7BFFE00BF0837BD4680BD00BFDD
:406C800080B500AF0248FBF75BFA00BF80BD00BF00001D4180B500AF094B1B7803F00103DBB2002B08D100F04FF8054B1B7843F00103DAB2024B1A70FFF7E2FF00BF80BD6C
:406CC000D077020880B584B000AF78600023FB73FFF7C0FF7B681B691846FFF7C3FFFFF7B1FFFB7B19460648FBF7CAF97B689B6819460348FBF754F800BF1037BD4680BDFE
:406D000000001D4180B500AF084B5B6803F48023002B04D001210548FBF72EFA03E000210248FBF729FA00BF80BD00BF00001D4180B500AF034BB3F900301846FFF73CFEC1
:406D400000BF80BDB470081080B582B000AF00237B600F4B1B78002B16D10E490E48FAF7BBFE0E4B1B78002B0ED10C4B01221A7000237B607A6813469B0013449B00084A5F
:406D800013441846FFF79EFF00BF0837BD4680BDD0770208F56D0810B4700810D1770208D476081080B483B000AF78607B68D3F8103218460C37BD465DF8047B704700BFC6
:406DC00080B582B000AF786039603B68072B04D940F231610648FAF707FF7B683A68C3F810227B68D3F8103200BF0837BD4680BD2076081080B582B000AF0848FFF7D2FFD6
:406E00007860F9F755FE79680448FFF7D9FF0348FFF7C8FF00BF0837BD4680BD00001D4180B483B000AF0346FB80B7F90630002B0BDB0949B7F906305B09FA8802F01F0296
:406E4000012000FA02F241F8232000BF0C37BD465DF8047B704700BF00E100E080B483B000AF78607B681B6843F000427B681A6000BF0C37BD465DF8047B704780B500AFDD
:406E800002490348FDF79CFA00BF80BD907802080000664080B500AF0D4B1B78002B0BD10C4A0D490D48FCF7F9FF0D490D48FAF713FE074B01221A700A4BB3F90030184601
:406EC000FFF7AEFF0548FFF7C9FF00BF80BD00BFD877020890780208E8760810000066407D6E0810AC70081080B483B000AF0346FB71044AFB79137000BF0C37BD465DF801
:406F0000047B70471C17344010B5431E0A44914204D011F8014B03F8014FF8E710BD02440346934202D003F8011BFAE7704710B5034642B111F8014B03F8014B013A002C24
:406F4000F7D11A4400E010BD934202D003F8014BFAE710BDF8B500BFF8BC08BC9E467047F8B500BFF8BC08BC9E467047426C696E6B5461736B310000426C696E6B546173D8
:406F80006B320000426C696E6B5461736B33000041444353616D706C655461736B30000041444353616D706C655461736B31000041444353616D706C655461736B320000B4
:406FC00041444353616D706C655461736B3300000300000001000000010000000000000005036000040000000100000000000000010000000604600008000000C04D0208A5
:40700000DD07081047656E6572617465645F536F757263655C50536F43365C70646C5C647269766572732F7065726970686572616C2F6770696F2F63795F6770696F2E682F
:407040000000000047656E6572617465645F536F757263655C50536F43365C70646C5C647269766572732F7065726970686572616C2F6770696F2F63795F6770696F2E68EB
:407080000000000047656E6572617465645F536F757263655C50536F43362F4144432E68000000002C000000070000002E000000070000008A0000000700000047656E6585
:4070C00072617465645F536F757263655C50536F43365C70646C5C647269766572732F7065726970686572616C2F6970632F63795F6970635F6472762E68000047656E65A6
:4071000072617465645F536F757263655C50536F43365C70646C5C647269766572735C7065726970686572616C5C6970635C63795F6970635F6472762E68000047656E65DE
:4071400072617465645F536F757263655C50536F43365C70646C5C647269766572735C7065726970686572616C5C6970635C63795F6970635F6472762E63000047656E65A3
:4071800072617465645F536F757263655C50536F43365C70646C5C647269766572735C7065726970686572616C5C6970635C63795F6970635F6472762E68000047656E655E
:4071C00072617465645F536F757263655C50536F43365C70646C5C647269766572735C7065726970686572616C5C6970635C63795F6970635F6472762E68000047656E651E
:4072000072617465645F536F757263655C50536F43365C70646C5C647269766572735C7065726970686572616C5C6970635C63795F6970635F706970652E630047656E6580
