:020000041000EA
:4000000000400208230100100D00000085010010000000000000000000000000000000000000000000000000000000008101001000000000000000008101001081010010E9
:400040008101001081010010810100108101001081010010810100108101001081010010810100108101001081010010810100108101001081010010810100108101001060
:400080008101001081010010810100108101001081010010810100108101001081010010810100108101001081010010810100108101001081010010810100108101001020
:4000C00010B5064C2378002B07D1054B002B02D0044800E000BF0123237010BD340600080000000054340010084B10B5002B03D00749084800E000BF07480368002B00D1AA
:4001000010BD064B002BFBD09847F9E7000000003806000854340010E4000008000000007047FFF7FDFF72B60F4C104DAC4209DA21686268A368043B02DBC858D050FAE72D
:400140000C34F3E70A490B4A0020521A02DD043A8850FCDC084809490860BFF34F8F00F001F900F01DF8FEE7583400107034001034060008440800080000000808ED00E033
:40018000FEE7FEE700B504207146084202D0EFF3098001E0EFF30880043001F07FFBFEE710B5034800F064F9002001F033FFFBE70000081010B5002001F0EEF810BDC04666
:4001C00070B55F49E0239B00CB580F2213401A00D0329200525807210A4002D0042A02D00FE0584811E01A00C0329200544952581F210A40112A06D0132A04D0FA20C00165
:4002000003E0514801E080200002002B36D14C4BB222D2009A5801211140B125ED005A59120F032422405B591B0F1C4207D0444C63591B0F03242340012B02D102E00123B3
:4002400000E00023002B01D0002901D1032A4BD13B4BB022D2009D58AD03AD0B3B495958C904C90C9C58240E01231C40013401F0EFFF6843210001F0EBFF35E0012B33D137
:400280002F4BC822D2009A5801251540C024E4001A59120F03210A401B591B0F194207D027490B591B0F03210B40012B02D102E0012300E00023002B01D0002D01D1032A64
:4002C00012D11F4DC022D200AB587F210B40A958090A1F263140AC58240C3440584301F0B7FF210001F0B4FFE0239B00144AD3581B0903221340D840154C2060154B1D69F2
:400300002D0AFC32154001351969090E013101F09FFF6060290001F09BFF0500A060E0600D4BC0180D4901F093FF20740C4BE818FA21890001F08CFF6061C003A06170BDF4
:400340000000264000127A0000366E0184050000C0000008000021403F420F0040420F00E703000010B5284801F06CFF274CB022D200A3585B005B08A350E0218900635890
:4003800030208343635080235B04A350204A214BE250A02292010433E250FF221E4BE25001F03EFFC0225200A35801218B43A35000F05AFAFFF704FFB0235B055B78002B4F
:4003C00004D0B0235B055B78DBB200E02123212B03D1124B0022DA605A60114C22008021042000F07FFD2000103000F013FE0D4B1A685123D35C002B02D00B4800F080FE93
:4004000000F048FC10BDC0469C3300100000264001000200840500008C050000E00023405006000840080008D82300108023024AD3580320184070470000214010B501F0F4
:40044000C0FA084980228C58074B2340074C23438B508823034AD358DB06FAD501F0B5FA10BDC04600002140FCFF00000100FA0570B50500830504D0E821FF310F4801F0F9
:40048000DFF901F09EFA0400FFF7D0FF032801D1FFF7D4FF0A4AB0239B00D55080215058084B03400848034353508823044AD358DB06FAD5200001F088FA70BD0C24001079
:4004C00000002140FCFF00000300FA05FEE7C046F0B50025002711E0BB00C658F3B2FF22964308E06A008A181478A419527822700135013BDBB2002BF4D10137042FEBD9A2
:40050000F0BDC04680221206054B1A600F23054A1360054A1360054A054B1A607047C04600001D4100031D4140031D4101001180000E1F4110B50A00002101F01EFF10BDCD
:4005400010B501F011FF10BD30B587B0B449A022D2008B58032083438B50B24A116808688823CB58C3181868AF49084018601368186884241B59C01803681B021B0A80258D
:400580006D042B430360106805680359EB1818680140196013683E229A5C002A06D0A048E02189004258753CA24342503E229A5C002A06D09A48E021890042583024A243E1
:4005C00042503E229B5C002B07D09549E02292008B588020000603438B500021012000F00DFF0021022000F009FF0021032000F005FF0021042000F001FF0021002000F0DD
:40060000FDFE01A8894903000A0032CA32C312CA12C300F021FF002802D00420FFF756FF7F49834A8B588020000603438B50814800F0CCFF002802D00420FFF747FF784C3B
:400640007D4BE1587D4A0A40E250E1587C4A0A40E250E25880252D062A43E250043BE158784A0A40E250E158774A0A40802189010A43E250E258802109020A43E250734A44
:400680001168734B0B40802149000B431360002001F03CFD6F4BE2581543E550E158012291430A43E2506421002001F00FF95D4B1B683F229A5C032A06D970229A5C0121BD
:4006C0000A406549986842509A6874215B5AD2185168554B0B40A021C9000B435360514B1B6873229A5C0321914070229A5C7220185C140084402143012002400A43802151
:4007000009060A438021C900986842509A6852583F229A5C052A06D970229A5C02210A404E49986842509A6874215B5AD21891683D4B0B408C2189010B439360394B1B68B1
:4007400073229A5C0321914070229A5C7220185C140084402143022002400A43802109060A438021C900986842509A6852583F229A5C132A03D90021394A986881509A68F2
:4007800074215B5AD3181968274A0A401A60254B1B687322995C703A8A40110070229A5C7220185C82400A43802109060A438021C900986842509A6852583F229A5C392A50
:4007C00006D970229A5C03210A402649986842509A6874215B5AD218D168134B0B40C42189010B43D3600F4B1A687323D35C032004009C407023D35C7221515C1D008D408B
:400800002900214303400B43802109060B438021C9009068435093685B5807B030BDC0460000264040080008FF00FFFF24240010087F0000400D030004050000FEFCFFFF6C
:40084000FFFF00FFFFF0FFFFFF8FFFFF00002740FFFCFFFF0C0500000C0C0000140C00004C0C0000E40C0000F0B58BB09621002001F02CF801F002F8002801D100F0EEFF83
:40088000012001F0E1FA844A516C844B0B40E82189010B435364536C1B0AFF2213403A2B07D17D4A516C7E4B0B40E82189010B435364002300227B497B4801F045FC012327
:4008C00000227A49C220C00001F03EFC002300227749784801F038FC002300227649774801F032FC002300227549764801F02CFC002300227449312001F026FC00230022F5
:400900007249734801F020FC002300227149302001F01AFC002300226F49704801F014FC002300226E492F2001F00EFC002300226C496D4801F008FC002300228021C9058A
:400940002E2001F001FCFFF7FFFD684A684B1A6000240CE0620012195300664AD318198B9A8AD88A00041043FFF7E4FD01340B2CF0D900240AE06200121993005D4AD31892
:400980005A6E196ED86DFFF7DBFD0134112CF2D9594D2800143059493431FFF799FD0F22574B1A60574A584B1A6084229200574B1A60574A1368832149000B43136001AC1D
:4009C00022002B00283343CB43C243CB43C243CB43C221004F4800F065F922002B004C3343CB43C243CB43C243CB43C221004A4800F058F922002B00703343CB43C243CB06
:400A000043C243CB43C22100444800F04BF9444E22003300143383CB83C283CB83C283CB83C221003F4800F03DF922003300383383CB83C283CB83C283CB83C221003A48EC
:400A400000F030F9220033005C3343CB43C243CB43C243CB43C22100344800F023F922002B004C3323CB23C223CB23C223CB23C221002F4800F016F924220021200001F043
:400A80007CFCCC23DB05E36021002A4800F00AF9FFF738FD0BB0F0BD00002740FF00FFFFFFC5FFDF070B0040090B0000000600400E0E0040060E0000000200402902000004
:400AC000060E0040020E000003000040050E0040070E000002000040040E0040080E000001000040030E0040030E00000300FA05F001214024240010A425001024250010BC
:400B00000000644007010100000264402001384000793440000032408000324080023240242600100003324080043240000532408005324080063240214B984230D00ED82D
:400B4000402831D004D800281FD010282AD031E080282BD080235B00984229D02AE0194B984229D007D8A0231B0698420DD0164B984212D01EE0154B98420AD0144B98423F
:400B800009D0144B984215D101E0002016E0124814E0124812E0124810E0A020C0030DE007480BE00F4809E00F4807E00F4805E0034803E00E4801E0A420C0037047C04655
:400BC00006005200010000F0090000A0040000F0050000F0030000F0010052000200520003005200010050000200500005005200FF00520070B5124B1A683123D35C002B2E
:400C000004D1C421FF310F4800F01AFE0C4B1D682C00B423EB582A6A944663441B68002B0BDB094B1868FFF787FF6B6801229A6063689B68002BFBD100E0044870BDC0463C
:400C400040080008D42F0010E00700080200500010B50D4B1861002805D002230370FD33437000234380094B1B6850229A5C002A08D051229B5C002B04D04F3A044900203C
:400C800000F0F8FA10BDC046E0070008400800085D01000810B502481430FFF7D9FF10BDE007000870B505000C0000285DD000295DD0FF230A689A4303D099212D4800F0B9
:400CC000BFFDFF2322699A4303D09A21294800F0B7FDA3685B0D03D09B21264800F0B0FD63685B0A03D09C21224800F0A9FDE3695B0F03D09D211F4800F0A2FD236A5B0F0A
:400D000003D09E211B4800F09BFD1B4A11688B69EB1ADB0949691B01CB18216829607D211068415C6918E06808607E211068415C6918206908607F211068415C69186069AF
:400D400008607C211068415C6918A06808606168A961116880228A5CAD18A2692A60E2691A60226A5A60002002E0044800E0034870BDC046143000104008000801005A0084
:400D800070B504000D000A4B1A68B423D3581B181B68002B0ADA0B0C03D00649064800F04FFD2D042D0C6560002000E0034870BD40080008D50200009430001001008A006F
:400DC00070B505000C000368002B01DA002300E0084B002B0BD1EA60230C03D00649074800F02EFD2404240CAC60002000E0014870BDC04601008A00BB02000094300010EE
:400E000070B505000C1E03D19921084800F018FD074B1A68B423D3585B191B68002B03DAEB682360002000E0024870BDD43000104008000801008A0070B504000D00234BC6
:400E40001A683123D35C834236D9002936D00B68DB0635D13123D35C984204D3C421FF311B4800F0EDFC194B1B681A6AB0215B5A5C431419174E34602B68DA08002168686F
:400E800001F07BFA00212000FFF77AFF3468002D03D111490E4800F0D3FC2A0000212000FFF78EFF00280DD10A4B18680021FFF767FF002808D108E0084806E0074804E078
:400EC000064802E0064800E0054870BD4008000894300010F80700089303000003018A0001018A0010B50400002A17D1002915D1124B1A683123D35C984204D3C421FF312D
:400F00000F4800F09DFC0D4B1B681A6AB0215B5A5C4314190B4B1C6000200EE0002A09D0002909D0074B59609A60191D2000FFF783FF02E0044800E0034810BD40080008F2
:400F400094300010F807000803018A00F0B583B00D001C4B1B68DC68236883422DD947097B01C01A012383401E00002903D100F028FD019001E000230193124B1868036871
:400F8000002B01DA002300E00F4B002B0ED16368BF00DF193B68334203D0B3433B60002400E00A4C0021FFF7EBFE00E0084C002D04D1019800F009FD00E0064C200003B0A2
:400FC000F0BDC046F807000801008A00020188000301880004018A000A4B1B68DA68136883420BD943095901401A0121814052689B009B580B4203D0034802E0034800E025
:4010000003487047F80700080101880004018A0000018800034B1B68002B01D1014B18607047C04604080008F0B5474680B404000F0090461E002D4B1B68002B03D1B52165
:401040002B4800F0FDFB294B1B682C2060431C18FF22150035402560330A13406360360CA660244B1A683123D35C9D4204D3C421FF31214800F0E4FB1E4B1A68B023D35ACE
:401080006B43116A8C466344236166683223D35C9E4204D3E021FF31174800F0D1FB154B1B681D6A80367601AD196561A668330C04D0FF214900104800F0C2FB330C03D0F1
:4010C0000E490D4800F0BCFB3604330C1E43AE604346E36127620023A361069B002B02D000229B5EA38104BC9046F0BD04080008143100104008000894300010FF0100008B
:40110000F0B58FB0041E03D15221294800F098FB6368032B03D95421254800F091FBE36A002B03D15821224800F08AFB236B002B03D159211E4800F083FB07AA13002100D7
:4011400061C961C321C921C302AD290023001433C1CBC1C141CB41C10821535E0CAE3380144B1B6836215B5E07998C466344B370089B0D930B9B0A980096A26AE16AFFF712
:4011800053FF2B69E868002200920021FFF74CFF216B300000F0E6FA0023F25E002A05DB1F231A401E3B9340034A13600FB0F0BD143100104008000800E100E0F8B50500CE
:4011C0000F0016001C00002A03D1FD21224800F037FB224B1B68002B03D1FE211E4800F02FFB1E4B1B682C2128004843181879435918012213004D68AB401B044568AA40A3
:4012000015000269002A20D08F69002F1FD11268002A01DA002200E0114A002A19D132681204120C134333600369DE6001238B614C6204692B0C03D00A490B4800F000FBE6
:401240002A04120CA260002004E0084802E0084800E00748F8BDC046143100100408000801008A00BB0200009430001004028A0007028A0070B504000D0016000F4B1B68DF
:40128000002B04D1AF2149000D4800F0D9FA0B4B1B682C2060431C18236A002B04D1B1214900074800F0CCFAE369B34204D9236AB6009D51002000E0024870BD040800087A
:4012C000143100100A028A0070B582B0040000230193002804D1D221FF312D4800F0B0FA2369002B04D1E9214900294800F0A8FA6369002B04D1D421FF31254800F0A0FAF8
:40130000236A002B04D1EA214900214800F098FA6269D5682B0C24D01B041360136820691C4B1A68B423D358C3181B68002B18DA01A9FFF765FD00280ED1019803681E0C7B
:40134000FF221340E269934207D29B00226AD358002B02D0984700E0002631002069FFF70FFD2D042D0C0FD063691D601B68636A002B03D098470023636203E0A36A002B4E
:4013800000D098470023A36163691B6802B070BD143100104008000810B50400084B1B68002B04D1B221FF31064800F049FA044B1B682C2060431818FFF786FF10BDC04622
:4013C000040800081431001010B50400094B1B689B6CC340DB0703D4BE21074800F030FA044B1B681B691034A402E3580F20184010BDC0464008000854310010134B1A683F
:401400003C23D35C83421DD9042904D94B1EFF3B9BB2132B18D8FF290CD91F2319400C4A0300C0339B009950D03080000423835000200AE007231940D0308000044BC150DC
:40144000002002E0034800E002487047400800080000264001004A0070B5041E03D14A494A4800F0EDF9B023DB00494AD358002B00DA87E0474B22689A4203D94649434861
:4014800000F0DEF923689B039B0BE279002A02D08022520400E000221343B022D2003C498B50A2883D4B9A4204D984218900374800F0C6F92289344B9A4203D93849334846
:4014C00000F0BEF9A388DB04D90C23891B04354A13400B43344A2E498B50A37A0F2B04D986218900294800F0ABF9E37A0F2B03D92E49264800F0A4F9A289284B9A4203D9F7
:401500002B49224800F09CF9A37A0F211940E27A1201FF2313400B43A289120225490A401343A27B1207C02189050A401343B122D20017498B50A379042B03D91E49134815
:4015400000F07EF9228A104B9A4204D9892189000E4800F075F90E4818494558184B1D40A3791B02E022D20013402B4343504558144B1D40238A1B040A4A13402B4343501B
:40158000002000E0104870BDFF0100009431001000002640FFFF030009020000FF1F0000110200000000FF0184050000190200001A02000000FF1F00230200008C0500009A
:4015C000FFF8FFFFFFFF00FE03004A0070B505003149324A8B588020000603438B502C0003E0012000F020F9013CB223DB002A4AD3585B0701D4002CF3D12749B122D200E2
:401600008858274B03408020800503438B50002D01D0002C0CD02049B022D2008B588020000603438B5003E0012000F0FDF8013CB223DB00184AD358DB0701D4002CF3D108
:40164000002D01D0002C08D01349B122D2008B58C020800503438B5013E00F4BB121C90058580F4A02408020800502435A5008395A58520052085A5008495A5852005208BF
:401680005A50002D03D0002C03D0002002E0002000E0044870BDC046000026408C050000FFFFFFCF02004A0070B505000C001A4B1B6828229A5C012A15D1820807211000C0
:4016C000884327D19200AD1AED00FF20A8401B6820339A181168AC4023004B40184004004C40146016E03A229B5EDBB2994203D176210A4800F0A4F8074B1B681B68072266
:4017000015408022120615438022920194466444A400E55070BDC046400800081C32001070B504000D000B4B9A680B4B9A420CD1002904D13821FF31084800F081F81034B0
:40174000054BA400E058E55003E01034A400044BE05870BD00ED00E0000000081C32001000000010F0B5474680B482B0061E01914AD04368032B03D93221264800F060F820
:401780000023F05E002804DBB178FFF78DFF002400E0214C0023F15E7368002912DB88081E4FC0308000C55903221140C900FC3290468A4095439A01434613408B402B4312
:4017C000C35116E089B20F220A40083A92080632920013481018476803221140C900FF252A008A4097439A012B0013408B403B4343600B4B9A680B4B9A4206D10023F05E49
:401800000199FFF78DFF00E0034C200002B004BC9046F0BD1C3200100100560000E100E000ED00E00000000810B5034B1B78584300F0BEF810BDC046D000000801BEFEE7C7
:4018400070B50D00044C18220100200000F09DFDA5610020FFF7F2FFF8050008054B802212069A649B6C002B01DB002000E002487047C0460000274003004600054B802230
:40188000120198585B68FF221A4202D08023DB021843704700002640FEE7C04610B50A4B0268DA6142681A6282685A62C2689A620269DA6242691A6382695A63C2699A63E0
:4018C000FFF7EAFF10BDC046F8050008F0B5474680B4002801D0192300E064238B429B415B42304D2C682268A826A45BA41822680327BA433B401A4322602C682268A45B9D
:40190000A2181668284CA046264016602C682668AA229446A25A96193268BA43134333602A6813686546525BD3181A68444614401C60002805D010291BD921291BD8012092
:4019400024E0184B1B6855229A5C914215D956229A5C914213D957229A5C914211D958229A5C91420FD959229B5C99420DD804200CE000200AE0022008E0002006E001204E
:4019800004E0022002E0032000E00520054A1268526813680F218B430343136004BC9046F0BDC04640080008FFFCFFFF000000000230800803D001300238FCD1C046C046FF
:4019C0007047EFF3108072B6704780F31088704710B5B0235B059B899BB2002B04D0B0235B059B899BB201E080235B0080225200934215D1184C23681968683A9B58C9189D
:401A00000B680F208343963A13430B6021680C689C23CB58E318196881430A431A6019E00D4C2368196898229B58C918B02040050A4BC2580A4B13400A681343C022920073
:401A400013430B60226811689C23D358CB18054A82581A6010BDC0464008000848180000FFFCFFFF4418000030B5B0235B059B899BB2002B04D0B0235B059B899BB201E04D
:401A800080235B0080225200934215D1184C23681968683A9B58C9180B680F208343953A13430B6021680C689C23CB58E318196881430A431A6019E00D4D2B681968982294
:401AC0009B58C918B0246405C12040012258094B13400A681343C022920013430B602A6811689C23D358CB1822581A6030BDC04640080008FFFCFFFFB0235B059B899BB2E9
:401B0000002B04D0B0235B059B899BB201E080235B008022520093420DD1104B1B681A6898215B58D21811680D4B0B40C021C9010B43136011E0094B1B68196898229B5848
:401B4000C918084BB0225205D258074B13400A681343C022920013430B60704740080008FF8FFFFF18180000FFFCFFFF30B5B0235B059B899BB2002B04D0B0235B059B89A1
:401B80009BB201E080235B008022520093420DD1134B1B681A6898215B58D2181168114B0B408021C9010B43136018E00C4D2B68196898229B58C918B02464050A48225851
:401BC0000A4B13400A681343C022920013430B602A6811689C23D358CB1822581A6030BD40080008FF8FFFFF4C180000FFFCFFFF10B5B0235B059B899BB2002B04D0B02313
:401C00005B059B899BB201E080235B0080225200934217D10020FFF7D7FBB0235B055B78002B04D0B0235B055B78DBB200E02123222B03D8002803D1013004E0012002E063
:401C4000002000E0012010BD30B585B004000D00022807D9042805D0032803D02A492B48FFF7EEFD6B1EDBB2012B07D9042D05D0082D03D026492548FFF7E2FDA400254B86
:401C8000E458042D13D0012D1CD112E0A3682B420BD1E3681A6802925B6801930393290002A8236898471B4B5C61646902E0002000E00020002C24D0174B9842E6D1012DB5
:401CC000E4D11EE0022D01D104E01C006369002BFBD104E00F4B5C69002C00D0246900200DE0A3682B4209D1E3681A6802925B6801930393290002A8236898472469002C3E
:401D0000EFD105B030BDC046B209000060320010B309000008080008FF004200F8B50700012803D93D493E48FFF78AFDB0235B055B78002B04D0B0235B055B78DBB200E00F
:401D400021239DB2B0235B059B899BB2002B04D0B0235B059E89B6B201E0802676000020FFF732FB002814D180235B009E4212D1222D12D82B4B1B685C682B4821582B4B05
:401D800019403B068022520413400B432350002404E0274C02E0264C00E0254C80235B009E4201D1222D03D880235B009E4232D01C4B1A683123D35C002B04D1C421FF3122
:401DC0001C48FFF73DFD174B1B681D6A80235B009E4203D1002F05D0174A06E0002F03D0164A02E0164A00E0164A01212800FEF7E7FF00280FD10B4B1A68B423D3585B1987
:401E00001B68002BF7DBEB681B0E1B06A0221206934200D100242000F8BDC0464C0A0000603200104008000818F00000FFFFFFFE04004200D42F0010010100300300000C21
:401E4000010000300100000CF8B50500012804D9822109012948FFF7F3FCFFF7C9FE002849D0FFF7AEFD0700002D11D10021244B244AD150E823DB00B0225205D65CF6B2AC
:401E80000120FFF74BFF041E19D1FFF7A1FD16E0B02252051C4BD0581A4B194958501B49565CF6B21A481A581F218A4314390A431A500320FFF7B8FCFFF758FE0024002CF8
:401EC00015D11049124A8B581F20834306401E438E50002D02D1FFF70FFE08E00720FFF7A3FCFFF7C1FD0020FFF718FF04003800FFF76BFD00E0074C2000F8BD603200100E
:401F0000307F00000000264010180000410700001CFF00000300420010B5041E03D115491548FFF78DFC154B1A68D168F222D2018A5822601B68F022D201D9688A58626014
:401F40000F4AD9688A58A2600E4AD9688A58E2600D4AD9688A5822610C4AD9688A5862610B4AD9688A58A261DA680A4BD358E36110BDC046A10A00006032001040080008FC
:401F800004780000087800000C78000010780000147800001878000010B5041E03D114491448FFF74DFC144B1B68F022D201D96860688850114AD968A0688850104AD9688B
:401FC000E06888500F4AD968206988500E4AD968606988500D4AD968A06988500C4AD968E0698850DA682168F223DB01D15010BDC90A000060320010400800080478000070
:40200000087800000C78000010780000147800001878000070B50500012804D9A62189003548FFF70DFC354B5B68002B05D001210120FFF709FE040000E00024002C53D121
:40204000FFF7BFFC06002D4B5B68002B03D004210120FFF7F9FD2A4B1B6843229A5C002A08D09A68E023D358DB0603D523481830FFF752FFB0235B059B899BB2002B04D063
:40208000B0235B059B899BB201E080235B0080225200934203D1280000F096F909E0194A116904230B431361012D01D030BF00E020BF134B1B6843229A5C002A08D09A68BD
:4020C000E023D358DB0603D50C481830FFF764FF3000FFF77AFC094B5B68002B09D008210120FFF7B1FD04E002210120FFF7ACFD054C200070BDC04660320010080800083A
:402100004008000800ED00E0FF004200042805D10B4A116804230B4313600FE0094B1A681168A023D358CB180006C022920410401860034A136804218B4313607047C04649
:4021400010E000E040080008F0B54F464646C0B483B006000D0000921F00012B03D95B212B48FFF76DFB330B03D05C212848FFF767FB284B1A686E23D35A9B08013B264A61
:4021800013432A009A4301D16B0003D45D212048FFF756FB32006A40F0231B011A40141E2FD1FFF70EFC01901A4B18686C23C15A83689C4661446E23C35A9A08013A2A4063
:4021C000920090466A22825A15402D0A5D432A00424455182A68920A9202FF231E40009B002B01D00134FF3426437F0280239B001F403E4316432E600198FFF7E6FB002006
:4022000000E0064803B00CBC90469946F0BDC046A032001040080008000F00400100CE000749C02252008B589B009B088020C00503438B508B588020000603438B507047B1
:4022400000002640014B18607047C04640080008002243088B4274D303098B425FD3030A8B4244D3030B8B4228D3030C8B420DD3FF22090212BA030C8B4202D31212090240
:4022800065D0030B8B4219D300E0090AC30B8B4201D3CB03C01A5241830B8B4201D38B03C01A5241430B8B4201D34B03C01A5241030B8B4201D30B03C01A5241C30A8B42ED
:4022C00001D3CB02C01A5241830A8B4201D38B02C01A5241430A8B4201D34B02C01A5241030A8B4201D30B02C01A5241CDD2C3098B4201D3CB01C01A524183098B4201D366
:402300008B01C01A524143098B4201D34B01C01A524103098B4201D30B01C01A5241C3088B4201D3CB00C01A524183088B4201D38B00C01A524143088B4201D34B00C01AFF
:402340005241411A00D20146524110467047FFE701B5002000F006F802BDC0460029F7D076E770477047C046002310B59A4203D0CC5CC4540133F9E710BD0300821893425C
:4023800002D019700133FAE77047030030B5002A0DD00C7801335D1E013A2C700131002CF5D19A189A4202D01C700133FAE730BDF8B5C046F8BC08BC9E467047F8B5C04672
:4023C000F8BC08BC9E46704701B40248844601BC604700BF3103000803000000010000000100000000000000050360000400000001000000000000000100000006046000C5
:4024000008000000C0070008B501001073797374656D5F70736F63365F636D30706C75732E630000F4010000140004010A0009050800000063010000002034407400802022
:4024400034407400002234407400802234407400002434407400802434407400002634407400802634407400002834407400802834407400002A34407400802A3440740068
:4024800000213440A42600109000000000233440342700109000000000253440C42700109000000000273440542800109000000000293440E428001090000000002B3440C8
:4024C000742900109000000000603440042A00107C00000080603440802A00107C00000000613440FC2A00107C00000080613440782B00107C00000000623440F42B001077
:402500007C00000080623440702C00107C00000000633440EC2C00107C00000080633440682D00107C00000000643440E42D00107C00000080643440602E00107C000000C7
:4025400000653440DC2E00107C00000080653440582F00107C00000080018208830C8809890C8A048B038C099105930AA101A302AC01AE0AAF03B004B108B208B302B401ED
:40258000B501B602B704BF41D407D504D710DC04DD04DF04E099E190E30102030A032C022E01300234013E115C0463012810684E6CC6AC6104011501212634400928344054
:4025C0000171344003723440027834400800000000000000000000000060000000000000000000000000000000000000000000000200000000000000000000006000000054
:402600000000000000000000000000000000000000000000030000000000000000000000680000000000000000000000000000001212000000000000070000000000000004
:4026400000000000CC6600BA0000000000000000000000001313030000001D1D600000000000000000000000000066660000000000000000000000000000000000030300D9
:402680007F0000000000000000000000000066060000000000000000000000000000000003030300000000000000000000000000FFFFFFFFFFFFFFFFFFFFFFFFFFFFFFFF36
:4026C000FFFFFFFFFF000000FFFFFFFFFFFFFFFFFFFFFFFFFFFFFFFFFFFFFFFFFF00000000000000000000000000000000000000000000000000F000FFFFFFFFFFFFFFFF0C
:40270000FFFFFFFF1111111111111111111111111111111111111111111111111111111111111111111111111111111111111111111111110000000000000000000000006D
:40274000FFFFFFFFFFFFFFFFFFFFFFFFFFFFFFFFFFFFFFFFFF000000FFFFFFFFFFFFFFFFFFFFFFFFFFFFFFFFFFFFFFFFFF0000000000000000000000000000000000000083
:402780000000000000300000FFFFFFFFFFFFFFFFFFFFFFFF111111111111111111111111111111111111111111111101111111111111111111111111111111111111111119
:4027C00011111111000000000000000000000000FFFFFFFFFFFFFFFFFFFFFFFFFFFFFFFFFFFFFFFFFF000000FFFFFFFFFFFFFFFFFFFFFFFFFFFFFFFFFFFFFFFFFF000000BF
:40280000000000000000000000000000000000007000000000030000FFFFFFFFFFFFFFFFFFFFFFFF1111111111111111111111111111111111111111101111011111111166
:402840001111111111111111111111111111111111111110000000000000000000000000F702FFFFFF1FF77FFF1F2F0FFFFFFFFFFFFFFFFFFF000000FFFFFFFFFFFFFFFF2F
:40288000FFFFFFFFFFFFFFFFFFFFFFFFFF000000000000000000000000000000000000000000000033100302FFFFFFFFFFFFFFFFFFFFFFFF1011911111111311111311119A
:4028C00011111111114129114011114111111111111111111111111111112111111111111A111124010000000000000000000000F0F2FFFFFF1FFFFFFFFFFFFFFFFFFFFFAC
:40290000FFFFFFFFFF000000FFFFFFFFFFFFFFFFFFFFFFFFFFFFFFFFFFFFFFFFFF000000000000000000000000000000000000000F06000000000007FFFFFFFFFFFFFFFF9D
:40294000FFFFFFFF1D11F11111111111111111111111111111111F111311111111111111111111111111111111112111111111111F11111100000000000000000000000011
:40298000FFFFFFFFFFFFFFFFFFFFFFFFFFFFFFFFFFFFFFFFFF000000FFFFFFFFFFFFFFFFFFFFFFFFFFFFFFFFFFFFFFFFFF0000000000000000000000000000000000000041
:4029C0000000000000000000FFFFFFFFFFFFFFFFFFFFFFFF1111111111111111111111111111111111111111111111111111111111111111111111111111111111111111F7
:402A00001111111100000000000000001F1F1F1F1F1F1F1F1F1F1F1F1F1F1F1F1F1F1F1F1F1F1F1F1F1F1F1F1F1F1F1F000000000000000000000000000000000000000072
:402A400000000000FFFFFFFFFFFFFFFFFFFFFFFF1111111511111111111111111111111111111111111111111111111111111111111111111111111111111111111111112E
:402A800000000000000000001F1F1F1F1F1F1F1F1F1F1F1F1F1F1F1F1F1F1F1F1F1F1F1F1F1F1F1F1F1F1F1F00000000000000000000000000000000000000000000000036
:402AC000FFFFFFFFFFFFFFFFFFFFFFFF11111111111111111111111111111111111111111111111111111111111111111111111111111111111111111111111100000000B2
:402B0000000000001F1F1F1F1F1F1F1F1F1F1F1F1F1F1F1F1F1F1F1F1F1F1F1F1F1F1F1F1F1F1F1F000000000000000000000000000000000000000000000000FFFFFFFFB9
:402B4000FFFFFFFFFFFFFFFF11111111111111111111111111111111111111111111111111111111111111111111111111111111111111111111111100000000000000002D
:402B80001F1F1F1F1F1F1F1F1F1F1F1F1F1F1F1F1F1F1F1F1F1F1F1F1F1F1F1F1F1F1F1F000000000000000000000000000000000000000000000000FFFFFFFFFFFFFFFF3D
:402BC000FFFFFFFF11111111111111111111111111111111111111111111111111111111111111111111111111111111111111111111111100000000000000001F1F1F1F2D
:402C00001F1F1F1F1F1F1F1F1F1F1F1F1F0A1F1F1F1F1F1F1F1F1F1F1F1F1F1F000000000000000000000000000000000F00000000000000FFFFFFFFFFFFFFFFFFFFFFFF42
:402C4000111111111111111111111111111111111111111D1111111111111111111111111111111111111111111111111111111100000000000000001F1F1F1F1F1F1F1F20
:402C80001F1F1F1F1F1F1F1F1F1F1F1F1F1F1F1F1F1F1F1F1F1F1F1F000000000000000000000000000000000000000000000000FFFFFFFFFFFFFFFFFFFFFFFF11111111F4
:402CC000111111111111111111111111111111111111111111111111111111111111111111111111111111111111111100000000000000001F1F1F1F1F1F1F1F1F1F1F1F74
:402D00001F1F1F1F1F1F1F1F1F1F1F1F1F1F1F1F1F1F1F1F00000000000000000000000000000000000000000000F000FFFFFFFFFFFFFFFFFFFFFFFF1111111111111111BB
:402D400011111111D1111111111111111111111111111111111111111111111111111111111111111111111100000000000000001F1F1F1F1F0F021F1F000E021F1F1F1F75
:402D80001F1F1F1F1F1F1F1F1F1F1F1F1F1F1F1F000000000000000000000000000000000000000000F00000FFFFFFFFFFFFFFFFFFFFFFFF01111111111111111111111183
:402DC000F11111101011111111111111111111111111111111111111011111111111111D1111111100000000000000001F1F1F1F1F1F1F1F1F1F1F1F1F1F1F1F1F1F1F1F29
:402E00001F1F1F1F1F1F1F1F1F1F1F1F00000000000000000000000000000000F0000000000F0000FFFFFFFFFFFFFFFFFFFFFFFF011111111111111111111111F111111D3F
:402E40001011111111111111111111411111311111111111D1111111111111111111111100000000000000001F1F1F1F1F1F1F1F1F1F1F1F1F1F1F1F120000021214121FC8
:402E80001F1F1F1F1F1F1F1F0000000000000000000000000000000000F00000FFF00F0FFFFFFFFFFFFFFFFFFFFFFFFF01D111111111111111111D11F11D1111D01111116E
:402EC00011D11111111111F11111F11111D1111111111111111111111111111100000000000000001F1F1F1F1F1F1F1F1F1F1F1F1F1F1F1F1F1F1F1F081F041F1F1F1F1F84
:402F00001F1F1F1F00000000000000000000000000000000040F00000000000FFFFFFFFFFFFFFFFFFFFFFFFFD11111111111111111111111111111111D111111111111119B
:402F4000111111F11111F1111111111111111111111111111111111100000000000000001F1F1F1F1F1F1F1F1F1F1F1F1F1F1F1F1F1F1F1F1F1F1F1F1F1F1F1F1F1F1F1F19
:402F8000000000000000000000000000000000000000000000000000FFFFFFFFFFFFFFFFFFFFFFFF1111111111111111111111111111111111111111111111111111111141
:402FC000111111111111111111111111111111111111111147656E6572617465645F536F757263655C50536F43365C70646C5C647269766572732F70657269706865726151
:403000006C2F6970632F63795F6970635F6472762E68000047656E6572617465645F536F757263655C50536F43365C70646C5C647269766572735C70657269706865726179
:403040006C5C6770696F5C63795F6770696F2E630000000047656E6572617465645F536F757263655C50536F43365C70646C5C647269766572735C706572697068657261A9
:403080006C5C6770696F5C63795F6770696F2E680000000047656E6572617465645F536F757263655C50536F43365C70646C5C647269766572735C70657269706865726164
:4030C0006C5C6970635C63795F6970635F6472762E68000047656E6572617465645F536F757263655C50536F43365C70646C5C647269766572735C7065726970686572615F
:403100006C5C6970635C63795F6970635F6472762E63000047656E6572617465645F536F757263655C50536F43365C70646C5C647269766572735C70657269706865726123
:403140006C5C6970635C63795F6970635F706970652E630047656E6572617465645F536F757263655C50536F43365C70646C5C647269766572735C70657269706865726181
:403180006C5C70726F745C63795F70726F742E630000000047656E6572617465645F536F757263655C50536F43365C70646C5C647269766572735C7065726970686572613C
:4031C0006C5C737973636C6B5C63795F737973636C6B2E630000000047656E6572617465645F536F757263655C50536F43365C70646C5C647269766572735C7065726970F4
:40320000686572616C5C737973636C6B5C63795F737973636C6B2E680000000047656E6572617465645F536F757263655C50536F43365C70646C5C647269766572735C70BE
:4032400065726970686572616C5C737973696E745C63795F737973696E742E630000000047656E6572617465645F536F757263655C50536F43365C70646C5C647269766562
:4032800072735C7065726970686572616C5C737973706D5C63795F737973706D2E63000047656E6572617465645F536F757263655C50536F43365C70646C5C64726976654D
:4032C00072735C7065726970686572616C5C747269676D75785C63795F747269676D75782E6300000000204000002440000000400000000000002340000030400000314075
:4033000000009F40000022400000104002020202020202020210101D800017007500FF030602063604102000000000007FC0000000040000000000000019324B647D0080ED
:403340004000080B100000000000FF012002001F00800004FF081018001000140018001C4044484C50000000081000000800000004000000041000000012000004210000C7
:40338000002100000016000040114002C41300138013A013200000001C0000000000214000002540000001400000344000002440000031400000324000001F410000234052
:4033C00000001140010101010101010101101010800019005500F0000501053B04101C01010000000FC000000004000001010101011D3A5778960008200010120800000007
:40340000001F00000010000F002000023F06080E00080009000A000B24282C3034000000100000009000000088000000080000008000000004F0000000F0000040020000F9
:403440002005A000D00100018001A0012000000010000000000000000000001000000008C000000078340010C000000838050000340600081002000000127A0000093D00A4
:4034800000093D0000093D0004000000A00F00000000D007E9000010C10000100000000010B50004400B27D0144B1A68146AB023D15ACA00531AE3181B68002BF4DA3E22B6
:4034C0000F4B1A600F4A104B1A60104B0621A322D20099500E4A98509B58084B1A68106AB023D15ACA00531AC31800225A60084B064AD358002BFADA10BDC046400800086A
:40350000040126401E1F000008012640000026401C05000010B54378FF2B20D100F028FA04000F4B1A683123D35C042B04D8C421FF310C4800F004FA094B1A68116AB02357
:40354000D35A9B00CB18DB685A68116801230B4313601368DB07FCD4200000F0F9F910BD40080008D42F0010F0B585B001900291544B1A683123D35C002B04D1C421FF3127
:40358000514800F0DDF94F4B1B681E6AB4229A58971950229B5C002B77D000F0E1F9050003283CD1474B1A683123D35C062B04D8C421FF31444800F0C3F9424B1968B023DB
:4035C000CB5A5A00D21853000A6A94466344B4228A58D3181B68002B23DB002000F0E0F93A4B98421FD03A4B1A6900230021012000F09EF9002803D0364C17E0013400E017
:403600000024002000F0CCF9304B984202D0324B9C42F3D9304B9C4207D92E4C06E0002404E02C4C02E02B4C00E00024002C46D100F09EF90390294B294AD358002B13DA46
:40364000234A0121300000F0A3F900280ED10298FFF726FF019B002B0AD03B68002BFCDB00F08EF9040004E01A4C02E0194C00E01C4C032D05D10121002000F051F90028FF
:40368000F9D1039800F064F919E000F071F905000F4A0121300000F07BF9002809D1019B002B08D03B68002BFCDB00F069F9040002E0084C00E00B4C280000F049F920006E
:4036C00005B0F0BD40080008D42F001001018800E007000805005200EF4902001C0500000000264001005000F0B54F464646C0B4824B1A685468B0235B055B78002B04D0D9
:40370000B0235B055B78DBB200E02123212B67D1B023D15ACB005B1A116A8C46634419680029F5DADD6802212943D960B023D15ACB005B1A116A8C466344D968C9073ED540
:40374000D9680904090C8C4684271168D559A84641440968090A0904FF26360431400D0088261168894691598846C14449460968090A0906294365462943D9601168D359AB
:40378000C9180A685E4B98461A4090252D012A430A605A4B99461A6813689C46925962441368414619400B002B4313604B461A681568D15969180B689359EB181B684F4B26
:4037C0001A68B021555AEB005B1B156AAC46634400255D60156A515ACA00531AEB185B68484A116904230B431361012801D030BF00E020BF414B1A68B023D15ACB005B1A5C
:40380000116A8C46634419680029F3DAB02149054978002904D0B02149054978C9B200E02121212932D1D968C90722D510688421525880180468324A1440DB681B0C1B024C
:40384000FF2109020B40234303602C4B19688823C8580B689C46604403681A400D6AB023CC5AE1000B1BEB18DB681B0E1B021A430260224B1A68106AB023D15ACA00531A28
:40388000C318DA6802218A43DA6028E086235B00E358002B23D11C4807681C4BA321C9005E581B4A904615681A4A0260062058503E21424611600631174A9950164B134AFB
:4038C000D358002BFADA154A86235B00E2500E4B1F60A323DB000D4AD6500D4B1D60074B1A68106AB023D15ACA00531AC31800225A600CBC90469946F0BDC0464008000884
:40390000FF00FFFF00ED00E00801264000002640040126401E1F00001C050000AAAAAAAA01B40248844601BC604700BF4D0F001001B40248844601BC604700BFBD11001055
:4039400001B40248844601BC604700BF4118001001B40248844601BC604700BFCB19001001B40248844601BC604700BF2D04001001B40248844601BC604700BFC31900100D
:4039800001B40248844601BC604700BFF50B001001B40248844601BC604700BFC10D001001B40248844601BC604700BFD90F0010000000000000000000000000000000005D
:4039C00000000000000000000000000000000000000000000000000000000000000000000000000000000000000000000000000000000000000000000000000000000000C7
:020000041008E2
:4000000000780408EB0208100D0000005103081051030810510308105103081000000000000000000000000000000000116508104D0308100000000001670810696708101C
:400040004D0308104D0308104D0308104D0308104D0308104D0308104D0308104D0308104D0308104D0308104D0308104D0308104D0308104D0308104D0308104D03081000
:400080004D0308104D0308104D0308104D0308104D0308104D0308104D0308104D0308104D0308104D0308104D0308104D0308104D0308104D0308104D0308104D030810C0
:4000C0004D0308104D0308104D0308104D0308104D0308104D0308104D0308104D0308104D0308104D0308104D0308104D0308104D0308104D0308104D0308104D03081080
:400100004D0308104D0308104D0308104D0308104D0308104D0308104D0308104D0308104D0308104D0308104D0308104D0308104D0308104D0308104D0308104D0308103F
:400140004D0308104D0308104D0308104D0308104D0308104D0308104D0308104D0308104D0308104D0308104D0308104D0308104D0308104D0308104D0308104D030810FF
:400180004D0308104D0308104D0308104D0308104D0308104D0308104D0308104D0308104D0308104D0308104D0308104D0308104D0308104D0308104D0308104D030810BF
:4001C0004D0308104D0308104D0308104D0308104D0308104D0308104D0308104D0308104D0308104D0308104D0308104D0308104D0308104D0308104D0308104D0308107F
:400200004D0308104D0308104D0308104D0308104D0308104D0308104D0308104D0308104D0308104D0308104D0308104D0308104D0308104D0308104D0308104D0308103E
:400240004D0308104D0308104D0308104D0308104D0308104D0308104D0308104D0308104D0308104D0308104D0308104D0308104D0308104D0308104D0308104D030810FE
:400280004D0308104D0308104D03081010B5054C237833B9044B13B10448AFF300800123237010BD444C020800000000C4770810084B10B51BB108490848AFF30080084880
:4002C000036803B910BD074B002BFBD0BDE81040184700BF00000000484C0208C477081028430208000000007047FFF7FDFF72B6104C114DAC4209DA21686268A368043B50
:40030000A2BFC858D050FAE70C34F3E70B490C4A00209142BCBF41F8040BFAE709480A490860BFF34F8F00F05DFA00F0B3F800F02BF8FEE7C8770810E0770810444C02080A
:400340006CB902080040020808ED00E0FEE7FEE700B504207146084202D0EFF3098001E0EFF30880043001F0DFFEFEE780B483B000AF786039607B683A689A6000BF0C3714
:40038000BD465DF8047B704780B582B002AF62B600F08AFA00F068FC2C4A00212C4804F02DF901212A48FFF7E1FF00F099FC00F0F3FC00F04DFD00F0A7FD0023019300231C
:4003C0000093244B64222449244804F029FF0023019300230093224B642222491F4804F01FFF00230193002300931F4B64221F491A4804F015FF00230193052300931C4B34
:4004000064221C491C4804F00BFF00230193042300931A4B64221A49174804F001FF0023019303230093174B64221749124804F0F7FE0023019302230093144B64221449B1
:400440000D4804F0EDFE05F0A3F8FEE7C8750810000038408C420208286E08107D09081098420208346E0810A4420208406E0810B04202084C6E0810790C0810C042020817
:400480005C6E0810D04202086C6E0810E04202087C6E081080B500AF0D4801F0FDFE00F01FF800F025F800220021042001F08CF8084801F01DFB084B1B6893F85130002BA3
:4004C00002D0064801F028FB00F086FE00BF80BD98710810604C02086CB802088C6E081080B400AF00BFBD465DF8047B704700BF80B491B000AFAE4BD3F8803303F00F03B2
:400500007B63AB4A7B6BD03352F8233003F007033B633B6B042B36D801A252F823F000BF350508103B0508104105081087050810470508109F4BFB6328E09F4BFB6325E078
:400540009D4BFB6322E09A4A7B6BC03352F8233003F01F03FB62FB6A112B07D0132B09D0102B0BD14FF4FA43FB630BE04FF40043FB6307E04FF40043FB6303E04FF4FA43E6
:40058000FB6300BF02E08C4BFB6300BF7B6B002B60D1874BD3F8903503F00103002B14BF0123002387F82B30814BD3F8883503F040531B0F032B0CBF0123002387F82A3071
:4005C0007B4BD3F8883503F040531B0F002B07D0774BD3F8883503F040531B0F012B01D1012300E0002387F8293097F8293003F0010387F8293097F82930002B03D097F8D8
:400600002B30002B03D197F82A30002B1FD0684BD3F88035C3F311037B62654BD3F88435C3F30C033B62624BD3F8803503F080731B0E0133FB61FA6B3B6AB2FBF3F37A6AA0
:4006400002FB03F2FB69B2FBF3F3BB6360E0FB6BBB635DE07B6B012B58D1554BD3F8403603F00103002B14BF01230023FB76504BD3F8003603F040531B0F032B0CBF012340
:400680000023BB764A4BD3F8003603F040531B0F002B07D0464BD3F8003603F040531B0F012B01D1012300E000237B767B7E03F001037B767B7E002B02D0FB7E002B02D1F8
:4006C000BB7E002B1FD03A4BD3F8003603F07F037B61374BD3F8003603F4F8531B0A3B61334BD3F8003603F4F8131B0CFB60FB6B7A6902FB03F23B69B2FBF3F2FB68B2FBC6
:40070000F3F3BB6304E0FB6BBB6301E0FB6BBB63274BD3F8803303F030031B09BA6B22FA03F3BB63254ABB6B1360254BD3F8903003F47F431B0A0133BB60214B1B6903F046
:400740007F431B0E01337B60BA6B7B68B2FBF3F31C4A1360BA6BBB68B2FBF3F3BB631A4ABB6B1360184B1B68184A1360174B1B6803F5742303F23F23154AA2FB03239B0CC6
:40078000DAB2144B1A70114B1B6803F2E733124AA2FB03239B09114A1360104B1B68DB030F4A136000BF4437BD465DF8047B70470000264000127A0000366E01044302080D
:4007C0000000214008430208004302080C43020883DE1B4314430208D34D6210104302081843020880B582B000AF01F03AFD7860094A094BD3F8883043F47003C2F88830CD
:40080000BFF34F8FBFF36F8F786801F02EFD00BF0837BD4680BD00BF00ED00E080B500AF012001F0F3FA00BF80BD00BF80B483B000AF0346FB80B7F90630002B0BDB0949F1
:40084000B7F906305B09FA8802F01F02012000FA02F241F8232000BF0C37BD465DF8047B704700BF00E100E080B483B000AF78607B681B6843F000427B681A6000BF0C37D6
:40088000BD465DF8047B704780B500AF0249034802F0F6FD00BF80BD20B902080000644080B400AF72B6FEE780B584B000AF174A1749184802F022FBF860FB68002B01D0D9
:4008C000FFF7EEFF144A1549124802F039FCB860BB68124A934201D9FFF7E2FF1049114801F086FB78607B68002B01D0FFF7D8FF0C4BB3F900301846FFF798FF0548FFF7B2
:40090000B3FF00BF1037BD4680BD00BF20B90208B47508100000644015287F00801A0600890808109C6F081080B584B000AFF860B9607A60BB68072B04D940F227310E489B
:4009400001F0DEFB7B68012B04D94FF44A710A4801F0D6FB7B68002B05D10122BB689A40FB685A6004E00122BB689A40FB689A6000BF1037BD4680BDC06E081080B586B036
:4009800000AF78607B683B613B699B68FB600023FB8204F0F3FE0346BB6007F10803F968184604F07BFDFB8A83F00103FB823B6918683B695B68B7F916201946FFF7B4FF26
:4009C000EBE700BF80B483B000AF0346FB80B7F90630002B0BDB0949B7F906305B09FA8802F01F02012000FA02F241F8232000BF0C37BD465DF8047B704700BF00E100E0C9
:400A000080B483B000AF78607B681B6843F000427B681A6000BF0C37BD465DF8047B704780B483B000AF786039603A687B685A6000BF0C37BD465DF8047B704780B483B043
:400A400000AF786039603A687B689A6000BF0C37BD465DF8047B704780B582B000AF786039601B4B1B6893F833301A463B689A4204D840F2FA51174801F042FB144B1B6842
:400A8000B3F85A301A467B681A44114B1B68B3F85C3019463B6803FB01F3134419460C4B1B68B3F85A301A467B681A44084B1B68B3F85C3018463B6803FB00F313441B6817
:400AC00043F000430B6000BF0837BD4680BD00BF6CB80208006F081080B582B000AF786039601A4B1B6893F833301A463B689A4204D840F2B361164801F002FB134B1B68D8
:400B0000B3F85A301A467B681A44104B1B68B3F85C3019463B6803FB01F313441A46012313610A4B1B68B3F85A301A467B681A44064B1B68B3F85C3019463B6803FB01F3DA
:400B400013441B6900BF0837BD4680BD6CB80208006F081080B584B000AFF860B9607A60164B1B6893F833301A46BB689A4204D840F20371124801F0C3FA7B6823F001038F
:400B8000002B04D040F204710D4801F0B9FA0B4B1B68B3F85A301A46FB681A44074B1B68B3F85C301946BB6803FB01F313441A467B68936100BF1037BD4680BD6CB80208E5
:400BC000006F081080B584B000AFF860B9607A60BB68072B04D940F227310E4801F090FA7B68012B04D94FF44A710A4801F088FA7B68002B05D10122BB689A40FB685A60AE
:400C000004E00122BB689A40FB689A6000BF1037BD4680BD3C6F081080B582B000AF78600D4B1A680D4913469B0013449B000B4404331A687B689A4204D84FF47671084829
:400C400001F05EFA7968074801F022FD034618460837BD4680BD00BFD4770208A07508107C6F081000001D4180B500AF05F0EAFF06F020F800BF80BD80B58AB000AF786061
:400C80007B687B627B6A9B683B62144BFB610023BB617B6A1B687B617B6A5B683B617B6A1B7BFB7304F06AFD0346BB6007F10803396A184604F0F2FB012239697869FFF744
:400CC00081FFFB7B43F00403DBB2184606F06AF8002239697869FFF775FFE7E700004C4280B586B000AF2049204803F00DFA78617B69002B01D000F063F91C4B7B600023C7
:400D00003B720323FB6000233B743B1D1A460321174803F0FBFB78617B69002B01D000F04FF914491148FFF77BFE13490F48FFF785FE1249124801F05BF9114BB3F900301B
:400D40001846FFF73FFE012203210948FFF702FF03210748FFF780FE0548FFF751FE00BF1837BD4680BD00BF50760810D87702080000284080011D4164780208850D0810BF
:400D8000C46F081080B500AF03210248FFF7A4FE00BF80BD0000284080B586B000AF2049204803F0B1F978617B69002B01D000F007F91C4B7B6000233B720323FB600023B3
:400DC0003B743B1D1A460221174803F09FFB78617B69002B01D000F0F3F814491148FFF71FFE13490F48FFF729FE1249124801F0FFF8114BB3F900301846FFF7E3FD012224
:400E000002210948FFF7A6FE02210748FFF724FE0548FFF7F5FD00BF1837BD4680BD00BFBC760810F47702080000284080011D416C9802083D0E0810BC6F081080B500AF3A
:400E400002210248FFF748FE00BF80BD0000284080B586B000AF2049204803F055F978617B69002B01D000F0ABF81C4B7B6000233B720323FB6000233B743B1D1A460121AE
:400E8000174803F043FB78617B69002B01D000F097F814491148FFF7C3FD13490F48FFF7CDFD1249124801F0A3F8114BB3F900301846FFF787FD012201210948FFF74AFE66
:400EC00001210748FFF7C8FD0548FFF799FD00BF1837BD4680BD00BF28770810107802080000284080011D416C880208F50E0810B46F081080B500AF01210248FFF7ECFDCD
:400F000000BF80BD0000284080B586B000AF2049204803F0F9F878617B69002B01D000F04FF81C4B7B6000233B720323FB6000233B743B1D1A460021174803F0E7FA786144
:400F40007B69002B01D000F03BF814491148FFF767FD13490F48FFF771FD1249124801F047F8114BB3F900301846FFF72BFD012200210948FFF7EEFD00210748FFF76CFD69
:400F80000548FFF73DFD00BF1837BD4680BD00BF947708102C7802080000284080011D416CA80208AD0F0810AC6F081080B500AF00210248FFF790FD00BF80BD0000284034
:400FC00080B400AF72B6FEE780B500AF054B01221A700020FFF720FE03461A46024B1A8000BF80BDE24D0208E04D020880B483B000AF0346FB80B7F90630002B0BDB0949CD
:40100000B7F906305B09FA8802F01F02012000FA02F241F8232000BF0C37BD465DF8047B704700BF00E100E080B400AF084B1B681A68074B1B68D3F8843013441B6803F0DA
:401040007F431B0EDBB21846BD465DF8047B70476CB8020880B400AF084B1B681A68074B1B68D3F8843013441B6803F47F431B0ADBB21846BD465DF8047B70476CB80208F0
:4010800080B582B000AF78600E4B1B6893F831301A467B689A4204D840F2C3110A4801F02FF8084B1B681A6A064B1B68B3F8B03019467B6803FB01F3134418460837BD462B
:4010C00080BD00BF6CB80208D46F081080B483B000AF78607B68DB6818460C37BD465DF8047B704780B483B000AF7860084B1B68D3F8B4207B6813441B6803F00043DB0FE8
:40110000DBB218460C37BD465DF8047B704700BF6CB8020880B584B000AFF860B9607A607B68002B04D140F29331074800F0E8FF7B681A46B968F86800F09CF903461846B4
:401140001037BD4680BD00BFD46F081080B584B000AF78601C4A7B6813601B4B1B68002B0BD0194B1B6802221A70174B1B68FF225A70154B1B6800225A80144B1B6893F882
:401180005030002B1CD0114B1B68B3F938303B810023FB6007F108030D49184600F028FFB7F908301846FFF721FF084B1B6893F85130002B04D002220649012000F0EAFDF5
:4011C00000BF1037BD4680BDE44D02086CB80208294602082D43020880B500AF0248FFF7B5FF00BF80BD00BF084E020880B485B000AF78607B682E4A93423FD02C4A9342E0
:401200000ED8402B40D0402B04D8002B1FD0102B37D042E0802B3AD0B3F5807F3AD03CE0244A934219D0234A934206D8B3F1204F10D0214A93421DD02FE0204A934213D069
:401240001F4A934213D01F4A93420AD025E00023FB6025E00023FB6022E04FF4A403FB601EE0194BFB601BE0184BFB6018E0184BFB6015E04FF4A003FB6011E00C4BFB60E3
:401280000EE0144BFB600BE0134BFB6008E0134BFB6005E0064BFB6002E0114BFB6000BFFB6818461437BD465DF8047B704700BF06005200010000F0090000A0040000F019
:4012C000050000F0030000F0010052000200520003005200010050000200500005005200FF00520080B582B000AF134B7B600120FFF7C6FE03461846FFF7F4FE034683F04A
:401300000103DBB2002B12D00C4B1B681846FFF76DFF78600A4B1B685B681A460123936000BF074B1B685B689B68002BF9D17B6818460837BD4680BD02005000E84D0208EB
:401340006CB8020880B582B000AF786039603B681B0C1B04002B04D040F2BB21054800F0CFFE3B689AB27B689A6000BF0837BD4680BD00BF1470081080B582B000AF786065
:4013800039603B681B0C1B04002B04D040F2D521054800F0B5FE3B689AB27B685A6000BF0837BD4680BD00BF1470081080B483B000AF786039607B683A68DA6000BF0C3727
:4013C000BD465DF8047B704780B483B000AF78607B68DB6818460C37BD465DF8047B704780B483B000AF7860084B1B68D3F8B4207B6813441B6803F00043DB0FDBB21846F1
:401400000C37BD465DF8047B704700BF6CB8020880B483B000AF78607B681B6803F00043002B01DA002300E0034B18460C37BD465DF8047B704700BF01008A0080B584B02B
:4014400000AF786039607868FFF7CAFF0346002B06D039687868FFF78FFF0023FB6001E0034BFB60FB6818461037BD4680BD00BF01008A0080B586B000AFF860B9607A605F
:40148000F868FFF7C5FF0346002B0AD17968F868FFF78CFFB968F868FFF754FF00237B6101E0034B7B617B6918461837BD4680BD01008A0080B584B000AF786039603B68A5
:4014C000002B03D199210C4800F01AFE7868FFF787FF0346002B08D07868FFF775FF02463B681A600023FB6001E0044BFB60FB6818461037BD4680BD5470081001008A00C8
:4015000080B582B000AF78600E4B1B6893F831301A467B689A4204D840F2C3110A4800F0EFFD084B1B681A6A064B1B68B3F8B03019467B6803FB01F3134418460837BD46E2
:4015400080BD00BF6CB802089470081080B483B000AF78607B68DB6818460C37BD465DF8047B704780B584B000AFF860B9607A607B68002B04D140F29331074800F0C0FDAA
:401580007B681A46B968F868FFF774FF034618461037BD4680BD00BF9470081080B483B000AF78607B681B6803F00043002B01DA002300E0034B18460C37BD465DF8047B9C
:4015C000704700BF01008A0080B586B000AFF860B9607A60144B7B617B68002B0BD1BB68002B08D1F868FFF78BFF02460F4B1A6000237B6113E07B68002B0ED0BB68002B11
:401600000BD00B4ABB681360094A7B6853600849F86800F00FF8786101E0034B7B617B6918461837BD4680BD03018A000C4E0208104E020880B584B000AF78603960284B48
:40164000FB60284B1B6893F831301A467B689A4202D8234BFB603EE03B68002B39D03B681B6803F01F03002B30D17868FFF748FF02461D4B1A603B6858683B681B68DB085C
:401680001A46002105F0A9FB174B1B6800211846FFF7D4FE144B1B683A6800211846FFF761FF0346002B0ED10F4B1B6800211846FFF7C4FE0346002B02D10023FB600AE075
:4016C0000A4BFB6007E0094BFB6004E0044BFB6001E0034BFB60FB6818461037BD4680BD03018A006CB802080C4E020801018A0080B588B000AF78600B46FB700023FB6169
:401700002F4BBB612F4B1B681846FFF71FFF03467B617B691A687B689A4249D97B685B093B613B695B017A68D31A012202FA03F3FB60FB7883F00103DBB2002B02D000F0B2
:4017400090FDF8611F4B1B681846FFF727FF0346002B23D17B695A683B699B0013441A68FB681340002B11D07B695A683B699B0013447A6951683A6992000A441168FA68FE
:40178000D2430A401A600023BB6101E00E4BBB610C4B1B6800211846FFF750FEFB7883F00103DBB2002B05D0F86900F05EFD01E0064BBB61BB6918462037BD4680BD00BFD5
:4017C000030188000C4E02080201880004018A0080B586B000AF7860164B1B681846FFF7B5FE03463B613B691A687B689A421AD97B685B09FB60FB685B017A68D31A0122F2
:4018000002FA03F3BB603B695A68FB689B0013441A68BB681340002B02D0074B7B6104E0064B7B6101E0064B7B617B6918461837BD4680BD0C4E0208010188000001880056
:4018400004018A0080B483B000AF0346FB80B7F90630002B0BDB0949B7F906305B09FA8802F01F02012000FA02F241F8232000BF0C37BD465DF8047B704700BF00E100E03C
:4018800080B582B000AF78600E4B1B6893F831301A467B689A4204D840F2C3110A4800F02FFC084B1B681A6A064B1B68B3F8B03019467B6803FB01F3134418460837BD4620
:4018C00080BD00BF6CB80208D470081080B582B000AF78600C4B1B6893F832301A467B689A4204D840F2DF11084800F009FC064B1B681B6A1A467B6880335B0113441846EB
:401900000837BD4680BD00BF6CB80208D470081080B584B000AFF860B9607A607B681B0C1B04002B04D04FF4FF710C4800F0E8FBBB681B0C1B04002B04D040F2FF11074881
:4019400000F0DEFB7B681A04BB689BB21A43FB689A6000BF1037BD4680BD00BFD470081080B483B000AF78607B68DB6818460C37BD465DF8047B704780B483B000AF7860E1
:401980007B681B6818460C37BD465DF8047B704780B584B000AFF860B9607A607B681B0C1B04002B04D04FF426710D4800F0A8FBBB681B0C1B04002B04D040F299210848A1
:4019C00000F09EFB7B681A04BB689BB21A43FB681A60FB681B6800BF1037BD4680BD00BFD470081080B582B000AF786039603B681B0C1B04002B04D040F2BB21054800F0B2
:401A00007FFB3B689AB27B689A6000BF0837BD4680BD00BFD470081080B483B000AF786039607B683A68DA6000BF0C37BD465DF8047B704780B483B000AF7860084B1B686D
:401A4000D3F8B4207B6813441B6803F00043DB0FDBB218460C37BD465DF8047B704700BF6CB8020880B483B000AF78607B681B0C18460C37BD465DF8047B704780B483B0B3
:401A800000AF78607B689BB218460C37BD465DF8047B704780B582B000AF786039603B68002B04D140F2B631054800F029FB39687868FFF7FFFC034618460837BD4680BD04
:401AC000D470081080B483B000AF78607B681B6803F00043002B01DA002300E0034B18460C37BD465DF8047B704700BF01008A0080B483B000AF7860064B1B68002B02D170
:401B0000044A7B68136000BF0C37BD465DF8047B704700BF184E0208B0B590B002AF78607B68002B03D152212F4800F0E9FA7B689B69072B03D956212B4800F0E1FA7B68E8
:401B4000DB6A002B03D15821274800F0D9FA7B681B6B002B03D15921234800F0D1FA7B6807F11C0403F114050FCD0FC42B6823607B6807F108041D460FCD0FC42B68236092
:401B80001A4B1B68B3F936309AB2FB699BB213449BB21BB23B863B6A7B63B86A7B68D96A7B689A6AFC6A07F130030093234600F01FF87869BA690023009313460022002160
:401BC00000F016F87B681A6B07F130031146184600F00EFAB7F930301846FFF733FE00BF3837BD46B0BD00BF147108106CB8020880B586B000AFF860B9607A603B60254B7A
:401C00001B68002B03D1B521234800F079FA214B1A68FB682C2101FB03F313447B613B68DAB27B691A603B681B0ADAB27B695A603B681A0C7B699A607B691B681846FFF7DA
:401C40001FFE02467B691A617B695B681846FFF73DFE02467B695A617B6958697B6999687B699B681A46FFF753FE7B697A68DA617B69BA681A627B6900229A613B6A002B17
:401C800004D03B6AB3F900207B699A8100BF1837BD4680BD184E02081471081080B58AB000AFF860B9607A603B607B68002B03D1FD21344800F024FA334B1B68002B03D1F7
:401CC000FE21304800F01CFA2F4B1A68FB682C2101FB03F313443B622B4B1A68BB682C2101FB03F31344FB61FB695B68012202FA03F3BB61BB691B04BB613B6A5B68012266
:401D000002FA03F37B613B6A1B69002B32D0FB699B69002B2BD13B6A1B691846FFF7D2FE0346002B20D17B681B689AB27B681A607B681A68BB691A437B681A603B6A1B69C3
:401D40007A6811461846FFF767FEFB6901229A61FB693A685A623B6A1B6979691846FFF741FE00237B6207E0084B7B6204E0074B7B6201E0064B7B627B6A18462837BD46B1
:401D800080BD00BF14710810184E020807028A0004028A0080B586B000AFF860B9607A60174B1B68002B04D14FF4AF71154800F0A7F9134B1A68FB682C2101FB03F3134484
:401DC0003B613B691B6A002B04D14FF4B1710D4800F096F93B69DA697B689A4209D93B691A6A7B689B001344BA681A6000237B6101E0054B7B617B6918461837BD4680BDE7
:401E0000184E0208147108100A028A0080B584B000AF78600B4B1B68002B04D140F2B111094800F06DF9074B1A687B682C2101FB03F31344FB60F86800F008F800BF10379D
:401E4000BD4680BD184E02081471081090B589B000AF78600023FB600023FB617B68002B04D140F2D1114C4800F04AF97B681B69002B04D14FF4E971474800F041F97B68B5
:401E80005B69002B04D140F2D311434800F038F97B681B6A002B04D14FF4EA713E4800F02FF97B685B691846FFF75AFDB861B869FFF7D8FD0346002B3ED07B685C69B86956
:401EC000FFF7D0FD03461A4600212046FFF760FD7B681B691846FFF7ADFD0346002B2BD07B681B6907F10C0211461846FFF7D2FD0346002B1AD1FB681B681B0CFB61FB68B6
:401F00001B68DBB27B617B68DA697B699A420DD97B681A6A7B699B0013441B683B613B69002B03D0FA683B69104698477B681B69F9691846FFF782FAB869FFF79FFD03461B
:401F4000002B1FD07B685C69B869FFF797FD0346002219462046FFF71BFD7B685B6A002B06D07B685B6A98477B6800225A6206E07B689B6A002B02D07B689B6A98477B6850
:401F800000229A617B685B691846FFF7F5FC00BF2437BD4690BD00BF1471081080B483B000AF03463960FB80B7F90630002B0ADB0D49B7F906303A68D2B25201D2B20B4461
:401FC00083F800230AE00949FB8803F00F03043B3A68D2B25201D2B20B441A7600BF0C37BD465DF8047B704700E100E000ED00E080B584B000AF786039600023FB607B685C
:40200000002B1DD07B685B68072B03D93221104800F076F87B68B3F900207B685B6819461046FFF7BBFF0B4B9B680B4A934209D17B68B3F900303968184600F011F801E01C
:40204000064BFB60FB6818461037BD4680BD00BF5471081000ED00E0004002080100560080B584B000AF03463960FB80134B9B68134A934216D13B68002B04D140F2371156
:40208000104800F03DF8B7F9063010330C4A52F82330FB60B7F90630103309493A6841F8232006E0B7F906301033074A52F82330FB60FB6818461037BD4680BD00ED00E026
:4020C00000400208547108100000081080B582B000AF0346FB80FB88054A127802FB03F3184600F0B5F800BF0837BD4680BD00BF1443020880B483B000AF786001BEFEE78D
:4021000080B582B000AF7860396018227968044804F06BFE034A3B6813600020FFF7EAFFB04B0208C84B020880B584B000AF78607B681B68414A13607B685B683F4A53609A
:402140007B689B683D4A93607B68DB683B4AD3607B681B69394A13617B685B69374A53617B689B69354A93617B68DB69334AD361334B9B6A314A1362314BDB6A2F4A536253
:402180002F4B5B6A2D4A93622D4B5B6B2B4AD3622B4B9B6B294A1363F1EE103AFB60FB6803F09003002B43D07B681B6A234A53637B685B6A214A93637B689B6A1F4AD36361
:4021C0007B68DB6A1D4A13647B681B6B1B4A53647B685B6B194A93647B689B6B174AD3647B68DB6B154A13657B681B6C134A53657B685B6C114A93657B689B6C0F4AD365D9
:402200007B68DB6C0D4A13667B681B6D0B4A53667B685B6D094A93667B689B6D074AD3667B68DB6D054A13677B681B6E034A536700F008F800BF1037BD4680BDCC4B020801
:4022400000ED00E080B400AFFEE700BF000000000230800803D001300238FCD100BF00BF7047EFF3108072B6704780F31088704780B400AF4FF0B0535B78DBB2002B04D079
:402280004FF0B0535B78DBB200E021231846BD465DF8047B704700BF80B483B000AF7860044A7B68136000BF0C37BD465DF8047B704700BF6CB8020880B586B000AF7860AC
:4022C00039607B68002B03D13A216A48FFF718FF3B68002B03D13B216648FFF711FF7B68002B02D03B68002B02D1634B7B6148E13B681A68614B1340002B03D04A215D4831
:40230000FFF7FEFE3B685A685D4B1340002B03D04B215848FFF7F4FE3B689B6803F0FC23002B03D04C215348FFF7EAFE3B68DB6803F0FC23002B03D04D214E48FFF7E0FEEF
:402340003B681B7D032B03D94E214A48FFF7D8FE3B689B69B3F5803F03D34F214548FFF7CFFE3B68DB6D072B03D950214148FFF7C7FE3B681B6EB3F5803F03D351213D4899
:40238000FFF7BEFE3B685B6EB3F5803F03D352213848FFF7B5FE3B685B6843F000427B685A603B689A687B681A613B68DA687B685A613B681A697B689A613B681B7D9A0748
:4023C0007B68DA613B689A697B681A623B681B6803F46063B3F5606F0CBF01230023BB743B685B6803F00403002B14BF012300237B740023FB7464E0FB7C3A6806339B00CB
:4024000013445A681F4B1340002B03D063211948FFF776FEFA7CFB7C396806339B000B4459687B68203243F822104FF48053FB60FB7C3A6806339B0013445B6803F00123D6
:40244000002B0CBF01230023FB72FB7A002B1DD0BB7C002B1AD07B7C002B17D0FA7CFB68D90F0B445B105B4219B2074B23F8121011E000BF08730810010006000811DF001C
:4024800001FE302088CA887E70B80208FB7C3F4A002122F81310FB7CFA6842F2107101FB02F23968496F11443A68526F520091FBF2F212B21146364A42F82310FB7C0133E1
:4024C000FB74FB7C0F2B97D93B68DA6D7B68C3F818223B68DA6D7B68C3F810223B681A6E7B68C3F828223B681A6E7B68C3F820223B685A6E7B68C3F838223B685A6E7B6801
:40250000C3F830223B6893F87030002B23D03B689B6EB3F1804F03D382211E48FFF7F0FD3B68DB6E23F44F0323F0FF03002B03D083211848FFF7E4FD7B686FF04042C3F8FF
:4025400004233B689A6E7B68C3F800233B68DA6E7B68C3F844237B68D3F8003F3F2B04D07B68D3F8003F002B03D17B680B22C3F8002F3B681B6843F400127B681A600023D8
:402580007B617B6918461837BD4680BD70B8020890B802080873081080B584B000AF78600B46FB707B68002B03D1B5212848FFF7A7FD7B68002B02D1264BFB6043E07B6836
:4025C00000221A607B6800225A607B684FF003121A617B684FF003125A617B6800229A617B680022DA617B6800221A620023FB7208E0FA7A7B682032002143F82210FB7AF7
:402600000133FB72FB7A0F2BF3D97B680022C3F818227B680022C3F828227B680022C3F83822FB78002B0CD07B686FF04042C3F804237B680022C3F840237B680022C3F85D
:4026400044230023FB60FB6818461037BD4680BD087308100100060080B582B000AF78607B681B68002B0EDB00BF7B68D3F8A032002BFADB7B681B6843F000427B681A60B4
:402680000220FFF723FD00BF0837BD4680BD00BF80B584B000AF786039603B680F2B04D940F27B210A48FFF72BFD0023FB603B680F2B06D87B683A68603253F822309BB22A
:4026C000FB60FB681BB218461037BD4680BD00BF0873081080B483B000AF78607B68D3F8403318460C37BD465DF8047B704700BF80B483B000AF78607B68D3F80833C3F38E
:40270000080318460C37BD465DF8047B704700BF80B483B000AF786039607B683A68C3F8402200BF0C37BD465DF8047B704700BF80B483B000AF78607B68D3F80832C3F39C
:40274000080318460C37BD465DF8047B704700BF80B483B000AF78607B681B6803F40063002B01D0802300E0402318460C37BD465DF8047B704700BF80B483B000AF7860F4
:402780007B68D3F8003303F00F03072B94BF01230023DBB218460C37BD465DF8047B704780B483B000AF78607B68D3F8003203F00F03072B94BF01230023DBB218460C37DE
:4027C000BD465DF8047B704790B589B000AFF860B9607A60F868FFF7CFFF0346002B15D0BB68BB610023FB610BE0BA69FB69D418F868FFF76FFF0346DBB22370FB69013375
:40280000FB61FA697B689A42EFD315E0BB687B610023FB610CE0FB695B007A69D418F868FFF758FF03469BB22380FB690133FB61FA697B689A42EED300BF2437BD4690BD44
:4028400080B586B000AFF860B9607A60F868FFF74FFF78617A697B689A4201D97B687B617A69B968F868FFF7AFFF7B6918461837BD4680BD80B588B000AFF860B9607A60FB
:40288000F868FFF78DFF0346002B14D0BB68BB610023FB610AE0BA69FB6913441B781946F868FFF735FFFB690133FB61FA697B689A42F0D314E0BB687B610023FB610BE0A6
:4028C000FB695B007A6913441B881946F868FFF71FFFFB690133FB61FA697B689A42EFD300BF2037BD4680BD90B587B000AFF860B9607A60F868FFF72BFF0446F868FFF7A5
:4029000017FF0346E31A7B617A697B689A4201D97B687B617A69B968F868FFF7ABFF7B6918461C37BD4690BD80B584B000AFF860B9607A6006E0B968F868FFF7E9FE7B68B1
:40294000013B7B607B68002BF5D100BF1037BD4680BD00BF90B587B000AFF860B9607A60F868FFF7F5FE0446F868FFF7E1FE0346E31A7B617A697B689A4201D97B687B61CC
:402980007A69B968F868FFF7CFFF7B6918461C37BD4690BD80B483B000AF78607B68D3F8403318460C37BD465DF8047B704700BF80B582B000AF78603960786800F01AFAA2
:4029C00002463B689A4204D84FF420710848FFF797FB7B68D3F8043323F0FF023B68DBB21A437B68C3F8042300BF0837BD4680BD4473081080B483B000AF78607B68D3F894
:402A00000833C3F3080318460C37BD465DF8047B704700BF80B483B000AF78607B68D3F8043343F480327B68C3F804237B68D3F8043323F480327B68C3F804237B68D3F80A
:402A4000043300BF0C37BD465DF8047B704700BF80B483B000AF786039607B683A68C3F8402200BF0C37BD465DF8047B704700BF80B483B000AF78607B68D3F80832C3F3CC
:402A8000080318460C37BD465DF8047B704700BF80B483B000AF78607B68D3F8083203F40043DB0B18460C37BD465DF8047B704780B483B000AF78607B68D3F8043243F4EF
:402AC00080327B68C3F804227B68D3F8043223F480327B68C3F804227B68D3F8043200BF0C37BD465DF8047B704700BF80B483B000AF78607B68D3F8003E18460C37BD463E
:402B00005DF8047B704700BF80B582B000AF786039603B6823F4366323F00D03002B04D040F29A310548FFF7EBFA7B683A68C3F8C82F00BF0837BD4680BD00BF4473081027
:402B400080B483B000AF78607B68D3F8CC3F18460C37BD465DF8047B704700BF80B582B000AF786039603B6823F4366323F00D03002B04D040F2E5310648FFF7C1FA7B689A
:402B80003A68C3F8C02F7B68D3F8C03F00BF0837BD4680BD4473081080B582B000AF786039603B6823F4366323F00D03002B04D04FF47F710548FFF7A3FA7B683A68C3F8C0
:402BC000C42F00BF0837BD4680BD00BF4473081080B582B000AF786039603B6823F4EE6323F00303002B04D040F22A410548FFF787FA7B683A68C3F8882F00BF0837BD4613
:402C000080BD00BF4473081080B483B000AF78607B68D3F88C3F18460C37BD465DF8047B704700BF80B582B000AF786039603B6823F4EE6323F00303002B04D040F27741E0
:402C40000648FFF75DFA7B683A68C3F8802F7B68D3F8803F00BF0837BD4680BD4473081080B483B000AF78607B68D3F8002F40F21733134018460C37BD465DF8047B704787
:402C800080B582B000AF786039603B6823F4457323F00303002B04D040F2BC410548FFF72FFA7B683A68C3F8082F00BF0837BD4680BD00BF4473081080B483B000AF786037
:402CC0007B68D3F80C3F18460C37BD465DF8047B704700BF80B582B000AF786039603B6823F4457323F00303002B04D04FF4A0610648FFF705FA7B683A68C3F8002F7B6803
:402D0000D3F8003F00BF0837BD4680BD4473081080B582B000AF786039603B6823F41F6323F00F03002B04D040F246510548FFF7E7F97B683A68C3F8482F00BF0837BD46F1
:402D400080BD00BF4473081080B483B000AF78607B68D3F84C3F18460C37BD465DF8047B704700BF80B582B000AF786039603B6823F41F6323F00F03002B04D040F28B517E
:402D80000648FFF7BDF97B683A68C3F8402F7B68D3F8403F00BF0837BD4680BD4473081080B483B000AF78607B68D3F88C3E18460C37BD465DF8047B704700BF80B582B075
:402DC00000AF786039603B6823F00103002B04D040F213610648FFF793F97B683A68C3F8802E7B68D3F8803E00BF0837BD4680BD4473081080B483B000AF78607B681B68C9
:402E000003F40063002B01D0802300E0402318460C37BD465DF8047B704700BF80B483B000AF78607B681B6823F000427B681A607B6800229A667B680022DA667B681B68B2
:402E400043F000427B681A607B681B6800BF0C37BD465DF8047B704780B483B000AF78607B68D3F80433DBB218460C37BD465DF8047B704780B582B000AF786039603B68D1
:402E8000062B02D93B68102B04D940F283510948FFF736F97B681B6E23F0F0023B68013B1B01DBB21A437B681A6600BF0837BD4680BD00BF8873081080B582B000AF786018
:402EC00039603B68042B02D93B68102B04D94FF4B4610948FFF714F97B681B6E23F00F023B68013B03F00F031A437B681A6600BF0837BD4680BD00BF8873081080B586B076
:402F000000AFF860B9607A60BB681B78012B05D0BB681B7A002B01D0012300E00023FB75FB7D03F00103FB75FB68002B05D0BB68002B02D07B68002B01D17C4BF1E0BB6898
:402F40001B78012B0BD0BB681B78022B07D0BB681B78032B03D04F217548FFF7D1F8BB685B78002B02D0BB685B7900E00023002B03D050216E48FFF7C3F8BB68DB785BB214
:402F8000002B03DA51216A48FFF7BAF8BB681B7903F00103002B03D052216548FFF7B0F8BB681B69102B03D953216148FFF7A8F8BB68DB68102B03D954215D48FFF7A0F83D
:402FC000BB685B79002B02D04FF4803200E00022BB68DB79002B02D04FF4807300E00023134343F40062FB681A60BB689B7983F00103DBB2002B02D04FF4006200E000228E
:40300000BB681B69013B03F00F031A43BB68DB68013B1B01DBB21A43BB681B789B071A43FB681A66FB7D002B02D040F2073201E040F20712FB68C3F80023FB7D002B01D04A
:403040003C4A00E03C4AFB681A67BB685B78002B01D07F2200E00022FB68C3F80423BB68DB785B00DAB2BB681B791B0403F47F031A43FB68C3F81023FB68304AC3F8002292
:40308000BB689B78002B01D0402200E00122FB68C3F80422FB680022C3F8C82EFB680022C3F8882EFB680022C3F8C82FFB680022C3F8882FFB680022C3F8082FBB681B78AE
:4030C000022B02D040F2D11200E00022FB68C3F8482FBB685A787B681A70BB689A787B685A707B684FF080525A607B6800229A607B6800229A617B6800221A627B680022AE
:403100001A647B680022DA637B6800221A637B680022DA627B6800225A647B6800229A64002318461837BD4680BD00BF0120AA00C873081003002A0013102A0007010100D6
:4031400080B58CB000AFF860B9607A607B68002B04D140F212218948FEF7D2FFBB68002B03D0BB68864A934204D940F213218348FEF7C6FF0023FB62FB681B6E03F0404372
:403180009B0F012B10D17968F86800F011F9F862FB68D3F8003323F40072FB68C3F80023FB68784A1A67E3E0012387F82B300823FB610823BB610023FB75BB68002B03D0AF
:4031C000BB686F4A934203D9012387F82B3042E0BB686D4A934213D87B686C4A93423AD97B686B4A934236D841F288337B6241F288333B620023FB75002387F82B302AE09C
:40320000BB68644A934213D87B68634A934222D97B68624A93421ED84FF4C8637B624FF461733B620023FB75002387F82B3012E07B685B4A93420ED97B685A4A93420AD840
:403240004FF41B737B624FF4BE733B620123FB75002387F82B3097F82B3083F00103DBB2002B00F08580504A7B68B2FBF3F33B617A6A3B69B2FBF3F3FB613B69FA6902FBC9
:4032800003F27B6A9A4202D2FB690133FB61FB69102B01D91023FB61FB690F2B94BF01230023BB753A6A3B69B2FBF3F3BB613B69BA6902FB03F23B6A9A4202D2BB690133C3
:4032C000BB61BB69102B01D91023BB61FA69BB6913447A68B2FBF3F3FB621EE0BB7D002B08D0FB690F2B11D8FB690133FB610023BB750BE0BB690F2B08D8BB690133BB61D6
:40330000FB690F2B94BF01230023BB75FA69BB6913447A68B2FBF3F3FB62FA6ABB689A4204D9FA69BB6913441F2BD7D9FB7D002B0BD0FB68D3F8003343F40072FB68C3F8B7
:403340000023FB68194A1A670AE0FB68D3F8003323F40072FB68C3F80023FB68094A1A67F969F868FFF786FDB969F868FFF7A4FDFB6A18463037BD4680BD00BFC8730810C7
:4033800040420F0013102A00A0860100AFA6170000D43000801A0600DF527700809698007F81DA0040AD890100CA9A3B03002A0080B584B000AF786039603B68002B04D159
:4033C00040F2C3212448FEF79BFE0023FB607B681B6E03F040439B0F012B23D13B681F4A934206D93B681E4A934202D81D4BFB602CE03B681C4A934206D93B681B4A9342B0
:4034000002D81B4BFB6021E03B681A4A934206D93B68194A934202D8184BFB6016E00023FB6013E03B68002B10D07B681B6E03F0F0031A097B681B6E03F00F03134402333B
:40344000BB603A68BB68B2FBF3F3FB60FB6818461037BD4680BD00BFC8730810DF52770020AEEA00801A0600AFA617000050C300A0860100FFB2F10040084E0540420F00B0
:4034800080B582B000AF786039603B685B6803F48013002B04D03968786800F047FB03E03968786800F004F800BF0837BD4680BD80B584B000AF786039607868FFF770FC8A
:4034C000034603F00103002B07D03B684FF480525A6001217868FFF771FC7868FFF734FCF860FA6840F201131340002B16D03B681A6AFB6803F48073002B02D04FF48073A2
:4035000000E080231A433B681A6200217868FFF7FBFAFB6843F01003FB6016E0FB6803F01003002B11D07868FFF764FA0346002B0BD03B68DB6B002B07D001217868FFF7CB
:403540002BFB01217868FFF7DFFA7868FFF7F8FA034603F00103002B07D03968786800F019F901217868FFF7F9FAFB6803F01003002B0BD03968786800F044FA10217868AD
:40358000FFF7F0FB7868FFF7DFFBF860FB6803F0C003002B0BD03968786800F01DF801217868FFF70BFCC0217868FFF7DBFB7868FFF72AFB034603F04103002B07D03968D3
:4035C000786800F069F901217868FFF72BFB00BF1037BD4680BD00BF80B588B000AF786039600023FB773B689B6C002B46D00023BB617B681B6803F48033002B0BD0786834
:40360000FFF7A2FB034603F04003002B01D0022300E00023BB617B681B6E03F40063002B0DD17868FFF790FB034603F08003002B01D0012300E00023BA691343BB61BB696D
:40364000002B1BD03B689B6CB86998470346FB7701217868FFF782FAFB7F002B09D110217868FFF77FFB40F2D1117868FFF750FB04E040F2C1117868FFF74AFB7868FFF74D
:4036800017FAFB7F002B01D1012200E002227B68DA66FB7F002B78D17B685B6E03F01003002B14BF01230023FB743B685B6C002B09D03B685B6CFA7C002A01D0012200E098
:4036C000022210469847FB7C002B16D03B6841F202025A603B681B6A43F001023B681A623B685A6B3B681A633B68002283F8242001217868FFF76CFA47E000237B613B68A5
:4037000041F201025A603B681B6A43F010023B681A6201217868FFF7F7F93B681B78002B2FD03B68DB6B002B2BD08023FB607B681B6E43F400527B681A663B68DA6BFB6815
:403740009A4210D93B68DA6BFB68D31A7B617A69FB689A4203D9FB685B08013B01E07B69013B7B610DE03B68DB6B013B7B617B681B6E43F400427B681A6600217868FFF766
:40378000C3F979697868FFF713F900BF2037BD4680BD00BF90B587B000AF786039603B68DB6B002B6DD03B681B78002B50D080233B617868FFF750FB03460133FB603B682B
:4037C0009B6BFA6819467868FFF73AF8F8603B681A6CFB681A443B681A643B68DA6BFB68D21A3B68DA633B689A6BFB681A443B689A633B68DA6B3B699A4210D93B68DA6B3E
